{
	"contracts/SwappableToken.sol": {
		"Dex": {
			"abi": [
				{
					"inputs": [],
					"stateMutability": "nonpayable",
					"type": "constructor"
				},
				{
					"anonymous": false,
					"inputs": [
						{
							"indexed": true,
							"internalType": "address",
							"name": "owner",
							"type": "address"
						},
						{
							"indexed": true,
							"internalType": "address",
							"name": "spender",
							"type": "address"
						},
						{
							"indexed": false,
							"internalType": "uint256",
							"name": "value",
							"type": "uint256"
						},
						{
							"indexed": false,
							"internalType": "address",
							"name": "token",
							"type": "address"
						}
					],
					"name": "ApprovalEvent",
					"type": "event"
				},
				{
					"anonymous": false,
					"inputs": [
						{
							"indexed": false,
							"internalType": "string",
							"name": "message",
							"type": "string"
						},
						{
							"indexed": false,
							"internalType": "uint256",
							"name": "value",
							"type": "uint256"
						}
					],
					"name": "DebugMessage",
					"type": "event"
				},
				{
					"anonymous": false,
					"inputs": [
						{
							"indexed": true,
							"internalType": "address",
							"name": "seller",
							"type": "address"
						},
						{
							"indexed": false,
							"internalType": "uint256",
							"name": "amount",
							"type": "uint256"
						}
					],
					"name": "Sold",
					"type": "event"
				},
				{
					"inputs": [
						{
							"internalType": "address",
							"name": "tokenAddress",
							"type": "address"
						},
						{
							"internalType": "uint256",
							"name": "amount",
							"type": "uint256"
						}
					],
					"name": "addLiquidity",
					"outputs": [],
					"stateMutability": "nonpayable",
					"type": "function"
				},
				{
					"inputs": [
						{
							"internalType": "address",
							"name": "token",
							"type": "address"
						},
						{
							"internalType": "uint256",
							"name": "amount",
							"type": "uint256"
						}
					],
					"name": "approve",
					"outputs": [
						{
							"internalType": "bool",
							"name": "",
							"type": "bool"
						}
					],
					"stateMutability": "nonpayable",
					"type": "function"
				},
				{
					"inputs": [],
					"name": "buy",
					"outputs": [],
					"stateMutability": "payable",
					"type": "function"
				},
				{
					"inputs": [],
					"name": "dexToken",
					"outputs": [
						{
							"internalType": "contract IERC20",
							"name": "",
							"type": "address"
						}
					],
					"stateMutability": "view",
					"type": "function"
				},
				{
					"inputs": [
						{
							"internalType": "address",
							"name": "token",
							"type": "address"
						}
					],
					"name": "getDexBalance",
					"outputs": [
						{
							"internalType": "uint256",
							"name": "",
							"type": "uint256"
						}
					],
					"stateMutability": "view",
					"type": "function"
				},
				{
					"inputs": [],
					"name": "getDexTokenAddress",
					"outputs": [
						{
							"internalType": "address",
							"name": "",
							"type": "address"
						}
					],
					"stateMutability": "view",
					"type": "function"
				},
				{
					"inputs": [
						{
							"internalType": "address",
							"name": "token",
							"type": "address"
						}
					],
					"name": "getOwnerBalance",
					"outputs": [
						{
							"internalType": "uint256",
							"name": "",
							"type": "uint256"
						}
					],
					"stateMutability": "view",
					"type": "function"
				},
				{
					"inputs": [
						{
							"internalType": "address",
							"name": "from",
							"type": "address"
						},
						{
							"internalType": "address",
							"name": "to",
							"type": "address"
						},
						{
							"internalType": "uint256",
							"name": "amount",
							"type": "uint256"
						}
					],
					"name": "getSwapPrice",
					"outputs": [
						{
							"internalType": "uint256",
							"name": "",
							"type": "uint256"
						}
					],
					"stateMutability": "view",
					"type": "function"
				},
				{
					"inputs": [
						{
							"internalType": "uint256",
							"name": "amount",
							"type": "uint256"
						}
					],
					"name": "sell",
					"outputs": [],
					"stateMutability": "nonpayable",
					"type": "function"
				},
				{
					"inputs": [
						{
							"internalType": "address",
							"name": "from",
							"type": "address"
						},
						{
							"internalType": "address",
							"name": "to",
							"type": "address"
						},
						{
							"internalType": "uint256",
							"name": "amount",
							"type": "uint256"
						}
					],
					"name": "swap",
					"outputs": [],
					"stateMutability": "nonpayable",
					"type": "function"
				}
			],
			"devdoc": {
				"kind": "dev",
				"methods": {},
				"version": 1
			},
			"evm": {
				"assembly": "    /* \"contracts/SwappableToken.sol\":4114:6851  contract Dex {... */\n  mstore(0x40, 0x80)\n    /* \"contracts/SwappableToken.sol\":4194:4246  constructor() {... */\n  callvalue\n  dup1\n  iszero\n  tag_1\n  jumpi\n  0x00\n  dup1\n  revert\ntag_1:\n  pop\n    /* \"contracts/SwappableToken.sol\":4229:4239  new DXTK() */\n  mload(0x40)\n  tag_4\n  swap1\n  tag_5\n  jump\t// in\ntag_4:\n  mload(0x40)\n  dup1\n  swap2\n  sub\n  swap1\n  0x00\n  create\n  dup1\n  iszero\n  dup1\n  iszero\n  tag_6\n  jumpi\n  returndatasize\n  0x00\n  dup1\n  returndatacopy\n  revert(0x00, returndatasize)\ntag_6:\n  pop\n    /* \"contracts/SwappableToken.sol\":4218:4226  dexToken */\n  0x00\n  dup1\n    /* \"contracts/SwappableToken.sol\":4218:4239  dexToken = new DXTK() */\n  0x0100\n  exp\n  dup2\n  sload\n  dup2\n  0xffffffffffffffffffffffffffffffffffffffff\n  mul\n  not\n  and\n  swap1\n  dup4\n  0xffffffffffffffffffffffffffffffffffffffff\n  and\n  mul\n  or\n  swap1\n  sstore\n  pop\n    /* \"contracts/SwappableToken.sol\":4114:6851  contract Dex {... */\n  jump(tag_7)\ntag_5:\n  dataSize(sub_1)\n  dup1\n  dataOffset(sub_1)\n  dup4\n  codecopy\n  add\n  swap1\n  jump\t// out\ntag_7:\n  dataSize(sub_0)\n  dup1\n  dataOffset(sub_0)\n  0x00\n  codecopy\n  0x00\n  return\nstop\n\nsub_0: assembly {\n        /* \"contracts/SwappableToken.sol\":4114:6851  contract Dex {... */\n      mstore(0x40, 0x80)\n      jumpi(tag_1, lt(calldatasize, 0x04))\n      shr(0xe0, calldataload(0x00))\n      dup1\n      0x7fcf440a\n      gt\n      tag_12\n      jumpi\n      dup1\n      0x7fcf440a\n      eq\n      tag_7\n      jumpi\n      dup1\n      0xa6f2ae3a\n      eq\n      tag_8\n      jumpi\n      dup1\n      0xbfd7e00d\n      eq\n      tag_9\n      jumpi\n      dup1\n      0xdf791e50\n      eq\n      tag_10\n      jumpi\n      dup1\n      0xe4849b32\n      eq\n      tag_11\n      jumpi\n      jump(tag_1)\n    tag_12:\n      dup1\n      0x095ea7b3\n      eq\n      tag_2\n      jumpi\n      dup1\n      0x16cfc4c1\n      eq\n      tag_3\n      jumpi\n      dup1\n      0x200c43c9\n      eq\n      tag_4\n      jumpi\n      dup1\n      0x56688700\n      eq\n      tag_5\n      jumpi\n      dup1\n      0x5700d9ff\n      eq\n      tag_6\n      jumpi\n    tag_1:\n      0x00\n      dup1\n      revert\n        /* \"contracts/SwappableToken.sol\":6000:6256  function approve(address token, uint256 amount) public returns (bool) {... */\n    tag_2:\n      callvalue\n      dup1\n      iszero\n      tag_13\n      jumpi\n      0x00\n      dup1\n      revert\n    tag_13:\n      pop\n      tag_14\n      0x04\n      dup1\n      calldatasize\n      sub\n      dup2\n      add\n      swap1\n      tag_15\n      swap2\n      swap1\n      tag_16\n      jump\t// in\n    tag_15:\n      tag_17\n      jump\t// in\n    tag_14:\n      mload(0x40)\n      tag_18\n      swap2\n      swap1\n      tag_19\n      jump\t// in\n    tag_18:\n      mload(0x40)\n      dup1\n      swap2\n      sub\n      swap1\n      return\n        /* \"contracts/SwappableToken.sol\":4165:4187  IERC20 public dexToken */\n    tag_3:\n      callvalue\n      dup1\n      iszero\n      tag_20\n      jumpi\n      0x00\n      dup1\n      revert\n    tag_20:\n      pop\n      tag_21\n      tag_22\n      jump\t// in\n    tag_21:\n      mload(0x40)\n      tag_23\n      swap2\n      swap1\n      tag_24\n      jump\t// in\n    tag_23:\n      mload(0x40)\n      dup1\n      swap2\n      sub\n      swap1\n      return\n        /* \"contracts/SwappableToken.sol\":6262:6363  function getDexTokenAddress() public view returns (address) {... */\n    tag_4:\n      callvalue\n      dup1\n      iszero\n      tag_25\n      jumpi\n      0x00\n      dup1\n      revert\n    tag_25:\n      pop\n      tag_26\n      tag_27\n      jump\t// in\n    tag_26:\n      mload(0x40)\n      tag_28\n      swap2\n      swap1\n      tag_29\n      jump\t// in\n    tag_28:\n      mload(0x40)\n      dup1\n      swap2\n      sub\n      swap1\n      return\n        /* \"contracts/SwappableToken.sol\":5550:5702  function addLiquidity(address tokenAddress, uint256 amount) public {... */\n    tag_5:\n      callvalue\n      dup1\n      iszero\n      tag_30\n      jumpi\n      0x00\n      dup1\n      revert\n    tag_30:\n      pop\n      tag_31\n      0x04\n      dup1\n      calldatasize\n      sub\n      dup2\n      add\n      swap1\n      tag_32\n      swap2\n      swap1\n      tag_16\n      jump\t// in\n    tag_32:\n      tag_33\n      jump\t// in\n    tag_31:\n      stop\n        /* \"contracts/SwappableToken.sol\":6369:6499  function getDexBalance(address token) public view returns (uint256) {... */\n    tag_6:\n      callvalue\n      dup1\n      iszero\n      tag_34\n      jumpi\n      0x00\n      dup1\n      revert\n    tag_34:\n      pop\n      tag_35\n      0x04\n      dup1\n      calldatasize\n      sub\n      dup2\n      add\n      swap1\n      tag_36\n      swap2\n      swap1\n      tag_37\n      jump\t// in\n    tag_36:\n      tag_38\n      jump\t// in\n    tag_35:\n      mload(0x40)\n      tag_39\n      swap2\n      swap1\n      tag_40\n      jump\t// in\n    tag_39:\n      mload(0x40)\n      dup1\n      swap2\n      sub\n      swap1\n      return\n        /* \"contracts/SwappableToken.sol\":6505:6634  function getOwnerBalance(address token) public view returns (uint256) {... */\n    tag_7:\n      callvalue\n      dup1\n      iszero\n      tag_41\n      jumpi\n      0x00\n      dup1\n      revert\n    tag_41:\n      pop\n      tag_42\n      0x04\n      dup1\n      calldatasize\n      sub\n      dup2\n      add\n      swap1\n      tag_43\n      swap2\n      swap1\n      tag_37\n      jump\t// in\n    tag_43:\n      tag_44\n      jump\t// in\n    tag_42:\n      mload(0x40)\n      tag_45\n      swap2\n      swap1\n      tag_40\n      jump\t// in\n    tag_45:\n      mload(0x40)\n      dup1\n      swap2\n      sub\n      swap1\n      return\n        /* \"contracts/SwappableToken.sol\":4252:4614  function buy() payable public {... */\n    tag_8:\n      tag_46\n      tag_47\n      jump\t// in\n    tag_46:\n      stop\n        /* \"contracts/SwappableToken.sol\":5708:5994  function getSwapPrice(address from, address to, uint256 amount) public view returns (uint256) {... */\n    tag_9:\n      callvalue\n      dup1\n      iszero\n      tag_48\n      jumpi\n      0x00\n      dup1\n      revert\n    tag_48:\n      pop\n      tag_49\n      0x04\n      dup1\n      calldatasize\n      sub\n      dup2\n      add\n      swap1\n      tag_50\n      swap2\n      swap1\n      tag_51\n      jump\t// in\n    tag_50:\n      tag_52\n      jump\t// in\n    tag_49:\n      mload(0x40)\n      tag_53\n      swap2\n      swap1\n      tag_40\n      jump\t// in\n    tag_53:\n      mload(0x40)\n      dup1\n      swap2\n      sub\n      swap1\n      return\n        /* \"contracts/SwappableToken.sol\":5198:5544  function swap(address from, address to, uint256 amount) public {... */\n    tag_10:\n      callvalue\n      dup1\n      iszero\n      tag_54\n      jumpi\n      0x00\n      dup1\n      revert\n    tag_54:\n      pop\n      tag_55\n      0x04\n      dup1\n      calldatasize\n      sub\n      dup2\n      add\n      swap1\n      tag_56\n      swap2\n      swap1\n      tag_51\n      jump\t// in\n    tag_56:\n      tag_57\n      jump\t// in\n    tag_55:\n      stop\n        /* \"contracts/SwappableToken.sol\":4620:5192  function sell(uint256 amount) public {... */\n    tag_11:\n      callvalue\n      dup1\n      iszero\n      tag_58\n      jumpi\n      0x00\n      dup1\n      revert\n    tag_58:\n      pop\n      tag_59\n      0x04\n      dup1\n      calldatasize\n      sub\n      dup2\n      add\n      swap1\n      tag_60\n      swap2\n      swap1\n      tag_61\n      jump\t// in\n    tag_60:\n      tag_62\n      jump\t// in\n    tag_59:\n      stop\n        /* \"contracts/SwappableToken.sol\":6000:6256  function approve(address token, uint256 amount) public returns (bool) {... */\n    tag_17:\n        /* \"contracts/SwappableToken.sol\":6064:6068  bool */\n      0x00\n        /* \"contracts/SwappableToken.sol\":6080:6094  bool isApprove */\n      dup1\n        /* \"contracts/SwappableToken.sol\":6104:6109  token */\n      dup4\n        /* \"contracts/SwappableToken.sol\":6097:6118  IERC20(token).approve */\n      0xffffffffffffffffffffffffffffffffffffffff\n      and\n      0xe1f21c67\n        /* \"contracts/SwappableToken.sol\":6119:6129  msg.sender */\n      caller\n        /* \"contracts/SwappableToken.sol\":6139:6143  this */\n      address\n        /* \"contracts/SwappableToken.sol\":6146:6152  amount */\n      dup7\n        /* \"contracts/SwappableToken.sol\":6097:6153  IERC20(token).approve(msg.sender, address(this), amount) */\n      mload(0x40)\n      dup5\n      0xffffffff\n      and\n      0xe0\n      shl\n      dup2\n      mstore\n      0x04\n      add\n      tag_64\n      swap4\n      swap3\n      swap2\n      swap1\n      tag_65\n      jump\t// in\n    tag_64:\n      0x20\n      mload(0x40)\n      dup1\n      dup4\n      sub\n      dup2\n      0x00\n      dup8\n      gas\n      call\n      iszero\n      dup1\n      iszero\n      tag_67\n      jumpi\n      returndatasize\n      0x00\n      dup1\n      returndatacopy\n      revert(0x00, returndatasize)\n    tag_67:\n      pop\n      pop\n      pop\n      pop\n      mload(0x40)\n      returndatasize\n      not(0x1f)\n      0x1f\n      dup3\n      add\n      and\n      dup3\n      add\n      dup1\n      0x40\n      mstore\n      pop\n      dup2\n      add\n      swap1\n      tag_68\n      swap2\n      swap1\n      tag_69\n      jump\t// in\n    tag_68:\n        /* \"contracts/SwappableToken.sol\":6080:6153  bool isApprove = IERC20(token).approve(msg.sender, address(this), amount) */\n      swap1\n      pop\n        /* \"contracts/SwappableToken.sol\":6202:6206  this */\n      address\n        /* \"contracts/SwappableToken.sol\":6168:6223  ApprovalEvent(msg.sender, address(this), amount, token) */\n      0xffffffffffffffffffffffffffffffffffffffff\n      and\n        /* \"contracts/SwappableToken.sol\":6182:6192  msg.sender */\n      caller\n        /* \"contracts/SwappableToken.sol\":6168:6223  ApprovalEvent(msg.sender, address(this), amount, token) */\n      0xffffffffffffffffffffffffffffffffffffffff\n      and\n      0x433f45cbfc6bd26ad2811ae0cf59ed4361e4e2468d9494e7aa021d4f400f0f24\n        /* \"contracts/SwappableToken.sol\":6209:6215  amount */\n      dup6\n        /* \"contracts/SwappableToken.sol\":6217:6222  token */\n      dup8\n        /* \"contracts/SwappableToken.sol\":6168:6223  ApprovalEvent(msg.sender, address(this), amount, token) */\n      mload(0x40)\n      tag_70\n      swap3\n      swap2\n      swap1\n      tag_71\n      jump\t// in\n    tag_70:\n      mload(0x40)\n      dup1\n      swap2\n      sub\n      swap1\n      log3\n        /* \"contracts/SwappableToken.sol\":6240:6249  isApprove */\n      dup1\n        /* \"contracts/SwappableToken.sol\":6233:6249  return isApprove */\n      swap2\n      pop\n      pop\n        /* \"contracts/SwappableToken.sol\":6000:6256  function approve(address token, uint256 amount) public returns (bool) {... */\n      swap3\n      swap2\n      pop\n      pop\n      jump\t// out\n        /* \"contracts/SwappableToken.sol\":4165:4187  IERC20 public dexToken */\n    tag_22:\n      0x00\n      dup1\n      sload\n      swap1\n      0x0100\n      exp\n      swap1\n      div\n      0xffffffffffffffffffffffffffffffffffffffff\n      and\n      dup2\n      jump\t// out\n        /* \"contracts/SwappableToken.sol\":6262:6363  function getDexTokenAddress() public view returns (address) {... */\n    tag_27:\n        /* \"contracts/SwappableToken.sol\":6313:6320  address */\n      0x00\n        /* \"contracts/SwappableToken.sol\":6347:6355  dexToken */\n      dup1\n      0x00\n      swap1\n      sload\n      swap1\n      0x0100\n      exp\n      swap1\n      div\n      0xffffffffffffffffffffffffffffffffffffffff\n      and\n        /* \"contracts/SwappableToken.sol\":6332:6356  return address(dexToken) */\n      swap1\n      pop\n        /* \"contracts/SwappableToken.sol\":6262:6363  function getDexTokenAddress() public view returns (address) {... */\n      swap1\n      jump\t// out\n        /* \"contracts/SwappableToken.sol\":5550:5702  function addLiquidity(address tokenAddress, uint256 amount) public {... */\n    tag_33:\n        /* \"contracts/SwappableToken.sol\":5634:5646  tokenAddress */\n      dup2\n        /* \"contracts/SwappableToken.sol\":5627:5660  IERC20(tokenAddress).transferFrom */\n      0xffffffffffffffffffffffffffffffffffffffff\n      and\n      0x23b872dd\n        /* \"contracts/SwappableToken.sol\":5661:5671  msg.sender */\n      caller\n        /* \"contracts/SwappableToken.sol\":5681:5685  this */\n      address\n        /* \"contracts/SwappableToken.sol\":5688:5694  amount */\n      dup5\n        /* \"contracts/SwappableToken.sol\":5627:5695  IERC20(tokenAddress).transferFrom(msg.sender, address(this), amount) */\n      mload(0x40)\n      dup5\n      0xffffffff\n      and\n      0xe0\n      shl\n      dup2\n      mstore\n      0x04\n      add\n      tag_74\n      swap4\n      swap3\n      swap2\n      swap1\n      tag_65\n      jump\t// in\n    tag_74:\n      0x20\n      mload(0x40)\n      dup1\n      dup4\n      sub\n      dup2\n      0x00\n      dup8\n      gas\n      call\n      iszero\n      dup1\n      iszero\n      tag_76\n      jumpi\n      returndatasize\n      0x00\n      dup1\n      returndatacopy\n      revert(0x00, returndatasize)\n    tag_76:\n      pop\n      pop\n      pop\n      pop\n      mload(0x40)\n      returndatasize\n      not(0x1f)\n      0x1f\n      dup3\n      add\n      and\n      dup3\n      add\n      dup1\n      0x40\n      mstore\n      pop\n      dup2\n      add\n      swap1\n      tag_77\n      swap2\n      swap1\n      tag_69\n      jump\t// in\n    tag_77:\n      pop\n        /* \"contracts/SwappableToken.sol\":5550:5702  function addLiquidity(address tokenAddress, uint256 amount) public {... */\n      pop\n      pop\n      jump\t// out\n        /* \"contracts/SwappableToken.sol\":6369:6499  function getDexBalance(address token) public view returns (uint256) {... */\n    tag_38:\n        /* \"contracts/SwappableToken.sol\":6428:6435  uint256 */\n      0x00\n        /* \"contracts/SwappableToken.sol\":6461:6466  token */\n      dup2\n        /* \"contracts/SwappableToken.sol\":6454:6477  IERC20(token).balanceOf */\n      0xffffffffffffffffffffffffffffffffffffffff\n      and\n      0x70a08231\n        /* \"contracts/SwappableToken.sol\":6486:6490  this */\n      address\n        /* \"contracts/SwappableToken.sol\":6454:6492  IERC20(token).balanceOf(address(this)) */\n      mload(0x40)\n      dup3\n      0xffffffff\n      and\n      0xe0\n      shl\n      dup2\n      mstore\n      0x04\n      add\n      tag_79\n      swap2\n      swap1\n      tag_29\n      jump\t// in\n    tag_79:\n      0x20\n      mload(0x40)\n      dup1\n      dup4\n      sub\n      dup2\n      dup7\n      gas\n      staticcall\n      iszero\n      dup1\n      iszero\n      tag_81\n      jumpi\n      returndatasize\n      0x00\n      dup1\n      returndatacopy\n      revert(0x00, returndatasize)\n    tag_81:\n      pop\n      pop\n      pop\n      pop\n      mload(0x40)\n      returndatasize\n      not(0x1f)\n      0x1f\n      dup3\n      add\n      and\n      dup3\n      add\n      dup1\n      0x40\n      mstore\n      pop\n      dup2\n      add\n      swap1\n      tag_82\n      swap2\n      swap1\n      tag_83\n      jump\t// in\n    tag_82:\n        /* \"contracts/SwappableToken.sol\":6447:6492  return IERC20(token).balanceOf(address(this)) */\n      swap1\n      pop\n        /* \"contracts/SwappableToken.sol\":6369:6499  function getDexBalance(address token) public view returns (uint256) {... */\n      swap2\n      swap1\n      pop\n      jump\t// out\n        /* \"contracts/SwappableToken.sol\":6505:6634  function getOwnerBalance(address token) public view returns (uint256) {... */\n    tag_44:\n        /* \"contracts/SwappableToken.sol\":6566:6573  uint256 */\n      0x00\n        /* \"contracts/SwappableToken.sol\":6599:6604  token */\n      dup2\n        /* \"contracts/SwappableToken.sol\":6592:6615  IERC20(token).balanceOf */\n      0xffffffffffffffffffffffffffffffffffffffff\n      and\n      0x70a08231\n        /* \"contracts/SwappableToken.sol\":6616:6626  msg.sender */\n      caller\n        /* \"contracts/SwappableToken.sol\":6592:6627  IERC20(token).balanceOf(msg.sender) */\n      mload(0x40)\n      dup3\n      0xffffffff\n      and\n      0xe0\n      shl\n      dup2\n      mstore\n      0x04\n      add\n      tag_85\n      swap2\n      swap1\n      tag_29\n      jump\t// in\n    tag_85:\n      0x20\n      mload(0x40)\n      dup1\n      dup4\n      sub\n      dup2\n      dup7\n      gas\n      staticcall\n      iszero\n      dup1\n      iszero\n      tag_87\n      jumpi\n      returndatasize\n      0x00\n      dup1\n      returndatacopy\n      revert(0x00, returndatasize)\n    tag_87:\n      pop\n      pop\n      pop\n      pop\n      mload(0x40)\n      returndatasize\n      not(0x1f)\n      0x1f\n      dup3\n      add\n      and\n      dup3\n      add\n      dup1\n      0x40\n      mstore\n      pop\n      dup2\n      add\n      swap1\n      tag_88\n      swap2\n      swap1\n      tag_83\n      jump\t// in\n    tag_88:\n        /* \"contracts/SwappableToken.sol\":6585:6627  return IERC20(token).balanceOf(msg.sender) */\n      swap1\n      pop\n        /* \"contracts/SwappableToken.sol\":6505:6634  function getOwnerBalance(address token) public view returns (uint256) {... */\n      swap2\n      swap1\n      pop\n      jump\t// out\n        /* \"contracts/SwappableToken.sol\":4252:4614  function buy() payable public {... */\n    tag_47:\n        /* \"contracts/SwappableToken.sol\":4292:4309  uint256 buyAmount */\n      0x00\n        /* \"contracts/SwappableToken.sol\":4312:4321  msg.value */\n      callvalue\n        /* \"contracts/SwappableToken.sol\":4292:4321  uint256 buyAmount = msg.value */\n      swap1\n      pop\n        /* \"contracts/SwappableToken.sol\":4331:4349  uint256 dexBalance */\n      0x00\n        /* \"contracts/SwappableToken.sol\":4352:4360  dexToken */\n      dup1\n      0x00\n      swap1\n      sload\n      swap1\n      0x0100\n      exp\n      swap1\n      div\n      0xffffffffffffffffffffffffffffffffffffffff\n      and\n        /* \"contracts/SwappableToken.sol\":4352:4370  dexToken.balanceOf */\n      0xffffffffffffffffffffffffffffffffffffffff\n      and\n      0x70a08231\n        /* \"contracts/SwappableToken.sol\":4379:4383  this */\n      address\n        /* \"contracts/SwappableToken.sol\":4352:4385  dexToken.balanceOf(address(this)) */\n      mload(0x40)\n      dup3\n      0xffffffff\n      and\n      0xe0\n      shl\n      dup2\n      mstore\n      0x04\n      add\n      tag_90\n      swap2\n      swap1\n      tag_29\n      jump\t// in\n    tag_90:\n      0x20\n      mload(0x40)\n      dup1\n      dup4\n      sub\n      dup2\n      dup7\n      gas\n      staticcall\n      iszero\n      dup1\n      iszero\n      tag_92\n      jumpi\n      returndatasize\n      0x00\n      dup1\n      returndatacopy\n      revert(0x00, returndatasize)\n    tag_92:\n      pop\n      pop\n      pop\n      pop\n      mload(0x40)\n      returndatasize\n      not(0x1f)\n      0x1f\n      dup3\n      add\n      and\n      dup3\n      add\n      dup1\n      0x40\n      mstore\n      pop\n      dup2\n      add\n      swap1\n      tag_93\n      swap2\n      swap1\n      tag_83\n      jump\t// in\n    tag_93:\n        /* \"contracts/SwappableToken.sol\":4331:4385  uint256 dexBalance = dexToken.balanceOf(address(this)) */\n      swap1\n      pop\n        /* \"contracts/SwappableToken.sol\":4416:4426  dexBalance */\n      dup1\n        /* \"contracts/SwappableToken.sol\":4403:4412  buyAmount */\n      dup3\n        /* \"contracts/SwappableToken.sol\":4403:4426  buyAmount <= dexBalance */\n      gt\n      iszero\n        /* \"contracts/SwappableToken.sol\":4395:4491  require(buyAmount <= dexBalance, \"The purchase amount exceeds the amount available in reserve.\") */\n      tag_94\n      jumpi\n      mload(0x40)\n      0x08c379a000000000000000000000000000000000000000000000000000000000\n      dup2\n      mstore\n      0x04\n      add\n      tag_95\n      swap1\n      tag_96\n      jump\t// in\n    tag_95:\n      mload(0x40)\n      dup1\n      swap2\n      sub\n      swap1\n      revert\n    tag_94:\n        /* \"contracts/SwappableToken.sol\":4521:4522  0 */\n      0x00\n        /* \"contracts/SwappableToken.sol\":4509:4518  buyAmount */\n      dup3\n        /* \"contracts/SwappableToken.sol\":4509:4522  buyAmount > 0 */\n      gt\n        /* \"contracts/SwappableToken.sol\":4501:4557  require(buyAmount > 0, \"Please spend some MATIC to buy\") */\n      tag_97\n      jumpi\n      mload(0x40)\n      0x08c379a000000000000000000000000000000000000000000000000000000000\n      dup2\n      mstore\n      0x04\n      add\n      tag_98\n      swap1\n      tag_99\n      jump\t// in\n    tag_98:\n      mload(0x40)\n      dup1\n      swap2\n      sub\n      swap1\n      revert\n    tag_97:\n        /* \"contracts/SwappableToken.sol\":4567:4575  dexToken */\n      0x00\n      dup1\n      sload\n      swap1\n      0x0100\n      exp\n      swap1\n      div\n      0xffffffffffffffffffffffffffffffffffffffff\n      and\n        /* \"contracts/SwappableToken.sol\":4567:4584  dexToken.transfer */\n      0xffffffffffffffffffffffffffffffffffffffff\n      and\n      0xa9059cbb\n        /* \"contracts/SwappableToken.sol\":4585:4595  msg.sender */\n      caller\n        /* \"contracts/SwappableToken.sol\":4597:4606  buyAmount */\n      dup5\n        /* \"contracts/SwappableToken.sol\":4567:4607  dexToken.transfer(msg.sender, buyAmount) */\n      mload(0x40)\n      dup4\n      0xffffffff\n      and\n      0xe0\n      shl\n      dup2\n      mstore\n      0x04\n      add\n      tag_100\n      swap3\n      swap2\n      swap1\n      tag_101\n      jump\t// in\n    tag_100:\n      0x20\n      mload(0x40)\n      dup1\n      dup4\n      sub\n      dup2\n      0x00\n      dup8\n      gas\n      call\n      iszero\n      dup1\n      iszero\n      tag_103\n      jumpi\n      returndatasize\n      0x00\n      dup1\n      returndatacopy\n      revert(0x00, returndatasize)\n    tag_103:\n      pop\n      pop\n      pop\n      pop\n      mload(0x40)\n      returndatasize\n      not(0x1f)\n      0x1f\n      dup3\n      add\n      and\n      dup3\n      add\n      dup1\n      0x40\n      mstore\n      pop\n      dup2\n      add\n      swap1\n      tag_104\n      swap2\n      swap1\n      tag_69\n      jump\t// in\n    tag_104:\n      pop\n        /* \"contracts/SwappableToken.sol\":4282:4614  {... */\n      pop\n      pop\n        /* \"contracts/SwappableToken.sol\":4252:4614  function buy() payable public {... */\n      jump\t// out\n        /* \"contracts/SwappableToken.sol\":5708:5994  function getSwapPrice(address from, address to, uint256 amount) public view returns (uint256) {... */\n    tag_52:\n        /* \"contracts/SwappableToken.sol\":5793:5800  uint256 */\n      0x00\n        /* \"contracts/SwappableToken.sol\":5812:5831  uint256 fromBalance */\n      dup1\n        /* \"contracts/SwappableToken.sol\":5841:5845  from */\n      dup5\n        /* \"contracts/SwappableToken.sol\":5834:5856  IERC20(from).balanceOf */\n      0xffffffffffffffffffffffffffffffffffffffff\n      and\n      0x70a08231\n        /* \"contracts/SwappableToken.sol\":5865:5869  this */\n      address\n        /* \"contracts/SwappableToken.sol\":5834:5871  IERC20(from).balanceOf(address(this)) */\n      mload(0x40)\n      dup3\n      0xffffffff\n      and\n      0xe0\n      shl\n      dup2\n      mstore\n      0x04\n      add\n      tag_106\n      swap2\n      swap1\n      tag_29\n      jump\t// in\n    tag_106:\n      0x20\n      mload(0x40)\n      dup1\n      dup4\n      sub\n      dup2\n      dup7\n      gas\n      staticcall\n      iszero\n      dup1\n      iszero\n      tag_108\n      jumpi\n      returndatasize\n      0x00\n      dup1\n      returndatacopy\n      revert(0x00, returndatasize)\n    tag_108:\n      pop\n      pop\n      pop\n      pop\n      mload(0x40)\n      returndatasize\n      not(0x1f)\n      0x1f\n      dup3\n      add\n      and\n      dup3\n      add\n      dup1\n      0x40\n      mstore\n      pop\n      dup2\n      add\n      swap1\n      tag_109\n      swap2\n      swap1\n      tag_83\n      jump\t// in\n    tag_109:\n        /* \"contracts/SwappableToken.sol\":5812:5871  uint256 fromBalance = IERC20(from).balanceOf(address(this)) */\n      swap1\n      pop\n        /* \"contracts/SwappableToken.sol\":5881:5898  uint256 toBalance */\n      0x00\n        /* \"contracts/SwappableToken.sol\":5908:5910  to */\n      dup5\n        /* \"contracts/SwappableToken.sol\":5901:5921  IERC20(to).balanceOf */\n      0xffffffffffffffffffffffffffffffffffffffff\n      and\n      0x70a08231\n        /* \"contracts/SwappableToken.sol\":5930:5934  this */\n      address\n        /* \"contracts/SwappableToken.sol\":5901:5936  IERC20(to).balanceOf(address(this)) */\n      mload(0x40)\n      dup3\n      0xffffffff\n      and\n      0xe0\n      shl\n      dup2\n      mstore\n      0x04\n      add\n      tag_110\n      swap2\n      swap1\n      tag_29\n      jump\t// in\n    tag_110:\n      0x20\n      mload(0x40)\n      dup1\n      dup4\n      sub\n      dup2\n      dup7\n      gas\n      staticcall\n      iszero\n      dup1\n      iszero\n      tag_112\n      jumpi\n      returndatasize\n      0x00\n      dup1\n      returndatacopy\n      revert(0x00, returndatasize)\n    tag_112:\n      pop\n      pop\n      pop\n      pop\n      mload(0x40)\n      returndatasize\n      not(0x1f)\n      0x1f\n      dup3\n      add\n      and\n      dup3\n      add\n      dup1\n      0x40\n      mstore\n      pop\n      dup2\n      add\n      swap1\n      tag_113\n      swap2\n      swap1\n      tag_83\n      jump\t// in\n    tag_113:\n        /* \"contracts/SwappableToken.sol\":5881:5936  uint256 toBalance = IERC20(to).balanceOf(address(this)) */\n      swap1\n      pop\n        /* \"contracts/SwappableToken.sol\":5976:5987  fromBalance */\n      dup2\n        /* \"contracts/SwappableToken.sol\":5963:5972  toBalance */\n      dup2\n        /* \"contracts/SwappableToken.sol\":5954:5960  amount */\n      dup6\n        /* \"contracts/SwappableToken.sol\":5954:5972  amount * toBalance */\n      tag_114\n      swap2\n      swap1\n      tag_115\n      jump\t// in\n    tag_114:\n        /* \"contracts/SwappableToken.sol\":5953:5987  (amount * toBalance) / fromBalance */\n      tag_116\n      swap2\n      swap1\n      tag_117\n      jump\t// in\n    tag_116:\n        /* \"contracts/SwappableToken.sol\":5946:5987  return (amount * toBalance) / fromBalance */\n      swap3\n      pop\n      pop\n      pop\n        /* \"contracts/SwappableToken.sol\":5708:5994  function getSwapPrice(address from, address to, uint256 amount) public view returns (uint256) {... */\n      swap4\n      swap3\n      pop\n      pop\n      pop\n      jump\t// out\n        /* \"contracts/SwappableToken.sol\":5198:5544  function swap(address from, address to, uint256 amount) public {... */\n    tag_57:\n        /* \"contracts/SwappableToken.sol\":5317:5323  amount */\n      dup1\n        /* \"contracts/SwappableToken.sol\":5286:5290  from */\n      dup4\n        /* \"contracts/SwappableToken.sol\":5279:5301  IERC20(from).balanceOf */\n      0xffffffffffffffffffffffffffffffffffffffff\n      and\n      0x70a08231\n        /* \"contracts/SwappableToken.sol\":5302:5312  msg.sender */\n      caller\n        /* \"contracts/SwappableToken.sol\":5279:5313  IERC20(from).balanceOf(msg.sender) */\n      mload(0x40)\n      dup3\n      0xffffffff\n      and\n      0xe0\n      shl\n      dup2\n      mstore\n      0x04\n      add\n      tag_119\n      swap2\n      swap1\n      tag_29\n      jump\t// in\n    tag_119:\n      0x20\n      mload(0x40)\n      dup1\n      dup4\n      sub\n      dup2\n      dup7\n      gas\n      staticcall\n      iszero\n      dup1\n      iszero\n      tag_121\n      jumpi\n      returndatasize\n      0x00\n      dup1\n      returndatacopy\n      revert(0x00, returndatasize)\n    tag_121:\n      pop\n      pop\n      pop\n      pop\n      mload(0x40)\n      returndatasize\n      not(0x1f)\n      0x1f\n      dup3\n      add\n      and\n      dup3\n      add\n      dup1\n      0x40\n      mstore\n      pop\n      dup2\n      add\n      swap1\n      tag_122\n      swap2\n      swap1\n      tag_83\n      jump\t// in\n    tag_122:\n        /* \"contracts/SwappableToken.sol\":5279:5323  IERC20(from).balanceOf(msg.sender) >= amount */\n      lt\n      iszero\n        /* \"contracts/SwappableToken.sol\":5271:5353  require(IERC20(from).balanceOf(msg.sender) >= amount, \"Not enough tokens to swap\") */\n      tag_123\n      jumpi\n      mload(0x40)\n      0x08c379a000000000000000000000000000000000000000000000000000000000\n      dup2\n      mstore\n      0x04\n      add\n      tag_124\n      swap1\n      tag_125\n      jump\t// in\n    tag_124:\n      mload(0x40)\n      dup1\n      swap2\n      sub\n      swap1\n      revert\n    tag_123:\n        /* \"contracts/SwappableToken.sol\":5363:5381  uint256 swapAmount */\n      0x00\n        /* \"contracts/SwappableToken.sol\":5384:5414  getSwapPrice(from, to, amount) */\n      tag_126\n        /* \"contracts/SwappableToken.sol\":5397:5401  from */\n      dup5\n        /* \"contracts/SwappableToken.sol\":5403:5405  to */\n      dup5\n        /* \"contracts/SwappableToken.sol\":5407:5413  amount */\n      dup5\n        /* \"contracts/SwappableToken.sol\":5384:5396  getSwapPrice */\n      tag_52\n        /* \"contracts/SwappableToken.sol\":5384:5414  getSwapPrice(from, to, amount) */\n      jump\t// in\n    tag_126:\n        /* \"contracts/SwappableToken.sol\":5363:5414  uint256 swapAmount = getSwapPrice(from, to, amount) */\n      swap1\n      pop\n        /* \"contracts/SwappableToken.sol\":5431:5435  from */\n      dup4\n        /* \"contracts/SwappableToken.sol\":5424:5449  IERC20(from).transferFrom */\n      0xffffffffffffffffffffffffffffffffffffffff\n      and\n      0x23b872dd\n        /* \"contracts/SwappableToken.sol\":5450:5460  msg.sender */\n      caller\n        /* \"contracts/SwappableToken.sol\":5470:5474  this */\n      address\n        /* \"contracts/SwappableToken.sol\":5477:5483  amount */\n      dup6\n        /* \"contracts/SwappableToken.sol\":5424:5484  IERC20(from).transferFrom(msg.sender, address(this), amount) */\n      mload(0x40)\n      dup5\n      0xffffffff\n      and\n      0xe0\n      shl\n      dup2\n      mstore\n      0x04\n      add\n      tag_127\n      swap4\n      swap3\n      swap2\n      swap1\n      tag_65\n      jump\t// in\n    tag_127:\n      0x20\n      mload(0x40)\n      dup1\n      dup4\n      sub\n      dup2\n      0x00\n      dup8\n      gas\n      call\n      iszero\n      dup1\n      iszero\n      tag_129\n      jumpi\n      returndatasize\n      0x00\n      dup1\n      returndatacopy\n      revert(0x00, returndatasize)\n    tag_129:\n      pop\n      pop\n      pop\n      pop\n      mload(0x40)\n      returndatasize\n      not(0x1f)\n      0x1f\n      dup3\n      add\n      and\n      dup3\n      add\n      dup1\n      0x40\n      mstore\n      pop\n      dup2\n      add\n      swap1\n      tag_130\n      swap2\n      swap1\n      tag_69\n      jump\t// in\n    tag_130:\n      pop\n        /* \"contracts/SwappableToken.sol\":5501:5503  to */\n      dup3\n        /* \"contracts/SwappableToken.sol\":5494:5513  IERC20(to).transfer */\n      0xffffffffffffffffffffffffffffffffffffffff\n      and\n      0xa9059cbb\n        /* \"contracts/SwappableToken.sol\":5514:5524  msg.sender */\n      caller\n        /* \"contracts/SwappableToken.sol\":5526:5536  swapAmount */\n      dup4\n        /* \"contracts/SwappableToken.sol\":5494:5537  IERC20(to).transfer(msg.sender, swapAmount) */\n      mload(0x40)\n      dup4\n      0xffffffff\n      and\n      0xe0\n      shl\n      dup2\n      mstore\n      0x04\n      add\n      tag_131\n      swap3\n      swap2\n      swap1\n      tag_101\n      jump\t// in\n    tag_131:\n      0x20\n      mload(0x40)\n      dup1\n      dup4\n      sub\n      dup2\n      0x00\n      dup8\n      gas\n      call\n      iszero\n      dup1\n      iszero\n      tag_133\n      jumpi\n      returndatasize\n      0x00\n      dup1\n      returndatacopy\n      revert(0x00, returndatasize)\n    tag_133:\n      pop\n      pop\n      pop\n      pop\n      mload(0x40)\n      returndatasize\n      not(0x1f)\n      0x1f\n      dup3\n      add\n      and\n      dup3\n      add\n      dup1\n      0x40\n      mstore\n      pop\n      dup2\n      add\n      swap1\n      tag_134\n      swap2\n      swap1\n      tag_69\n      jump\t// in\n    tag_134:\n      pop\n        /* \"contracts/SwappableToken.sol\":5261:5544  {... */\n      pop\n        /* \"contracts/SwappableToken.sol\":5198:5544  function swap(address from, address to, uint256 amount) public {... */\n      pop\n      pop\n      pop\n      jump\t// out\n        /* \"contracts/SwappableToken.sol\":4620:5192  function sell(uint256 amount) public {... */\n    tag_62:\n        /* \"contracts/SwappableToken.sol\":4667:4684  uint256 allowance */\n      0x00\n        /* \"contracts/SwappableToken.sol\":4687:4695  dexToken */\n      dup1\n      0x00\n      swap1\n      sload\n      swap1\n      0x0100\n      exp\n      swap1\n      div\n      0xffffffffffffffffffffffffffffffffffffffff\n      and\n        /* \"contracts/SwappableToken.sol\":4687:4705  dexToken.allowance */\n      0xffffffffffffffffffffffffffffffffffffffff\n      and\n      0xdd62ed3e\n        /* \"contracts/SwappableToken.sol\":4706:4716  msg.sender */\n      caller\n        /* \"contracts/SwappableToken.sol\":4726:4730  this */\n      address\n        /* \"contracts/SwappableToken.sol\":4687:4732  dexToken.allowance(msg.sender, address(this)) */\n      mload(0x40)\n      dup4\n      0xffffffff\n      and\n      0xe0\n      shl\n      dup2\n      mstore\n      0x04\n      add\n      tag_136\n      swap3\n      swap2\n      swap1\n      tag_137\n      jump\t// in\n    tag_136:\n      0x20\n      mload(0x40)\n      dup1\n      dup4\n      sub\n      dup2\n      dup7\n      gas\n      staticcall\n      iszero\n      dup1\n      iszero\n      tag_139\n      jumpi\n      returndatasize\n      0x00\n      dup1\n      returndatacopy\n      revert(0x00, returndatasize)\n    tag_139:\n      pop\n      pop\n      pop\n      pop\n      mload(0x40)\n      returndatasize\n      not(0x1f)\n      0x1f\n      dup3\n      add\n      and\n      dup3\n      add\n      dup1\n      0x40\n      mstore\n      pop\n      dup2\n      add\n      swap1\n      tag_140\n      swap2\n      swap1\n      tag_83\n      jump\t// in\n    tag_140:\n        /* \"contracts/SwappableToken.sol\":4667:4732  uint256 allowance = dexToken.allowance(msg.sender, address(this)) */\n      swap1\n      pop\n        /* \"contracts/SwappableToken.sol\":4747:4801  DebugMessage(\"Allowance check before sell\", allowance) */\n      0xd774aaa44c6d93d56abc84155c14291ee2bee1fdf086d6dd65ddcfc5251b499f\n        /* \"contracts/SwappableToken.sol\":4791:4800  allowance */\n      dup2\n        /* \"contracts/SwappableToken.sol\":4747:4801  DebugMessage(\"Allowance check before sell\", allowance) */\n      mload(0x40)\n      tag_141\n      swap2\n      swap1\n      tag_142\n      jump\t// in\n    tag_141:\n      mload(0x40)\n      dup1\n      swap2\n      sub\n      swap1\n      log1\n        /* \"contracts/SwappableToken.sol\":4833:4839  amount */\n      dup2\n        /* \"contracts/SwappableToken.sol\":4820:4829  allowance */\n      dup2\n        /* \"contracts/SwappableToken.sol\":4820:4839  allowance >= amount */\n      lt\n      iszero\n        /* \"contracts/SwappableToken.sol\":4812:4885  require(allowance >= amount, \"Allowance is less than the amount to sell\") */\n      tag_143\n      jumpi\n      mload(0x40)\n      0x08c379a000000000000000000000000000000000000000000000000000000000\n      dup2\n      mstore\n      0x04\n      add\n      tag_144\n      swap1\n      tag_145\n      jump\t// in\n    tag_144:\n      mload(0x40)\n      dup1\n      swap2\n      sub\n      swap1\n      revert\n    tag_143:\n        /* \"contracts/SwappableToken.sol\":4896:4911  uint256 balance */\n      0x00\n        /* \"contracts/SwappableToken.sol\":4914:4922  dexToken */\n      dup1\n      0x00\n      swap1\n      sload\n      swap1\n      0x0100\n      exp\n      swap1\n      div\n      0xffffffffffffffffffffffffffffffffffffffff\n      and\n        /* \"contracts/SwappableToken.sol\":4914:4932  dexToken.balanceOf */\n      0xffffffffffffffffffffffffffffffffffffffff\n      and\n      0x70a08231\n        /* \"contracts/SwappableToken.sol\":4933:4943  msg.sender */\n      caller\n        /* \"contracts/SwappableToken.sol\":4914:4944  dexToken.balanceOf(msg.sender) */\n      mload(0x40)\n      dup3\n      0xffffffff\n      and\n      0xe0\n      shl\n      dup2\n      mstore\n      0x04\n      add\n      tag_146\n      swap2\n      swap1\n      tag_29\n      jump\t// in\n    tag_146:\n      0x20\n      mload(0x40)\n      dup1\n      dup4\n      sub\n      dup2\n      dup7\n      gas\n      staticcall\n      iszero\n      dup1\n      iszero\n      tag_148\n      jumpi\n      returndatasize\n      0x00\n      dup1\n      returndatacopy\n      revert(0x00, returndatasize)\n    tag_148:\n      pop\n      pop\n      pop\n      pop\n      mload(0x40)\n      returndatasize\n      not(0x1f)\n      0x1f\n      dup3\n      add\n      and\n      dup3\n      add\n      dup1\n      0x40\n      mstore\n      pop\n      dup2\n      add\n      swap1\n      tag_149\n      swap2\n      swap1\n      tag_83\n      jump\t// in\n    tag_149:\n        /* \"contracts/SwappableToken.sol\":4896:4944  uint256 balance = dexToken.balanceOf(msg.sender) */\n      swap1\n      pop\n        /* \"contracts/SwappableToken.sol\":4959:5009  DebugMessage(\"Balance check before sell\", balance) */\n      0xd774aaa44c6d93d56abc84155c14291ee2bee1fdf086d6dd65ddcfc5251b499f\n        /* \"contracts/SwappableToken.sol\":5001:5008  balance */\n      dup2\n        /* \"contracts/SwappableToken.sol\":4959:5009  DebugMessage(\"Balance check before sell\", balance) */\n      mload(0x40)\n      tag_150\n      swap2\n      swap1\n      tag_151\n      jump\t// in\n    tag_150:\n      mload(0x40)\n      dup1\n      swap2\n      sub\n      swap1\n      log1\n        /* \"contracts/SwappableToken.sol\":5039:5045  amount */\n      dup3\n        /* \"contracts/SwappableToken.sol\":5028:5035  balance */\n      dup2\n        /* \"contracts/SwappableToken.sol\":5028:5045  balance >= amount */\n      lt\n      iszero\n        /* \"contracts/SwappableToken.sol\":5020:5070  require(balance >= amount, \"Insufficient balance\") */\n      tag_152\n      jumpi\n      mload(0x40)\n      0x08c379a000000000000000000000000000000000000000000000000000000000\n      dup2\n      mstore\n      0x04\n      add\n      tag_153\n      swap1\n      tag_154\n      jump\t// in\n    tag_153:\n      mload(0x40)\n      dup1\n      swap2\n      sub\n      swap1\n      revert\n    tag_152:\n        /* \"contracts/SwappableToken.sol\":5081:5089  dexToken */\n      0x00\n      dup1\n      sload\n      swap1\n      0x0100\n      exp\n      swap1\n      div\n      0xffffffffffffffffffffffffffffffffffffffff\n      and\n        /* \"contracts/SwappableToken.sol\":5081:5102  dexToken.transferFrom */\n      0xffffffffffffffffffffffffffffffffffffffff\n      and\n      0x23b872dd\n        /* \"contracts/SwappableToken.sol\":5103:5113  msg.sender */\n      caller\n        /* \"contracts/SwappableToken.sol\":5123:5127  this */\n      address\n        /* \"contracts/SwappableToken.sol\":5130:5136  amount */\n      dup7\n        /* \"contracts/SwappableToken.sol\":5081:5137  dexToken.transferFrom(msg.sender, address(this), amount) */\n      mload(0x40)\n      dup5\n      0xffffffff\n      and\n      0xe0\n      shl\n      dup2\n      mstore\n      0x04\n      add\n      tag_155\n      swap4\n      swap3\n      swap2\n      swap1\n      tag_65\n      jump\t// in\n    tag_155:\n      0x20\n      mload(0x40)\n      dup1\n      dup4\n      sub\n      dup2\n      0x00\n      dup8\n      gas\n      call\n      iszero\n      dup1\n      iszero\n      tag_157\n      jumpi\n      returndatasize\n      0x00\n      dup1\n      returndatacopy\n      revert(0x00, returndatasize)\n    tag_157:\n      pop\n      pop\n      pop\n      pop\n      mload(0x40)\n      returndatasize\n      not(0x1f)\n      0x1f\n      dup3\n      add\n      and\n      dup3\n      add\n      dup1\n      0x40\n      mstore\n      pop\n      dup2\n      add\n      swap1\n      tag_158\n      swap2\n      swap1\n      tag_69\n      jump\t// in\n    tag_158:\n      pop\n        /* \"contracts/SwappableToken.sol\":5166:5176  msg.sender */\n      caller\n        /* \"contracts/SwappableToken.sol\":5161:5185  Sold(msg.sender, amount) */\n      0xffffffffffffffffffffffffffffffffffffffff\n      and\n      0xae92ab4b6f8f401ead768d3273e6bb937a13e39827d19c6376e8fd4512a05d9a\n        /* \"contracts/SwappableToken.sol\":5178:5184  amount */\n      dup5\n        /* \"contracts/SwappableToken.sol\":5161:5185  Sold(msg.sender, amount) */\n      mload(0x40)\n      tag_159\n      swap2\n      swap1\n      tag_40\n      jump\t// in\n    tag_159:\n      mload(0x40)\n      dup1\n      swap2\n      sub\n      swap1\n      log2\n        /* \"contracts/SwappableToken.sol\":4657:5192  {... */\n      pop\n      pop\n        /* \"contracts/SwappableToken.sol\":4620:5192  function sell(uint256 amount) public {... */\n      pop\n      jump\t// out\n        /* \"#utility.yul\":88:205   */\n    tag_161:\n        /* \"#utility.yul\":197:198   */\n      0x00\n        /* \"#utility.yul\":194:195   */\n      dup1\n        /* \"#utility.yul\":187:199   */\n      revert\n        /* \"#utility.yul\":334:460   */\n    tag_163:\n        /* \"#utility.yul\":371:378   */\n      0x00\n        /* \"#utility.yul\":411:453   */\n      0xffffffffffffffffffffffffffffffffffffffff\n        /* \"#utility.yul\":404:409   */\n      dup3\n        /* \"#utility.yul\":400:454   */\n      and\n        /* \"#utility.yul\":389:454   */\n      swap1\n      pop\n        /* \"#utility.yul\":334:460   */\n      swap2\n      swap1\n      pop\n      jump\t// out\n        /* \"#utility.yul\":466:562   */\n    tag_164:\n        /* \"#utility.yul\":503:510   */\n      0x00\n        /* \"#utility.yul\":532:556   */\n      tag_205\n        /* \"#utility.yul\":550:555   */\n      dup3\n        /* \"#utility.yul\":532:556   */\n      tag_163\n      jump\t// in\n    tag_205:\n        /* \"#utility.yul\":521:556   */\n      swap1\n      pop\n        /* \"#utility.yul\":466:562   */\n      swap2\n      swap1\n      pop\n      jump\t// out\n        /* \"#utility.yul\":568:690   */\n    tag_165:\n        /* \"#utility.yul\":641:665   */\n      tag_207\n        /* \"#utility.yul\":659:664   */\n      dup2\n        /* \"#utility.yul\":641:665   */\n      tag_164\n      jump\t// in\n    tag_207:\n        /* \"#utility.yul\":634:639   */\n      dup2\n        /* \"#utility.yul\":631:666   */\n      eq\n        /* \"#utility.yul\":621:684   */\n      tag_208\n      jumpi\n        /* \"#utility.yul\":680:681   */\n      0x00\n        /* \"#utility.yul\":677:678   */\n      dup1\n        /* \"#utility.yul\":670:682   */\n      revert\n        /* \"#utility.yul\":621:684   */\n    tag_208:\n        /* \"#utility.yul\":568:690   */\n      pop\n      jump\t// out\n        /* \"#utility.yul\":696:835   */\n    tag_166:\n        /* \"#utility.yul\":742:747   */\n      0x00\n        /* \"#utility.yul\":780:786   */\n      dup2\n        /* \"#utility.yul\":767:787   */\n      calldataload\n        /* \"#utility.yul\":758:787   */\n      swap1\n      pop\n        /* \"#utility.yul\":796:829   */\n      tag_210\n        /* \"#utility.yul\":823:828   */\n      dup2\n        /* \"#utility.yul\":796:829   */\n      tag_165\n      jump\t// in\n    tag_210:\n        /* \"#utility.yul\":696:835   */\n      swap3\n      swap2\n      pop\n      pop\n      jump\t// out\n        /* \"#utility.yul\":841:918   */\n    tag_167:\n        /* \"#utility.yul\":878:885   */\n      0x00\n        /* \"#utility.yul\":907:912   */\n      dup2\n        /* \"#utility.yul\":896:912   */\n      swap1\n      pop\n        /* \"#utility.yul\":841:918   */\n      swap2\n      swap1\n      pop\n      jump\t// out\n        /* \"#utility.yul\":924:1046   */\n    tag_168:\n        /* \"#utility.yul\":997:1021   */\n      tag_213\n        /* \"#utility.yul\":1015:1020   */\n      dup2\n        /* \"#utility.yul\":997:1021   */\n      tag_167\n      jump\t// in\n    tag_213:\n        /* \"#utility.yul\":990:995   */\n      dup2\n        /* \"#utility.yul\":987:1022   */\n      eq\n        /* \"#utility.yul\":977:1040   */\n      tag_214\n      jumpi\n        /* \"#utility.yul\":1036:1037   */\n      0x00\n        /* \"#utility.yul\":1033:1034   */\n      dup1\n        /* \"#utility.yul\":1026:1038   */\n      revert\n        /* \"#utility.yul\":977:1040   */\n    tag_214:\n        /* \"#utility.yul\":924:1046   */\n      pop\n      jump\t// out\n        /* \"#utility.yul\":1052:1191   */\n    tag_169:\n        /* \"#utility.yul\":1098:1103   */\n      0x00\n        /* \"#utility.yul\":1136:1142   */\n      dup2\n        /* \"#utility.yul\":1123:1143   */\n      calldataload\n        /* \"#utility.yul\":1114:1143   */\n      swap1\n      pop\n        /* \"#utility.yul\":1152:1185   */\n      tag_216\n        /* \"#utility.yul\":1179:1184   */\n      dup2\n        /* \"#utility.yul\":1152:1185   */\n      tag_168\n      jump\t// in\n    tag_216:\n        /* \"#utility.yul\":1052:1191   */\n      swap3\n      swap2\n      pop\n      pop\n      jump\t// out\n        /* \"#utility.yul\":1197:1671   */\n    tag_16:\n        /* \"#utility.yul\":1265:1271   */\n      0x00\n        /* \"#utility.yul\":1273:1279   */\n      dup1\n        /* \"#utility.yul\":1322:1324   */\n      0x40\n        /* \"#utility.yul\":1310:1319   */\n      dup4\n        /* \"#utility.yul\":1301:1308   */\n      dup6\n        /* \"#utility.yul\":1297:1320   */\n      sub\n        /* \"#utility.yul\":1293:1325   */\n      slt\n        /* \"#utility.yul\":1290:1409   */\n      iszero\n      tag_218\n      jumpi\n        /* \"#utility.yul\":1328:1407   */\n      tag_219\n      tag_161\n      jump\t// in\n    tag_219:\n        /* \"#utility.yul\":1290:1409   */\n    tag_218:\n        /* \"#utility.yul\":1448:1449   */\n      0x00\n        /* \"#utility.yul\":1473:1526   */\n      tag_220\n        /* \"#utility.yul\":1518:1525   */\n      dup6\n        /* \"#utility.yul\":1509:1515   */\n      dup3\n        /* \"#utility.yul\":1498:1507   */\n      dup7\n        /* \"#utility.yul\":1494:1516   */\n      add\n        /* \"#utility.yul\":1473:1526   */\n      tag_166\n      jump\t// in\n    tag_220:\n        /* \"#utility.yul\":1463:1526   */\n      swap3\n      pop\n        /* \"#utility.yul\":1419:1536   */\n      pop\n        /* \"#utility.yul\":1575:1577   */\n      0x20\n        /* \"#utility.yul\":1601:1654   */\n      tag_221\n        /* \"#utility.yul\":1646:1653   */\n      dup6\n        /* \"#utility.yul\":1637:1643   */\n      dup3\n        /* \"#utility.yul\":1626:1635   */\n      dup7\n        /* \"#utility.yul\":1622:1644   */\n      add\n        /* \"#utility.yul\":1601:1654   */\n      tag_169\n      jump\t// in\n    tag_221:\n        /* \"#utility.yul\":1591:1654   */\n      swap2\n      pop\n        /* \"#utility.yul\":1546:1664   */\n      pop\n        /* \"#utility.yul\":1197:1671   */\n      swap3\n      pop\n      swap3\n      swap1\n      pop\n      jump\t// out\n        /* \"#utility.yul\":1677:1767   */\n    tag_170:\n        /* \"#utility.yul\":1711:1718   */\n      0x00\n        /* \"#utility.yul\":1754:1759   */\n      dup2\n        /* \"#utility.yul\":1747:1760   */\n      iszero\n        /* \"#utility.yul\":1740:1761   */\n      iszero\n        /* \"#utility.yul\":1729:1761   */\n      swap1\n      pop\n        /* \"#utility.yul\":1677:1767   */\n      swap2\n      swap1\n      pop\n      jump\t// out\n        /* \"#utility.yul\":1773:1882   */\n    tag_171:\n        /* \"#utility.yul\":1854:1875   */\n      tag_224\n        /* \"#utility.yul\":1869:1874   */\n      dup2\n        /* \"#utility.yul\":1854:1875   */\n      tag_170\n      jump\t// in\n    tag_224:\n        /* \"#utility.yul\":1849:1852   */\n      dup3\n        /* \"#utility.yul\":1842:1876   */\n      mstore\n        /* \"#utility.yul\":1773:1882   */\n      pop\n      pop\n      jump\t// out\n        /* \"#utility.yul\":1888:2098   */\n    tag_19:\n        /* \"#utility.yul\":1975:1979   */\n      0x00\n        /* \"#utility.yul\":2013:2015   */\n      0x20\n        /* \"#utility.yul\":2002:2011   */\n      dup3\n        /* \"#utility.yul\":1998:2016   */\n      add\n        /* \"#utility.yul\":1990:2016   */\n      swap1\n      pop\n        /* \"#utility.yul\":2026:2091   */\n      tag_226\n        /* \"#utility.yul\":2088:2089   */\n      0x00\n        /* \"#utility.yul\":2077:2086   */\n      dup4\n        /* \"#utility.yul\":2073:2090   */\n      add\n        /* \"#utility.yul\":2064:2070   */\n      dup5\n        /* \"#utility.yul\":2026:2091   */\n      tag_171\n      jump\t// in\n    tag_226:\n        /* \"#utility.yul\":1888:2098   */\n      swap3\n      swap2\n      pop\n      pop\n      jump\t// out\n        /* \"#utility.yul\":2104:2164   */\n    tag_172:\n        /* \"#utility.yul\":2132:2135   */\n      0x00\n        /* \"#utility.yul\":2153:2158   */\n      dup2\n        /* \"#utility.yul\":2146:2158   */\n      swap1\n      pop\n        /* \"#utility.yul\":2104:2164   */\n      swap2\n      swap1\n      pop\n      jump\t// out\n        /* \"#utility.yul\":2170:2312   */\n    tag_173:\n        /* \"#utility.yul\":2220:2229   */\n      0x00\n        /* \"#utility.yul\":2253:2306   */\n      tag_229\n        /* \"#utility.yul\":2271:2305   */\n      tag_230\n        /* \"#utility.yul\":2280:2304   */\n      tag_231\n        /* \"#utility.yul\":2298:2303   */\n      dup5\n        /* \"#utility.yul\":2280:2304   */\n      tag_163\n      jump\t// in\n    tag_231:\n        /* \"#utility.yul\":2271:2305   */\n      tag_172\n      jump\t// in\n    tag_230:\n        /* \"#utility.yul\":2253:2306   */\n      tag_163\n      jump\t// in\n    tag_229:\n        /* \"#utility.yul\":2240:2306   */\n      swap1\n      pop\n        /* \"#utility.yul\":2170:2312   */\n      swap2\n      swap1\n      pop\n      jump\t// out\n        /* \"#utility.yul\":2318:2444   */\n    tag_174:\n        /* \"#utility.yul\":2368:2377   */\n      0x00\n        /* \"#utility.yul\":2401:2438   */\n      tag_233\n        /* \"#utility.yul\":2432:2437   */\n      dup3\n        /* \"#utility.yul\":2401:2438   */\n      tag_173\n      jump\t// in\n    tag_233:\n        /* \"#utility.yul\":2388:2438   */\n      swap1\n      pop\n        /* \"#utility.yul\":2318:2444   */\n      swap2\n      swap1\n      pop\n      jump\t// out\n        /* \"#utility.yul\":2450:2590   */\n    tag_175:\n        /* \"#utility.yul\":2514:2523   */\n      0x00\n        /* \"#utility.yul\":2547:2584   */\n      tag_235\n        /* \"#utility.yul\":2578:2583   */\n      dup3\n        /* \"#utility.yul\":2547:2584   */\n      tag_174\n      jump\t// in\n    tag_235:\n        /* \"#utility.yul\":2534:2584   */\n      swap1\n      pop\n        /* \"#utility.yul\":2450:2590   */\n      swap2\n      swap1\n      pop\n      jump\t// out\n        /* \"#utility.yul\":2596:2755   */\n    tag_176:\n        /* \"#utility.yul\":2697:2748   */\n      tag_237\n        /* \"#utility.yul\":2742:2747   */\n      dup2\n        /* \"#utility.yul\":2697:2748   */\n      tag_175\n      jump\t// in\n    tag_237:\n        /* \"#utility.yul\":2692:2695   */\n      dup3\n        /* \"#utility.yul\":2685:2749   */\n      mstore\n        /* \"#utility.yul\":2596:2755   */\n      pop\n      pop\n      jump\t// out\n        /* \"#utility.yul\":2761:3011   */\n    tag_24:\n        /* \"#utility.yul\":2868:2872   */\n      0x00\n        /* \"#utility.yul\":2906:2908   */\n      0x20\n        /* \"#utility.yul\":2895:2904   */\n      dup3\n        /* \"#utility.yul\":2891:2909   */\n      add\n        /* \"#utility.yul\":2883:2909   */\n      swap1\n      pop\n        /* \"#utility.yul\":2919:3004   */\n      tag_239\n        /* \"#utility.yul\":3001:3002   */\n      0x00\n        /* \"#utility.yul\":2990:2999   */\n      dup4\n        /* \"#utility.yul\":2986:3003   */\n      add\n        /* \"#utility.yul\":2977:2983   */\n      dup5\n        /* \"#utility.yul\":2919:3004   */\n      tag_176\n      jump\t// in\n    tag_239:\n        /* \"#utility.yul\":2761:3011   */\n      swap3\n      swap2\n      pop\n      pop\n      jump\t// out\n        /* \"#utility.yul\":3017:3135   */\n    tag_177:\n        /* \"#utility.yul\":3104:3128   */\n      tag_241\n        /* \"#utility.yul\":3122:3127   */\n      dup2\n        /* \"#utility.yul\":3104:3128   */\n      tag_164\n      jump\t// in\n    tag_241:\n        /* \"#utility.yul\":3099:3102   */\n      dup3\n        /* \"#utility.yul\":3092:3129   */\n      mstore\n        /* \"#utility.yul\":3017:3135   */\n      pop\n      pop\n      jump\t// out\n        /* \"#utility.yul\":3141:3363   */\n    tag_29:\n        /* \"#utility.yul\":3234:3238   */\n      0x00\n        /* \"#utility.yul\":3272:3274   */\n      0x20\n        /* \"#utility.yul\":3261:3270   */\n      dup3\n        /* \"#utility.yul\":3257:3275   */\n      add\n        /* \"#utility.yul\":3249:3275   */\n      swap1\n      pop\n        /* \"#utility.yul\":3285:3356   */\n      tag_243\n        /* \"#utility.yul\":3353:3354   */\n      0x00\n        /* \"#utility.yul\":3342:3351   */\n      dup4\n        /* \"#utility.yul\":3338:3355   */\n      add\n        /* \"#utility.yul\":3329:3335   */\n      dup5\n        /* \"#utility.yul\":3285:3356   */\n      tag_177\n      jump\t// in\n    tag_243:\n        /* \"#utility.yul\":3141:3363   */\n      swap3\n      swap2\n      pop\n      pop\n      jump\t// out\n        /* \"#utility.yul\":3369:3698   */\n    tag_37:\n        /* \"#utility.yul\":3428:3434   */\n      0x00\n        /* \"#utility.yul\":3477:3479   */\n      0x20\n        /* \"#utility.yul\":3465:3474   */\n      dup3\n        /* \"#utility.yul\":3456:3463   */\n      dup5\n        /* \"#utility.yul\":3452:3475   */\n      sub\n        /* \"#utility.yul\":3448:3480   */\n      slt\n        /* \"#utility.yul\":3445:3564   */\n      iszero\n      tag_245\n      jumpi\n        /* \"#utility.yul\":3483:3562   */\n      tag_246\n      tag_161\n      jump\t// in\n    tag_246:\n        /* \"#utility.yul\":3445:3564   */\n    tag_245:\n        /* \"#utility.yul\":3603:3604   */\n      0x00\n        /* \"#utility.yul\":3628:3681   */\n      tag_247\n        /* \"#utility.yul\":3673:3680   */\n      dup5\n        /* \"#utility.yul\":3664:3670   */\n      dup3\n        /* \"#utility.yul\":3653:3662   */\n      dup6\n        /* \"#utility.yul\":3649:3671   */\n      add\n        /* \"#utility.yul\":3628:3681   */\n      tag_166\n      jump\t// in\n    tag_247:\n        /* \"#utility.yul\":3618:3681   */\n      swap2\n      pop\n        /* \"#utility.yul\":3574:3691   */\n      pop\n        /* \"#utility.yul\":3369:3698   */\n      swap3\n      swap2\n      pop\n      pop\n      jump\t// out\n        /* \"#utility.yul\":3704:3822   */\n    tag_178:\n        /* \"#utility.yul\":3791:3815   */\n      tag_249\n        /* \"#utility.yul\":3809:3814   */\n      dup2\n        /* \"#utility.yul\":3791:3815   */\n      tag_167\n      jump\t// in\n    tag_249:\n        /* \"#utility.yul\":3786:3789   */\n      dup3\n        /* \"#utility.yul\":3779:3816   */\n      mstore\n        /* \"#utility.yul\":3704:3822   */\n      pop\n      pop\n      jump\t// out\n        /* \"#utility.yul\":3828:4050   */\n    tag_40:\n        /* \"#utility.yul\":3921:3925   */\n      0x00\n        /* \"#utility.yul\":3959:3961   */\n      0x20\n        /* \"#utility.yul\":3948:3957   */\n      dup3\n        /* \"#utility.yul\":3944:3962   */\n      add\n        /* \"#utility.yul\":3936:3962   */\n      swap1\n      pop\n        /* \"#utility.yul\":3972:4043   */\n      tag_251\n        /* \"#utility.yul\":4040:4041   */\n      0x00\n        /* \"#utility.yul\":4029:4038   */\n      dup4\n        /* \"#utility.yul\":4025:4042   */\n      add\n        /* \"#utility.yul\":4016:4022   */\n      dup5\n        /* \"#utility.yul\":3972:4043   */\n      tag_178\n      jump\t// in\n    tag_251:\n        /* \"#utility.yul\":3828:4050   */\n      swap3\n      swap2\n      pop\n      pop\n      jump\t// out\n        /* \"#utility.yul\":4056:4675   */\n    tag_51:\n        /* \"#utility.yul\":4133:4139   */\n      0x00\n        /* \"#utility.yul\":4141:4147   */\n      dup1\n        /* \"#utility.yul\":4149:4155   */\n      0x00\n        /* \"#utility.yul\":4198:4200   */\n      0x60\n        /* \"#utility.yul\":4186:4195   */\n      dup5\n        /* \"#utility.yul\":4177:4184   */\n      dup7\n        /* \"#utility.yul\":4173:4196   */\n      sub\n        /* \"#utility.yul\":4169:4201   */\n      slt\n        /* \"#utility.yul\":4166:4285   */\n      iszero\n      tag_253\n      jumpi\n        /* \"#utility.yul\":4204:4283   */\n      tag_254\n      tag_161\n      jump\t// in\n    tag_254:\n        /* \"#utility.yul\":4166:4285   */\n    tag_253:\n        /* \"#utility.yul\":4324:4325   */\n      0x00\n        /* \"#utility.yul\":4349:4402   */\n      tag_255\n        /* \"#utility.yul\":4394:4401   */\n      dup7\n        /* \"#utility.yul\":4385:4391   */\n      dup3\n        /* \"#utility.yul\":4374:4383   */\n      dup8\n        /* \"#utility.yul\":4370:4392   */\n      add\n        /* \"#utility.yul\":4349:4402   */\n      tag_166\n      jump\t// in\n    tag_255:\n        /* \"#utility.yul\":4339:4402   */\n      swap4\n      pop\n        /* \"#utility.yul\":4295:4412   */\n      pop\n        /* \"#utility.yul\":4451:4453   */\n      0x20\n        /* \"#utility.yul\":4477:4530   */\n      tag_256\n        /* \"#utility.yul\":4522:4529   */\n      dup7\n        /* \"#utility.yul\":4513:4519   */\n      dup3\n        /* \"#utility.yul\":4502:4511   */\n      dup8\n        /* \"#utility.yul\":4498:4520   */\n      add\n        /* \"#utility.yul\":4477:4530   */\n      tag_166\n      jump\t// in\n    tag_256:\n        /* \"#utility.yul\":4467:4530   */\n      swap3\n      pop\n        /* \"#utility.yul\":4422:4540   */\n      pop\n        /* \"#utility.yul\":4579:4581   */\n      0x40\n        /* \"#utility.yul\":4605:4658   */\n      tag_257\n        /* \"#utility.yul\":4650:4657   */\n      dup7\n        /* \"#utility.yul\":4641:4647   */\n      dup3\n        /* \"#utility.yul\":4630:4639   */\n      dup8\n        /* \"#utility.yul\":4626:4648   */\n      add\n        /* \"#utility.yul\":4605:4658   */\n      tag_169\n      jump\t// in\n    tag_257:\n        /* \"#utility.yul\":4595:4658   */\n      swap2\n      pop\n        /* \"#utility.yul\":4550:4668   */\n      pop\n        /* \"#utility.yul\":4056:4675   */\n      swap3\n      pop\n      swap3\n      pop\n      swap3\n      jump\t// out\n        /* \"#utility.yul\":4681:5010   */\n    tag_61:\n        /* \"#utility.yul\":4740:4746   */\n      0x00\n        /* \"#utility.yul\":4789:4791   */\n      0x20\n        /* \"#utility.yul\":4777:4786   */\n      dup3\n        /* \"#utility.yul\":4768:4775   */\n      dup5\n        /* \"#utility.yul\":4764:4787   */\n      sub\n        /* \"#utility.yul\":4760:4792   */\n      slt\n        /* \"#utility.yul\":4757:4876   */\n      iszero\n      tag_259\n      jumpi\n        /* \"#utility.yul\":4795:4874   */\n      tag_260\n      tag_161\n      jump\t// in\n    tag_260:\n        /* \"#utility.yul\":4757:4876   */\n    tag_259:\n        /* \"#utility.yul\":4915:4916   */\n      0x00\n        /* \"#utility.yul\":4940:4993   */\n      tag_261\n        /* \"#utility.yul\":4985:4992   */\n      dup5\n        /* \"#utility.yul\":4976:4982   */\n      dup3\n        /* \"#utility.yul\":4965:4974   */\n      dup6\n        /* \"#utility.yul\":4961:4983   */\n      add\n        /* \"#utility.yul\":4940:4993   */\n      tag_169\n      jump\t// in\n    tag_261:\n        /* \"#utility.yul\":4930:4993   */\n      swap2\n      pop\n        /* \"#utility.yul\":4886:5003   */\n      pop\n        /* \"#utility.yul\":4681:5010   */\n      swap3\n      swap2\n      pop\n      pop\n      jump\t// out\n        /* \"#utility.yul\":5016:5458   */\n    tag_65:\n        /* \"#utility.yul\":5165:5169   */\n      0x00\n        /* \"#utility.yul\":5203:5205   */\n      0x60\n        /* \"#utility.yul\":5192:5201   */\n      dup3\n        /* \"#utility.yul\":5188:5206   */\n      add\n        /* \"#utility.yul\":5180:5206   */\n      swap1\n      pop\n        /* \"#utility.yul\":5216:5287   */\n      tag_263\n        /* \"#utility.yul\":5284:5285   */\n      0x00\n        /* \"#utility.yul\":5273:5282   */\n      dup4\n        /* \"#utility.yul\":5269:5286   */\n      add\n        /* \"#utility.yul\":5260:5266   */\n      dup7\n        /* \"#utility.yul\":5216:5287   */\n      tag_177\n      jump\t// in\n    tag_263:\n        /* \"#utility.yul\":5297:5369   */\n      tag_264\n        /* \"#utility.yul\":5365:5367   */\n      0x20\n        /* \"#utility.yul\":5354:5363   */\n      dup4\n        /* \"#utility.yul\":5350:5368   */\n      add\n        /* \"#utility.yul\":5341:5347   */\n      dup6\n        /* \"#utility.yul\":5297:5369   */\n      tag_177\n      jump\t// in\n    tag_264:\n        /* \"#utility.yul\":5379:5451   */\n      tag_265\n        /* \"#utility.yul\":5447:5449   */\n      0x40\n        /* \"#utility.yul\":5436:5445   */\n      dup4\n        /* \"#utility.yul\":5432:5450   */\n      add\n        /* \"#utility.yul\":5423:5429   */\n      dup5\n        /* \"#utility.yul\":5379:5451   */\n      tag_178\n      jump\t// in\n    tag_265:\n        /* \"#utility.yul\":5016:5458   */\n      swap5\n      swap4\n      pop\n      pop\n      pop\n      pop\n      jump\t// out\n        /* \"#utility.yul\":5464:5580   */\n    tag_179:\n        /* \"#utility.yul\":5534:5555   */\n      tag_267\n        /* \"#utility.yul\":5549:5554   */\n      dup2\n        /* \"#utility.yul\":5534:5555   */\n      tag_170\n      jump\t// in\n    tag_267:\n        /* \"#utility.yul\":5527:5532   */\n      dup2\n        /* \"#utility.yul\":5524:5556   */\n      eq\n        /* \"#utility.yul\":5514:5574   */\n      tag_268\n      jumpi\n        /* \"#utility.yul\":5570:5571   */\n      0x00\n        /* \"#utility.yul\":5567:5568   */\n      dup1\n        /* \"#utility.yul\":5560:5572   */\n      revert\n        /* \"#utility.yul\":5514:5574   */\n    tag_268:\n        /* \"#utility.yul\":5464:5580   */\n      pop\n      jump\t// out\n        /* \"#utility.yul\":5586:5723   */\n    tag_180:\n        /* \"#utility.yul\":5640:5645   */\n      0x00\n        /* \"#utility.yul\":5671:5677   */\n      dup2\n        /* \"#utility.yul\":5665:5678   */\n      mload\n        /* \"#utility.yul\":5656:5678   */\n      swap1\n      pop\n        /* \"#utility.yul\":5687:5717   */\n      tag_270\n        /* \"#utility.yul\":5711:5716   */\n      dup2\n        /* \"#utility.yul\":5687:5717   */\n      tag_179\n      jump\t// in\n    tag_270:\n        /* \"#utility.yul\":5586:5723   */\n      swap3\n      swap2\n      pop\n      pop\n      jump\t// out\n        /* \"#utility.yul\":5729:6074   */\n    tag_69:\n        /* \"#utility.yul\":5796:5802   */\n      0x00\n        /* \"#utility.yul\":5845:5847   */\n      0x20\n        /* \"#utility.yul\":5833:5842   */\n      dup3\n        /* \"#utility.yul\":5824:5831   */\n      dup5\n        /* \"#utility.yul\":5820:5843   */\n      sub\n        /* \"#utility.yul\":5816:5848   */\n      slt\n        /* \"#utility.yul\":5813:5932   */\n      iszero\n      tag_272\n      jumpi\n        /* \"#utility.yul\":5851:5930   */\n      tag_273\n      tag_161\n      jump\t// in\n    tag_273:\n        /* \"#utility.yul\":5813:5932   */\n    tag_272:\n        /* \"#utility.yul\":5971:5972   */\n      0x00\n        /* \"#utility.yul\":5996:6057   */\n      tag_274\n        /* \"#utility.yul\":6049:6056   */\n      dup5\n        /* \"#utility.yul\":6040:6046   */\n      dup3\n        /* \"#utility.yul\":6029:6038   */\n      dup6\n        /* \"#utility.yul\":6025:6047   */\n      add\n        /* \"#utility.yul\":5996:6057   */\n      tag_180\n      jump\t// in\n    tag_274:\n        /* \"#utility.yul\":5986:6057   */\n      swap2\n      pop\n        /* \"#utility.yul\":5942:6067   */\n      pop\n        /* \"#utility.yul\":5729:6074   */\n      swap3\n      swap2\n      pop\n      pop\n      jump\t// out\n        /* \"#utility.yul\":6080:6412   */\n    tag_71:\n        /* \"#utility.yul\":6201:6205   */\n      0x00\n        /* \"#utility.yul\":6239:6241   */\n      0x40\n        /* \"#utility.yul\":6228:6237   */\n      dup3\n        /* \"#utility.yul\":6224:6242   */\n      add\n        /* \"#utility.yul\":6216:6242   */\n      swap1\n      pop\n        /* \"#utility.yul\":6252:6323   */\n      tag_276\n        /* \"#utility.yul\":6320:6321   */\n      0x00\n        /* \"#utility.yul\":6309:6318   */\n      dup4\n        /* \"#utility.yul\":6305:6322   */\n      add\n        /* \"#utility.yul\":6296:6302   */\n      dup6\n        /* \"#utility.yul\":6252:6323   */\n      tag_178\n      jump\t// in\n    tag_276:\n        /* \"#utility.yul\":6333:6405   */\n      tag_277\n        /* \"#utility.yul\":6401:6403   */\n      0x20\n        /* \"#utility.yul\":6390:6399   */\n      dup4\n        /* \"#utility.yul\":6386:6404   */\n      add\n        /* \"#utility.yul\":6377:6383   */\n      dup5\n        /* \"#utility.yul\":6333:6405   */\n      tag_177\n      jump\t// in\n    tag_277:\n        /* \"#utility.yul\":6080:6412   */\n      swap4\n      swap3\n      pop\n      pop\n      pop\n      jump\t// out\n        /* \"#utility.yul\":6418:6561   */\n    tag_181:\n        /* \"#utility.yul\":6475:6480   */\n      0x00\n        /* \"#utility.yul\":6506:6512   */\n      dup2\n        /* \"#utility.yul\":6500:6513   */\n      mload\n        /* \"#utility.yul\":6491:6513   */\n      swap1\n      pop\n        /* \"#utility.yul\":6522:6555   */\n      tag_279\n        /* \"#utility.yul\":6549:6554   */\n      dup2\n        /* \"#utility.yul\":6522:6555   */\n      tag_168\n      jump\t// in\n    tag_279:\n        /* \"#utility.yul\":6418:6561   */\n      swap3\n      swap2\n      pop\n      pop\n      jump\t// out\n        /* \"#utility.yul\":6567:6918   */\n    tag_83:\n        /* \"#utility.yul\":6637:6643   */\n      0x00\n        /* \"#utility.yul\":6686:6688   */\n      0x20\n        /* \"#utility.yul\":6674:6683   */\n      dup3\n        /* \"#utility.yul\":6665:6672   */\n      dup5\n        /* \"#utility.yul\":6661:6684   */\n      sub\n        /* \"#utility.yul\":6657:6689   */\n      slt\n        /* \"#utility.yul\":6654:6773   */\n      iszero\n      tag_281\n      jumpi\n        /* \"#utility.yul\":6692:6771   */\n      tag_282\n      tag_161\n      jump\t// in\n    tag_282:\n        /* \"#utility.yul\":6654:6773   */\n    tag_281:\n        /* \"#utility.yul\":6812:6813   */\n      0x00\n        /* \"#utility.yul\":6837:6901   */\n      tag_283\n        /* \"#utility.yul\":6893:6900   */\n      dup5\n        /* \"#utility.yul\":6884:6890   */\n      dup3\n        /* \"#utility.yul\":6873:6882   */\n      dup6\n        /* \"#utility.yul\":6869:6891   */\n      add\n        /* \"#utility.yul\":6837:6901   */\n      tag_181\n      jump\t// in\n    tag_283:\n        /* \"#utility.yul\":6827:6901   */\n      swap2\n      pop\n        /* \"#utility.yul\":6783:6911   */\n      pop\n        /* \"#utility.yul\":6567:6918   */\n      swap3\n      swap2\n      pop\n      pop\n      jump\t// out\n        /* \"#utility.yul\":6924:7093   */\n    tag_182:\n        /* \"#utility.yul\":7008:7019   */\n      0x00\n        /* \"#utility.yul\":7042:7048   */\n      dup3\n        /* \"#utility.yul\":7037:7040   */\n      dup3\n        /* \"#utility.yul\":7030:7049   */\n      mstore\n        /* \"#utility.yul\":7082:7086   */\n      0x20\n        /* \"#utility.yul\":7077:7080   */\n      dup3\n        /* \"#utility.yul\":7073:7087   */\n      add\n        /* \"#utility.yul\":7058:7087   */\n      swap1\n      pop\n        /* \"#utility.yul\":6924:7093   */\n      swap3\n      swap2\n      pop\n      pop\n      jump\t// out\n        /* \"#utility.yul\":7099:7346   */\n    tag_183:\n        /* \"#utility.yul\":7239:7273   */\n      0x54686520707572636861736520616d6f756e7420657863656564732074686520\n        /* \"#utility.yul\":7235:7236   */\n      0x00\n        /* \"#utility.yul\":7227:7233   */\n      dup3\n        /* \"#utility.yul\":7223:7237   */\n      add\n        /* \"#utility.yul\":7216:7274   */\n      mstore\n        /* \"#utility.yul\":7308:7338   */\n      0x616d6f756e7420617661696c61626c6520696e20726573657276652e00000000\n        /* \"#utility.yul\":7303:7305   */\n      0x20\n        /* \"#utility.yul\":7295:7301   */\n      dup3\n        /* \"#utility.yul\":7291:7306   */\n      add\n        /* \"#utility.yul\":7284:7339   */\n      mstore\n        /* \"#utility.yul\":7099:7346   */\n      pop\n      jump\t// out\n        /* \"#utility.yul\":7352:7718   */\n    tag_184:\n        /* \"#utility.yul\":7494:7497   */\n      0x00\n        /* \"#utility.yul\":7515:7582   */\n      tag_287\n        /* \"#utility.yul\":7579:7581   */\n      0x3c\n        /* \"#utility.yul\":7574:7577   */\n      dup4\n        /* \"#utility.yul\":7515:7582   */\n      tag_182\n      jump\t// in\n    tag_287:\n        /* \"#utility.yul\":7508:7582   */\n      swap2\n      pop\n        /* \"#utility.yul\":7591:7684   */\n      tag_288\n        /* \"#utility.yul\":7680:7683   */\n      dup3\n        /* \"#utility.yul\":7591:7684   */\n      tag_183\n      jump\t// in\n    tag_288:\n        /* \"#utility.yul\":7709:7711   */\n      0x40\n        /* \"#utility.yul\":7704:7707   */\n      dup3\n        /* \"#utility.yul\":7700:7712   */\n      add\n        /* \"#utility.yul\":7693:7712   */\n      swap1\n      pop\n        /* \"#utility.yul\":7352:7718   */\n      swap2\n      swap1\n      pop\n      jump\t// out\n        /* \"#utility.yul\":7724:8143   */\n    tag_96:\n        /* \"#utility.yul\":7890:7894   */\n      0x00\n        /* \"#utility.yul\":7928:7930   */\n      0x20\n        /* \"#utility.yul\":7917:7926   */\n      dup3\n        /* \"#utility.yul\":7913:7931   */\n      add\n        /* \"#utility.yul\":7905:7931   */\n      swap1\n      pop\n        /* \"#utility.yul\":7977:7986   */\n      dup2\n        /* \"#utility.yul\":7971:7975   */\n      dup2\n        /* \"#utility.yul\":7967:7987   */\n      sub\n        /* \"#utility.yul\":7963:7964   */\n      0x00\n        /* \"#utility.yul\":7952:7961   */\n      dup4\n        /* \"#utility.yul\":7948:7965   */\n      add\n        /* \"#utility.yul\":7941:7988   */\n      mstore\n        /* \"#utility.yul\":8005:8136   */\n      tag_290\n        /* \"#utility.yul\":8131:8135   */\n      dup2\n        /* \"#utility.yul\":8005:8136   */\n      tag_184\n      jump\t// in\n    tag_290:\n        /* \"#utility.yul\":7997:8136   */\n      swap1\n      pop\n        /* \"#utility.yul\":7724:8143   */\n      swap2\n      swap1\n      pop\n      jump\t// out\n        /* \"#utility.yul\":8149:8329   */\n    tag_185:\n        /* \"#utility.yul\":8289:8321   */\n      0x506c65617365207370656e6420736f6d65204d4154494320746f206275790000\n        /* \"#utility.yul\":8285:8286   */\n      0x00\n        /* \"#utility.yul\":8277:8283   */\n      dup3\n        /* \"#utility.yul\":8273:8287   */\n      add\n        /* \"#utility.yul\":8266:8322   */\n      mstore\n        /* \"#utility.yul\":8149:8329   */\n      pop\n      jump\t// out\n        /* \"#utility.yul\":8335:8701   */\n    tag_186:\n        /* \"#utility.yul\":8477:8480   */\n      0x00\n        /* \"#utility.yul\":8498:8565   */\n      tag_293\n        /* \"#utility.yul\":8562:8564   */\n      0x1e\n        /* \"#utility.yul\":8557:8560   */\n      dup4\n        /* \"#utility.yul\":8498:8565   */\n      tag_182\n      jump\t// in\n    tag_293:\n        /* \"#utility.yul\":8491:8565   */\n      swap2\n      pop\n        /* \"#utility.yul\":8574:8667   */\n      tag_294\n        /* \"#utility.yul\":8663:8666   */\n      dup3\n        /* \"#utility.yul\":8574:8667   */\n      tag_185\n      jump\t// in\n    tag_294:\n        /* \"#utility.yul\":8692:8694   */\n      0x20\n        /* \"#utility.yul\":8687:8690   */\n      dup3\n        /* \"#utility.yul\":8683:8695   */\n      add\n        /* \"#utility.yul\":8676:8695   */\n      swap1\n      pop\n        /* \"#utility.yul\":8335:8701   */\n      swap2\n      swap1\n      pop\n      jump\t// out\n        /* \"#utility.yul\":8707:9126   */\n    tag_99:\n        /* \"#utility.yul\":8873:8877   */\n      0x00\n        /* \"#utility.yul\":8911:8913   */\n      0x20\n        /* \"#utility.yul\":8900:8909   */\n      dup3\n        /* \"#utility.yul\":8896:8914   */\n      add\n        /* \"#utility.yul\":8888:8914   */\n      swap1\n      pop\n        /* \"#utility.yul\":8960:8969   */\n      dup2\n        /* \"#utility.yul\":8954:8958   */\n      dup2\n        /* \"#utility.yul\":8950:8970   */\n      sub\n        /* \"#utility.yul\":8946:8947   */\n      0x00\n        /* \"#utility.yul\":8935:8944   */\n      dup4\n        /* \"#utility.yul\":8931:8948   */\n      add\n        /* \"#utility.yul\":8924:8971   */\n      mstore\n        /* \"#utility.yul\":8988:9119   */\n      tag_296\n        /* \"#utility.yul\":9114:9118   */\n      dup2\n        /* \"#utility.yul\":8988:9119   */\n      tag_186\n      jump\t// in\n    tag_296:\n        /* \"#utility.yul\":8980:9119   */\n      swap1\n      pop\n        /* \"#utility.yul\":8707:9126   */\n      swap2\n      swap1\n      pop\n      jump\t// out\n        /* \"#utility.yul\":9132:9464   */\n    tag_101:\n        /* \"#utility.yul\":9253:9257   */\n      0x00\n        /* \"#utility.yul\":9291:9293   */\n      0x40\n        /* \"#utility.yul\":9280:9289   */\n      dup3\n        /* \"#utility.yul\":9276:9294   */\n      add\n        /* \"#utility.yul\":9268:9294   */\n      swap1\n      pop\n        /* \"#utility.yul\":9304:9375   */\n      tag_298\n        /* \"#utility.yul\":9372:9373   */\n      0x00\n        /* \"#utility.yul\":9361:9370   */\n      dup4\n        /* \"#utility.yul\":9357:9374   */\n      add\n        /* \"#utility.yul\":9348:9354   */\n      dup6\n        /* \"#utility.yul\":9304:9375   */\n      tag_177\n      jump\t// in\n    tag_298:\n        /* \"#utility.yul\":9385:9457   */\n      tag_299\n        /* \"#utility.yul\":9453:9455   */\n      0x20\n        /* \"#utility.yul\":9442:9451   */\n      dup4\n        /* \"#utility.yul\":9438:9456   */\n      add\n        /* \"#utility.yul\":9429:9435   */\n      dup5\n        /* \"#utility.yul\":9385:9457   */\n      tag_178\n      jump\t// in\n    tag_299:\n        /* \"#utility.yul\":9132:9464   */\n      swap4\n      swap3\n      pop\n      pop\n      pop\n      jump\t// out\n        /* \"#utility.yul\":9470:9650   */\n    tag_187:\n        /* \"#utility.yul\":9518:9595   */\n      0x4e487b7100000000000000000000000000000000000000000000000000000000\n        /* \"#utility.yul\":9515:9516   */\n      0x00\n        /* \"#utility.yul\":9508:9596   */\n      mstore\n        /* \"#utility.yul\":9615:9619   */\n      0x11\n        /* \"#utility.yul\":9612:9613   */\n      0x04\n        /* \"#utility.yul\":9605:9620   */\n      mstore\n        /* \"#utility.yul\":9639:9643   */\n      0x24\n        /* \"#utility.yul\":9636:9637   */\n      0x00\n        /* \"#utility.yul\":9629:9644   */\n      revert\n        /* \"#utility.yul\":9656:10066   */\n    tag_115:\n        /* \"#utility.yul\":9696:9703   */\n      0x00\n        /* \"#utility.yul\":9719:9739   */\n      tag_302\n        /* \"#utility.yul\":9737:9738   */\n      dup3\n        /* \"#utility.yul\":9719:9739   */\n      tag_167\n      jump\t// in\n    tag_302:\n        /* \"#utility.yul\":9714:9739   */\n      swap2\n      pop\n        /* \"#utility.yul\":9753:9773   */\n      tag_303\n        /* \"#utility.yul\":9771:9772   */\n      dup4\n        /* \"#utility.yul\":9753:9773   */\n      tag_167\n      jump\t// in\n    tag_303:\n        /* \"#utility.yul\":9748:9773   */\n      swap3\n      pop\n        /* \"#utility.yul\":9808:9809   */\n      dup3\n        /* \"#utility.yul\":9805:9806   */\n      dup3\n        /* \"#utility.yul\":9801:9810   */\n      mul\n        /* \"#utility.yul\":9830:9860   */\n      tag_304\n        /* \"#utility.yul\":9848:9859   */\n      dup2\n        /* \"#utility.yul\":9830:9860   */\n      tag_167\n      jump\t// in\n    tag_304:\n        /* \"#utility.yul\":9819:9860   */\n      swap2\n      pop\n        /* \"#utility.yul\":10009:10010   */\n      dup3\n        /* \"#utility.yul\":10000:10007   */\n      dup3\n        /* \"#utility.yul\":9996:10011   */\n      div\n        /* \"#utility.yul\":9993:9994   */\n      dup5\n        /* \"#utility.yul\":9990:10012   */\n      eq\n        /* \"#utility.yul\":9970:9971   */\n      dup4\n        /* \"#utility.yul\":9963:9972   */\n      iszero\n        /* \"#utility.yul\":9943:10026   */\n      or\n        /* \"#utility.yul\":9920:10059   */\n      tag_305\n      jumpi\n        /* \"#utility.yul\":10039:10057   */\n      tag_306\n      tag_187\n      jump\t// in\n    tag_306:\n        /* \"#utility.yul\":9920:10059   */\n    tag_305:\n        /* \"#utility.yul\":9704:10066   */\n      pop\n        /* \"#utility.yul\":9656:10066   */\n      swap3\n      swap2\n      pop\n      pop\n      jump\t// out\n        /* \"#utility.yul\":10072:10252   */\n    tag_188:\n        /* \"#utility.yul\":10120:10197   */\n      0x4e487b7100000000000000000000000000000000000000000000000000000000\n        /* \"#utility.yul\":10117:10118   */\n      0x00\n        /* \"#utility.yul\":10110:10198   */\n      mstore\n        /* \"#utility.yul\":10217:10221   */\n      0x12\n        /* \"#utility.yul\":10214:10215   */\n      0x04\n        /* \"#utility.yul\":10207:10222   */\n      mstore\n        /* \"#utility.yul\":10241:10245   */\n      0x24\n        /* \"#utility.yul\":10238:10239   */\n      0x00\n        /* \"#utility.yul\":10231:10246   */\n      revert\n        /* \"#utility.yul\":10258:10443   */\n    tag_117:\n        /* \"#utility.yul\":10298:10299   */\n      0x00\n        /* \"#utility.yul\":10315:10335   */\n      tag_309\n        /* \"#utility.yul\":10333:10334   */\n      dup3\n        /* \"#utility.yul\":10315:10335   */\n      tag_167\n      jump\t// in\n    tag_309:\n        /* \"#utility.yul\":10310:10335   */\n      swap2\n      pop\n        /* \"#utility.yul\":10349:10369   */\n      tag_310\n        /* \"#utility.yul\":10367:10368   */\n      dup4\n        /* \"#utility.yul\":10349:10369   */\n      tag_167\n      jump\t// in\n    tag_310:\n        /* \"#utility.yul\":10344:10369   */\n      swap3\n      pop\n        /* \"#utility.yul\":10388:10389   */\n      dup3\n        /* \"#utility.yul\":10378:10413   */\n      tag_311\n      jumpi\n        /* \"#utility.yul\":10393:10411   */\n      tag_312\n      tag_188\n      jump\t// in\n    tag_312:\n        /* \"#utility.yul\":10378:10413   */\n    tag_311:\n        /* \"#utility.yul\":10435:10436   */\n      dup3\n        /* \"#utility.yul\":10432:10433   */\n      dup3\n        /* \"#utility.yul\":10428:10437   */\n      div\n        /* \"#utility.yul\":10423:10437   */\n      swap1\n      pop\n        /* \"#utility.yul\":10258:10443   */\n      swap3\n      swap2\n      pop\n      pop\n      jump\t// out\n        /* \"#utility.yul\":10449:10624   */\n    tag_189:\n        /* \"#utility.yul\":10589:10616   */\n      0x4e6f7420656e6f75676820746f6b656e7320746f207377617000000000000000\n        /* \"#utility.yul\":10585:10586   */\n      0x00\n        /* \"#utility.yul\":10577:10583   */\n      dup3\n        /* \"#utility.yul\":10573:10587   */\n      add\n        /* \"#utility.yul\":10566:10617   */\n      mstore\n        /* \"#utility.yul\":10449:10624   */\n      pop\n      jump\t// out\n        /* \"#utility.yul\":10630:10996   */\n    tag_190:\n        /* \"#utility.yul\":10772:10775   */\n      0x00\n        /* \"#utility.yul\":10793:10860   */\n      tag_315\n        /* \"#utility.yul\":10857:10859   */\n      0x19\n        /* \"#utility.yul\":10852:10855   */\n      dup4\n        /* \"#utility.yul\":10793:10860   */\n      tag_182\n      jump\t// in\n    tag_315:\n        /* \"#utility.yul\":10786:10860   */\n      swap2\n      pop\n        /* \"#utility.yul\":10869:10962   */\n      tag_316\n        /* \"#utility.yul\":10958:10961   */\n      dup3\n        /* \"#utility.yul\":10869:10962   */\n      tag_189\n      jump\t// in\n    tag_316:\n        /* \"#utility.yul\":10987:10989   */\n      0x20\n        /* \"#utility.yul\":10982:10985   */\n      dup3\n        /* \"#utility.yul\":10978:10990   */\n      add\n        /* \"#utility.yul\":10971:10990   */\n      swap1\n      pop\n        /* \"#utility.yul\":10630:10996   */\n      swap2\n      swap1\n      pop\n      jump\t// out\n        /* \"#utility.yul\":11002:11421   */\n    tag_125:\n        /* \"#utility.yul\":11168:11172   */\n      0x00\n        /* \"#utility.yul\":11206:11208   */\n      0x20\n        /* \"#utility.yul\":11195:11204   */\n      dup3\n        /* \"#utility.yul\":11191:11209   */\n      add\n        /* \"#utility.yul\":11183:11209   */\n      swap1\n      pop\n        /* \"#utility.yul\":11255:11264   */\n      dup2\n        /* \"#utility.yul\":11249:11253   */\n      dup2\n        /* \"#utility.yul\":11245:11265   */\n      sub\n        /* \"#utility.yul\":11241:11242   */\n      0x00\n        /* \"#utility.yul\":11230:11239   */\n      dup4\n        /* \"#utility.yul\":11226:11243   */\n      add\n        /* \"#utility.yul\":11219:11266   */\n      mstore\n        /* \"#utility.yul\":11283:11414   */\n      tag_318\n        /* \"#utility.yul\":11409:11413   */\n      dup2\n        /* \"#utility.yul\":11283:11414   */\n      tag_190\n      jump\t// in\n    tag_318:\n        /* \"#utility.yul\":11275:11414   */\n      swap1\n      pop\n        /* \"#utility.yul\":11002:11421   */\n      swap2\n      swap1\n      pop\n      jump\t// out\n        /* \"#utility.yul\":11427:11759   */\n    tag_137:\n        /* \"#utility.yul\":11548:11552   */\n      0x00\n        /* \"#utility.yul\":11586:11588   */\n      0x40\n        /* \"#utility.yul\":11575:11584   */\n      dup3\n        /* \"#utility.yul\":11571:11589   */\n      add\n        /* \"#utility.yul\":11563:11589   */\n      swap1\n      pop\n        /* \"#utility.yul\":11599:11670   */\n      tag_320\n        /* \"#utility.yul\":11667:11668   */\n      0x00\n        /* \"#utility.yul\":11656:11665   */\n      dup4\n        /* \"#utility.yul\":11652:11669   */\n      add\n        /* \"#utility.yul\":11643:11649   */\n      dup6\n        /* \"#utility.yul\":11599:11670   */\n      tag_177\n      jump\t// in\n    tag_320:\n        /* \"#utility.yul\":11680:11752   */\n      tag_321\n        /* \"#utility.yul\":11748:11750   */\n      0x20\n        /* \"#utility.yul\":11737:11746   */\n      dup4\n        /* \"#utility.yul\":11733:11751   */\n      add\n        /* \"#utility.yul\":11724:11730   */\n      dup5\n        /* \"#utility.yul\":11680:11752   */\n      tag_177\n      jump\t// in\n    tag_321:\n        /* \"#utility.yul\":11427:11759   */\n      swap4\n      swap3\n      pop\n      pop\n      pop\n      jump\t// out\n        /* \"#utility.yul\":11765:11942   */\n    tag_191:\n        /* \"#utility.yul\":11905:11934   */\n      0x416c6c6f77616e636520636865636b206265666f72652073656c6c0000000000\n        /* \"#utility.yul\":11901:11902   */\n      0x00\n        /* \"#utility.yul\":11893:11899   */\n      dup3\n        /* \"#utility.yul\":11889:11903   */\n      add\n        /* \"#utility.yul\":11882:11935   */\n      mstore\n        /* \"#utility.yul\":11765:11942   */\n      pop\n      jump\t// out\n        /* \"#utility.yul\":11948:12314   */\n    tag_192:\n        /* \"#utility.yul\":12090:12093   */\n      0x00\n        /* \"#utility.yul\":12111:12178   */\n      tag_324\n        /* \"#utility.yul\":12175:12177   */\n      0x1b\n        /* \"#utility.yul\":12170:12173   */\n      dup4\n        /* \"#utility.yul\":12111:12178   */\n      tag_182\n      jump\t// in\n    tag_324:\n        /* \"#utility.yul\":12104:12178   */\n      swap2\n      pop\n        /* \"#utility.yul\":12187:12280   */\n      tag_325\n        /* \"#utility.yul\":12276:12279   */\n      dup3\n        /* \"#utility.yul\":12187:12280   */\n      tag_191\n      jump\t// in\n    tag_325:\n        /* \"#utility.yul\":12305:12307   */\n      0x20\n        /* \"#utility.yul\":12300:12303   */\n      dup3\n        /* \"#utility.yul\":12296:12308   */\n      add\n        /* \"#utility.yul\":12289:12308   */\n      swap1\n      pop\n        /* \"#utility.yul\":11948:12314   */\n      swap2\n      swap1\n      pop\n      jump\t// out\n        /* \"#utility.yul\":12320:12849   */\n    tag_142:\n        /* \"#utility.yul\":12514:12518   */\n      0x00\n        /* \"#utility.yul\":12552:12554   */\n      0x40\n        /* \"#utility.yul\":12541:12550   */\n      dup3\n        /* \"#utility.yul\":12537:12555   */\n      add\n        /* \"#utility.yul\":12529:12555   */\n      swap1\n      pop\n        /* \"#utility.yul\":12601:12610   */\n      dup2\n        /* \"#utility.yul\":12595:12599   */\n      dup2\n        /* \"#utility.yul\":12591:12611   */\n      sub\n        /* \"#utility.yul\":12587:12588   */\n      0x00\n        /* \"#utility.yul\":12576:12585   */\n      dup4\n        /* \"#utility.yul\":12572:12589   */\n      add\n        /* \"#utility.yul\":12565:12612   */\n      mstore\n        /* \"#utility.yul\":12629:12760   */\n      tag_327\n        /* \"#utility.yul\":12755:12759   */\n      dup2\n        /* \"#utility.yul\":12629:12760   */\n      tag_192\n      jump\t// in\n    tag_327:\n        /* \"#utility.yul\":12621:12760   */\n      swap1\n      pop\n        /* \"#utility.yul\":12770:12842   */\n      tag_328\n        /* \"#utility.yul\":12838:12840   */\n      0x20\n        /* \"#utility.yul\":12827:12836   */\n      dup4\n        /* \"#utility.yul\":12823:12841   */\n      add\n        /* \"#utility.yul\":12814:12820   */\n      dup5\n        /* \"#utility.yul\":12770:12842   */\n      tag_178\n      jump\t// in\n    tag_328:\n        /* \"#utility.yul\":12320:12849   */\n      swap3\n      swap2\n      pop\n      pop\n      jump\t// out\n        /* \"#utility.yul\":12855:13083   */\n    tag_193:\n        /* \"#utility.yul\":12995:13029   */\n      0x416c6c6f77616e6365206973206c657373207468616e2074686520616d6f756e\n        /* \"#utility.yul\":12991:12992   */\n      0x00\n        /* \"#utility.yul\":12983:12989   */\n      dup3\n        /* \"#utility.yul\":12979:12993   */\n      add\n        /* \"#utility.yul\":12972:13030   */\n      mstore\n        /* \"#utility.yul\":13064:13075   */\n      0x7420746f2073656c6c0000000000000000000000000000000000000000000000\n        /* \"#utility.yul\":13059:13061   */\n      0x20\n        /* \"#utility.yul\":13051:13057   */\n      dup3\n        /* \"#utility.yul\":13047:13062   */\n      add\n        /* \"#utility.yul\":13040:13076   */\n      mstore\n        /* \"#utility.yul\":12855:13083   */\n      pop\n      jump\t// out\n        /* \"#utility.yul\":13089:13455   */\n    tag_194:\n        /* \"#utility.yul\":13231:13234   */\n      0x00\n        /* \"#utility.yul\":13252:13319   */\n      tag_331\n        /* \"#utility.yul\":13316:13318   */\n      0x29\n        /* \"#utility.yul\":13311:13314   */\n      dup4\n        /* \"#utility.yul\":13252:13319   */\n      tag_182\n      jump\t// in\n    tag_331:\n        /* \"#utility.yul\":13245:13319   */\n      swap2\n      pop\n        /* \"#utility.yul\":13328:13421   */\n      tag_332\n        /* \"#utility.yul\":13417:13420   */\n      dup3\n        /* \"#utility.yul\":13328:13421   */\n      tag_193\n      jump\t// in\n    tag_332:\n        /* \"#utility.yul\":13446:13448   */\n      0x40\n        /* \"#utility.yul\":13441:13444   */\n      dup3\n        /* \"#utility.yul\":13437:13449   */\n      add\n        /* \"#utility.yul\":13430:13449   */\n      swap1\n      pop\n        /* \"#utility.yul\":13089:13455   */\n      swap2\n      swap1\n      pop\n      jump\t// out\n        /* \"#utility.yul\":13461:13880   */\n    tag_145:\n        /* \"#utility.yul\":13627:13631   */\n      0x00\n        /* \"#utility.yul\":13665:13667   */\n      0x20\n        /* \"#utility.yul\":13654:13663   */\n      dup3\n        /* \"#utility.yul\":13650:13668   */\n      add\n        /* \"#utility.yul\":13642:13668   */\n      swap1\n      pop\n        /* \"#utility.yul\":13714:13723   */\n      dup2\n        /* \"#utility.yul\":13708:13712   */\n      dup2\n        /* \"#utility.yul\":13704:13724   */\n      sub\n        /* \"#utility.yul\":13700:13701   */\n      0x00\n        /* \"#utility.yul\":13689:13698   */\n      dup4\n        /* \"#utility.yul\":13685:13702   */\n      add\n        /* \"#utility.yul\":13678:13725   */\n      mstore\n        /* \"#utility.yul\":13742:13873   */\n      tag_334\n        /* \"#utility.yul\":13868:13872   */\n      dup2\n        /* \"#utility.yul\":13742:13873   */\n      tag_194\n      jump\t// in\n    tag_334:\n        /* \"#utility.yul\":13734:13873   */\n      swap1\n      pop\n        /* \"#utility.yul\":13461:13880   */\n      swap2\n      swap1\n      pop\n      jump\t// out\n        /* \"#utility.yul\":13886:14061   */\n    tag_195:\n        /* \"#utility.yul\":14026:14053   */\n      0x42616c616e636520636865636b206265666f72652073656c6c00000000000000\n        /* \"#utility.yul\":14022:14023   */\n      0x00\n        /* \"#utility.yul\":14014:14020   */\n      dup3\n        /* \"#utility.yul\":14010:14024   */\n      add\n        /* \"#utility.yul\":14003:14054   */\n      mstore\n        /* \"#utility.yul\":13886:14061   */\n      pop\n      jump\t// out\n        /* \"#utility.yul\":14067:14433   */\n    tag_196:\n        /* \"#utility.yul\":14209:14212   */\n      0x00\n        /* \"#utility.yul\":14230:14297   */\n      tag_337\n        /* \"#utility.yul\":14294:14296   */\n      0x19\n        /* \"#utility.yul\":14289:14292   */\n      dup4\n        /* \"#utility.yul\":14230:14297   */\n      tag_182\n      jump\t// in\n    tag_337:\n        /* \"#utility.yul\":14223:14297   */\n      swap2\n      pop\n        /* \"#utility.yul\":14306:14399   */\n      tag_338\n        /* \"#utility.yul\":14395:14398   */\n      dup3\n        /* \"#utility.yul\":14306:14399   */\n      tag_195\n      jump\t// in\n    tag_338:\n        /* \"#utility.yul\":14424:14426   */\n      0x20\n        /* \"#utility.yul\":14419:14422   */\n      dup3\n        /* \"#utility.yul\":14415:14427   */\n      add\n        /* \"#utility.yul\":14408:14427   */\n      swap1\n      pop\n        /* \"#utility.yul\":14067:14433   */\n      swap2\n      swap1\n      pop\n      jump\t// out\n        /* \"#utility.yul\":14439:14968   */\n    tag_151:\n        /* \"#utility.yul\":14633:14637   */\n      0x00\n        /* \"#utility.yul\":14671:14673   */\n      0x40\n        /* \"#utility.yul\":14660:14669   */\n      dup3\n        /* \"#utility.yul\":14656:14674   */\n      add\n        /* \"#utility.yul\":14648:14674   */\n      swap1\n      pop\n        /* \"#utility.yul\":14720:14729   */\n      dup2\n        /* \"#utility.yul\":14714:14718   */\n      dup2\n        /* \"#utility.yul\":14710:14730   */\n      sub\n        /* \"#utility.yul\":14706:14707   */\n      0x00\n        /* \"#utility.yul\":14695:14704   */\n      dup4\n        /* \"#utility.yul\":14691:14708   */\n      add\n        /* \"#utility.yul\":14684:14731   */\n      mstore\n        /* \"#utility.yul\":14748:14879   */\n      tag_340\n        /* \"#utility.yul\":14874:14878   */\n      dup2\n        /* \"#utility.yul\":14748:14879   */\n      tag_196\n      jump\t// in\n    tag_340:\n        /* \"#utility.yul\":14740:14879   */\n      swap1\n      pop\n        /* \"#utility.yul\":14889:14961   */\n      tag_341\n        /* \"#utility.yul\":14957:14959   */\n      0x20\n        /* \"#utility.yul\":14946:14955   */\n      dup4\n        /* \"#utility.yul\":14942:14960   */\n      add\n        /* \"#utility.yul\":14933:14939   */\n      dup5\n        /* \"#utility.yul\":14889:14961   */\n      tag_178\n      jump\t// in\n    tag_341:\n        /* \"#utility.yul\":14439:14968   */\n      swap3\n      swap2\n      pop\n      pop\n      jump\t// out\n        /* \"#utility.yul\":14974:15144   */\n    tag_197:\n        /* \"#utility.yul\":15114:15136   */\n      0x496e73756666696369656e742062616c616e6365000000000000000000000000\n        /* \"#utility.yul\":15110:15111   */\n      0x00\n        /* \"#utility.yul\":15102:15108   */\n      dup3\n        /* \"#utility.yul\":15098:15112   */\n      add\n        /* \"#utility.yul\":15091:15137   */\n      mstore\n        /* \"#utility.yul\":14974:15144   */\n      pop\n      jump\t// out\n        /* \"#utility.yul\":15150:15516   */\n    tag_198:\n        /* \"#utility.yul\":15292:15295   */\n      0x00\n        /* \"#utility.yul\":15313:15380   */\n      tag_344\n        /* \"#utility.yul\":15377:15379   */\n      0x14\n        /* \"#utility.yul\":15372:15375   */\n      dup4\n        /* \"#utility.yul\":15313:15380   */\n      tag_182\n      jump\t// in\n    tag_344:\n        /* \"#utility.yul\":15306:15380   */\n      swap2\n      pop\n        /* \"#utility.yul\":15389:15482   */\n      tag_345\n        /* \"#utility.yul\":15478:15481   */\n      dup3\n        /* \"#utility.yul\":15389:15482   */\n      tag_197\n      jump\t// in\n    tag_345:\n        /* \"#utility.yul\":15507:15509   */\n      0x20\n        /* \"#utility.yul\":15502:15505   */\n      dup3\n        /* \"#utility.yul\":15498:15510   */\n      add\n        /* \"#utility.yul\":15491:15510   */\n      swap1\n      pop\n        /* \"#utility.yul\":15150:15516   */\n      swap2\n      swap1\n      pop\n      jump\t// out\n        /* \"#utility.yul\":15522:15941   */\n    tag_154:\n        /* \"#utility.yul\":15688:15692   */\n      0x00\n        /* \"#utility.yul\":15726:15728   */\n      0x20\n        /* \"#utility.yul\":15715:15724   */\n      dup3\n        /* \"#utility.yul\":15711:15729   */\n      add\n        /* \"#utility.yul\":15703:15729   */\n      swap1\n      pop\n        /* \"#utility.yul\":15775:15784   */\n      dup2\n        /* \"#utility.yul\":15769:15773   */\n      dup2\n        /* \"#utility.yul\":15765:15785   */\n      sub\n        /* \"#utility.yul\":15761:15762   */\n      0x00\n        /* \"#utility.yul\":15750:15759   */\n      dup4\n        /* \"#utility.yul\":15746:15763   */\n      add\n        /* \"#utility.yul\":15739:15786   */\n      mstore\n        /* \"#utility.yul\":15803:15934   */\n      tag_347\n        /* \"#utility.yul\":15929:15933   */\n      dup2\n        /* \"#utility.yul\":15803:15934   */\n      tag_198\n      jump\t// in\n    tag_347:\n        /* \"#utility.yul\":15795:15934   */\n      swap1\n      pop\n        /* \"#utility.yul\":15522:15941   */\n      swap2\n      swap1\n      pop\n      jump\t// out\n\n    auxdata: 0xa26469706673582212208f778f6edd6e518b494092576ee54d18dadcea520a6497b7f22f691b022ea47664736f6c63430008140033\n}\n\nsub_1: assembly {\n        /* \"contracts/SwappableToken.sol\":1659:4112  contract DXTK is IERC20 {... */\n      mstore(0x40, 0x80)\n        /* \"contracts/SwappableToken.sol\":1813:1844  string public name = \"DX-token\" */\n      mload(0x40)\n      dup1\n      0x40\n      add\n      0x40\n      mstore\n      dup1\n      0x08\n      dup2\n      mstore\n      0x20\n      add\n      0x44582d746f6b656e000000000000000000000000000000000000000000000000\n      dup2\n      mstore\n      pop\n      0x02\n      swap1\n      dup2\n      tag_1\n      swap2\n      swap1\n      tag_2\n      jump\t// in\n    tag_1:\n      pop\n        /* \"contracts/SwappableToken.sol\":1850:1879  string public symbol = \"DXTK\" */\n      mload(0x40)\n      dup1\n      0x40\n      add\n      0x40\n      mstore\n      dup1\n      0x04\n      dup2\n      mstore\n      0x20\n      add\n      0x4458544b00000000000000000000000000000000000000000000000000000000\n      dup2\n      mstore\n      pop\n      0x03\n      swap1\n      dup2\n      tag_3\n      swap2\n      swap1\n      tag_2\n      jump\t// in\n    tag_3:\n      pop\n        /* \"contracts/SwappableToken.sol\":1914:1938  100000000000000000000000 */\n      0x152d02c7e14af6800000\n        /* \"contracts/SwappableToken.sol\":1885:1938  uint256 public totalSupply = 100000000000000000000000 */\n      0x04\n      sstore\n        /* \"contracts/SwappableToken.sol\":1984:1986  18 */\n      0x12\n        /* \"contracts/SwappableToken.sol\":1960:1986  uint8 public decimals = 18 */\n      0x05\n      exp(0x0100, 0x00)\n      dup2\n      sload\n      dup2\n      0xff\n      mul\n      not\n      and\n      swap1\n      dup4\n      0xff\n      and\n      mul\n      or\n      swap1\n      sstore\n      pop\n        /* \"contracts/SwappableToken.sol\":1993:2107  constructor() {... */\n      callvalue\n      dup1\n      iszero\n      tag_4\n      jumpi\n      0x00\n      dup1\n      revert\n    tag_4:\n      pop\n        /* \"contracts/SwappableToken.sol\":2042:2053  totalSupply */\n      sload(0x04)\n        /* \"contracts/SwappableToken.sol\":2017:2027  accBalance */\n      0x00\n        /* \"contracts/SwappableToken.sol\":2017:2039  accBalance[msg.sender] */\n      dup1\n        /* \"contracts/SwappableToken.sol\":2028:2038  msg.sender */\n      caller\n        /* \"contracts/SwappableToken.sol\":2017:2039  accBalance[msg.sender] */\n      0xffffffffffffffffffffffffffffffffffffffff\n      and\n      0xffffffffffffffffffffffffffffffffffffffff\n      and\n      dup2\n      mstore\n      0x20\n      add\n      swap1\n      dup2\n      mstore\n      0x20\n      add\n      0x00\n      keccak256\n        /* \"contracts/SwappableToken.sol\":2017:2053  accBalance[msg.sender] = totalSupply */\n      dup2\n      swap1\n      sstore\n      pop\n        /* \"contracts/SwappableToken.sol\":1659:4112  contract DXTK is IERC20 {... */\n      jump(tag_7)\n        /* \"#utility.yul\":7:106   */\n    tag_8:\n        /* \"#utility.yul\":59:65   */\n      0x00\n        /* \"#utility.yul\":93:98   */\n      dup2\n        /* \"#utility.yul\":87:99   */\n      mload\n        /* \"#utility.yul\":77:99   */\n      swap1\n      pop\n        /* \"#utility.yul\":7:106   */\n      swap2\n      swap1\n      pop\n      jump\t// out\n        /* \"#utility.yul\":112:292   */\n    tag_9:\n        /* \"#utility.yul\":160:237   */\n      0x4e487b7100000000000000000000000000000000000000000000000000000000\n        /* \"#utility.yul\":157:158   */\n      0x00\n        /* \"#utility.yul\":150:238   */\n      mstore\n        /* \"#utility.yul\":257:261   */\n      0x41\n        /* \"#utility.yul\":254:255   */\n      0x04\n        /* \"#utility.yul\":247:262   */\n      mstore\n        /* \"#utility.yul\":281:285   */\n      0x24\n        /* \"#utility.yul\":278:279   */\n      0x00\n        /* \"#utility.yul\":271:286   */\n      revert\n        /* \"#utility.yul\":298:478   */\n    tag_10:\n        /* \"#utility.yul\":346:423   */\n      0x4e487b7100000000000000000000000000000000000000000000000000000000\n        /* \"#utility.yul\":343:344   */\n      0x00\n        /* \"#utility.yul\":336:424   */\n      mstore\n        /* \"#utility.yul\":443:447   */\n      0x22\n        /* \"#utility.yul\":440:441   */\n      0x04\n        /* \"#utility.yul\":433:448   */\n      mstore\n        /* \"#utility.yul\":467:471   */\n      0x24\n        /* \"#utility.yul\":464:465   */\n      0x00\n        /* \"#utility.yul\":457:472   */\n      revert\n        /* \"#utility.yul\":484:804   */\n    tag_11:\n        /* \"#utility.yul\":528:534   */\n      0x00\n        /* \"#utility.yul\":565:566   */\n      0x02\n        /* \"#utility.yul\":559:563   */\n      dup3\n        /* \"#utility.yul\":555:567   */\n      div\n        /* \"#utility.yul\":545:567   */\n      swap1\n      pop\n        /* \"#utility.yul\":612:613   */\n      0x01\n        /* \"#utility.yul\":606:610   */\n      dup3\n        /* \"#utility.yul\":602:614   */\n      and\n        /* \"#utility.yul\":633:651   */\n      dup1\n        /* \"#utility.yul\":623:704   */\n      tag_33\n      jumpi\n        /* \"#utility.yul\":689:693   */\n      0x7f\n        /* \"#utility.yul\":681:687   */\n      dup3\n        /* \"#utility.yul\":677:694   */\n      and\n        /* \"#utility.yul\":667:694   */\n      swap2\n      pop\n        /* \"#utility.yul\":623:704   */\n    tag_33:\n        /* \"#utility.yul\":751:753   */\n      0x20\n        /* \"#utility.yul\":743:749   */\n      dup3\n        /* \"#utility.yul\":740:754   */\n      lt\n        /* \"#utility.yul\":720:738   */\n      dup2\n        /* \"#utility.yul\":717:755   */\n      sub\n        /* \"#utility.yul\":714:798   */\n      tag_34\n      jumpi\n        /* \"#utility.yul\":770:788   */\n      tag_35\n      tag_10\n      jump\t// in\n    tag_35:\n        /* \"#utility.yul\":714:798   */\n    tag_34:\n        /* \"#utility.yul\":535:804   */\n      pop\n        /* \"#utility.yul\":484:804   */\n      swap2\n      swap1\n      pop\n      jump\t// out\n        /* \"#utility.yul\":810:951   */\n    tag_12:\n        /* \"#utility.yul\":859:863   */\n      0x00\n        /* \"#utility.yul\":882:885   */\n      dup2\n        /* \"#utility.yul\":874:885   */\n      swap1\n      pop\n        /* \"#utility.yul\":905:908   */\n      dup2\n        /* \"#utility.yul\":902:903   */\n      0x00\n        /* \"#utility.yul\":895:909   */\n      mstore\n        /* \"#utility.yul\":939:943   */\n      0x20\n        /* \"#utility.yul\":936:937   */\n      0x00\n        /* \"#utility.yul\":926:944   */\n      keccak256\n        /* \"#utility.yul\":918:944   */\n      swap1\n      pop\n        /* \"#utility.yul\":810:951   */\n      swap2\n      swap1\n      pop\n      jump\t// out\n        /* \"#utility.yul\":957:1050   */\n    tag_13:\n        /* \"#utility.yul\":994:1000   */\n      0x00\n        /* \"#utility.yul\":1041:1043   */\n      0x20\n        /* \"#utility.yul\":1036:1038   */\n      0x1f\n        /* \"#utility.yul\":1029:1034   */\n      dup4\n        /* \"#utility.yul\":1025:1039   */\n      add\n        /* \"#utility.yul\":1021:1044   */\n      div\n        /* \"#utility.yul\":1011:1044   */\n      swap1\n      pop\n        /* \"#utility.yul\":957:1050   */\n      swap2\n      swap1\n      pop\n      jump\t// out\n        /* \"#utility.yul\":1056:1163   */\n    tag_14:\n        /* \"#utility.yul\":1100:1108   */\n      0x00\n        /* \"#utility.yul\":1150:1155   */\n      dup3\n        /* \"#utility.yul\":1144:1148   */\n      dup3\n        /* \"#utility.yul\":1140:1156   */\n      shl\n        /* \"#utility.yul\":1119:1156   */\n      swap1\n      pop\n        /* \"#utility.yul\":1056:1163   */\n      swap3\n      swap2\n      pop\n      pop\n      jump\t// out\n        /* \"#utility.yul\":1169:1562   */\n    tag_15:\n        /* \"#utility.yul\":1238:1244   */\n      0x00\n        /* \"#utility.yul\":1288:1289   */\n      0x08\n        /* \"#utility.yul\":1276:1286   */\n      dup4\n        /* \"#utility.yul\":1272:1290   */\n      mul\n        /* \"#utility.yul\":1311:1408   */\n      tag_40\n        /* \"#utility.yul\":1341:1407   */\n      0xffffffffffffffffffffffffffffffffffffffffffffffffffffffffffffffff\n        /* \"#utility.yul\":1330:1339   */\n      dup3\n        /* \"#utility.yul\":1311:1408   */\n      tag_14\n      jump\t// in\n    tag_40:\n        /* \"#utility.yul\":1429:1468   */\n      tag_41\n        /* \"#utility.yul\":1459:1467   */\n      dup7\n        /* \"#utility.yul\":1448:1457   */\n      dup4\n        /* \"#utility.yul\":1429:1468   */\n      tag_14\n      jump\t// in\n    tag_41:\n        /* \"#utility.yul\":1417:1468   */\n      swap6\n      pop\n        /* \"#utility.yul\":1501:1505   */\n      dup1\n        /* \"#utility.yul\":1497:1506   */\n      not\n        /* \"#utility.yul\":1490:1495   */\n      dup5\n        /* \"#utility.yul\":1486:1507   */\n      and\n        /* \"#utility.yul\":1477:1507   */\n      swap4\n      pop\n        /* \"#utility.yul\":1550:1554   */\n      dup1\n        /* \"#utility.yul\":1540:1548   */\n      dup7\n        /* \"#utility.yul\":1536:1555   */\n      and\n        /* \"#utility.yul\":1529:1534   */\n      dup5\n        /* \"#utility.yul\":1526:1556   */\n      or\n        /* \"#utility.yul\":1516:1556   */\n      swap3\n      pop\n        /* \"#utility.yul\":1245:1562   */\n      pop\n      pop\n        /* \"#utility.yul\":1169:1562   */\n      swap4\n      swap3\n      pop\n      pop\n      pop\n      jump\t// out\n        /* \"#utility.yul\":1568:1645   */\n    tag_16:\n        /* \"#utility.yul\":1605:1612   */\n      0x00\n        /* \"#utility.yul\":1634:1639   */\n      dup2\n        /* \"#utility.yul\":1623:1639   */\n      swap1\n      pop\n        /* \"#utility.yul\":1568:1645   */\n      swap2\n      swap1\n      pop\n      jump\t// out\n        /* \"#utility.yul\":1651:1711   */\n    tag_17:\n        /* \"#utility.yul\":1679:1682   */\n      0x00\n        /* \"#utility.yul\":1700:1705   */\n      dup2\n        /* \"#utility.yul\":1693:1705   */\n      swap1\n      pop\n        /* \"#utility.yul\":1651:1711   */\n      swap2\n      swap1\n      pop\n      jump\t// out\n        /* \"#utility.yul\":1717:1859   */\n    tag_18:\n        /* \"#utility.yul\":1767:1776   */\n      0x00\n        /* \"#utility.yul\":1800:1853   */\n      tag_45\n        /* \"#utility.yul\":1818:1852   */\n      tag_46\n        /* \"#utility.yul\":1827:1851   */\n      tag_47\n        /* \"#utility.yul\":1845:1850   */\n      dup5\n        /* \"#utility.yul\":1827:1851   */\n      tag_16\n      jump\t// in\n    tag_47:\n        /* \"#utility.yul\":1818:1852   */\n      tag_17\n      jump\t// in\n    tag_46:\n        /* \"#utility.yul\":1800:1853   */\n      tag_16\n      jump\t// in\n    tag_45:\n        /* \"#utility.yul\":1787:1853   */\n      swap1\n      pop\n        /* \"#utility.yul\":1717:1859   */\n      swap2\n      swap1\n      pop\n      jump\t// out\n        /* \"#utility.yul\":1865:1940   */\n    tag_19:\n        /* \"#utility.yul\":1908:1911   */\n      0x00\n        /* \"#utility.yul\":1929:1934   */\n      dup2\n        /* \"#utility.yul\":1922:1934   */\n      swap1\n      pop\n        /* \"#utility.yul\":1865:1940   */\n      swap2\n      swap1\n      pop\n      jump\t// out\n        /* \"#utility.yul\":1946:2215   */\n    tag_20:\n        /* \"#utility.yul\":2056:2095   */\n      tag_50\n        /* \"#utility.yul\":2087:2094   */\n      dup4\n        /* \"#utility.yul\":2056:2095   */\n      tag_18\n      jump\t// in\n    tag_50:\n        /* \"#utility.yul\":2117:2208   */\n      tag_51\n        /* \"#utility.yul\":2166:2207   */\n      tag_52\n        /* \"#utility.yul\":2190:2206   */\n      dup3\n        /* \"#utility.yul\":2166:2207   */\n      tag_19\n      jump\t// in\n    tag_52:\n        /* \"#utility.yul\":2158:2164   */\n      dup5\n        /* \"#utility.yul\":2151:2155   */\n      dup5\n        /* \"#utility.yul\":2145:2156   */\n      sload\n        /* \"#utility.yul\":2117:2208   */\n      tag_15\n      jump\t// in\n    tag_51:\n        /* \"#utility.yul\":2111:2115   */\n      dup3\n        /* \"#utility.yul\":2104:2209   */\n      sstore\n        /* \"#utility.yul\":2022:2215   */\n      pop\n        /* \"#utility.yul\":1946:2215   */\n      pop\n      pop\n      pop\n      jump\t// out\n        /* \"#utility.yul\":2221:2294   */\n    tag_21:\n        /* \"#utility.yul\":2266:2269   */\n      0x00\n        /* \"#utility.yul\":2221:2294   */\n      swap1\n      jump\t// out\n        /* \"#utility.yul\":2300:2489   */\n    tag_22:\n        /* \"#utility.yul\":2377:2409   */\n      tag_55\n      tag_21\n      jump\t// in\n    tag_55:\n        /* \"#utility.yul\":2418:2483   */\n      tag_56\n        /* \"#utility.yul\":2476:2482   */\n      dup2\n        /* \"#utility.yul\":2468:2474   */\n      dup5\n        /* \"#utility.yul\":2462:2466   */\n      dup5\n        /* \"#utility.yul\":2418:2483   */\n      tag_20\n      jump\t// in\n    tag_56:\n        /* \"#utility.yul\":2353:2489   */\n      pop\n        /* \"#utility.yul\":2300:2489   */\n      pop\n      pop\n      jump\t// out\n        /* \"#utility.yul\":2495:2681   */\n    tag_23:\n        /* \"#utility.yul\":2555:2675   */\n    tag_58:\n        /* \"#utility.yul\":2572:2575   */\n      dup2\n        /* \"#utility.yul\":2565:2570   */\n      dup2\n        /* \"#utility.yul\":2562:2576   */\n      lt\n        /* \"#utility.yul\":2555:2675   */\n      iszero\n      tag_60\n      jumpi\n        /* \"#utility.yul\":2626:2665   */\n      tag_61\n        /* \"#utility.yul\":2663:2664   */\n      0x00\n        /* \"#utility.yul\":2656:2661   */\n      dup3\n        /* \"#utility.yul\":2626:2665   */\n      tag_22\n      jump\t// in\n    tag_61:\n        /* \"#utility.yul\":2599:2600   */\n      0x01\n        /* \"#utility.yul\":2592:2597   */\n      dup2\n        /* \"#utility.yul\":2588:2601   */\n      add\n        /* \"#utility.yul\":2579:2601   */\n      swap1\n      pop\n        /* \"#utility.yul\":2555:2675   */\n      jump(tag_58)\n    tag_60:\n        /* \"#utility.yul\":2495:2681   */\n      pop\n      pop\n      jump\t// out\n        /* \"#utility.yul\":2687:3230   */\n    tag_24:\n        /* \"#utility.yul\":2788:2790   */\n      0x1f\n        /* \"#utility.yul\":2783:2786   */\n      dup3\n        /* \"#utility.yul\":2780:2791   */\n      gt\n        /* \"#utility.yul\":2777:3223   */\n      iszero\n      tag_63\n      jumpi\n        /* \"#utility.yul\":2822:2860   */\n      tag_64\n        /* \"#utility.yul\":2854:2859   */\n      dup2\n        /* \"#utility.yul\":2822:2860   */\n      tag_12\n      jump\t// in\n    tag_64:\n        /* \"#utility.yul\":2906:2935   */\n      tag_65\n        /* \"#utility.yul\":2924:2934   */\n      dup5\n        /* \"#utility.yul\":2906:2935   */\n      tag_13\n      jump\t// in\n    tag_65:\n        /* \"#utility.yul\":2896:2904   */\n      dup2\n        /* \"#utility.yul\":2892:2936   */\n      add\n        /* \"#utility.yul\":3089:3091   */\n      0x20\n        /* \"#utility.yul\":3077:3087   */\n      dup6\n        /* \"#utility.yul\":3074:3092   */\n      lt\n        /* \"#utility.yul\":3071:3120   */\n      iszero\n      tag_66\n      jumpi\n        /* \"#utility.yul\":3110:3118   */\n      dup2\n        /* \"#utility.yul\":3095:3118   */\n      swap1\n      pop\n        /* \"#utility.yul\":3071:3120   */\n    tag_66:\n        /* \"#utility.yul\":3133:3213   */\n      tag_67\n        /* \"#utility.yul\":3189:3211   */\n      tag_68\n        /* \"#utility.yul\":3207:3210   */\n      dup6\n        /* \"#utility.yul\":3189:3211   */\n      tag_13\n      jump\t// in\n    tag_68:\n        /* \"#utility.yul\":3179:3187   */\n      dup4\n        /* \"#utility.yul\":3175:3212   */\n      add\n        /* \"#utility.yul\":3162:3173   */\n      dup3\n        /* \"#utility.yul\":3133:3213   */\n      tag_23\n      jump\t// in\n    tag_67:\n        /* \"#utility.yul\":2792:3223   */\n      pop\n      pop\n        /* \"#utility.yul\":2777:3223   */\n    tag_63:\n        /* \"#utility.yul\":2687:3230   */\n      pop\n      pop\n      pop\n      jump\t// out\n        /* \"#utility.yul\":3236:3353   */\n    tag_25:\n        /* \"#utility.yul\":3290:3298   */\n      0x00\n        /* \"#utility.yul\":3340:3345   */\n      dup3\n        /* \"#utility.yul\":3334:3338   */\n      dup3\n        /* \"#utility.yul\":3330:3346   */\n      shr\n        /* \"#utility.yul\":3309:3346   */\n      swap1\n      pop\n        /* \"#utility.yul\":3236:3353   */\n      swap3\n      swap2\n      pop\n      pop\n      jump\t// out\n        /* \"#utility.yul\":3359:3528   */\n    tag_26:\n        /* \"#utility.yul\":3403:3409   */\n      0x00\n        /* \"#utility.yul\":3436:3487   */\n      tag_71\n        /* \"#utility.yul\":3484:3485   */\n      0x00\n        /* \"#utility.yul\":3480:3486   */\n      not\n        /* \"#utility.yul\":3472:3477   */\n      dup5\n        /* \"#utility.yul\":3469:3470   */\n      0x08\n        /* \"#utility.yul\":3465:3478   */\n      mul\n        /* \"#utility.yul\":3436:3487   */\n      tag_25\n      jump\t// in\n    tag_71:\n        /* \"#utility.yul\":3432:3488   */\n      not\n        /* \"#utility.yul\":3517:3521   */\n      dup1\n        /* \"#utility.yul\":3511:3515   */\n      dup4\n        /* \"#utility.yul\":3507:3522   */\n      and\n        /* \"#utility.yul\":3497:3522   */\n      swap2\n      pop\n        /* \"#utility.yul\":3410:3528   */\n      pop\n        /* \"#utility.yul\":3359:3528   */\n      swap3\n      swap2\n      pop\n      pop\n      jump\t// out\n        /* \"#utility.yul\":3533:3828   */\n    tag_27:\n        /* \"#utility.yul\":3609:3613   */\n      0x00\n        /* \"#utility.yul\":3755:3784   */\n      tag_73\n        /* \"#utility.yul\":3780:3783   */\n      dup4\n        /* \"#utility.yul\":3774:3778   */\n      dup4\n        /* \"#utility.yul\":3755:3784   */\n      tag_26\n      jump\t// in\n    tag_73:\n        /* \"#utility.yul\":3747:3784   */\n      swap2\n      pop\n        /* \"#utility.yul\":3817:3820   */\n      dup3\n        /* \"#utility.yul\":3814:3815   */\n      0x02\n        /* \"#utility.yul\":3810:3821   */\n      mul\n        /* \"#utility.yul\":3804:3808   */\n      dup3\n        /* \"#utility.yul\":3801:3822   */\n      or\n        /* \"#utility.yul\":3793:3822   */\n      swap1\n      pop\n        /* \"#utility.yul\":3533:3828   */\n      swap3\n      swap2\n      pop\n      pop\n      jump\t// out\n        /* \"#utility.yul\":3833:5228   */\n    tag_2:\n        /* \"#utility.yul\":3950:3987   */\n      tag_75\n        /* \"#utility.yul\":3983:3986   */\n      dup3\n        /* \"#utility.yul\":3950:3987   */\n      tag_8\n      jump\t// in\n    tag_75:\n        /* \"#utility.yul\":4052:4070   */\n      0xffffffffffffffff\n        /* \"#utility.yul\":4044:4050   */\n      dup2\n        /* \"#utility.yul\":4041:4071   */\n      gt\n        /* \"#utility.yul\":4038:4094   */\n      iszero\n      tag_76\n      jumpi\n        /* \"#utility.yul\":4074:4092   */\n      tag_77\n      tag_9\n      jump\t// in\n    tag_77:\n        /* \"#utility.yul\":4038:4094   */\n    tag_76:\n        /* \"#utility.yul\":4118:4156   */\n      tag_78\n        /* \"#utility.yul\":4150:4154   */\n      dup3\n        /* \"#utility.yul\":4144:4155   */\n      sload\n        /* \"#utility.yul\":4118:4156   */\n      tag_11\n      jump\t// in\n    tag_78:\n        /* \"#utility.yul\":4203:4270   */\n      tag_79\n        /* \"#utility.yul\":4263:4269   */\n      dup3\n        /* \"#utility.yul\":4255:4261   */\n      dup3\n        /* \"#utility.yul\":4249:4253   */\n      dup6\n        /* \"#utility.yul\":4203:4270   */\n      tag_24\n      jump\t// in\n    tag_79:\n        /* \"#utility.yul\":4297:4298   */\n      0x00\n        /* \"#utility.yul\":4321:4325   */\n      0x20\n        /* \"#utility.yul\":4308:4325   */\n      swap1\n      pop\n        /* \"#utility.yul\":4353:4355   */\n      0x1f\n        /* \"#utility.yul\":4345:4351   */\n      dup4\n        /* \"#utility.yul\":4342:4356   */\n      gt\n        /* \"#utility.yul\":4370:4371   */\n      0x01\n        /* \"#utility.yul\":4365:4983   */\n      dup2\n      eq\n      tag_81\n      jumpi\n        /* \"#utility.yul\":5027:5028   */\n      0x00\n        /* \"#utility.yul\":5044:5050   */\n      dup5\n        /* \"#utility.yul\":5041:5118   */\n      iszero\n      tag_82\n      jumpi\n        /* \"#utility.yul\":5093:5102   */\n      dup3\n        /* \"#utility.yul\":5088:5091   */\n      dup8\n        /* \"#utility.yul\":5084:5103   */\n      add\n        /* \"#utility.yul\":5078:5104   */\n      mload\n        /* \"#utility.yul\":5069:5104   */\n      swap1\n      pop\n        /* \"#utility.yul\":5041:5118   */\n    tag_82:\n        /* \"#utility.yul\":5144:5211   */\n      tag_83\n        /* \"#utility.yul\":5204:5210   */\n      dup6\n        /* \"#utility.yul\":5197:5202   */\n      dup3\n        /* \"#utility.yul\":5144:5211   */\n      tag_27\n      jump\t// in\n    tag_83:\n        /* \"#utility.yul\":5138:5142   */\n      dup7\n        /* \"#utility.yul\":5131:5212   */\n      sstore\n        /* \"#utility.yul\":5000:5222   */\n      pop\n        /* \"#utility.yul\":4335:5222   */\n      jump(tag_80)\n        /* \"#utility.yul\":4365:4983   */\n    tag_81:\n        /* \"#utility.yul\":4417:4421   */\n      0x1f\n        /* \"#utility.yul\":4413:4422   */\n      not\n        /* \"#utility.yul\":4405:4411   */\n      dup5\n        /* \"#utility.yul\":4401:4423   */\n      and\n        /* \"#utility.yul\":4451:4488   */\n      tag_84\n        /* \"#utility.yul\":4483:4487   */\n      dup7\n        /* \"#utility.yul\":4451:4488   */\n      tag_12\n      jump\t// in\n    tag_84:\n        /* \"#utility.yul\":4510:4511   */\n      0x00\n        /* \"#utility.yul\":4524:4732   */\n    tag_85:\n        /* \"#utility.yul\":4538:4545   */\n      dup3\n        /* \"#utility.yul\":4535:4536   */\n      dup2\n        /* \"#utility.yul\":4532:4546   */\n      lt\n        /* \"#utility.yul\":4524:4732   */\n      iszero\n      tag_87\n      jumpi\n        /* \"#utility.yul\":4617:4626   */\n      dup5\n        /* \"#utility.yul\":4612:4615   */\n      dup10\n        /* \"#utility.yul\":4608:4627   */\n      add\n        /* \"#utility.yul\":4602:4628   */\n      mload\n        /* \"#utility.yul\":4594:4600   */\n      dup3\n        /* \"#utility.yul\":4587:4629   */\n      sstore\n        /* \"#utility.yul\":4668:4669   */\n      0x01\n        /* \"#utility.yul\":4660:4666   */\n      dup3\n        /* \"#utility.yul\":4656:4670   */\n      add\n        /* \"#utility.yul\":4646:4670   */\n      swap2\n      pop\n        /* \"#utility.yul\":4715:4717   */\n      0x20\n        /* \"#utility.yul\":4704:4713   */\n      dup6\n        /* \"#utility.yul\":4700:4718   */\n      add\n        /* \"#utility.yul\":4687:4718   */\n      swap5\n      pop\n        /* \"#utility.yul\":4561:4565   */\n      0x20\n        /* \"#utility.yul\":4558:4559   */\n      dup2\n        /* \"#utility.yul\":4554:4566   */\n      add\n        /* \"#utility.yul\":4549:4566   */\n      swap1\n      pop\n        /* \"#utility.yul\":4524:4732   */\n      jump(tag_85)\n    tag_87:\n        /* \"#utility.yul\":4760:4766   */\n      dup7\n        /* \"#utility.yul\":4751:4758   */\n      dup4\n        /* \"#utility.yul\":4748:4767   */\n      lt\n        /* \"#utility.yul\":4745:4924   */\n      iszero\n      tag_88\n      jumpi\n        /* \"#utility.yul\":4818:4827   */\n      dup5\n        /* \"#utility.yul\":4813:4816   */\n      dup10\n        /* \"#utility.yul\":4809:4828   */\n      add\n        /* \"#utility.yul\":4803:4829   */\n      mload\n        /* \"#utility.yul\":4861:4909   */\n      tag_89\n        /* \"#utility.yul\":4903:4907   */\n      0x1f\n        /* \"#utility.yul\":4895:4901   */\n      dup10\n        /* \"#utility.yul\":4891:4908   */\n      and\n        /* \"#utility.yul\":4880:4889   */\n      dup3\n        /* \"#utility.yul\":4861:4909   */\n      tag_26\n      jump\t// in\n    tag_89:\n        /* \"#utility.yul\":4853:4859   */\n      dup4\n        /* \"#utility.yul\":4846:4910   */\n      sstore\n        /* \"#utility.yul\":4768:4924   */\n      pop\n        /* \"#utility.yul\":4745:4924   */\n    tag_88:\n        /* \"#utility.yul\":4970:4971   */\n      0x01\n        /* \"#utility.yul\":4966:4967   */\n      0x02\n        /* \"#utility.yul\":4958:4964   */\n      dup9\n        /* \"#utility.yul\":4954:4968   */\n      mul\n        /* \"#utility.yul\":4950:4972   */\n      add\n        /* \"#utility.yul\":4944:4948   */\n      dup9\n        /* \"#utility.yul\":4937:4973   */\n      sstore\n        /* \"#utility.yul\":4372:4983   */\n      pop\n      pop\n      pop\n        /* \"#utility.yul\":4335:5222   */\n    tag_80:\n      pop\n        /* \"#utility.yul\":3925:5228   */\n      pop\n      pop\n      pop\n        /* \"#utility.yul\":3833:5228   */\n      pop\n      pop\n      jump\t// out\n        /* \"contracts/SwappableToken.sol\":1659:4112  contract DXTK is IERC20 {... */\n    tag_7:\n      dataSize(sub_0)\n      dup1\n      dataOffset(sub_0)\n      0x00\n      codecopy\n      0x00\n      return\n    stop\n\n    sub_0: assembly {\n            /* \"contracts/SwappableToken.sol\":1659:4112  contract DXTK is IERC20 {... */\n          mstore(0x40, 0x80)\n          callvalue\n          dup1\n          iszero\n          tag_1\n          jumpi\n          0x00\n          dup1\n          revert\n        tag_1:\n          pop\n          jumpi(tag_2, lt(calldatasize, 0x04))\n          shr(0xe0, calldataload(0x00))\n          dup1\n          0x70a08231\n          gt\n          tag_18\n          jumpi\n          dup1\n          0xc4e41b22\n          gt\n          tag_19\n          jumpi\n          dup1\n          0xc4e41b22\n          eq\n          tag_14\n          jumpi\n          dup1\n          0xdd62ed3e\n          eq\n          tag_15\n          jumpi\n          dup1\n          0xe1f21c67\n          eq\n          tag_16\n          jumpi\n          dup1\n          0xf6ae79ac\n          eq\n          tag_17\n          jumpi\n          jump(tag_2)\n        tag_19:\n          dup1\n          0x70a08231\n          eq\n          tag_10\n          jumpi\n          dup1\n          0x95d89b41\n          eq\n          tag_11\n          jumpi\n          dup1\n          0x9dc29fac\n          eq\n          tag_12\n          jumpi\n          dup1\n          0xa9059cbb\n          eq\n          tag_13\n          jumpi\n          jump(tag_2)\n        tag_18:\n          dup1\n          0x2be7c04a\n          gt\n          tag_20\n          jumpi\n          dup1\n          0x2be7c04a\n          eq\n          tag_6\n          jumpi\n          dup1\n          0x313ce567\n          eq\n          tag_7\n          jumpi\n          dup1\n          0x38cc4831\n          eq\n          tag_8\n          jumpi\n          dup1\n          0x40c10f19\n          eq\n          tag_9\n          jumpi\n          jump(tag_2)\n        tag_20:\n          dup1\n          0x06fdde03\n          eq\n          tag_3\n          jumpi\n          dup1\n          0x18160ddd\n          eq\n          tag_4\n          jumpi\n          dup1\n          0x23b872dd\n          eq\n          tag_5\n          jumpi\n        tag_2:\n          0x00\n          dup1\n          revert\n            /* \"contracts/SwappableToken.sol\":1813:1844  string public name = \"DX-token\" */\n        tag_3:\n          tag_21\n          tag_22\n          jump\t// in\n        tag_21:\n          mload(0x40)\n          tag_23\n          swap2\n          swap1\n          tag_24\n          jump\t// in\n        tag_23:\n          mload(0x40)\n          dup1\n          swap2\n          sub\n          swap1\n          return\n            /* \"contracts/SwappableToken.sol\":1885:1938  uint256 public totalSupply = 100000000000000000000000 */\n        tag_4:\n          tag_25\n          tag_26\n          jump\t// in\n        tag_25:\n          mload(0x40)\n          tag_27\n          swap2\n          swap1\n          tag_28\n          jump\t// in\n        tag_27:\n          mload(0x40)\n          dup1\n          swap2\n          sub\n          swap1\n          return\n            /* \"contracts/SwappableToken.sol\":2653:3114  function transferFrom(address sender, address recipient, uint256 amount) external returns (bool) {... */\n        tag_5:\n          tag_29\n          0x04\n          dup1\n          calldatasize\n          sub\n          dup2\n          add\n          swap1\n          tag_30\n          swap2\n          swap1\n          tag_31\n          jump\t// in\n        tag_30:\n          tag_32\n          jump\t// in\n        tag_29:\n          mload(0x40)\n          tag_33\n          swap2\n          swap1\n          tag_34\n          jump\t// in\n        tag_33:\n          mload(0x40)\n          dup1\n          swap2\n          sub\n          swap1\n          return\n            /* \"contracts/SwappableToken.sol\":1740:1807  mapping(address => mapping(address => uint256)) public accAllowance */\n        tag_6:\n          tag_35\n          0x04\n          dup1\n          calldatasize\n          sub\n          dup2\n          add\n          swap1\n          tag_36\n          swap2\n          swap1\n          tag_37\n          jump\t// in\n        tag_36:\n          tag_38\n          jump\t// in\n        tag_35:\n          mload(0x40)\n          tag_39\n          swap2\n          swap1\n          tag_28\n          jump\t// in\n        tag_39:\n          mload(0x40)\n          dup1\n          swap2\n          sub\n          swap1\n          return\n            /* \"contracts/SwappableToken.sol\":1960:1986  uint8 public decimals = 18 */\n        tag_7:\n          tag_40\n          tag_41\n          jump\t// in\n        tag_40:\n          mload(0x40)\n          tag_42\n          swap2\n          swap1\n          tag_43\n          jump\t// in\n        tag_42:\n          mload(0x40)\n          dup1\n          swap2\n          sub\n          swap1\n          return\n            /* \"contracts/SwappableToken.sol\":3261:3352  function getAddress() external view returns (address) {... */\n        tag_8:\n          tag_44\n          tag_45\n          jump\t// in\n        tag_44:\n          mload(0x40)\n          tag_46\n          swap2\n          swap1\n          tag_47\n          jump\t// in\n        tag_46:\n          mload(0x40)\n          dup1\n          swap2\n          sub\n          swap1\n          return\n            /* \"contracts/SwappableToken.sol\":3930:4015  function mint(address to, uint256 amount) external {... */\n        tag_9:\n          tag_48\n          0x04\n          dup1\n          calldatasize\n          sub\n          dup2\n          add\n          swap1\n          tag_49\n          swap2\n          swap1\n          tag_50\n          jump\t// in\n        tag_49:\n          tag_51\n          jump\t// in\n        tag_48:\n          stop\n            /* \"contracts/SwappableToken.sol\":3457:3564  function balanceOf(address owner) external view returns (uint256) {... */\n        tag_10:\n          tag_52\n          0x04\n          dup1\n          calldatasize\n          sub\n          dup2\n          add\n          swap1\n          tag_53\n          swap2\n          swap1\n          tag_54\n          jump\t// in\n        tag_53:\n          tag_55\n          jump\t// in\n        tag_52:\n          mload(0x40)\n          tag_56\n          swap2\n          swap1\n          tag_28\n          jump\t// in\n        tag_56:\n          mload(0x40)\n          dup1\n          swap2\n          sub\n          swap1\n          return\n            /* \"contracts/SwappableToken.sol\":1850:1879  string public symbol = \"DXTK\" */\n        tag_11:\n          tag_57\n          tag_58\n          jump\t// in\n        tag_57:\n          mload(0x40)\n          tag_59\n          swap2\n          swap1\n          tag_24\n          jump\t// in\n        tag_59:\n          mload(0x40)\n          dup1\n          swap2\n          sub\n          swap1\n          return\n            /* \"contracts/SwappableToken.sol\":4021:4110  function burn(address from, uint256 amount) external {... */\n        tag_12:\n          tag_60\n          0x04\n          dup1\n          calldatasize\n          sub\n          dup2\n          add\n          swap1\n          tag_61\n          swap2\n          swap1\n          tag_50\n          jump\t// in\n        tag_61:\n          tag_62\n          jump\t// in\n        tag_60:\n          stop\n            /* \"contracts/SwappableToken.sol\":2113:2430  function transfer(address recipient, uint256 amount) external returns (bool) {... */\n        tag_13:\n          tag_63\n          0x04\n          dup1\n          calldatasize\n          sub\n          dup2\n          add\n          swap1\n          tag_64\n          swap2\n          swap1\n          tag_50\n          jump\t// in\n        tag_64:\n          tag_65\n          jump\t// in\n        tag_63:\n          mload(0x40)\n          tag_66\n          swap2\n          swap1\n          tag_34\n          jump\t// in\n        tag_66:\n          mload(0x40)\n          dup1\n          swap2\n          sub\n          swap1\n          return\n            /* \"contracts/SwappableToken.sol\":3358:3451  function getTotalSupply() external view returns (uint256) {... */\n        tag_14:\n          tag_67\n          tag_68\n          jump\t// in\n        tag_67:\n          mload(0x40)\n          tag_69\n          swap2\n          swap1\n          tag_28\n          jump\t// in\n        tag_69:\n          mload(0x40)\n          dup1\n          swap2\n          sub\n          swap1\n          return\n            /* \"contracts/SwappableToken.sol\":3120:3255  function allowance(address owner, address spender) external view returns (uint256) {... */\n        tag_15:\n          tag_70\n          0x04\n          dup1\n          calldatasize\n          sub\n          dup2\n          add\n          swap1\n          tag_71\n          swap2\n          swap1\n          tag_37\n          jump\t// in\n        tag_71:\n          tag_72\n          jump\t// in\n        tag_70:\n          mload(0x40)\n          tag_73\n          swap2\n          swap1\n          tag_28\n          jump\t// in\n        tag_73:\n          mload(0x40)\n          dup1\n          swap2\n          sub\n          swap1\n          return\n            /* \"contracts/SwappableToken.sol\":2436:2647  function approve(address owner, address spender, uint256 amount) external returns (bool) {... */\n        tag_16:\n          tag_74\n          0x04\n          dup1\n          calldatasize\n          sub\n          dup2\n          add\n          swap1\n          tag_75\n          swap2\n          swap1\n          tag_31\n          jump\t// in\n        tag_75:\n          tag_76\n          jump\t// in\n        tag_74:\n          mload(0x40)\n          tag_77\n          swap2\n          swap1\n          tag_34\n          jump\t// in\n        tag_77:\n          mload(0x40)\n          dup1\n          swap2\n          sub\n          swap1\n          return\n            /* \"contracts/SwappableToken.sol\":1689:1734  mapping(address => uint256) public accBalance */\n        tag_17:\n          tag_78\n          0x04\n          dup1\n          calldatasize\n          sub\n          dup2\n          add\n          swap1\n          tag_79\n          swap2\n          swap1\n          tag_54\n          jump\t// in\n        tag_79:\n          tag_80\n          jump\t// in\n        tag_78:\n          mload(0x40)\n          tag_81\n          swap2\n          swap1\n          tag_28\n          jump\t// in\n        tag_81:\n          mload(0x40)\n          dup1\n          swap2\n          sub\n          swap1\n          return\n            /* \"contracts/SwappableToken.sol\":1813:1844  string public name = \"DX-token\" */\n        tag_22:\n          0x02\n          dup1\n          sload\n          tag_82\n          swap1\n          tag_83\n          jump\t// in\n        tag_82:\n          dup1\n          0x1f\n          add\n          0x20\n          dup1\n          swap2\n          div\n          mul\n          0x20\n          add\n          mload(0x40)\n          swap1\n          dup2\n          add\n          0x40\n          mstore\n          dup1\n          swap3\n          swap2\n          swap1\n          dup2\n          dup2\n          mstore\n          0x20\n          add\n          dup3\n          dup1\n          sload\n          tag_84\n          swap1\n          tag_83\n          jump\t// in\n        tag_84:\n          dup1\n          iszero\n          tag_85\n          jumpi\n          dup1\n          0x1f\n          lt\n          tag_86\n          jumpi\n          0x0100\n          dup1\n          dup4\n          sload\n          div\n          mul\n          dup4\n          mstore\n          swap2\n          0x20\n          add\n          swap2\n          jump(tag_85)\n        tag_86:\n          dup3\n          add\n          swap2\n          swap1\n          0x00\n          mstore\n          keccak256(0x00, 0x20)\n          swap1\n        tag_87:\n          dup2\n          sload\n          dup2\n          mstore\n          swap1\n          0x01\n          add\n          swap1\n          0x20\n          add\n          dup1\n          dup4\n          gt\n          tag_87\n          jumpi\n          dup3\n          swap1\n          sub\n          0x1f\n          and\n          dup3\n          add\n          swap2\n        tag_85:\n          pop\n          pop\n          pop\n          pop\n          pop\n          dup2\n          jump\t// out\n            /* \"contracts/SwappableToken.sol\":1885:1938  uint256 public totalSupply = 100000000000000000000000 */\n        tag_26:\n          sload(0x04)\n          dup2\n          jump\t// out\n            /* \"contracts/SwappableToken.sol\":2653:3114  function transferFrom(address sender, address recipient, uint256 amount) external returns (bool) {... */\n        tag_32:\n            /* \"contracts/SwappableToken.sol\":2744:2748  bool */\n          0x00\n            /* \"contracts/SwappableToken.sol\":2778:2788  accBalance */\n          dup1\n            /* \"contracts/SwappableToken.sol\":2778:2796  accBalance[sender] */\n          0x00\n            /* \"contracts/SwappableToken.sol\":2789:2795  sender */\n          dup6\n            /* \"contracts/SwappableToken.sol\":2778:2796  accBalance[sender] */\n          0xffffffffffffffffffffffffffffffffffffffff\n          and\n          0xffffffffffffffffffffffffffffffffffffffff\n          and\n          dup2\n          mstore\n          0x20\n          add\n          swap1\n          dup2\n          mstore\n          0x20\n          add\n          0x00\n          keccak256\n          sload\n            /* \"contracts/SwappableToken.sol\":2768:2774  amount */\n          dup3\n            /* \"contracts/SwappableToken.sol\":2768:2796  amount <= accBalance[sender] */\n          gt\n          iszero\n            /* \"contracts/SwappableToken.sol\":2760:2821  require(amount <= accBalance[sender], \"Insufficient balance\") */\n          tag_89\n          jumpi\n          mload(0x40)\n          0x08c379a000000000000000000000000000000000000000000000000000000000\n          dup2\n          mstore\n          0x04\n          add\n          tag_90\n          swap1\n          tag_91\n          jump\t// in\n        tag_90:\n          mload(0x40)\n          dup1\n          swap2\n          sub\n          swap1\n          revert\n        tag_89:\n            /* \"contracts/SwappableToken.sol\":2849:2861  accAllowance */\n          0x01\n            /* \"contracts/SwappableToken.sol\":2849:2869  accAllowance[sender] */\n          0x00\n            /* \"contracts/SwappableToken.sol\":2862:2868  sender */\n          dup6\n            /* \"contracts/SwappableToken.sol\":2849:2869  accAllowance[sender] */\n          0xffffffffffffffffffffffffffffffffffffffff\n          and\n          0xffffffffffffffffffffffffffffffffffffffff\n          and\n          dup2\n          mstore\n          0x20\n          add\n          swap1\n          dup2\n          mstore\n          0x20\n          add\n          0x00\n          keccak256\n            /* \"contracts/SwappableToken.sol\":2849:2881  accAllowance[sender][msg.sender] */\n          0x00\n            /* \"contracts/SwappableToken.sol\":2870:2880  msg.sender */\n          caller\n            /* \"contracts/SwappableToken.sol\":2849:2881  accAllowance[sender][msg.sender] */\n          0xffffffffffffffffffffffffffffffffffffffff\n          and\n          0xffffffffffffffffffffffffffffffffffffffff\n          and\n          dup2\n          mstore\n          0x20\n          add\n          swap1\n          dup2\n          mstore\n          0x20\n          add\n          0x00\n          keccak256\n          sload\n            /* \"contracts/SwappableToken.sol\":2839:2845  amount */\n          dup3\n            /* \"contracts/SwappableToken.sol\":2839:2881  amount <= accAllowance[sender][msg.sender] */\n          gt\n          iszero\n            /* \"contracts/SwappableToken.sol\":2831:2904  require(amount <= accAllowance[sender][msg.sender], \"Allowance exceeded\") */\n          tag_92\n          jumpi\n          mload(0x40)\n          0x08c379a000000000000000000000000000000000000000000000000000000000\n          dup2\n          mstore\n          0x04\n          add\n          tag_93\n          swap1\n          tag_94\n          jump\t// in\n        tag_93:\n          mload(0x40)\n          dup1\n          swap2\n          sub\n          swap1\n          revert\n        tag_92:\n            /* \"contracts/SwappableToken.sol\":2951:2957  amount */\n          dup2\n            /* \"contracts/SwappableToken.sol\":2915:2927  accAllowance */\n          0x01\n            /* \"contracts/SwappableToken.sol\":2915:2935  accAllowance[sender] */\n          0x00\n            /* \"contracts/SwappableToken.sol\":2928:2934  sender */\n          dup7\n            /* \"contracts/SwappableToken.sol\":2915:2935  accAllowance[sender] */\n          0xffffffffffffffffffffffffffffffffffffffff\n          and\n          0xffffffffffffffffffffffffffffffffffffffff\n          and\n          dup2\n          mstore\n          0x20\n          add\n          swap1\n          dup2\n          mstore\n          0x20\n          add\n          0x00\n          keccak256\n            /* \"contracts/SwappableToken.sol\":2915:2947  accAllowance[sender][msg.sender] */\n          0x00\n            /* \"contracts/SwappableToken.sol\":2936:2946  msg.sender */\n          caller\n            /* \"contracts/SwappableToken.sol\":2915:2947  accAllowance[sender][msg.sender] */\n          0xffffffffffffffffffffffffffffffffffffffff\n          and\n          0xffffffffffffffffffffffffffffffffffffffff\n          and\n          dup2\n          mstore\n          0x20\n          add\n          swap1\n          dup2\n          mstore\n          0x20\n          add\n          0x00\n          keccak256\n          0x00\n            /* \"contracts/SwappableToken.sol\":2915:2957  accAllowance[sender][msg.sender] -= amount */\n          dup3\n          dup3\n          sload\n          tag_95\n          swap2\n          swap1\n          tag_96\n          jump\t// in\n        tag_95:\n          swap3\n          pop\n          pop\n          dup2\n          swap1\n          sstore\n          pop\n            /* \"contracts/SwappableToken.sol\":2989:2995  amount */\n          dup2\n            /* \"contracts/SwappableToken.sol\":2967:2977  accBalance */\n          0x00\n            /* \"contracts/SwappableToken.sol\":2967:2985  accBalance[sender] */\n          dup1\n            /* \"contracts/SwappableToken.sol\":2978:2984  sender */\n          dup7\n            /* \"contracts/SwappableToken.sol\":2967:2985  accBalance[sender] */\n          0xffffffffffffffffffffffffffffffffffffffff\n          and\n          0xffffffffffffffffffffffffffffffffffffffff\n          and\n          dup2\n          mstore\n          0x20\n          add\n          swap1\n          dup2\n          mstore\n          0x20\n          add\n          0x00\n          keccak256\n          0x00\n            /* \"contracts/SwappableToken.sol\":2967:2995  accBalance[sender] -= amount */\n          dup3\n          dup3\n          sload\n          tag_97\n          swap2\n          swap1\n          tag_96\n          jump\t// in\n        tag_97:\n          swap3\n          pop\n          pop\n          dup2\n          swap1\n          sstore\n          pop\n            /* \"contracts/SwappableToken.sol\":3030:3036  amount */\n          dup2\n            /* \"contracts/SwappableToken.sol\":3005:3015  accBalance */\n          0x00\n            /* \"contracts/SwappableToken.sol\":3005:3026  accBalance[recipient] */\n          dup1\n            /* \"contracts/SwappableToken.sol\":3016:3025  recipient */\n          dup6\n            /* \"contracts/SwappableToken.sol\":3005:3026  accBalance[recipient] */\n          0xffffffffffffffffffffffffffffffffffffffff\n          and\n          0xffffffffffffffffffffffffffffffffffffffff\n          and\n          dup2\n          mstore\n          0x20\n          add\n          swap1\n          dup2\n          mstore\n          0x20\n          add\n          0x00\n          keccak256\n          0x00\n            /* \"contracts/SwappableToken.sol\":3005:3036  accBalance[recipient] += amount */\n          dup3\n          dup3\n          sload\n          tag_98\n          swap2\n          swap1\n          tag_99\n          jump\t// in\n        tag_98:\n          swap3\n          pop\n          pop\n          dup2\n          swap1\n          sstore\n          pop\n            /* \"contracts/SwappableToken.sol\":3068:3077  recipient */\n          dup3\n            /* \"contracts/SwappableToken.sol\":3051:3086  Transfer(sender, recipient, amount) */\n          0xffffffffffffffffffffffffffffffffffffffff\n          and\n            /* \"contracts/SwappableToken.sol\":3060:3066  sender */\n          dup5\n            /* \"contracts/SwappableToken.sol\":3051:3086  Transfer(sender, recipient, amount) */\n          0xffffffffffffffffffffffffffffffffffffffff\n          and\n          0xddf252ad1be2c89b69c2b068fc378daa952ba7f163c4a11628f55a4df523b3ef\n            /* \"contracts/SwappableToken.sol\":3079:3085  amount */\n          dup5\n            /* \"contracts/SwappableToken.sol\":3051:3086  Transfer(sender, recipient, amount) */\n          mload(0x40)\n          tag_100\n          swap2\n          swap1\n          tag_28\n          jump\t// in\n        tag_100:\n          mload(0x40)\n          dup1\n          swap2\n          sub\n          swap1\n          log3\n            /* \"contracts/SwappableToken.sol\":3103:3107  true */\n          0x01\n            /* \"contracts/SwappableToken.sol\":3096:3107  return true */\n          swap1\n          pop\n            /* \"contracts/SwappableToken.sol\":2653:3114  function transferFrom(address sender, address recipient, uint256 amount) external returns (bool) {... */\n          swap4\n          swap3\n          pop\n          pop\n          pop\n          jump\t// out\n            /* \"contracts/SwappableToken.sol\":1740:1807  mapping(address => mapping(address => uint256)) public accAllowance */\n        tag_38:\n          mstore(0x20, 0x01)\n          dup2\n          0x00\n          mstore\n          mstore(0x20, keccak256(0x00, 0x40))\n          dup1\n          0x00\n          mstore\n          keccak256(0x00, 0x40)\n          0x00\n          swap2\n          pop\n          swap2\n          pop\n          pop\n          sload\n          dup2\n          jump\t// out\n            /* \"contracts/SwappableToken.sol\":1960:1986  uint8 public decimals = 18 */\n        tag_41:\n          0x05\n          0x00\n          swap1\n          sload\n          swap1\n          0x0100\n          exp\n          swap1\n          div\n          0xff\n          and\n          dup2\n          jump\t// out\n            /* \"contracts/SwappableToken.sol\":3261:3352  function getAddress() external view returns (address) {... */\n        tag_45:\n            /* \"contracts/SwappableToken.sol\":3306:3313  address */\n          0x00\n            /* \"contracts/SwappableToken.sol\":3340:3344  this */\n          address\n            /* \"contracts/SwappableToken.sol\":3325:3345  return address(this) */\n          swap1\n          pop\n            /* \"contracts/SwappableToken.sol\":3261:3352  function getAddress() external view returns (address) {... */\n          swap1\n          jump\t// out\n            /* \"contracts/SwappableToken.sol\":3930:4015  function mint(address to, uint256 amount) external {... */\n        tag_51:\n            /* \"contracts/SwappableToken.sol\":3991:4008  _mint(to, amount) */\n          tag_103\n            /* \"contracts/SwappableToken.sol\":3997:3999  to */\n          dup3\n            /* \"contracts/SwappableToken.sol\":4001:4007  amount */\n          dup3\n            /* \"contracts/SwappableToken.sol\":3991:3996  _mint */\n          tag_104\n            /* \"contracts/SwappableToken.sol\":3991:4008  _mint(to, amount) */\n          jump\t// in\n        tag_103:\n            /* \"contracts/SwappableToken.sol\":3930:4015  function mint(address to, uint256 amount) external {... */\n          pop\n          pop\n          jump\t// out\n            /* \"contracts/SwappableToken.sol\":3457:3564  function balanceOf(address owner) external view returns (uint256) {... */\n        tag_55:\n            /* \"contracts/SwappableToken.sol\":3514:3521  uint256 */\n          0x00\n            /* \"contracts/SwappableToken.sol\":3540:3550  accBalance */\n          dup1\n            /* \"contracts/SwappableToken.sol\":3540:3557  accBalance[owner] */\n          0x00\n            /* \"contracts/SwappableToken.sol\":3551:3556  owner */\n          dup4\n            /* \"contracts/SwappableToken.sol\":3540:3557  accBalance[owner] */\n          0xffffffffffffffffffffffffffffffffffffffff\n          and\n          0xffffffffffffffffffffffffffffffffffffffff\n          and\n          dup2\n          mstore\n          0x20\n          add\n          swap1\n          dup2\n          mstore\n          0x20\n          add\n          0x00\n          keccak256\n          sload\n            /* \"contracts/SwappableToken.sol\":3533:3557  return accBalance[owner] */\n          swap1\n          pop\n            /* \"contracts/SwappableToken.sol\":3457:3564  function balanceOf(address owner) external view returns (uint256) {... */\n          swap2\n          swap1\n          pop\n          jump\t// out\n            /* \"contracts/SwappableToken.sol\":1850:1879  string public symbol = \"DXTK\" */\n        tag_58:\n          0x03\n          dup1\n          sload\n          tag_106\n          swap1\n          tag_83\n          jump\t// in\n        tag_106:\n          dup1\n          0x1f\n          add\n          0x20\n          dup1\n          swap2\n          div\n          mul\n          0x20\n          add\n          mload(0x40)\n          swap1\n          dup2\n          add\n          0x40\n          mstore\n          dup1\n          swap3\n          swap2\n          swap1\n          dup2\n          dup2\n          mstore\n          0x20\n          add\n          dup3\n          dup1\n          sload\n          tag_107\n          swap1\n          tag_83\n          jump\t// in\n        tag_107:\n          dup1\n          iszero\n          tag_108\n          jumpi\n          dup1\n          0x1f\n          lt\n          tag_109\n          jumpi\n          0x0100\n          dup1\n          dup4\n          sload\n          div\n          mul\n          dup4\n          mstore\n          swap2\n          0x20\n          add\n          swap2\n          jump(tag_108)\n        tag_109:\n          dup3\n          add\n          swap2\n          swap1\n          0x00\n          mstore\n          keccak256(0x00, 0x20)\n          swap1\n        tag_110:\n          dup2\n          sload\n          dup2\n          mstore\n          swap1\n          0x01\n          add\n          swap1\n          0x20\n          add\n          dup1\n          dup4\n          gt\n          tag_110\n          jumpi\n          dup3\n          swap1\n          sub\n          0x1f\n          and\n          dup3\n          add\n          swap2\n        tag_108:\n          pop\n          pop\n          pop\n          pop\n          pop\n          dup2\n          jump\t// out\n            /* \"contracts/SwappableToken.sol\":4021:4110  function burn(address from, uint256 amount) external {... */\n        tag_62:\n            /* \"contracts/SwappableToken.sol\":4084:4103  _burn(from, amount) */\n          tag_112\n            /* \"contracts/SwappableToken.sol\":4090:4094  from */\n          dup3\n            /* \"contracts/SwappableToken.sol\":4096:4102  amount */\n          dup3\n            /* \"contracts/SwappableToken.sol\":4084:4089  _burn */\n          tag_113\n            /* \"contracts/SwappableToken.sol\":4084:4103  _burn(from, amount) */\n          jump\t// in\n        tag_112:\n            /* \"contracts/SwappableToken.sol\":4021:4110  function burn(address from, uint256 amount) external {... */\n          pop\n          pop\n          jump\t// out\n            /* \"contracts/SwappableToken.sol\":2113:2430  function transfer(address recipient, uint256 amount) external returns (bool) {... */\n        tag_65:\n            /* \"contracts/SwappableToken.sol\":2184:2188  bool */\n          0x00\n            /* \"contracts/SwappableToken.sol\":2218:2228  accBalance */\n          dup1\n            /* \"contracts/SwappableToken.sol\":2218:2240  accBalance[msg.sender] */\n          0x00\n            /* \"contracts/SwappableToken.sol\":2229:2239  msg.sender */\n          caller\n            /* \"contracts/SwappableToken.sol\":2218:2240  accBalance[msg.sender] */\n          0xffffffffffffffffffffffffffffffffffffffff\n          and\n          0xffffffffffffffffffffffffffffffffffffffff\n          and\n          dup2\n          mstore\n          0x20\n          add\n          swap1\n          dup2\n          mstore\n          0x20\n          add\n          0x00\n          keccak256\n          sload\n            /* \"contracts/SwappableToken.sol\":2208:2214  amount */\n          dup3\n            /* \"contracts/SwappableToken.sol\":2208:2240  amount <= accBalance[msg.sender] */\n          gt\n          iszero\n            /* \"contracts/SwappableToken.sol\":2200:2265  require(amount <= accBalance[msg.sender], \"Insufficient balance\") */\n          tag_115\n          jumpi\n          mload(0x40)\n          0x08c379a000000000000000000000000000000000000000000000000000000000\n          dup2\n          mstore\n          0x04\n          add\n          tag_116\n          swap1\n          tag_91\n          jump\t// in\n        tag_116:\n          mload(0x40)\n          dup1\n          swap2\n          sub\n          swap1\n          revert\n        tag_115:\n            /* \"contracts/SwappableToken.sol\":2301:2307  amount */\n          dup2\n            /* \"contracts/SwappableToken.sol\":2275:2285  accBalance */\n          0x00\n            /* \"contracts/SwappableToken.sol\":2275:2297  accBalance[msg.sender] */\n          dup1\n            /* \"contracts/SwappableToken.sol\":2286:2296  msg.sender */\n          caller\n            /* \"contracts/SwappableToken.sol\":2275:2297  accBalance[msg.sender] */\n          0xffffffffffffffffffffffffffffffffffffffff\n          and\n          0xffffffffffffffffffffffffffffffffffffffff\n          and\n          dup2\n          mstore\n          0x20\n          add\n          swap1\n          dup2\n          mstore\n          0x20\n          add\n          0x00\n          keccak256\n          0x00\n            /* \"contracts/SwappableToken.sol\":2275:2307  accBalance[msg.sender] -= amount */\n          dup3\n          dup3\n          sload\n          tag_117\n          swap2\n          swap1\n          tag_96\n          jump\t// in\n        tag_117:\n          swap3\n          pop\n          pop\n          dup2\n          swap1\n          sstore\n          pop\n            /* \"contracts/SwappableToken.sol\":2342:2348  amount */\n          dup2\n            /* \"contracts/SwappableToken.sol\":2317:2327  accBalance */\n          0x00\n            /* \"contracts/SwappableToken.sol\":2317:2338  accBalance[recipient] */\n          dup1\n            /* \"contracts/SwappableToken.sol\":2328:2337  recipient */\n          dup6\n            /* \"contracts/SwappableToken.sol\":2317:2338  accBalance[recipient] */\n          0xffffffffffffffffffffffffffffffffffffffff\n          and\n          0xffffffffffffffffffffffffffffffffffffffff\n          and\n          dup2\n          mstore\n          0x20\n          add\n          swap1\n          dup2\n          mstore\n          0x20\n          add\n          0x00\n          keccak256\n          0x00\n            /* \"contracts/SwappableToken.sol\":2317:2348  accBalance[recipient] += amount */\n          dup3\n          dup3\n          sload\n          tag_118\n          swap2\n          swap1\n          tag_99\n          jump\t// in\n        tag_118:\n          swap3\n          pop\n          pop\n          dup2\n          swap1\n          sstore\n          pop\n            /* \"contracts/SwappableToken.sol\":2384:2393  recipient */\n          dup3\n            /* \"contracts/SwappableToken.sol\":2363:2402  Transfer(msg.sender, recipient, amount) */\n          0xffffffffffffffffffffffffffffffffffffffff\n          and\n            /* \"contracts/SwappableToken.sol\":2372:2382  msg.sender */\n          caller\n            /* \"contracts/SwappableToken.sol\":2363:2402  Transfer(msg.sender, recipient, amount) */\n          0xffffffffffffffffffffffffffffffffffffffff\n          and\n          0xddf252ad1be2c89b69c2b068fc378daa952ba7f163c4a11628f55a4df523b3ef\n            /* \"contracts/SwappableToken.sol\":2395:2401  amount */\n          dup5\n            /* \"contracts/SwappableToken.sol\":2363:2402  Transfer(msg.sender, recipient, amount) */\n          mload(0x40)\n          tag_119\n          swap2\n          swap1\n          tag_28\n          jump\t// in\n        tag_119:\n          mload(0x40)\n          dup1\n          swap2\n          sub\n          swap1\n          log3\n            /* \"contracts/SwappableToken.sol\":2419:2423  true */\n          0x01\n            /* \"contracts/SwappableToken.sol\":2412:2423  return true */\n          swap1\n          pop\n            /* \"contracts/SwappableToken.sol\":2113:2430  function transfer(address recipient, uint256 amount) external returns (bool) {... */\n          swap3\n          swap2\n          pop\n          pop\n          jump\t// out\n            /* \"contracts/SwappableToken.sol\":3358:3451  function getTotalSupply() external view returns (uint256) {... */\n        tag_68:\n            /* \"contracts/SwappableToken.sol\":3407:3414  uint256 */\n          0x00\n            /* \"contracts/SwappableToken.sol\":3433:3444  totalSupply */\n          sload(0x04)\n            /* \"contracts/SwappableToken.sol\":3426:3444  return totalSupply */\n          swap1\n          pop\n            /* \"contracts/SwappableToken.sol\":3358:3451  function getTotalSupply() external view returns (uint256) {... */\n          swap1\n          jump\t// out\n            /* \"contracts/SwappableToken.sol\":3120:3255  function allowance(address owner, address spender) external view returns (uint256) {... */\n        tag_72:\n            /* \"contracts/SwappableToken.sol\":3194:3201  uint256 */\n          0x00\n            /* \"contracts/SwappableToken.sol\":3220:3232  accAllowance */\n          0x01\n            /* \"contracts/SwappableToken.sol\":3220:3239  accAllowance[owner] */\n          0x00\n            /* \"contracts/SwappableToken.sol\":3233:3238  owner */\n          dup5\n            /* \"contracts/SwappableToken.sol\":3220:3239  accAllowance[owner] */\n          0xffffffffffffffffffffffffffffffffffffffff\n          and\n          0xffffffffffffffffffffffffffffffffffffffff\n          and\n          dup2\n          mstore\n          0x20\n          add\n          swap1\n          dup2\n          mstore\n          0x20\n          add\n          0x00\n          keccak256\n            /* \"contracts/SwappableToken.sol\":3220:3248  accAllowance[owner][spender] */\n          0x00\n            /* \"contracts/SwappableToken.sol\":3240:3247  spender */\n          dup4\n            /* \"contracts/SwappableToken.sol\":3220:3248  accAllowance[owner][spender] */\n          0xffffffffffffffffffffffffffffffffffffffff\n          and\n          0xffffffffffffffffffffffffffffffffffffffff\n          and\n          dup2\n          mstore\n          0x20\n          add\n          swap1\n          dup2\n          mstore\n          0x20\n          add\n          0x00\n          keccak256\n          sload\n            /* \"contracts/SwappableToken.sol\":3213:3248  return accAllowance[owner][spender] */\n          swap1\n          pop\n            /* \"contracts/SwappableToken.sol\":3120:3255  function allowance(address owner, address spender) external view returns (uint256) {... */\n          swap3\n          swap2\n          pop\n          pop\n          jump\t// out\n            /* \"contracts/SwappableToken.sol\":2436:2647  function approve(address owner, address spender, uint256 amount) external returns (bool) {... */\n        tag_76:\n            /* \"contracts/SwappableToken.sol\":2519:2523  bool */\n          0x00\n            /* \"contracts/SwappableToken.sol\":2566:2572  amount */\n          dup2\n            /* \"contracts/SwappableToken.sol\":2535:2547  accAllowance */\n          0x01\n            /* \"contracts/SwappableToken.sol\":2535:2554  accAllowance[owner] */\n          0x00\n            /* \"contracts/SwappableToken.sol\":2548:2553  owner */\n          dup7\n            /* \"contracts/SwappableToken.sol\":2535:2554  accAllowance[owner] */\n          0xffffffffffffffffffffffffffffffffffffffff\n          and\n          0xffffffffffffffffffffffffffffffffffffffff\n          and\n          dup2\n          mstore\n          0x20\n          add\n          swap1\n          dup2\n          mstore\n          0x20\n          add\n          0x00\n          keccak256\n            /* \"contracts/SwappableToken.sol\":2535:2563  accAllowance[owner][spender] */\n          0x00\n            /* \"contracts/SwappableToken.sol\":2555:2562  spender */\n          dup6\n            /* \"contracts/SwappableToken.sol\":2535:2563  accAllowance[owner][spender] */\n          0xffffffffffffffffffffffffffffffffffffffff\n          and\n          0xffffffffffffffffffffffffffffffffffffffff\n          and\n          dup2\n          mstore\n          0x20\n          add\n          swap1\n          dup2\n          mstore\n          0x20\n          add\n          0x00\n          keccak256\n            /* \"contracts/SwappableToken.sol\":2535:2572  accAllowance[owner][spender] = amount */\n          dup2\n          swap1\n          sstore\n          pop\n            /* \"contracts/SwappableToken.sol\":2603:2610  spender */\n          dup3\n            /* \"contracts/SwappableToken.sol\":2587:2619  Approval(owner, spender, amount) */\n          0xffffffffffffffffffffffffffffffffffffffff\n          and\n            /* \"contracts/SwappableToken.sol\":2596:2601  owner */\n          dup5\n            /* \"contracts/SwappableToken.sol\":2587:2619  Approval(owner, spender, amount) */\n          0xffffffffffffffffffffffffffffffffffffffff\n          and\n          0x8c5be1e5ebec7d5bd14f71427d1e84f3dd0314c0f7b2291e5b200ac8c7c3b925\n            /* \"contracts/SwappableToken.sol\":2612:2618  amount */\n          dup5\n            /* \"contracts/SwappableToken.sol\":2587:2619  Approval(owner, spender, amount) */\n          mload(0x40)\n          tag_123\n          swap2\n          swap1\n          tag_28\n          jump\t// in\n        tag_123:\n          mload(0x40)\n          dup1\n          swap2\n          sub\n          swap1\n          log3\n            /* \"contracts/SwappableToken.sol\":2636:2640  true */\n          0x01\n            /* \"contracts/SwappableToken.sol\":2629:2640  return true */\n          swap1\n          pop\n            /* \"contracts/SwappableToken.sol\":2436:2647  function approve(address owner, address spender, uint256 amount) external returns (bool) {... */\n          swap4\n          swap3\n          pop\n          pop\n          pop\n          jump\t// out\n            /* \"contracts/SwappableToken.sol\":1689:1734  mapping(address => uint256) public accBalance */\n        tag_80:\n          mstore(0x20, 0x00)\n          dup1\n          0x00\n          mstore\n          keccak256(0x00, 0x40)\n          0x00\n          swap2\n          pop\n          swap1\n          pop\n          sload\n          dup2\n          jump\t// out\n            /* \"contracts/SwappableToken.sol\":3570:3741  function _mint(address to, uint256 amount) internal {... */\n        tag_104:\n            /* \"contracts/SwappableToken.sol\":3650:3656  amount */\n          dup1\n            /* \"contracts/SwappableToken.sol\":3632:3642  accBalance */\n          0x00\n            /* \"contracts/SwappableToken.sol\":3632:3646  accBalance[to] */\n          dup1\n            /* \"contracts/SwappableToken.sol\":3643:3645  to */\n          dup5\n            /* \"contracts/SwappableToken.sol\":3632:3646  accBalance[to] */\n          0xffffffffffffffffffffffffffffffffffffffff\n          and\n          0xffffffffffffffffffffffffffffffffffffffff\n          and\n          dup2\n          mstore\n          0x20\n          add\n          swap1\n          dup2\n          mstore\n          0x20\n          add\n          0x00\n          keccak256\n          0x00\n            /* \"contracts/SwappableToken.sol\":3632:3656  accBalance[to] += amount */\n          dup3\n          dup3\n          sload\n          tag_125\n          swap2\n          swap1\n          tag_99\n          jump\t// in\n        tag_125:\n          swap3\n          pop\n          pop\n          dup2\n          swap1\n          sstore\n          pop\n            /* \"contracts/SwappableToken.sol\":3681:3687  amount */\n          dup1\n            /* \"contracts/SwappableToken.sol\":3666:3677  totalSupply */\n          0x04\n          0x00\n            /* \"contracts/SwappableToken.sol\":3666:3687  totalSupply += amount */\n          dup3\n          dup3\n          sload\n          tag_126\n          swap2\n          swap1\n          tag_99\n          jump\t// in\n        tag_126:\n          swap3\n          pop\n          pop\n          dup2\n          swap1\n          sstore\n          pop\n            /* \"contracts/SwappableToken.sol\":3723:3725  to */\n          dup2\n            /* \"contracts/SwappableToken.sol\":3702:3734  Transfer(address(0), to, amount) */\n          0xffffffffffffffffffffffffffffffffffffffff\n          and\n            /* \"contracts/SwappableToken.sol\":3719:3720  0 */\n          0x00\n            /* \"contracts/SwappableToken.sol\":3702:3734  Transfer(address(0), to, amount) */\n          0xffffffffffffffffffffffffffffffffffffffff\n          and\n          0xddf252ad1be2c89b69c2b068fc378daa952ba7f163c4a11628f55a4df523b3ef\n            /* \"contracts/SwappableToken.sol\":3727:3733  amount */\n          dup4\n            /* \"contracts/SwappableToken.sol\":3702:3734  Transfer(address(0), to, amount) */\n          mload(0x40)\n          tag_127\n          swap2\n          swap1\n          tag_28\n          jump\t// in\n        tag_127:\n          mload(0x40)\n          dup1\n          swap2\n          sub\n          swap1\n          log3\n            /* \"contracts/SwappableToken.sol\":3570:3741  function _mint(address to, uint256 amount) internal {... */\n          pop\n          pop\n          jump\t// out\n            /* \"contracts/SwappableToken.sol\":3747:3924  function _burn(address from, uint256 amount) internal {... */\n        tag_113:\n            /* \"contracts/SwappableToken.sol\":3831:3837  amount */\n          dup1\n            /* \"contracts/SwappableToken.sol\":3811:3821  accBalance */\n          0x00\n            /* \"contracts/SwappableToken.sol\":3811:3827  accBalance[from] */\n          dup1\n            /* \"contracts/SwappableToken.sol\":3822:3826  from */\n          dup5\n            /* \"contracts/SwappableToken.sol\":3811:3827  accBalance[from] */\n          0xffffffffffffffffffffffffffffffffffffffff\n          and\n          0xffffffffffffffffffffffffffffffffffffffff\n          and\n          dup2\n          mstore\n          0x20\n          add\n          swap1\n          dup2\n          mstore\n          0x20\n          add\n          0x00\n          keccak256\n          0x00\n            /* \"contracts/SwappableToken.sol\":3811:3837  accBalance[from] -= amount */\n          dup3\n          dup3\n          sload\n          tag_129\n          swap2\n          swap1\n          tag_96\n          jump\t// in\n        tag_129:\n          swap3\n          pop\n          pop\n          dup2\n          swap1\n          sstore\n          pop\n            /* \"contracts/SwappableToken.sol\":3862:3868  amount */\n          dup1\n            /* \"contracts/SwappableToken.sol\":3847:3858  totalSupply */\n          0x04\n          0x00\n            /* \"contracts/SwappableToken.sol\":3847:3868  totalSupply -= amount */\n          dup3\n          dup3\n          sload\n          tag_130\n          swap2\n          swap1\n          tag_96\n          jump\t// in\n        tag_130:\n          swap3\n          pop\n          pop\n          dup2\n          swap1\n          sstore\n          pop\n            /* \"contracts/SwappableToken.sol\":3906:3907  0 */\n          0x00\n            /* \"contracts/SwappableToken.sol\":3883:3917  Transfer(from, address(0), amount) */\n          0xffffffffffffffffffffffffffffffffffffffff\n          and\n            /* \"contracts/SwappableToken.sol\":3892:3896  from */\n          dup3\n            /* \"contracts/SwappableToken.sol\":3883:3917  Transfer(from, address(0), amount) */\n          0xffffffffffffffffffffffffffffffffffffffff\n          and\n          0xddf252ad1be2c89b69c2b068fc378daa952ba7f163c4a11628f55a4df523b3ef\n            /* \"contracts/SwappableToken.sol\":3910:3916  amount */\n          dup4\n            /* \"contracts/SwappableToken.sol\":3883:3917  Transfer(from, address(0), amount) */\n          mload(0x40)\n          tag_131\n          swap2\n          swap1\n          tag_28\n          jump\t// in\n        tag_131:\n          mload(0x40)\n          dup1\n          swap2\n          sub\n          swap1\n          log3\n            /* \"contracts/SwappableToken.sol\":3747:3924  function _burn(address from, uint256 amount) internal {... */\n          pop\n          pop\n          jump\t// out\n            /* \"#utility.yul\":7:106   */\n        tag_132:\n            /* \"#utility.yul\":59:65   */\n          0x00\n            /* \"#utility.yul\":93:98   */\n          dup2\n            /* \"#utility.yul\":87:99   */\n          mload\n            /* \"#utility.yul\":77:99   */\n          swap1\n          pop\n            /* \"#utility.yul\":7:106   */\n          swap2\n          swap1\n          pop\n          jump\t// out\n            /* \"#utility.yul\":112:281   */\n        tag_133:\n            /* \"#utility.yul\":196:207   */\n          0x00\n            /* \"#utility.yul\":230:236   */\n          dup3\n            /* \"#utility.yul\":225:228   */\n          dup3\n            /* \"#utility.yul\":218:237   */\n          mstore\n            /* \"#utility.yul\":270:274   */\n          0x20\n            /* \"#utility.yul\":265:268   */\n          dup3\n            /* \"#utility.yul\":261:275   */\n          add\n            /* \"#utility.yul\":246:275   */\n          swap1\n          pop\n            /* \"#utility.yul\":112:281   */\n          swap3\n          swap2\n          pop\n          pop\n          jump\t// out\n            /* \"#utility.yul\":287:533   */\n        tag_134:\n            /* \"#utility.yul\":368:369   */\n          0x00\n            /* \"#utility.yul\":378:491   */\n        tag_163:\n            /* \"#utility.yul\":392:398   */\n          dup4\n            /* \"#utility.yul\":389:390   */\n          dup2\n            /* \"#utility.yul\":386:399   */\n          lt\n            /* \"#utility.yul\":378:491   */\n          iszero\n          tag_165\n          jumpi\n            /* \"#utility.yul\":477:478   */\n          dup1\n            /* \"#utility.yul\":472:475   */\n          dup3\n            /* \"#utility.yul\":468:479   */\n          add\n            /* \"#utility.yul\":462:480   */\n          mload\n            /* \"#utility.yul\":458:459   */\n          dup2\n            /* \"#utility.yul\":453:456   */\n          dup5\n            /* \"#utility.yul\":449:460   */\n          add\n            /* \"#utility.yul\":442:481   */\n          mstore\n            /* \"#utility.yul\":414:416   */\n          0x20\n            /* \"#utility.yul\":411:412   */\n          dup2\n            /* \"#utility.yul\":407:417   */\n          add\n            /* \"#utility.yul\":402:417   */\n          swap1\n          pop\n            /* \"#utility.yul\":378:491   */\n          jump(tag_163)\n        tag_165:\n            /* \"#utility.yul\":525:526   */\n          0x00\n            /* \"#utility.yul\":516:522   */\n          dup5\n            /* \"#utility.yul\":511:514   */\n          dup5\n            /* \"#utility.yul\":507:523   */\n          add\n            /* \"#utility.yul\":500:527   */\n          mstore\n            /* \"#utility.yul\":349:533   */\n          pop\n            /* \"#utility.yul\":287:533   */\n          pop\n          pop\n          pop\n          jump\t// out\n            /* \"#utility.yul\":539:641   */\n        tag_135:\n            /* \"#utility.yul\":580:586   */\n          0x00\n            /* \"#utility.yul\":631:633   */\n          0x1f\n            /* \"#utility.yul\":627:634   */\n          not\n            /* \"#utility.yul\":622:624   */\n          0x1f\n            /* \"#utility.yul\":615:620   */\n          dup4\n            /* \"#utility.yul\":611:625   */\n          add\n            /* \"#utility.yul\":607:635   */\n          and\n            /* \"#utility.yul\":597:635   */\n          swap1\n          pop\n            /* \"#utility.yul\":539:641   */\n          swap2\n          swap1\n          pop\n          jump\t// out\n            /* \"#utility.yul\":647:1024   */\n        tag_136:\n            /* \"#utility.yul\":735:738   */\n          0x00\n            /* \"#utility.yul\":763:802   */\n          tag_168\n            /* \"#utility.yul\":796:801   */\n          dup3\n            /* \"#utility.yul\":763:802   */\n          tag_132\n          jump\t// in\n        tag_168:\n            /* \"#utility.yul\":818:889   */\n          tag_169\n            /* \"#utility.yul\":882:888   */\n          dup2\n            /* \"#utility.yul\":877:880   */\n          dup6\n            /* \"#utility.yul\":818:889   */\n          tag_133\n          jump\t// in\n        tag_169:\n            /* \"#utility.yul\":811:889   */\n          swap4\n          pop\n            /* \"#utility.yul\":898:963   */\n          tag_170\n            /* \"#utility.yul\":956:962   */\n          dup2\n            /* \"#utility.yul\":951:954   */\n          dup6\n            /* \"#utility.yul\":944:948   */\n          0x20\n            /* \"#utility.yul\":937:942   */\n          dup7\n            /* \"#utility.yul\":933:949   */\n          add\n            /* \"#utility.yul\":898:963   */\n          tag_134\n          jump\t// in\n        tag_170:\n            /* \"#utility.yul\":988:1017   */\n          tag_171\n            /* \"#utility.yul\":1010:1016   */\n          dup2\n            /* \"#utility.yul\":988:1017   */\n          tag_135\n          jump\t// in\n        tag_171:\n            /* \"#utility.yul\":983:986   */\n          dup5\n            /* \"#utility.yul\":979:1018   */\n          add\n            /* \"#utility.yul\":972:1018   */\n          swap2\n          pop\n            /* \"#utility.yul\":739:1024   */\n          pop\n            /* \"#utility.yul\":647:1024   */\n          swap3\n          swap2\n          pop\n          pop\n          jump\t// out\n            /* \"#utility.yul\":1030:1343   */\n        tag_24:\n            /* \"#utility.yul\":1143:1147   */\n          0x00\n            /* \"#utility.yul\":1181:1183   */\n          0x20\n            /* \"#utility.yul\":1170:1179   */\n          dup3\n            /* \"#utility.yul\":1166:1184   */\n          add\n            /* \"#utility.yul\":1158:1184   */\n          swap1\n          pop\n            /* \"#utility.yul\":1230:1239   */\n          dup2\n            /* \"#utility.yul\":1224:1228   */\n          dup2\n            /* \"#utility.yul\":1220:1240   */\n          sub\n            /* \"#utility.yul\":1216:1217   */\n          0x00\n            /* \"#utility.yul\":1205:1214   */\n          dup4\n            /* \"#utility.yul\":1201:1218   */\n          add\n            /* \"#utility.yul\":1194:1241   */\n          mstore\n            /* \"#utility.yul\":1258:1336   */\n          tag_173\n            /* \"#utility.yul\":1331:1335   */\n          dup2\n            /* \"#utility.yul\":1322:1328   */\n          dup5\n            /* \"#utility.yul\":1258:1336   */\n          tag_136\n          jump\t// in\n        tag_173:\n            /* \"#utility.yul\":1250:1336   */\n          swap1\n          pop\n            /* \"#utility.yul\":1030:1343   */\n          swap3\n          swap2\n          pop\n          pop\n          jump\t// out\n            /* \"#utility.yul\":1349:1426   */\n        tag_137:\n            /* \"#utility.yul\":1386:1393   */\n          0x00\n            /* \"#utility.yul\":1415:1420   */\n          dup2\n            /* \"#utility.yul\":1404:1420   */\n          swap1\n          pop\n            /* \"#utility.yul\":1349:1426   */\n          swap2\n          swap1\n          pop\n          jump\t// out\n            /* \"#utility.yul\":1432:1550   */\n        tag_138:\n            /* \"#utility.yul\":1519:1543   */\n          tag_176\n            /* \"#utility.yul\":1537:1542   */\n          dup2\n            /* \"#utility.yul\":1519:1543   */\n          tag_137\n          jump\t// in\n        tag_176:\n            /* \"#utility.yul\":1514:1517   */\n          dup3\n            /* \"#utility.yul\":1507:1544   */\n          mstore\n            /* \"#utility.yul\":1432:1550   */\n          pop\n          pop\n          jump\t// out\n            /* \"#utility.yul\":1556:1778   */\n        tag_28:\n            /* \"#utility.yul\":1649:1653   */\n          0x00\n            /* \"#utility.yul\":1687:1689   */\n          0x20\n            /* \"#utility.yul\":1676:1685   */\n          dup3\n            /* \"#utility.yul\":1672:1690   */\n          add\n            /* \"#utility.yul\":1664:1690   */\n          swap1\n          pop\n            /* \"#utility.yul\":1700:1771   */\n          tag_178\n            /* \"#utility.yul\":1768:1769   */\n          0x00\n            /* \"#utility.yul\":1757:1766   */\n          dup4\n            /* \"#utility.yul\":1753:1770   */\n          add\n            /* \"#utility.yul\":1744:1750   */\n          dup5\n            /* \"#utility.yul\":1700:1771   */\n          tag_138\n          jump\t// in\n        tag_178:\n            /* \"#utility.yul\":1556:1778   */\n          swap3\n          swap2\n          pop\n          pop\n          jump\t// out\n            /* \"#utility.yul\":1865:1982   */\n        tag_140:\n            /* \"#utility.yul\":1974:1975   */\n          0x00\n            /* \"#utility.yul\":1971:1972   */\n          dup1\n            /* \"#utility.yul\":1964:1976   */\n          revert\n            /* \"#utility.yul\":2111:2237   */\n        tag_142:\n            /* \"#utility.yul\":2148:2155   */\n          0x00\n            /* \"#utility.yul\":2188:2230   */\n          0xffffffffffffffffffffffffffffffffffffffff\n            /* \"#utility.yul\":2181:2186   */\n          dup3\n            /* \"#utility.yul\":2177:2231   */\n          and\n            /* \"#utility.yul\":2166:2231   */\n          swap1\n          pop\n            /* \"#utility.yul\":2111:2237   */\n          swap2\n          swap1\n          pop\n          jump\t// out\n            /* \"#utility.yul\":2243:2339   */\n        tag_143:\n            /* \"#utility.yul\":2280:2287   */\n          0x00\n            /* \"#utility.yul\":2309:2333   */\n          tag_184\n            /* \"#utility.yul\":2327:2332   */\n          dup3\n            /* \"#utility.yul\":2309:2333   */\n          tag_142\n          jump\t// in\n        tag_184:\n            /* \"#utility.yul\":2298:2333   */\n          swap1\n          pop\n            /* \"#utility.yul\":2243:2339   */\n          swap2\n          swap1\n          pop\n          jump\t// out\n            /* \"#utility.yul\":2345:2467   */\n        tag_144:\n            /* \"#utility.yul\":2418:2442   */\n          tag_186\n            /* \"#utility.yul\":2436:2441   */\n          dup2\n            /* \"#utility.yul\":2418:2442   */\n          tag_143\n          jump\t// in\n        tag_186:\n            /* \"#utility.yul\":2411:2416   */\n          dup2\n            /* \"#utility.yul\":2408:2443   */\n          eq\n            /* \"#utility.yul\":2398:2461   */\n          tag_187\n          jumpi\n            /* \"#utility.yul\":2457:2458   */\n          0x00\n            /* \"#utility.yul\":2454:2455   */\n          dup1\n            /* \"#utility.yul\":2447:2459   */\n          revert\n            /* \"#utility.yul\":2398:2461   */\n        tag_187:\n            /* \"#utility.yul\":2345:2467   */\n          pop\n          jump\t// out\n            /* \"#utility.yul\":2473:2612   */\n        tag_145:\n            /* \"#utility.yul\":2519:2524   */\n          0x00\n            /* \"#utility.yul\":2557:2563   */\n          dup2\n            /* \"#utility.yul\":2544:2564   */\n          calldataload\n            /* \"#utility.yul\":2535:2564   */\n          swap1\n          pop\n            /* \"#utility.yul\":2573:2606   */\n          tag_189\n            /* \"#utility.yul\":2600:2605   */\n          dup2\n            /* \"#utility.yul\":2573:2606   */\n          tag_144\n          jump\t// in\n        tag_189:\n            /* \"#utility.yul\":2473:2612   */\n          swap3\n          swap2\n          pop\n          pop\n          jump\t// out\n            /* \"#utility.yul\":2618:2740   */\n        tag_146:\n            /* \"#utility.yul\":2691:2715   */\n          tag_191\n            /* \"#utility.yul\":2709:2714   */\n          dup2\n            /* \"#utility.yul\":2691:2715   */\n          tag_137\n          jump\t// in\n        tag_191:\n            /* \"#utility.yul\":2684:2689   */\n          dup2\n            /* \"#utility.yul\":2681:2716   */\n          eq\n            /* \"#utility.yul\":2671:2734   */\n          tag_192\n          jumpi\n            /* \"#utility.yul\":2730:2731   */\n          0x00\n            /* \"#utility.yul\":2727:2728   */\n          dup1\n            /* \"#utility.yul\":2720:2732   */\n          revert\n            /* \"#utility.yul\":2671:2734   */\n        tag_192:\n            /* \"#utility.yul\":2618:2740   */\n          pop\n          jump\t// out\n            /* \"#utility.yul\":2746:2885   */\n        tag_147:\n            /* \"#utility.yul\":2792:2797   */\n          0x00\n            /* \"#utility.yul\":2830:2836   */\n          dup2\n            /* \"#utility.yul\":2817:2837   */\n          calldataload\n            /* \"#utility.yul\":2808:2837   */\n          swap1\n          pop\n            /* \"#utility.yul\":2846:2879   */\n          tag_194\n            /* \"#utility.yul\":2873:2878   */\n          dup2\n            /* \"#utility.yul\":2846:2879   */\n          tag_146\n          jump\t// in\n        tag_194:\n            /* \"#utility.yul\":2746:2885   */\n          swap3\n          swap2\n          pop\n          pop\n          jump\t// out\n            /* \"#utility.yul\":2891:3510   */\n        tag_31:\n            /* \"#utility.yul\":2968:2974   */\n          0x00\n            /* \"#utility.yul\":2976:2982   */\n          dup1\n            /* \"#utility.yul\":2984:2990   */\n          0x00\n            /* \"#utility.yul\":3033:3035   */\n          0x60\n            /* \"#utility.yul\":3021:3030   */\n          dup5\n            /* \"#utility.yul\":3012:3019   */\n          dup7\n            /* \"#utility.yul\":3008:3031   */\n          sub\n            /* \"#utility.yul\":3004:3036   */\n          slt\n            /* \"#utility.yul\":3001:3120   */\n          iszero\n          tag_196\n          jumpi\n            /* \"#utility.yul\":3039:3118   */\n          tag_197\n          tag_140\n          jump\t// in\n        tag_197:\n            /* \"#utility.yul\":3001:3120   */\n        tag_196:\n            /* \"#utility.yul\":3159:3160   */\n          0x00\n            /* \"#utility.yul\":3184:3237   */\n          tag_198\n            /* \"#utility.yul\":3229:3236   */\n          dup7\n            /* \"#utility.yul\":3220:3226   */\n          dup3\n            /* \"#utility.yul\":3209:3218   */\n          dup8\n            /* \"#utility.yul\":3205:3227   */\n          add\n            /* \"#utility.yul\":3184:3237   */\n          tag_145\n          jump\t// in\n        tag_198:\n            /* \"#utility.yul\":3174:3237   */\n          swap4\n          pop\n            /* \"#utility.yul\":3130:3247   */\n          pop\n            /* \"#utility.yul\":3286:3288   */\n          0x20\n            /* \"#utility.yul\":3312:3365   */\n          tag_199\n            /* \"#utility.yul\":3357:3364   */\n          dup7\n            /* \"#utility.yul\":3348:3354   */\n          dup3\n            /* \"#utility.yul\":3337:3346   */\n          dup8\n            /* \"#utility.yul\":3333:3355   */\n          add\n            /* \"#utility.yul\":3312:3365   */\n          tag_145\n          jump\t// in\n        tag_199:\n            /* \"#utility.yul\":3302:3365   */\n          swap3\n          pop\n            /* \"#utility.yul\":3257:3375   */\n          pop\n            /* \"#utility.yul\":3414:3416   */\n          0x40\n            /* \"#utility.yul\":3440:3493   */\n          tag_200\n            /* \"#utility.yul\":3485:3492   */\n          dup7\n            /* \"#utility.yul\":3476:3482   */\n          dup3\n            /* \"#utility.yul\":3465:3474   */\n          dup8\n            /* \"#utility.yul\":3461:3483   */\n          add\n            /* \"#utility.yul\":3440:3493   */\n          tag_147\n          jump\t// in\n        tag_200:\n            /* \"#utility.yul\":3430:3493   */\n          swap2\n          pop\n            /* \"#utility.yul\":3385:3503   */\n          pop\n            /* \"#utility.yul\":2891:3510   */\n          swap3\n          pop\n          swap3\n          pop\n          swap3\n          jump\t// out\n            /* \"#utility.yul\":3516:3606   */\n        tag_148:\n            /* \"#utility.yul\":3550:3557   */\n          0x00\n            /* \"#utility.yul\":3593:3598   */\n          dup2\n            /* \"#utility.yul\":3586:3599   */\n          iszero\n            /* \"#utility.yul\":3579:3600   */\n          iszero\n            /* \"#utility.yul\":3568:3600   */\n          swap1\n          pop\n            /* \"#utility.yul\":3516:3606   */\n          swap2\n          swap1\n          pop\n          jump\t// out\n            /* \"#utility.yul\":3612:3721   */\n        tag_149:\n            /* \"#utility.yul\":3693:3714   */\n          tag_203\n            /* \"#utility.yul\":3708:3713   */\n          dup2\n            /* \"#utility.yul\":3693:3714   */\n          tag_148\n          jump\t// in\n        tag_203:\n            /* \"#utility.yul\":3688:3691   */\n          dup3\n            /* \"#utility.yul\":3681:3715   */\n          mstore\n            /* \"#utility.yul\":3612:3721   */\n          pop\n          pop\n          jump\t// out\n            /* \"#utility.yul\":3727:3937   */\n        tag_34:\n            /* \"#utility.yul\":3814:3818   */\n          0x00\n            /* \"#utility.yul\":3852:3854   */\n          0x20\n            /* \"#utility.yul\":3841:3850   */\n          dup3\n            /* \"#utility.yul\":3837:3855   */\n          add\n            /* \"#utility.yul\":3829:3855   */\n          swap1\n          pop\n            /* \"#utility.yul\":3865:3930   */\n          tag_205\n            /* \"#utility.yul\":3927:3928   */\n          0x00\n            /* \"#utility.yul\":3916:3925   */\n          dup4\n            /* \"#utility.yul\":3912:3929   */\n          add\n            /* \"#utility.yul\":3903:3909   */\n          dup5\n            /* \"#utility.yul\":3865:3930   */\n          tag_149\n          jump\t// in\n        tag_205:\n            /* \"#utility.yul\":3727:3937   */\n          swap3\n          swap2\n          pop\n          pop\n          jump\t// out\n            /* \"#utility.yul\":3943:4417   */\n        tag_37:\n            /* \"#utility.yul\":4011:4017   */\n          0x00\n            /* \"#utility.yul\":4019:4025   */\n          dup1\n            /* \"#utility.yul\":4068:4070   */\n          0x40\n            /* \"#utility.yul\":4056:4065   */\n          dup4\n            /* \"#utility.yul\":4047:4054   */\n          dup6\n            /* \"#utility.yul\":4043:4066   */\n          sub\n            /* \"#utility.yul\":4039:4071   */\n          slt\n            /* \"#utility.yul\":4036:4155   */\n          iszero\n          tag_207\n          jumpi\n            /* \"#utility.yul\":4074:4153   */\n          tag_208\n          tag_140\n          jump\t// in\n        tag_208:\n            /* \"#utility.yul\":4036:4155   */\n        tag_207:\n            /* \"#utility.yul\":4194:4195   */\n          0x00\n            /* \"#utility.yul\":4219:4272   */\n          tag_209\n            /* \"#utility.yul\":4264:4271   */\n          dup6\n            /* \"#utility.yul\":4255:4261   */\n          dup3\n            /* \"#utility.yul\":4244:4253   */\n          dup7\n            /* \"#utility.yul\":4240:4262   */\n          add\n            /* \"#utility.yul\":4219:4272   */\n          tag_145\n          jump\t// in\n        tag_209:\n            /* \"#utility.yul\":4209:4272   */\n          swap3\n          pop\n            /* \"#utility.yul\":4165:4282   */\n          pop\n            /* \"#utility.yul\":4321:4323   */\n          0x20\n            /* \"#utility.yul\":4347:4400   */\n          tag_210\n            /* \"#utility.yul\":4392:4399   */\n          dup6\n            /* \"#utility.yul\":4383:4389   */\n          dup3\n            /* \"#utility.yul\":4372:4381   */\n          dup7\n            /* \"#utility.yul\":4368:4390   */\n          add\n            /* \"#utility.yul\":4347:4400   */\n          tag_145\n          jump\t// in\n        tag_210:\n            /* \"#utility.yul\":4337:4400   */\n          swap2\n          pop\n            /* \"#utility.yul\":4292:4410   */\n          pop\n            /* \"#utility.yul\":3943:4417   */\n          swap3\n          pop\n          swap3\n          swap1\n          pop\n          jump\t// out\n            /* \"#utility.yul\":4423:4509   */\n        tag_150:\n            /* \"#utility.yul\":4458:4465   */\n          0x00\n            /* \"#utility.yul\":4498:4502   */\n          0xff\n            /* \"#utility.yul\":4491:4496   */\n          dup3\n            /* \"#utility.yul\":4487:4503   */\n          and\n            /* \"#utility.yul\":4476:4503   */\n          swap1\n          pop\n            /* \"#utility.yul\":4423:4509   */\n          swap2\n          swap1\n          pop\n          jump\t// out\n            /* \"#utility.yul\":4515:4627   */\n        tag_151:\n            /* \"#utility.yul\":4598:4620   */\n          tag_213\n            /* \"#utility.yul\":4614:4619   */\n          dup2\n            /* \"#utility.yul\":4598:4620   */\n          tag_150\n          jump\t// in\n        tag_213:\n            /* \"#utility.yul\":4593:4596   */\n          dup3\n            /* \"#utility.yul\":4586:4621   */\n          mstore\n            /* \"#utility.yul\":4515:4627   */\n          pop\n          pop\n          jump\t// out\n            /* \"#utility.yul\":4633:4847   */\n        tag_43:\n            /* \"#utility.yul\":4722:4726   */\n          0x00\n            /* \"#utility.yul\":4760:4762   */\n          0x20\n            /* \"#utility.yul\":4749:4758   */\n          dup3\n            /* \"#utility.yul\":4745:4763   */\n          add\n            /* \"#utility.yul\":4737:4763   */\n          swap1\n          pop\n            /* \"#utility.yul\":4773:4840   */\n          tag_215\n            /* \"#utility.yul\":4837:4838   */\n          0x00\n            /* \"#utility.yul\":4826:4835   */\n          dup4\n            /* \"#utility.yul\":4822:4839   */\n          add\n            /* \"#utility.yul\":4813:4819   */\n          dup5\n            /* \"#utility.yul\":4773:4840   */\n          tag_151\n          jump\t// in\n        tag_215:\n            /* \"#utility.yul\":4633:4847   */\n          swap3\n          swap2\n          pop\n          pop\n          jump\t// out\n            /* \"#utility.yul\":4853:4971   */\n        tag_152:\n            /* \"#utility.yul\":4940:4964   */\n          tag_217\n            /* \"#utility.yul\":4958:4963   */\n          dup2\n            /* \"#utility.yul\":4940:4964   */\n          tag_143\n          jump\t// in\n        tag_217:\n            /* \"#utility.yul\":4935:4938   */\n          dup3\n            /* \"#utility.yul\":4928:4965   */\n          mstore\n            /* \"#utility.yul\":4853:4971   */\n          pop\n          pop\n          jump\t// out\n            /* \"#utility.yul\":4977:5199   */\n        tag_47:\n            /* \"#utility.yul\":5070:5074   */\n          0x00\n            /* \"#utility.yul\":5108:5110   */\n          0x20\n            /* \"#utility.yul\":5097:5106   */\n          dup3\n            /* \"#utility.yul\":5093:5111   */\n          add\n            /* \"#utility.yul\":5085:5111   */\n          swap1\n          pop\n            /* \"#utility.yul\":5121:5192   */\n          tag_219\n            /* \"#utility.yul\":5189:5190   */\n          0x00\n            /* \"#utility.yul\":5178:5187   */\n          dup4\n            /* \"#utility.yul\":5174:5191   */\n          add\n            /* \"#utility.yul\":5165:5171   */\n          dup5\n            /* \"#utility.yul\":5121:5192   */\n          tag_152\n          jump\t// in\n        tag_219:\n            /* \"#utility.yul\":4977:5199   */\n          swap3\n          swap2\n          pop\n          pop\n          jump\t// out\n            /* \"#utility.yul\":5205:5679   */\n        tag_50:\n            /* \"#utility.yul\":5273:5279   */\n          0x00\n            /* \"#utility.yul\":5281:5287   */\n          dup1\n            /* \"#utility.yul\":5330:5332   */\n          0x40\n            /* \"#utility.yul\":5318:5327   */\n          dup4\n            /* \"#utility.yul\":5309:5316   */\n          dup6\n            /* \"#utility.yul\":5305:5328   */\n          sub\n            /* \"#utility.yul\":5301:5333   */\n          slt\n            /* \"#utility.yul\":5298:5417   */\n          iszero\n          tag_221\n          jumpi\n            /* \"#utility.yul\":5336:5415   */\n          tag_222\n          tag_140\n          jump\t// in\n        tag_222:\n            /* \"#utility.yul\":5298:5417   */\n        tag_221:\n            /* \"#utility.yul\":5456:5457   */\n          0x00\n            /* \"#utility.yul\":5481:5534   */\n          tag_223\n            /* \"#utility.yul\":5526:5533   */\n          dup6\n            /* \"#utility.yul\":5517:5523   */\n          dup3\n            /* \"#utility.yul\":5506:5515   */\n          dup7\n            /* \"#utility.yul\":5502:5524   */\n          add\n            /* \"#utility.yul\":5481:5534   */\n          tag_145\n          jump\t// in\n        tag_223:\n            /* \"#utility.yul\":5471:5534   */\n          swap3\n          pop\n            /* \"#utility.yul\":5427:5544   */\n          pop\n            /* \"#utility.yul\":5583:5585   */\n          0x20\n            /* \"#utility.yul\":5609:5662   */\n          tag_224\n            /* \"#utility.yul\":5654:5661   */\n          dup6\n            /* \"#utility.yul\":5645:5651   */\n          dup3\n            /* \"#utility.yul\":5634:5643   */\n          dup7\n            /* \"#utility.yul\":5630:5652   */\n          add\n            /* \"#utility.yul\":5609:5662   */\n          tag_147\n          jump\t// in\n        tag_224:\n            /* \"#utility.yul\":5599:5662   */\n          swap2\n          pop\n            /* \"#utility.yul\":5554:5672   */\n          pop\n            /* \"#utility.yul\":5205:5679   */\n          swap3\n          pop\n          swap3\n          swap1\n          pop\n          jump\t// out\n            /* \"#utility.yul\":5685:6014   */\n        tag_54:\n            /* \"#utility.yul\":5744:5750   */\n          0x00\n            /* \"#utility.yul\":5793:5795   */\n          0x20\n            /* \"#utility.yul\":5781:5790   */\n          dup3\n            /* \"#utility.yul\":5772:5779   */\n          dup5\n            /* \"#utility.yul\":5768:5791   */\n          sub\n            /* \"#utility.yul\":5764:5796   */\n          slt\n            /* \"#utility.yul\":5761:5880   */\n          iszero\n          tag_226\n          jumpi\n            /* \"#utility.yul\":5799:5878   */\n          tag_227\n          tag_140\n          jump\t// in\n        tag_227:\n            /* \"#utility.yul\":5761:5880   */\n        tag_226:\n            /* \"#utility.yul\":5919:5920   */\n          0x00\n            /* \"#utility.yul\":5944:5997   */\n          tag_228\n            /* \"#utility.yul\":5989:5996   */\n          dup5\n            /* \"#utility.yul\":5980:5986   */\n          dup3\n            /* \"#utility.yul\":5969:5978   */\n          dup6\n            /* \"#utility.yul\":5965:5987   */\n          add\n            /* \"#utility.yul\":5944:5997   */\n          tag_145\n          jump\t// in\n        tag_228:\n            /* \"#utility.yul\":5934:5997   */\n          swap2\n          pop\n            /* \"#utility.yul\":5890:6007   */\n          pop\n            /* \"#utility.yul\":5685:6014   */\n          swap3\n          swap2\n          pop\n          pop\n          jump\t// out\n            /* \"#utility.yul\":6020:6200   */\n        tag_153:\n            /* \"#utility.yul\":6068:6145   */\n          0x4e487b7100000000000000000000000000000000000000000000000000000000\n            /* \"#utility.yul\":6065:6066   */\n          0x00\n            /* \"#utility.yul\":6058:6146   */\n          mstore\n            /* \"#utility.yul\":6165:6169   */\n          0x22\n            /* \"#utility.yul\":6162:6163   */\n          0x04\n            /* \"#utility.yul\":6155:6170   */\n          mstore\n            /* \"#utility.yul\":6189:6193   */\n          0x24\n            /* \"#utility.yul\":6186:6187   */\n          0x00\n            /* \"#utility.yul\":6179:6194   */\n          revert\n            /* \"#utility.yul\":6206:6526   */\n        tag_83:\n            /* \"#utility.yul\":6250:6256   */\n          0x00\n            /* \"#utility.yul\":6287:6288   */\n          0x02\n            /* \"#utility.yul\":6281:6285   */\n          dup3\n            /* \"#utility.yul\":6277:6289   */\n          div\n            /* \"#utility.yul\":6267:6289   */\n          swap1\n          pop\n            /* \"#utility.yul\":6334:6335   */\n          0x01\n            /* \"#utility.yul\":6328:6332   */\n          dup3\n            /* \"#utility.yul\":6324:6336   */\n          and\n            /* \"#utility.yul\":6355:6373   */\n          dup1\n            /* \"#utility.yul\":6345:6426   */\n          tag_231\n          jumpi\n            /* \"#utility.yul\":6411:6415   */\n          0x7f\n            /* \"#utility.yul\":6403:6409   */\n          dup3\n            /* \"#utility.yul\":6399:6416   */\n          and\n            /* \"#utility.yul\":6389:6416   */\n          swap2\n          pop\n            /* \"#utility.yul\":6345:6426   */\n        tag_231:\n            /* \"#utility.yul\":6473:6475   */\n          0x20\n            /* \"#utility.yul\":6465:6471   */\n          dup3\n            /* \"#utility.yul\":6462:6476   */\n          lt\n            /* \"#utility.yul\":6442:6460   */\n          dup2\n            /* \"#utility.yul\":6439:6477   */\n          sub\n            /* \"#utility.yul\":6436:6520   */\n          tag_232\n          jumpi\n            /* \"#utility.yul\":6492:6510   */\n          tag_233\n          tag_153\n          jump\t// in\n        tag_233:\n            /* \"#utility.yul\":6436:6520   */\n        tag_232:\n            /* \"#utility.yul\":6257:6526   */\n          pop\n            /* \"#utility.yul\":6206:6526   */\n          swap2\n          swap1\n          pop\n          jump\t// out\n            /* \"#utility.yul\":6532:6702   */\n        tag_154:\n            /* \"#utility.yul\":6672:6694   */\n          0x496e73756666696369656e742062616c616e6365000000000000000000000000\n            /* \"#utility.yul\":6668:6669   */\n          0x00\n            /* \"#utility.yul\":6660:6666   */\n          dup3\n            /* \"#utility.yul\":6656:6670   */\n          add\n            /* \"#utility.yul\":6649:6695   */\n          mstore\n            /* \"#utility.yul\":6532:6702   */\n          pop\n          jump\t// out\n            /* \"#utility.yul\":6708:7074   */\n        tag_155:\n            /* \"#utility.yul\":6850:6853   */\n          0x00\n            /* \"#utility.yul\":6871:6938   */\n          tag_236\n            /* \"#utility.yul\":6935:6937   */\n          0x14\n            /* \"#utility.yul\":6930:6933   */\n          dup4\n            /* \"#utility.yul\":6871:6938   */\n          tag_133\n          jump\t// in\n        tag_236:\n            /* \"#utility.yul\":6864:6938   */\n          swap2\n          pop\n            /* \"#utility.yul\":6947:7040   */\n          tag_237\n            /* \"#utility.yul\":7036:7039   */\n          dup3\n            /* \"#utility.yul\":6947:7040   */\n          tag_154\n          jump\t// in\n        tag_237:\n            /* \"#utility.yul\":7065:7067   */\n          0x20\n            /* \"#utility.yul\":7060:7063   */\n          dup3\n            /* \"#utility.yul\":7056:7068   */\n          add\n            /* \"#utility.yul\":7049:7068   */\n          swap1\n          pop\n            /* \"#utility.yul\":6708:7074   */\n          swap2\n          swap1\n          pop\n          jump\t// out\n            /* \"#utility.yul\":7080:7499   */\n        tag_91:\n            /* \"#utility.yul\":7246:7250   */\n          0x00\n            /* \"#utility.yul\":7284:7286   */\n          0x20\n            /* \"#utility.yul\":7273:7282   */\n          dup3\n            /* \"#utility.yul\":7269:7287   */\n          add\n            /* \"#utility.yul\":7261:7287   */\n          swap1\n          pop\n            /* \"#utility.yul\":7333:7342   */\n          dup2\n            /* \"#utility.yul\":7327:7331   */\n          dup2\n            /* \"#utility.yul\":7323:7343   */\n          sub\n            /* \"#utility.yul\":7319:7320   */\n          0x00\n            /* \"#utility.yul\":7308:7317   */\n          dup4\n            /* \"#utility.yul\":7304:7321   */\n          add\n            /* \"#utility.yul\":7297:7344   */\n          mstore\n            /* \"#utility.yul\":7361:7492   */\n          tag_239\n            /* \"#utility.yul\":7487:7491   */\n          dup2\n            /* \"#utility.yul\":7361:7492   */\n          tag_155\n          jump\t// in\n        tag_239:\n            /* \"#utility.yul\":7353:7492   */\n          swap1\n          pop\n            /* \"#utility.yul\":7080:7499   */\n          swap2\n          swap1\n          pop\n          jump\t// out\n            /* \"#utility.yul\":7505:7673   */\n        tag_156:\n            /* \"#utility.yul\":7645:7665   */\n          0x416c6c6f77616e63652065786365656465640000000000000000000000000000\n            /* \"#utility.yul\":7641:7642   */\n          0x00\n            /* \"#utility.yul\":7633:7639   */\n          dup3\n            /* \"#utility.yul\":7629:7643   */\n          add\n            /* \"#utility.yul\":7622:7666   */\n          mstore\n            /* \"#utility.yul\":7505:7673   */\n          pop\n          jump\t// out\n            /* \"#utility.yul\":7679:8045   */\n        tag_157:\n            /* \"#utility.yul\":7821:7824   */\n          0x00\n            /* \"#utility.yul\":7842:7909   */\n          tag_242\n            /* \"#utility.yul\":7906:7908   */\n          0x12\n            /* \"#utility.yul\":7901:7904   */\n          dup4\n            /* \"#utility.yul\":7842:7909   */\n          tag_133\n          jump\t// in\n        tag_242:\n            /* \"#utility.yul\":7835:7909   */\n          swap2\n          pop\n            /* \"#utility.yul\":7918:8011   */\n          tag_243\n            /* \"#utility.yul\":8007:8010   */\n          dup3\n            /* \"#utility.yul\":7918:8011   */\n          tag_156\n          jump\t// in\n        tag_243:\n            /* \"#utility.yul\":8036:8038   */\n          0x20\n            /* \"#utility.yul\":8031:8034   */\n          dup3\n            /* \"#utility.yul\":8027:8039   */\n          add\n            /* \"#utility.yul\":8020:8039   */\n          swap1\n          pop\n            /* \"#utility.yul\":7679:8045   */\n          swap2\n          swap1\n          pop\n          jump\t// out\n            /* \"#utility.yul\":8051:8470   */\n        tag_94:\n            /* \"#utility.yul\":8217:8221   */\n          0x00\n            /* \"#utility.yul\":8255:8257   */\n          0x20\n            /* \"#utility.yul\":8244:8253   */\n          dup3\n            /* \"#utility.yul\":8240:8258   */\n          add\n            /* \"#utility.yul\":8232:8258   */\n          swap1\n          pop\n            /* \"#utility.yul\":8304:8313   */\n          dup2\n            /* \"#utility.yul\":8298:8302   */\n          dup2\n            /* \"#utility.yul\":8294:8314   */\n          sub\n            /* \"#utility.yul\":8290:8291   */\n          0x00\n            /* \"#utility.yul\":8279:8288   */\n          dup4\n            /* \"#utility.yul\":8275:8292   */\n          add\n            /* \"#utility.yul\":8268:8315   */\n          mstore\n            /* \"#utility.yul\":8332:8463   */\n          tag_245\n            /* \"#utility.yul\":8458:8462   */\n          dup2\n            /* \"#utility.yul\":8332:8463   */\n          tag_157\n          jump\t// in\n        tag_245:\n            /* \"#utility.yul\":8324:8463   */\n          swap1\n          pop\n            /* \"#utility.yul\":8051:8470   */\n          swap2\n          swap1\n          pop\n          jump\t// out\n            /* \"#utility.yul\":8476:8656   */\n        tag_158:\n            /* \"#utility.yul\":8524:8601   */\n          0x4e487b7100000000000000000000000000000000000000000000000000000000\n            /* \"#utility.yul\":8521:8522   */\n          0x00\n            /* \"#utility.yul\":8514:8602   */\n          mstore\n            /* \"#utility.yul\":8621:8625   */\n          0x11\n            /* \"#utility.yul\":8618:8619   */\n          0x04\n            /* \"#utility.yul\":8611:8626   */\n          mstore\n            /* \"#utility.yul\":8645:8649   */\n          0x24\n            /* \"#utility.yul\":8642:8643   */\n          0x00\n            /* \"#utility.yul\":8635:8650   */\n          revert\n            /* \"#utility.yul\":8662:8856   */\n        tag_96:\n            /* \"#utility.yul\":8702:8706   */\n          0x00\n            /* \"#utility.yul\":8722:8742   */\n          tag_248\n            /* \"#utility.yul\":8740:8741   */\n          dup3\n            /* \"#utility.yul\":8722:8742   */\n          tag_137\n          jump\t// in\n        tag_248:\n            /* \"#utility.yul\":8717:8742   */\n          swap2\n          pop\n            /* \"#utility.yul\":8756:8776   */\n          tag_249\n            /* \"#utility.yul\":8774:8775   */\n          dup4\n            /* \"#utility.yul\":8756:8776   */\n          tag_137\n          jump\t// in\n        tag_249:\n            /* \"#utility.yul\":8751:8776   */\n          swap3\n          pop\n            /* \"#utility.yul\":8800:8801   */\n          dup3\n            /* \"#utility.yul\":8797:8798   */\n          dup3\n            /* \"#utility.yul\":8793:8802   */\n          sub\n            /* \"#utility.yul\":8785:8802   */\n          swap1\n          pop\n            /* \"#utility.yul\":8824:8825   */\n          dup2\n            /* \"#utility.yul\":8818:8822   */\n          dup2\n            /* \"#utility.yul\":8815:8826   */\n          gt\n            /* \"#utility.yul\":8812:8849   */\n          iszero\n          tag_250\n          jumpi\n            /* \"#utility.yul\":8829:8847   */\n          tag_251\n          tag_158\n          jump\t// in\n        tag_251:\n            /* \"#utility.yul\":8812:8849   */\n        tag_250:\n            /* \"#utility.yul\":8662:8856   */\n          swap3\n          swap2\n          pop\n          pop\n          jump\t// out\n            /* \"#utility.yul\":8862:9053   */\n        tag_99:\n            /* \"#utility.yul\":8902:8905   */\n          0x00\n            /* \"#utility.yul\":8921:8941   */\n          tag_253\n            /* \"#utility.yul\":8939:8940   */\n          dup3\n            /* \"#utility.yul\":8921:8941   */\n          tag_137\n          jump\t// in\n        tag_253:\n            /* \"#utility.yul\":8916:8941   */\n          swap2\n          pop\n            /* \"#utility.yul\":8955:8975   */\n          tag_254\n            /* \"#utility.yul\":8973:8974   */\n          dup4\n            /* \"#utility.yul\":8955:8975   */\n          tag_137\n          jump\t// in\n        tag_254:\n            /* \"#utility.yul\":8950:8975   */\n          swap3\n          pop\n            /* \"#utility.yul\":8998:8999   */\n          dup3\n            /* \"#utility.yul\":8995:8996   */\n          dup3\n            /* \"#utility.yul\":8991:9000   */\n          add\n            /* \"#utility.yul\":8984:9000   */\n          swap1\n          pop\n            /* \"#utility.yul\":9019:9022   */\n          dup1\n            /* \"#utility.yul\":9016:9017   */\n          dup3\n            /* \"#utility.yul\":9013:9023   */\n          gt\n            /* \"#utility.yul\":9010:9046   */\n          iszero\n          tag_255\n          jumpi\n            /* \"#utility.yul\":9026:9044   */\n          tag_256\n          tag_158\n          jump\t// in\n        tag_256:\n            /* \"#utility.yul\":9010:9046   */\n        tag_255:\n            /* \"#utility.yul\":8862:9053   */\n          swap3\n          swap2\n          pop\n          pop\n          jump\t// out\n\n        auxdata: 0xa264697066735822122002c4da9827837d8c279a208b5fce61e4c758a11c4f237bd862f4829cc5735b9464736f6c63430008140033\n    }\n}\n",
				"bytecode": {
					"linkReferences": {},
					"object": "608060405234801561000f575f80fd5b5060405161001c90610079565b604051809103905ff080158015610035573d5f803e3d5ffd5b505f806101000a81548173ffffffffffffffffffffffffffffffffffffffff021916908373ffffffffffffffffffffffffffffffffffffffff160217905550610086565b6115d48061156683390190565b6114d3806100935f395ff3fe608060405260043610610090575f3560e01c80637fcf440a116100585780637fcf440a14610188578063a6f2ae3a146101c4578063bfd7e00d146101ce578063df791e501461020a578063e4849b321461023257610090565b8063095ea7b31461009457806316cfc4c1146100d0578063200c43c9146100fa57806356688700146101245780635700d9ff1461014c575b5f80fd5b34801561009f575f80fd5b506100ba60048036038101906100b59190610d69565b61025a565b6040516100c79190610dc1565b60405180910390f35b3480156100db575f80fd5b506100e461034c565b6040516100f19190610e35565b60405180910390f35b348015610105575f80fd5b5061010e61036f565b60405161011b9190610e5d565b60405180910390f35b34801561012f575f80fd5b5061014a60048036038101906101459190610d69565b610396565b005b348015610157575f80fd5b50610172600480360381019061016d9190610e76565b610418565b60405161017f9190610eb0565b60405180910390f35b348015610193575f80fd5b506101ae60048036038101906101a99190610e76565b610498565b6040516101bb9190610eb0565b60405180910390f35b6101cc610518565b005b3480156101d9575f80fd5b506101f460048036038101906101ef9190610ec9565b6106db565b6040516102019190610eb0565b60405180910390f35b348015610215575f80fd5b50610230600480360381019061022b9190610ec9565b6107f4565b005b34801561023d575f80fd5b5061025860048036038101906102539190610f19565b6109bc565b005b5f808373ffffffffffffffffffffffffffffffffffffffff1663e1f21c673330866040518463ffffffff1660e01b815260040161029993929190610f44565b6020604051808303815f875af11580156102b5573d5f803e3d5ffd5b505050506040513d601f19601f820116820180604052508101906102d99190610fa3565b90503073ffffffffffffffffffffffffffffffffffffffff163373ffffffffffffffffffffffffffffffffffffffff167f433f45cbfc6bd26ad2811ae0cf59ed4361e4e2468d9494e7aa021d4f400f0f24858760405161033a929190610fce565b60405180910390a38091505092915050565b5f8054906101000a900473ffffffffffffffffffffffffffffffffffffffff1681565b5f805f9054906101000a900473ffffffffffffffffffffffffffffffffffffffff16905090565b8173ffffffffffffffffffffffffffffffffffffffff166323b872dd3330846040518463ffffffff1660e01b81526004016103d393929190610f44565b6020604051808303815f875af11580156103ef573d5f803e3d5ffd5b505050506040513d601f19601f820116820180604052508101906104139190610fa3565b505050565b5f8173ffffffffffffffffffffffffffffffffffffffff166370a08231306040518263ffffffff1660e01b81526004016104529190610e5d565b602060405180830381865afa15801561046d573d5f803e3d5ffd5b505050506040513d601f19601f820116820180604052508101906104919190611009565b9050919050565b5f8173ffffffffffffffffffffffffffffffffffffffff166370a08231336040518263ffffffff1660e01b81526004016104d29190610e5d565b602060405180830381865afa1580156104ed573d5f803e3d5ffd5b505050506040513d601f19601f820116820180604052508101906105119190611009565b9050919050565b5f3490505f805f9054906101000a900473ffffffffffffffffffffffffffffffffffffffff1673ffffffffffffffffffffffffffffffffffffffff166370a08231306040518263ffffffff1660e01b81526004016105769190610e5d565b602060405180830381865afa158015610591573d5f803e3d5ffd5b505050506040513d601f19601f820116820180604052508101906105b59190611009565b9050808211156105fa576040517f08c379a00000000000000000000000000000000000000000000000000000000081526004016105f1906110b4565b60405180910390fd5b5f821161063c576040517f08c379a00000000000000000000000000000000000000000000000000000000081526004016106339061111c565b60405180910390fd5b5f8054906101000a900473ffffffffffffffffffffffffffffffffffffffff1673ffffffffffffffffffffffffffffffffffffffff1663a9059cbb33846040518363ffffffff1660e01b815260040161069692919061113a565b6020604051808303815f875af11580156106b2573d5f803e3d5ffd5b505050506040513d601f19601f820116820180604052508101906106d69190610fa3565b505050565b5f808473ffffffffffffffffffffffffffffffffffffffff166370a08231306040518263ffffffff1660e01b81526004016107169190610e5d565b602060405180830381865afa158015610731573d5f803e3d5ffd5b505050506040513d601f19601f820116820180604052508101906107559190611009565b90505f8473ffffffffffffffffffffffffffffffffffffffff166370a08231306040518263ffffffff1660e01b81526004016107919190610e5d565b602060405180830381865afa1580156107ac573d5f803e3d5ffd5b505050506040513d601f19601f820116820180604052508101906107d09190611009565b90508181856107df919061118e565b6107e991906111fc565b925050509392505050565b808373ffffffffffffffffffffffffffffffffffffffff166370a08231336040518263ffffffff1660e01b815260040161082e9190610e5d565b602060405180830381865afa158015610849573d5f803e3d5ffd5b505050506040513d601f19601f8201168201806040525081019061086d9190611009565b10156108ae576040517f08c379a00000000000000000000000000000000000000000000000000000000081526004016108a590611276565b60405180910390fd5b5f6108ba8484846106db565b90508373ffffffffffffffffffffffffffffffffffffffff166323b872dd3330856040518463ffffffff1660e01b81526004016108f993929190610f44565b6020604051808303815f875af1158015610915573d5f803e3d5ffd5b505050506040513d601f19601f820116820180604052508101906109399190610fa3565b508273ffffffffffffffffffffffffffffffffffffffff1663a9059cbb33836040518363ffffffff1660e01b815260040161097592919061113a565b6020604051808303815f875af1158015610991573d5f803e3d5ffd5b505050506040513d601f19601f820116820180604052508101906109b59190610fa3565b5050505050565b5f805f9054906101000a900473ffffffffffffffffffffffffffffffffffffffff1673ffffffffffffffffffffffffffffffffffffffff1663dd62ed3e33306040518363ffffffff1660e01b8152600401610a18929190611294565b602060405180830381865afa158015610a33573d5f803e3d5ffd5b505050506040513d601f19601f82011682018060405250810190610a579190611009565b90507fd774aaa44c6d93d56abc84155c14291ee2bee1fdf086d6dd65ddcfc5251b499f81604051610a889190611305565b60405180910390a181811015610ad3576040517f08c379a0000000000000000000000000000000000000000000000000000000008152600401610aca906113a1565b60405180910390fd5b5f805f9054906101000a900473ffffffffffffffffffffffffffffffffffffffff1673ffffffffffffffffffffffffffffffffffffffff166370a08231336040518263ffffffff1660e01b8152600401610b2d9190610e5d565b602060405180830381865afa158015610b48573d5f803e3d5ffd5b505050506040513d601f19601f82011682018060405250810190610b6c9190611009565b90507fd774aaa44c6d93d56abc84155c14291ee2bee1fdf086d6dd65ddcfc5251b499f81604051610b9d9190611409565b60405180910390a182811015610be8576040517f08c379a0000000000000000000000000000000000000000000000000000000008152600401610bdf9061147f565b60405180910390fd5b5f8054906101000a900473ffffffffffffffffffffffffffffffffffffffff1673ffffffffffffffffffffffffffffffffffffffff166323b872dd3330866040518463ffffffff1660e01b8152600401610c4493929190610f44565b6020604051808303815f875af1158015610c60573d5f803e3d5ffd5b505050506040513d601f19601f82011682018060405250810190610c849190610fa3565b503373ffffffffffffffffffffffffffffffffffffffff167fae92ab4b6f8f401ead768d3273e6bb937a13e39827d19c6376e8fd4512a05d9a84604051610ccb9190610eb0565b60405180910390a2505050565b5f80fd5b5f73ffffffffffffffffffffffffffffffffffffffff82169050919050565b5f610d0582610cdc565b9050919050565b610d1581610cfb565b8114610d1f575f80fd5b50565b5f81359050610d3081610d0c565b92915050565b5f819050919050565b610d4881610d36565b8114610d52575f80fd5b50565b5f81359050610d6381610d3f565b92915050565b5f8060408385031215610d7f57610d7e610cd8565b5b5f610d8c85828601610d22565b9250506020610d9d85828601610d55565b9150509250929050565b5f8115159050919050565b610dbb81610da7565b82525050565b5f602082019050610dd45f830184610db2565b92915050565b5f819050919050565b5f610dfd610df8610df384610cdc565b610dda565b610cdc565b9050919050565b5f610e0e82610de3565b9050919050565b5f610e1f82610e04565b9050919050565b610e2f81610e15565b82525050565b5f602082019050610e485f830184610e26565b92915050565b610e5781610cfb565b82525050565b5f602082019050610e705f830184610e4e565b92915050565b5f60208284031215610e8b57610e8a610cd8565b5b5f610e9884828501610d22565b91505092915050565b610eaa81610d36565b82525050565b5f602082019050610ec35f830184610ea1565b92915050565b5f805f60608486031215610ee057610edf610cd8565b5b5f610eed86828701610d22565b9350506020610efe86828701610d22565b9250506040610f0f86828701610d55565b9150509250925092565b5f60208284031215610f2e57610f2d610cd8565b5b5f610f3b84828501610d55565b91505092915050565b5f606082019050610f575f830186610e4e565b610f646020830185610e4e565b610f716040830184610ea1565b949350505050565b610f8281610da7565b8114610f8c575f80fd5b50565b5f81519050610f9d81610f79565b92915050565b5f60208284031215610fb857610fb7610cd8565b5b5f610fc584828501610f8f565b91505092915050565b5f604082019050610fe15f830185610ea1565b610fee6020830184610e4e565b9392505050565b5f8151905061100381610d3f565b92915050565b5f6020828403121561101e5761101d610cd8565b5b5f61102b84828501610ff5565b91505092915050565b5f82825260208201905092915050565b7f54686520707572636861736520616d6f756e74206578636565647320746865205f8201527f616d6f756e7420617661696c61626c6520696e20726573657276652e00000000602082015250565b5f61109e603c83611034565b91506110a982611044565b604082019050919050565b5f6020820190508181035f8301526110cb81611092565b9050919050565b7f506c65617365207370656e6420736f6d65204d4154494320746f2062757900005f82015250565b5f611106601e83611034565b9150611111826110d2565b602082019050919050565b5f6020820190508181035f830152611133816110fa565b9050919050565b5f60408201905061114d5f830185610e4e565b61115a6020830184610ea1565b9392505050565b7f4e487b71000000000000000000000000000000000000000000000000000000005f52601160045260245ffd5b5f61119882610d36565b91506111a383610d36565b92508282026111b181610d36565b915082820484148315176111c8576111c7611161565b5b5092915050565b7f4e487b71000000000000000000000000000000000000000000000000000000005f52601260045260245ffd5b5f61120682610d36565b915061121183610d36565b925082611221576112206111cf565b5b828204905092915050565b7f4e6f7420656e6f75676820746f6b656e7320746f2073776170000000000000005f82015250565b5f611260601983611034565b915061126b8261122c565b602082019050919050565b5f6020820190508181035f83015261128d81611254565b9050919050565b5f6040820190506112a75f830185610e4e565b6112b46020830184610e4e565b9392505050565b7f416c6c6f77616e636520636865636b206265666f72652073656c6c00000000005f82015250565b5f6112ef601b83611034565b91506112fa826112bb565b602082019050919050565b5f6040820190508181035f83015261131c816112e3565b905061132b6020830184610ea1565b92915050565b7f416c6c6f77616e6365206973206c657373207468616e2074686520616d6f756e5f8201527f7420746f2073656c6c0000000000000000000000000000000000000000000000602082015250565b5f61138b602983611034565b915061139682611331565b604082019050919050565b5f6020820190508181035f8301526113b88161137f565b9050919050565b7f42616c616e636520636865636b206265666f72652073656c6c000000000000005f82015250565b5f6113f3601983611034565b91506113fe826113bf565b602082019050919050565b5f6040820190508181035f830152611420816113e7565b905061142f6020830184610ea1565b92915050565b7f496e73756666696369656e742062616c616e63650000000000000000000000005f82015250565b5f611469601483611034565b915061147482611435565b602082019050919050565b5f6020820190508181035f8301526114968161145d565b905091905056fea26469706673582212208f778f6edd6e518b494092576ee54d18dadcea520a6497b7f22f691b022ea47664736f6c6343000814003360806040526040518060400160405280600881526020017f44582d746f6b656e000000000000000000000000000000000000000000000000815250600290816200004a919062000375565b506040518060400160405280600481526020017f4458544b000000000000000000000000000000000000000000000000000000008152506003908162000091919062000375565b5069152d02c7e14af6800000600455601260055f6101000a81548160ff021916908360ff160217905550348015620000c7575f80fd5b506004545f803373ffffffffffffffffffffffffffffffffffffffff1673ffffffffffffffffffffffffffffffffffffffff1681526020019081526020015f208190555062000459565b5f81519050919050565b7f4e487b71000000000000000000000000000000000000000000000000000000005f52604160045260245ffd5b7f4e487b71000000000000000000000000000000000000000000000000000000005f52602260045260245ffd5b5f60028204905060018216806200018d57607f821691505b602082108103620001a357620001a262000148565b5b50919050565b5f819050815f5260205f209050919050565b5f6020601f8301049050919050565b5f82821b905092915050565b5f60088302620002077fffffffffffffffffffffffffffffffffffffffffffffffffffffffffffffffff82620001ca565b620002138683620001ca565b95508019841693508086168417925050509392505050565b5f819050919050565b5f819050919050565b5f6200025d6200025762000251846200022b565b62000234565b6200022b565b9050919050565b5f819050919050565b62000278836200023d565b62000290620002878262000264565b848454620001d6565b825550505050565b5f90565b620002a662000298565b620002b38184846200026d565b505050565b5b81811015620002da57620002ce5f826200029c565b600181019050620002b9565b5050565b601f8211156200032957620002f381620001a9565b620002fe84620001bb565b810160208510156200030e578190505b620003266200031d85620001bb565b830182620002b8565b50505b505050565b5f82821c905092915050565b5f6200034b5f19846008026200032e565b1980831691505092915050565b5f6200036583836200033a565b9150826002028217905092915050565b620003808262000111565b67ffffffffffffffff8111156200039c576200039b6200011b565b5b620003a8825462000175565b620003b5828285620002de565b5f60209050601f831160018114620003eb575f8415620003d6578287015190505b620003e2858262000358565b86555062000451565b601f198416620003fb86620001a9565b5f5b828110156200042457848901518255600182019150602085019450602081019050620003fd565b8683101562000444578489015162000440601f8916826200033a565b8355505b6001600288020188555050505b505050505050565b61116d80620004675f395ff3fe608060405234801561000f575f80fd5b50600436106100f3575f3560e01c806370a0823111610095578063c4e41b2211610064578063c4e41b2214610285578063dd62ed3e146102a3578063e1f21c67146102d3578063f6ae79ac14610303576100f3565b806370a08231146101eb57806395d89b411461021b5780639dc29fac14610239578063a9059cbb14610255576100f3565b80632be7c04a116100d15780632be7c04a14610163578063313ce5671461019357806338cc4831146101b157806340c10f19146101cf576100f3565b806306fdde03146100f757806318160ddd1461011557806323b872dd14610133575b5f80fd5b6100ff610333565b60405161010c9190610d18565b60405180910390f35b61011d6103bf565b60405161012a9190610d50565b60405180910390f35b61014d60048036038101906101489190610df1565b6103c5565b60405161015a9190610e5b565b60405180910390f35b61017d60048036038101906101789190610e74565b6106a2565b60405161018a9190610d50565b60405180910390f35b61019b6106c2565b6040516101a89190610ecd565b60405180910390f35b6101b96106d4565b6040516101c69190610ef5565b60405180910390f35b6101e960048036038101906101e49190610f0e565b6106db565b005b61020560048036038101906102009190610f4c565b6106e9565b6040516102129190610d50565b60405180910390f35b61022361072e565b6040516102309190610d18565b60405180910390f35b610253600480360381019061024e9190610f0e565b6107ba565b005b61026f600480360381019061026a9190610f0e565b6107c8565b60405161027c9190610e5b565b60405180910390f35b61028d61095b565b60405161029a9190610d50565b60405180910390f35b6102bd60048036038101906102b89190610e74565b610964565b6040516102ca9190610d50565b60405180910390f35b6102ed60048036038101906102e89190610df1565b6109e6565b6040516102fa9190610e5b565b60405180910390f35b61031d60048036038101906103189190610f4c565b610ad4565b60405161032a9190610d50565b60405180910390f35b6002805461034090610fa4565b80601f016020809104026020016040519081016040528092919081815260200182805461036c90610fa4565b80156103b75780601f1061038e576101008083540402835291602001916103b7565b820191905f5260205f20905b81548152906001019060200180831161039a57829003601f168201915b505050505081565b60045481565b5f805f8573ffffffffffffffffffffffffffffffffffffffff1673ffffffffffffffffffffffffffffffffffffffff1681526020019081526020015f2054821115610445576040517f08c379a000000000000000000000000000000000000000000000000000000000815260040161043c9061101e565b60405180910390fd5b60015f8573ffffffffffffffffffffffffffffffffffffffff1673ffffffffffffffffffffffffffffffffffffffff1681526020019081526020015f205f3373ffffffffffffffffffffffffffffffffffffffff1673ffffffffffffffffffffffffffffffffffffffff1681526020019081526020015f2054821115610500576040517f08c379a00000000000000000000000000000000000000000000000000000000081526004016104f790611086565b60405180910390fd5b8160015f8673ffffffffffffffffffffffffffffffffffffffff1673ffffffffffffffffffffffffffffffffffffffff1681526020019081526020015f205f3373ffffffffffffffffffffffffffffffffffffffff1673ffffffffffffffffffffffffffffffffffffffff1681526020019081526020015f205f82825461058791906110d1565b92505081905550815f808673ffffffffffffffffffffffffffffffffffffffff1673ffffffffffffffffffffffffffffffffffffffff1681526020019081526020015f205f8282546105d991906110d1565b92505081905550815f808573ffffffffffffffffffffffffffffffffffffffff1673ffffffffffffffffffffffffffffffffffffffff1681526020019081526020015f205f82825461062b9190611104565b925050819055508273ffffffffffffffffffffffffffffffffffffffff168473ffffffffffffffffffffffffffffffffffffffff167fddf252ad1be2c89b69c2b068fc378daa952ba7f163c4a11628f55a4df523b3ef8460405161068f9190610d50565b60405180910390a3600190509392505050565b6001602052815f5260405f20602052805f5260405f205f91509150505481565b60055f9054906101000a900460ff1681565b5f30905090565b6106e58282610ae8565b5050565b5f805f8373ffffffffffffffffffffffffffffffffffffffff1673ffffffffffffffffffffffffffffffffffffffff1681526020019081526020015f20549050919050565b6003805461073b90610fa4565b80601f016020809104026020016040519081016040528092919081815260200182805461076790610fa4565b80156107b25780601f10610789576101008083540402835291602001916107b2565b820191905f5260205f20905b81548152906001019060200180831161079557829003601f168201915b505050505081565b6107c48282610bbb565b5050565b5f805f3373ffffffffffffffffffffffffffffffffffffffff1673ffffffffffffffffffffffffffffffffffffffff1681526020019081526020015f2054821115610848576040517f08c379a000000000000000000000000000000000000000000000000000000000815260040161083f9061101e565b60405180910390fd5b815f803373ffffffffffffffffffffffffffffffffffffffff1673ffffffffffffffffffffffffffffffffffffffff1681526020019081526020015f205f82825461089391906110d1565b92505081905550815f808573ffffffffffffffffffffffffffffffffffffffff1673ffffffffffffffffffffffffffffffffffffffff1681526020019081526020015f205f8282546108e59190611104565b925050819055508273ffffffffffffffffffffffffffffffffffffffff163373ffffffffffffffffffffffffffffffffffffffff167fddf252ad1be2c89b69c2b068fc378daa952ba7f163c4a11628f55a4df523b3ef846040516109499190610d50565b60405180910390a36001905092915050565b5f600454905090565b5f60015f8473ffffffffffffffffffffffffffffffffffffffff1673ffffffffffffffffffffffffffffffffffffffff1681526020019081526020015f205f8373ffffffffffffffffffffffffffffffffffffffff1673ffffffffffffffffffffffffffffffffffffffff1681526020019081526020015f2054905092915050565b5f8160015f8673ffffffffffffffffffffffffffffffffffffffff1673ffffffffffffffffffffffffffffffffffffffff1681526020019081526020015f205f8573ffffffffffffffffffffffffffffffffffffffff1673ffffffffffffffffffffffffffffffffffffffff1681526020019081526020015f20819055508273ffffffffffffffffffffffffffffffffffffffff168473ffffffffffffffffffffffffffffffffffffffff167f8c5be1e5ebec7d5bd14f71427d1e84f3dd0314c0f7b2291e5b200ac8c7c3b92584604051610ac19190610d50565b60405180910390a3600190509392505050565b5f602052805f5260405f205f915090505481565b805f808473ffffffffffffffffffffffffffffffffffffffff1673ffffffffffffffffffffffffffffffffffffffff1681526020019081526020015f205f828254610b339190611104565b925050819055508060045f828254610b4b9190611104565b925050819055508173ffffffffffffffffffffffffffffffffffffffff165f73ffffffffffffffffffffffffffffffffffffffff167fddf252ad1be2c89b69c2b068fc378daa952ba7f163c4a11628f55a4df523b3ef83604051610baf9190610d50565b60405180910390a35050565b805f808473ffffffffffffffffffffffffffffffffffffffff1673ffffffffffffffffffffffffffffffffffffffff1681526020019081526020015f205f828254610c0691906110d1565b925050819055508060045f828254610c1e91906110d1565b925050819055505f73ffffffffffffffffffffffffffffffffffffffff168273ffffffffffffffffffffffffffffffffffffffff167fddf252ad1be2c89b69c2b068fc378daa952ba7f163c4a11628f55a4df523b3ef83604051610c829190610d50565b60405180910390a35050565b5f81519050919050565b5f82825260208201905092915050565b5f5b83811015610cc5578082015181840152602081019050610caa565b5f8484015250505050565b5f601f19601f8301169050919050565b5f610cea82610c8e565b610cf48185610c98565b9350610d04818560208601610ca8565b610d0d81610cd0565b840191505092915050565b5f6020820190508181035f830152610d308184610ce0565b905092915050565b5f819050919050565b610d4a81610d38565b82525050565b5f602082019050610d635f830184610d41565b92915050565b5f80fd5b5f73ffffffffffffffffffffffffffffffffffffffff82169050919050565b5f610d9682610d6d565b9050919050565b610da681610d8c565b8114610db0575f80fd5b50565b5f81359050610dc181610d9d565b92915050565b610dd081610d38565b8114610dda575f80fd5b50565b5f81359050610deb81610dc7565b92915050565b5f805f60608486031215610e0857610e07610d69565b5b5f610e1586828701610db3565b9350506020610e2686828701610db3565b9250506040610e3786828701610ddd565b9150509250925092565b5f8115159050919050565b610e5581610e41565b82525050565b5f602082019050610e6e5f830184610e4c565b92915050565b5f8060408385031215610e8a57610e89610d69565b5b5f610e9785828601610db3565b9250506020610ea885828601610db3565b9150509250929050565b5f60ff82169050919050565b610ec781610eb2565b82525050565b5f602082019050610ee05f830184610ebe565b92915050565b610eef81610d8c565b82525050565b5f602082019050610f085f830184610ee6565b92915050565b5f8060408385031215610f2457610f23610d69565b5b5f610f3185828601610db3565b9250506020610f4285828601610ddd565b9150509250929050565b5f60208284031215610f6157610f60610d69565b5b5f610f6e84828501610db3565b91505092915050565b7f4e487b71000000000000000000000000000000000000000000000000000000005f52602260045260245ffd5b5f6002820490506001821680610fbb57607f821691505b602082108103610fce57610fcd610f77565b5b50919050565b7f496e73756666696369656e742062616c616e63650000000000000000000000005f82015250565b5f611008601483610c98565b915061101382610fd4565b602082019050919050565b5f6020820190508181035f83015261103581610ffc565b9050919050565b7f416c6c6f77616e636520657863656564656400000000000000000000000000005f82015250565b5f611070601283610c98565b915061107b8261103c565b602082019050919050565b5f6020820190508181035f83015261109d81611064565b9050919050565b7f4e487b71000000000000000000000000000000000000000000000000000000005f52601160045260245ffd5b5f6110db82610d38565b91506110e683610d38565b92508282039050818111156110fe576110fd6110a4565b5b92915050565b5f61110e82610d38565b915061111983610d38565b9250828201905080821115611131576111306110a4565b5b9291505056fea264697066735822122002c4da9827837d8c279a208b5fce61e4c758a11c4f237bd862f4829cc5735b9464736f6c63430008140033",
					"opcodes": "PUSH1 0x80 PUSH1 0x40 MSTORE CALLVALUE DUP1 ISZERO PUSH2 0xF JUMPI PUSH0 DUP1 REVERT JUMPDEST POP PUSH1 0x40 MLOAD PUSH2 0x1C SWAP1 PUSH2 0x79 JUMP JUMPDEST PUSH1 0x40 MLOAD DUP1 SWAP2 SUB SWAP1 PUSH0 CREATE DUP1 ISZERO DUP1 ISZERO PUSH2 0x35 JUMPI RETURNDATASIZE PUSH0 DUP1 RETURNDATACOPY RETURNDATASIZE PUSH0 REVERT JUMPDEST POP PUSH0 DUP1 PUSH2 0x100 EXP DUP2 SLOAD DUP2 PUSH20 0xFFFFFFFFFFFFFFFFFFFFFFFFFFFFFFFFFFFFFFFF MUL NOT AND SWAP1 DUP4 PUSH20 0xFFFFFFFFFFFFFFFFFFFFFFFFFFFFFFFFFFFFFFFF AND MUL OR SWAP1 SSTORE POP PUSH2 0x86 JUMP JUMPDEST PUSH2 0x15D4 DUP1 PUSH2 0x1566 DUP4 CODECOPY ADD SWAP1 JUMP JUMPDEST PUSH2 0x14D3 DUP1 PUSH2 0x93 PUSH0 CODECOPY PUSH0 RETURN INVALID PUSH1 0x80 PUSH1 0x40 MSTORE PUSH1 0x4 CALLDATASIZE LT PUSH2 0x90 JUMPI PUSH0 CALLDATALOAD PUSH1 0xE0 SHR DUP1 PUSH4 0x7FCF440A GT PUSH2 0x58 JUMPI DUP1 PUSH4 0x7FCF440A EQ PUSH2 0x188 JUMPI DUP1 PUSH4 0xA6F2AE3A EQ PUSH2 0x1C4 JUMPI DUP1 PUSH4 0xBFD7E00D EQ PUSH2 0x1CE JUMPI DUP1 PUSH4 0xDF791E50 EQ PUSH2 0x20A JUMPI DUP1 PUSH4 0xE4849B32 EQ PUSH2 0x232 JUMPI PUSH2 0x90 JUMP JUMPDEST DUP1 PUSH4 0x95EA7B3 EQ PUSH2 0x94 JUMPI DUP1 PUSH4 0x16CFC4C1 EQ PUSH2 0xD0 JUMPI DUP1 PUSH4 0x200C43C9 EQ PUSH2 0xFA JUMPI DUP1 PUSH4 0x56688700 EQ PUSH2 0x124 JUMPI DUP1 PUSH4 0x5700D9FF EQ PUSH2 0x14C JUMPI JUMPDEST PUSH0 DUP1 REVERT JUMPDEST CALLVALUE DUP1 ISZERO PUSH2 0x9F JUMPI PUSH0 DUP1 REVERT JUMPDEST POP PUSH2 0xBA PUSH1 0x4 DUP1 CALLDATASIZE SUB DUP2 ADD SWAP1 PUSH2 0xB5 SWAP2 SWAP1 PUSH2 0xD69 JUMP JUMPDEST PUSH2 0x25A JUMP JUMPDEST PUSH1 0x40 MLOAD PUSH2 0xC7 SWAP2 SWAP1 PUSH2 0xDC1 JUMP JUMPDEST PUSH1 0x40 MLOAD DUP1 SWAP2 SUB SWAP1 RETURN JUMPDEST CALLVALUE DUP1 ISZERO PUSH2 0xDB JUMPI PUSH0 DUP1 REVERT JUMPDEST POP PUSH2 0xE4 PUSH2 0x34C JUMP JUMPDEST PUSH1 0x40 MLOAD PUSH2 0xF1 SWAP2 SWAP1 PUSH2 0xE35 JUMP JUMPDEST PUSH1 0x40 MLOAD DUP1 SWAP2 SUB SWAP1 RETURN JUMPDEST CALLVALUE DUP1 ISZERO PUSH2 0x105 JUMPI PUSH0 DUP1 REVERT JUMPDEST POP PUSH2 0x10E PUSH2 0x36F JUMP JUMPDEST PUSH1 0x40 MLOAD PUSH2 0x11B SWAP2 SWAP1 PUSH2 0xE5D JUMP JUMPDEST PUSH1 0x40 MLOAD DUP1 SWAP2 SUB SWAP1 RETURN JUMPDEST CALLVALUE DUP1 ISZERO PUSH2 0x12F JUMPI PUSH0 DUP1 REVERT JUMPDEST POP PUSH2 0x14A PUSH1 0x4 DUP1 CALLDATASIZE SUB DUP2 ADD SWAP1 PUSH2 0x145 SWAP2 SWAP1 PUSH2 0xD69 JUMP JUMPDEST PUSH2 0x396 JUMP JUMPDEST STOP JUMPDEST CALLVALUE DUP1 ISZERO PUSH2 0x157 JUMPI PUSH0 DUP1 REVERT JUMPDEST POP PUSH2 0x172 PUSH1 0x4 DUP1 CALLDATASIZE SUB DUP2 ADD SWAP1 PUSH2 0x16D SWAP2 SWAP1 PUSH2 0xE76 JUMP JUMPDEST PUSH2 0x418 JUMP JUMPDEST PUSH1 0x40 MLOAD PUSH2 0x17F SWAP2 SWAP1 PUSH2 0xEB0 JUMP JUMPDEST PUSH1 0x40 MLOAD DUP1 SWAP2 SUB SWAP1 RETURN JUMPDEST CALLVALUE DUP1 ISZERO PUSH2 0x193 JUMPI PUSH0 DUP1 REVERT JUMPDEST POP PUSH2 0x1AE PUSH1 0x4 DUP1 CALLDATASIZE SUB DUP2 ADD SWAP1 PUSH2 0x1A9 SWAP2 SWAP1 PUSH2 0xE76 JUMP JUMPDEST PUSH2 0x498 JUMP JUMPDEST PUSH1 0x40 MLOAD PUSH2 0x1BB SWAP2 SWAP1 PUSH2 0xEB0 JUMP JUMPDEST PUSH1 0x40 MLOAD DUP1 SWAP2 SUB SWAP1 RETURN JUMPDEST PUSH2 0x1CC PUSH2 0x518 JUMP JUMPDEST STOP JUMPDEST CALLVALUE DUP1 ISZERO PUSH2 0x1D9 JUMPI PUSH0 DUP1 REVERT JUMPDEST POP PUSH2 0x1F4 PUSH1 0x4 DUP1 CALLDATASIZE SUB DUP2 ADD SWAP1 PUSH2 0x1EF SWAP2 SWAP1 PUSH2 0xEC9 JUMP JUMPDEST PUSH2 0x6DB JUMP JUMPDEST PUSH1 0x40 MLOAD PUSH2 0x201 SWAP2 SWAP1 PUSH2 0xEB0 JUMP JUMPDEST PUSH1 0x40 MLOAD DUP1 SWAP2 SUB SWAP1 RETURN JUMPDEST CALLVALUE DUP1 ISZERO PUSH2 0x215 JUMPI PUSH0 DUP1 REVERT JUMPDEST POP PUSH2 0x230 PUSH1 0x4 DUP1 CALLDATASIZE SUB DUP2 ADD SWAP1 PUSH2 0x22B SWAP2 SWAP1 PUSH2 0xEC9 JUMP JUMPDEST PUSH2 0x7F4 JUMP JUMPDEST STOP JUMPDEST CALLVALUE DUP1 ISZERO PUSH2 0x23D JUMPI PUSH0 DUP1 REVERT JUMPDEST POP PUSH2 0x258 PUSH1 0x4 DUP1 CALLDATASIZE SUB DUP2 ADD SWAP1 PUSH2 0x253 SWAP2 SWAP1 PUSH2 0xF19 JUMP JUMPDEST PUSH2 0x9BC JUMP JUMPDEST STOP JUMPDEST PUSH0 DUP1 DUP4 PUSH20 0xFFFFFFFFFFFFFFFFFFFFFFFFFFFFFFFFFFFFFFFF AND PUSH4 0xE1F21C67 CALLER ADDRESS DUP7 PUSH1 0x40 MLOAD DUP5 PUSH4 0xFFFFFFFF AND PUSH1 0xE0 SHL DUP2 MSTORE PUSH1 0x4 ADD PUSH2 0x299 SWAP4 SWAP3 SWAP2 SWAP1 PUSH2 0xF44 JUMP JUMPDEST PUSH1 0x20 PUSH1 0x40 MLOAD DUP1 DUP4 SUB DUP2 PUSH0 DUP8 GAS CALL ISZERO DUP1 ISZERO PUSH2 0x2B5 JUMPI RETURNDATASIZE PUSH0 DUP1 RETURNDATACOPY RETURNDATASIZE PUSH0 REVERT JUMPDEST POP POP POP POP PUSH1 0x40 MLOAD RETURNDATASIZE PUSH1 0x1F NOT PUSH1 0x1F DUP3 ADD AND DUP3 ADD DUP1 PUSH1 0x40 MSTORE POP DUP2 ADD SWAP1 PUSH2 0x2D9 SWAP2 SWAP1 PUSH2 0xFA3 JUMP JUMPDEST SWAP1 POP ADDRESS PUSH20 0xFFFFFFFFFFFFFFFFFFFFFFFFFFFFFFFFFFFFFFFF AND CALLER PUSH20 0xFFFFFFFFFFFFFFFFFFFFFFFFFFFFFFFFFFFFFFFF AND PUSH32 0x433F45CBFC6BD26AD2811AE0CF59ED4361E4E2468D9494E7AA021D4F400F0F24 DUP6 DUP8 PUSH1 0x40 MLOAD PUSH2 0x33A SWAP3 SWAP2 SWAP1 PUSH2 0xFCE JUMP JUMPDEST PUSH1 0x40 MLOAD DUP1 SWAP2 SUB SWAP1 LOG3 DUP1 SWAP2 POP POP SWAP3 SWAP2 POP POP JUMP JUMPDEST PUSH0 DUP1 SLOAD SWAP1 PUSH2 0x100 EXP SWAP1 DIV PUSH20 0xFFFFFFFFFFFFFFFFFFFFFFFFFFFFFFFFFFFFFFFF AND DUP2 JUMP JUMPDEST PUSH0 DUP1 PUSH0 SWAP1 SLOAD SWAP1 PUSH2 0x100 EXP SWAP1 DIV PUSH20 0xFFFFFFFFFFFFFFFFFFFFFFFFFFFFFFFFFFFFFFFF AND SWAP1 POP SWAP1 JUMP JUMPDEST DUP2 PUSH20 0xFFFFFFFFFFFFFFFFFFFFFFFFFFFFFFFFFFFFFFFF AND PUSH4 0x23B872DD CALLER ADDRESS DUP5 PUSH1 0x40 MLOAD DUP5 PUSH4 0xFFFFFFFF AND PUSH1 0xE0 SHL DUP2 MSTORE PUSH1 0x4 ADD PUSH2 0x3D3 SWAP4 SWAP3 SWAP2 SWAP1 PUSH2 0xF44 JUMP JUMPDEST PUSH1 0x20 PUSH1 0x40 MLOAD DUP1 DUP4 SUB DUP2 PUSH0 DUP8 GAS CALL ISZERO DUP1 ISZERO PUSH2 0x3EF JUMPI RETURNDATASIZE PUSH0 DUP1 RETURNDATACOPY RETURNDATASIZE PUSH0 REVERT JUMPDEST POP POP POP POP PUSH1 0x40 MLOAD RETURNDATASIZE PUSH1 0x1F NOT PUSH1 0x1F DUP3 ADD AND DUP3 ADD DUP1 PUSH1 0x40 MSTORE POP DUP2 ADD SWAP1 PUSH2 0x413 SWAP2 SWAP1 PUSH2 0xFA3 JUMP JUMPDEST POP POP POP JUMP JUMPDEST PUSH0 DUP2 PUSH20 0xFFFFFFFFFFFFFFFFFFFFFFFFFFFFFFFFFFFFFFFF AND PUSH4 0x70A08231 ADDRESS PUSH1 0x40 MLOAD DUP3 PUSH4 0xFFFFFFFF AND PUSH1 0xE0 SHL DUP2 MSTORE PUSH1 0x4 ADD PUSH2 0x452 SWAP2 SWAP1 PUSH2 0xE5D JUMP JUMPDEST PUSH1 0x20 PUSH1 0x40 MLOAD DUP1 DUP4 SUB DUP2 DUP7 GAS STATICCALL ISZERO DUP1 ISZERO PUSH2 0x46D JUMPI RETURNDATASIZE PUSH0 DUP1 RETURNDATACOPY RETURNDATASIZE PUSH0 REVERT JUMPDEST POP POP POP POP PUSH1 0x40 MLOAD RETURNDATASIZE PUSH1 0x1F NOT PUSH1 0x1F DUP3 ADD AND DUP3 ADD DUP1 PUSH1 0x40 MSTORE POP DUP2 ADD SWAP1 PUSH2 0x491 SWAP2 SWAP1 PUSH2 0x1009 JUMP JUMPDEST SWAP1 POP SWAP2 SWAP1 POP JUMP JUMPDEST PUSH0 DUP2 PUSH20 0xFFFFFFFFFFFFFFFFFFFFFFFFFFFFFFFFFFFFFFFF AND PUSH4 0x70A08231 CALLER PUSH1 0x40 MLOAD DUP3 PUSH4 0xFFFFFFFF AND PUSH1 0xE0 SHL DUP2 MSTORE PUSH1 0x4 ADD PUSH2 0x4D2 SWAP2 SWAP1 PUSH2 0xE5D JUMP JUMPDEST PUSH1 0x20 PUSH1 0x40 MLOAD DUP1 DUP4 SUB DUP2 DUP7 GAS STATICCALL ISZERO DUP1 ISZERO PUSH2 0x4ED JUMPI RETURNDATASIZE PUSH0 DUP1 RETURNDATACOPY RETURNDATASIZE PUSH0 REVERT JUMPDEST POP POP POP POP PUSH1 0x40 MLOAD RETURNDATASIZE PUSH1 0x1F NOT PUSH1 0x1F DUP3 ADD AND DUP3 ADD DUP1 PUSH1 0x40 MSTORE POP DUP2 ADD SWAP1 PUSH2 0x511 SWAP2 SWAP1 PUSH2 0x1009 JUMP JUMPDEST SWAP1 POP SWAP2 SWAP1 POP JUMP JUMPDEST PUSH0 CALLVALUE SWAP1 POP PUSH0 DUP1 PUSH0 SWAP1 SLOAD SWAP1 PUSH2 0x100 EXP SWAP1 DIV PUSH20 0xFFFFFFFFFFFFFFFFFFFFFFFFFFFFFFFFFFFFFFFF AND PUSH20 0xFFFFFFFFFFFFFFFFFFFFFFFFFFFFFFFFFFFFFFFF AND PUSH4 0x70A08231 ADDRESS PUSH1 0x40 MLOAD DUP3 PUSH4 0xFFFFFFFF AND PUSH1 0xE0 SHL DUP2 MSTORE PUSH1 0x4 ADD PUSH2 0x576 SWAP2 SWAP1 PUSH2 0xE5D JUMP JUMPDEST PUSH1 0x20 PUSH1 0x40 MLOAD DUP1 DUP4 SUB DUP2 DUP7 GAS STATICCALL ISZERO DUP1 ISZERO PUSH2 0x591 JUMPI RETURNDATASIZE PUSH0 DUP1 RETURNDATACOPY RETURNDATASIZE PUSH0 REVERT JUMPDEST POP POP POP POP PUSH1 0x40 MLOAD RETURNDATASIZE PUSH1 0x1F NOT PUSH1 0x1F DUP3 ADD AND DUP3 ADD DUP1 PUSH1 0x40 MSTORE POP DUP2 ADD SWAP1 PUSH2 0x5B5 SWAP2 SWAP1 PUSH2 0x1009 JUMP JUMPDEST SWAP1 POP DUP1 DUP3 GT ISZERO PUSH2 0x5FA JUMPI PUSH1 0x40 MLOAD PUSH32 0x8C379A000000000000000000000000000000000000000000000000000000000 DUP2 MSTORE PUSH1 0x4 ADD PUSH2 0x5F1 SWAP1 PUSH2 0x10B4 JUMP JUMPDEST PUSH1 0x40 MLOAD DUP1 SWAP2 SUB SWAP1 REVERT JUMPDEST PUSH0 DUP3 GT PUSH2 0x63C JUMPI PUSH1 0x40 MLOAD PUSH32 0x8C379A000000000000000000000000000000000000000000000000000000000 DUP2 MSTORE PUSH1 0x4 ADD PUSH2 0x633 SWAP1 PUSH2 0x111C JUMP JUMPDEST PUSH1 0x40 MLOAD DUP1 SWAP2 SUB SWAP1 REVERT JUMPDEST PUSH0 DUP1 SLOAD SWAP1 PUSH2 0x100 EXP SWAP1 DIV PUSH20 0xFFFFFFFFFFFFFFFFFFFFFFFFFFFFFFFFFFFFFFFF AND PUSH20 0xFFFFFFFFFFFFFFFFFFFFFFFFFFFFFFFFFFFFFFFF AND PUSH4 0xA9059CBB CALLER DUP5 PUSH1 0x40 MLOAD DUP4 PUSH4 0xFFFFFFFF AND PUSH1 0xE0 SHL DUP2 MSTORE PUSH1 0x4 ADD PUSH2 0x696 SWAP3 SWAP2 SWAP1 PUSH2 0x113A JUMP JUMPDEST PUSH1 0x20 PUSH1 0x40 MLOAD DUP1 DUP4 SUB DUP2 PUSH0 DUP8 GAS CALL ISZERO DUP1 ISZERO PUSH2 0x6B2 JUMPI RETURNDATASIZE PUSH0 DUP1 RETURNDATACOPY RETURNDATASIZE PUSH0 REVERT JUMPDEST POP POP POP POP PUSH1 0x40 MLOAD RETURNDATASIZE PUSH1 0x1F NOT PUSH1 0x1F DUP3 ADD AND DUP3 ADD DUP1 PUSH1 0x40 MSTORE POP DUP2 ADD SWAP1 PUSH2 0x6D6 SWAP2 SWAP1 PUSH2 0xFA3 JUMP JUMPDEST POP POP POP JUMP JUMPDEST PUSH0 DUP1 DUP5 PUSH20 0xFFFFFFFFFFFFFFFFFFFFFFFFFFFFFFFFFFFFFFFF AND PUSH4 0x70A08231 ADDRESS PUSH1 0x40 MLOAD DUP3 PUSH4 0xFFFFFFFF AND PUSH1 0xE0 SHL DUP2 MSTORE PUSH1 0x4 ADD PUSH2 0x716 SWAP2 SWAP1 PUSH2 0xE5D JUMP JUMPDEST PUSH1 0x20 PUSH1 0x40 MLOAD DUP1 DUP4 SUB DUP2 DUP7 GAS STATICCALL ISZERO DUP1 ISZERO PUSH2 0x731 JUMPI RETURNDATASIZE PUSH0 DUP1 RETURNDATACOPY RETURNDATASIZE PUSH0 REVERT JUMPDEST POP POP POP POP PUSH1 0x40 MLOAD RETURNDATASIZE PUSH1 0x1F NOT PUSH1 0x1F DUP3 ADD AND DUP3 ADD DUP1 PUSH1 0x40 MSTORE POP DUP2 ADD SWAP1 PUSH2 0x755 SWAP2 SWAP1 PUSH2 0x1009 JUMP JUMPDEST SWAP1 POP PUSH0 DUP5 PUSH20 0xFFFFFFFFFFFFFFFFFFFFFFFFFFFFFFFFFFFFFFFF AND PUSH4 0x70A08231 ADDRESS PUSH1 0x40 MLOAD DUP3 PUSH4 0xFFFFFFFF AND PUSH1 0xE0 SHL DUP2 MSTORE PUSH1 0x4 ADD PUSH2 0x791 SWAP2 SWAP1 PUSH2 0xE5D JUMP JUMPDEST PUSH1 0x20 PUSH1 0x40 MLOAD DUP1 DUP4 SUB DUP2 DUP7 GAS STATICCALL ISZERO DUP1 ISZERO PUSH2 0x7AC JUMPI RETURNDATASIZE PUSH0 DUP1 RETURNDATACOPY RETURNDATASIZE PUSH0 REVERT JUMPDEST POP POP POP POP PUSH1 0x40 MLOAD RETURNDATASIZE PUSH1 0x1F NOT PUSH1 0x1F DUP3 ADD AND DUP3 ADD DUP1 PUSH1 0x40 MSTORE POP DUP2 ADD SWAP1 PUSH2 0x7D0 SWAP2 SWAP1 PUSH2 0x1009 JUMP JUMPDEST SWAP1 POP DUP2 DUP2 DUP6 PUSH2 0x7DF SWAP2 SWAP1 PUSH2 0x118E JUMP JUMPDEST PUSH2 0x7E9 SWAP2 SWAP1 PUSH2 0x11FC JUMP JUMPDEST SWAP3 POP POP POP SWAP4 SWAP3 POP POP POP JUMP JUMPDEST DUP1 DUP4 PUSH20 0xFFFFFFFFFFFFFFFFFFFFFFFFFFFFFFFFFFFFFFFF AND PUSH4 0x70A08231 CALLER PUSH1 0x40 MLOAD DUP3 PUSH4 0xFFFFFFFF AND PUSH1 0xE0 SHL DUP2 MSTORE PUSH1 0x4 ADD PUSH2 0x82E SWAP2 SWAP1 PUSH2 0xE5D JUMP JUMPDEST PUSH1 0x20 PUSH1 0x40 MLOAD DUP1 DUP4 SUB DUP2 DUP7 GAS STATICCALL ISZERO DUP1 ISZERO PUSH2 0x849 JUMPI RETURNDATASIZE PUSH0 DUP1 RETURNDATACOPY RETURNDATASIZE PUSH0 REVERT JUMPDEST POP POP POP POP PUSH1 0x40 MLOAD RETURNDATASIZE PUSH1 0x1F NOT PUSH1 0x1F DUP3 ADD AND DUP3 ADD DUP1 PUSH1 0x40 MSTORE POP DUP2 ADD SWAP1 PUSH2 0x86D SWAP2 SWAP1 PUSH2 0x1009 JUMP JUMPDEST LT ISZERO PUSH2 0x8AE JUMPI PUSH1 0x40 MLOAD PUSH32 0x8C379A000000000000000000000000000000000000000000000000000000000 DUP2 MSTORE PUSH1 0x4 ADD PUSH2 0x8A5 SWAP1 PUSH2 0x1276 JUMP JUMPDEST PUSH1 0x40 MLOAD DUP1 SWAP2 SUB SWAP1 REVERT JUMPDEST PUSH0 PUSH2 0x8BA DUP5 DUP5 DUP5 PUSH2 0x6DB JUMP JUMPDEST SWAP1 POP DUP4 PUSH20 0xFFFFFFFFFFFFFFFFFFFFFFFFFFFFFFFFFFFFFFFF AND PUSH4 0x23B872DD CALLER ADDRESS DUP6 PUSH1 0x40 MLOAD DUP5 PUSH4 0xFFFFFFFF AND PUSH1 0xE0 SHL DUP2 MSTORE PUSH1 0x4 ADD PUSH2 0x8F9 SWAP4 SWAP3 SWAP2 SWAP1 PUSH2 0xF44 JUMP JUMPDEST PUSH1 0x20 PUSH1 0x40 MLOAD DUP1 DUP4 SUB DUP2 PUSH0 DUP8 GAS CALL ISZERO DUP1 ISZERO PUSH2 0x915 JUMPI RETURNDATASIZE PUSH0 DUP1 RETURNDATACOPY RETURNDATASIZE PUSH0 REVERT JUMPDEST POP POP POP POP PUSH1 0x40 MLOAD RETURNDATASIZE PUSH1 0x1F NOT PUSH1 0x1F DUP3 ADD AND DUP3 ADD DUP1 PUSH1 0x40 MSTORE POP DUP2 ADD SWAP1 PUSH2 0x939 SWAP2 SWAP1 PUSH2 0xFA3 JUMP JUMPDEST POP DUP3 PUSH20 0xFFFFFFFFFFFFFFFFFFFFFFFFFFFFFFFFFFFFFFFF AND PUSH4 0xA9059CBB CALLER DUP4 PUSH1 0x40 MLOAD DUP4 PUSH4 0xFFFFFFFF AND PUSH1 0xE0 SHL DUP2 MSTORE PUSH1 0x4 ADD PUSH2 0x975 SWAP3 SWAP2 SWAP1 PUSH2 0x113A JUMP JUMPDEST PUSH1 0x20 PUSH1 0x40 MLOAD DUP1 DUP4 SUB DUP2 PUSH0 DUP8 GAS CALL ISZERO DUP1 ISZERO PUSH2 0x991 JUMPI RETURNDATASIZE PUSH0 DUP1 RETURNDATACOPY RETURNDATASIZE PUSH0 REVERT JUMPDEST POP POP POP POP PUSH1 0x40 MLOAD RETURNDATASIZE PUSH1 0x1F NOT PUSH1 0x1F DUP3 ADD AND DUP3 ADD DUP1 PUSH1 0x40 MSTORE POP DUP2 ADD SWAP1 PUSH2 0x9B5 SWAP2 SWAP1 PUSH2 0xFA3 JUMP JUMPDEST POP POP POP POP POP JUMP JUMPDEST PUSH0 DUP1 PUSH0 SWAP1 SLOAD SWAP1 PUSH2 0x100 EXP SWAP1 DIV PUSH20 0xFFFFFFFFFFFFFFFFFFFFFFFFFFFFFFFFFFFFFFFF AND PUSH20 0xFFFFFFFFFFFFFFFFFFFFFFFFFFFFFFFFFFFFFFFF AND PUSH4 0xDD62ED3E CALLER ADDRESS PUSH1 0x40 MLOAD DUP4 PUSH4 0xFFFFFFFF AND PUSH1 0xE0 SHL DUP2 MSTORE PUSH1 0x4 ADD PUSH2 0xA18 SWAP3 SWAP2 SWAP1 PUSH2 0x1294 JUMP JUMPDEST PUSH1 0x20 PUSH1 0x40 MLOAD DUP1 DUP4 SUB DUP2 DUP7 GAS STATICCALL ISZERO DUP1 ISZERO PUSH2 0xA33 JUMPI RETURNDATASIZE PUSH0 DUP1 RETURNDATACOPY RETURNDATASIZE PUSH0 REVERT JUMPDEST POP POP POP POP PUSH1 0x40 MLOAD RETURNDATASIZE PUSH1 0x1F NOT PUSH1 0x1F DUP3 ADD AND DUP3 ADD DUP1 PUSH1 0x40 MSTORE POP DUP2 ADD SWAP1 PUSH2 0xA57 SWAP2 SWAP1 PUSH2 0x1009 JUMP JUMPDEST SWAP1 POP PUSH32 0xD774AAA44C6D93D56ABC84155C14291EE2BEE1FDF086D6DD65DDCFC5251B499F DUP2 PUSH1 0x40 MLOAD PUSH2 0xA88 SWAP2 SWAP1 PUSH2 0x1305 JUMP JUMPDEST PUSH1 0x40 MLOAD DUP1 SWAP2 SUB SWAP1 LOG1 DUP2 DUP2 LT ISZERO PUSH2 0xAD3 JUMPI PUSH1 0x40 MLOAD PUSH32 0x8C379A000000000000000000000000000000000000000000000000000000000 DUP2 MSTORE PUSH1 0x4 ADD PUSH2 0xACA SWAP1 PUSH2 0x13A1 JUMP JUMPDEST PUSH1 0x40 MLOAD DUP1 SWAP2 SUB SWAP1 REVERT JUMPDEST PUSH0 DUP1 PUSH0 SWAP1 SLOAD SWAP1 PUSH2 0x100 EXP SWAP1 DIV PUSH20 0xFFFFFFFFFFFFFFFFFFFFFFFFFFFFFFFFFFFFFFFF AND PUSH20 0xFFFFFFFFFFFFFFFFFFFFFFFFFFFFFFFFFFFFFFFF AND PUSH4 0x70A08231 CALLER PUSH1 0x40 MLOAD DUP3 PUSH4 0xFFFFFFFF AND PUSH1 0xE0 SHL DUP2 MSTORE PUSH1 0x4 ADD PUSH2 0xB2D SWAP2 SWAP1 PUSH2 0xE5D JUMP JUMPDEST PUSH1 0x20 PUSH1 0x40 MLOAD DUP1 DUP4 SUB DUP2 DUP7 GAS STATICCALL ISZERO DUP1 ISZERO PUSH2 0xB48 JUMPI RETURNDATASIZE PUSH0 DUP1 RETURNDATACOPY RETURNDATASIZE PUSH0 REVERT JUMPDEST POP POP POP POP PUSH1 0x40 MLOAD RETURNDATASIZE PUSH1 0x1F NOT PUSH1 0x1F DUP3 ADD AND DUP3 ADD DUP1 PUSH1 0x40 MSTORE POP DUP2 ADD SWAP1 PUSH2 0xB6C SWAP2 SWAP1 PUSH2 0x1009 JUMP JUMPDEST SWAP1 POP PUSH32 0xD774AAA44C6D93D56ABC84155C14291EE2BEE1FDF086D6DD65DDCFC5251B499F DUP2 PUSH1 0x40 MLOAD PUSH2 0xB9D SWAP2 SWAP1 PUSH2 0x1409 JUMP JUMPDEST PUSH1 0x40 MLOAD DUP1 SWAP2 SUB SWAP1 LOG1 DUP3 DUP2 LT ISZERO PUSH2 0xBE8 JUMPI PUSH1 0x40 MLOAD PUSH32 0x8C379A000000000000000000000000000000000000000000000000000000000 DUP2 MSTORE PUSH1 0x4 ADD PUSH2 0xBDF SWAP1 PUSH2 0x147F JUMP JUMPDEST PUSH1 0x40 MLOAD DUP1 SWAP2 SUB SWAP1 REVERT JUMPDEST PUSH0 DUP1 SLOAD SWAP1 PUSH2 0x100 EXP SWAP1 DIV PUSH20 0xFFFFFFFFFFFFFFFFFFFFFFFFFFFFFFFFFFFFFFFF AND PUSH20 0xFFFFFFFFFFFFFFFFFFFFFFFFFFFFFFFFFFFFFFFF AND PUSH4 0x23B872DD CALLER ADDRESS DUP7 PUSH1 0x40 MLOAD DUP5 PUSH4 0xFFFFFFFF AND PUSH1 0xE0 SHL DUP2 MSTORE PUSH1 0x4 ADD PUSH2 0xC44 SWAP4 SWAP3 SWAP2 SWAP1 PUSH2 0xF44 JUMP JUMPDEST PUSH1 0x20 PUSH1 0x40 MLOAD DUP1 DUP4 SUB DUP2 PUSH0 DUP8 GAS CALL ISZERO DUP1 ISZERO PUSH2 0xC60 JUMPI RETURNDATASIZE PUSH0 DUP1 RETURNDATACOPY RETURNDATASIZE PUSH0 REVERT JUMPDEST POP POP POP POP PUSH1 0x40 MLOAD RETURNDATASIZE PUSH1 0x1F NOT PUSH1 0x1F DUP3 ADD AND DUP3 ADD DUP1 PUSH1 0x40 MSTORE POP DUP2 ADD SWAP1 PUSH2 0xC84 SWAP2 SWAP1 PUSH2 0xFA3 JUMP JUMPDEST POP CALLER PUSH20 0xFFFFFFFFFFFFFFFFFFFFFFFFFFFFFFFFFFFFFFFF AND PUSH32 0xAE92AB4B6F8F401EAD768D3273E6BB937A13E39827D19C6376E8FD4512A05D9A DUP5 PUSH1 0x40 MLOAD PUSH2 0xCCB SWAP2 SWAP1 PUSH2 0xEB0 JUMP JUMPDEST PUSH1 0x40 MLOAD DUP1 SWAP2 SUB SWAP1 LOG2 POP POP POP JUMP JUMPDEST PUSH0 DUP1 REVERT JUMPDEST PUSH0 PUSH20 0xFFFFFFFFFFFFFFFFFFFFFFFFFFFFFFFFFFFFFFFF DUP3 AND SWAP1 POP SWAP2 SWAP1 POP JUMP JUMPDEST PUSH0 PUSH2 0xD05 DUP3 PUSH2 0xCDC JUMP JUMPDEST SWAP1 POP SWAP2 SWAP1 POP JUMP JUMPDEST PUSH2 0xD15 DUP2 PUSH2 0xCFB JUMP JUMPDEST DUP2 EQ PUSH2 0xD1F JUMPI PUSH0 DUP1 REVERT JUMPDEST POP JUMP JUMPDEST PUSH0 DUP2 CALLDATALOAD SWAP1 POP PUSH2 0xD30 DUP2 PUSH2 0xD0C JUMP JUMPDEST SWAP3 SWAP2 POP POP JUMP JUMPDEST PUSH0 DUP2 SWAP1 POP SWAP2 SWAP1 POP JUMP JUMPDEST PUSH2 0xD48 DUP2 PUSH2 0xD36 JUMP JUMPDEST DUP2 EQ PUSH2 0xD52 JUMPI PUSH0 DUP1 REVERT JUMPDEST POP JUMP JUMPDEST PUSH0 DUP2 CALLDATALOAD SWAP1 POP PUSH2 0xD63 DUP2 PUSH2 0xD3F JUMP JUMPDEST SWAP3 SWAP2 POP POP JUMP JUMPDEST PUSH0 DUP1 PUSH1 0x40 DUP4 DUP6 SUB SLT ISZERO PUSH2 0xD7F JUMPI PUSH2 0xD7E PUSH2 0xCD8 JUMP JUMPDEST JUMPDEST PUSH0 PUSH2 0xD8C DUP6 DUP3 DUP7 ADD PUSH2 0xD22 JUMP JUMPDEST SWAP3 POP POP PUSH1 0x20 PUSH2 0xD9D DUP6 DUP3 DUP7 ADD PUSH2 0xD55 JUMP JUMPDEST SWAP2 POP POP SWAP3 POP SWAP3 SWAP1 POP JUMP JUMPDEST PUSH0 DUP2 ISZERO ISZERO SWAP1 POP SWAP2 SWAP1 POP JUMP JUMPDEST PUSH2 0xDBB DUP2 PUSH2 0xDA7 JUMP JUMPDEST DUP3 MSTORE POP POP JUMP JUMPDEST PUSH0 PUSH1 0x20 DUP3 ADD SWAP1 POP PUSH2 0xDD4 PUSH0 DUP4 ADD DUP5 PUSH2 0xDB2 JUMP JUMPDEST SWAP3 SWAP2 POP POP JUMP JUMPDEST PUSH0 DUP2 SWAP1 POP SWAP2 SWAP1 POP JUMP JUMPDEST PUSH0 PUSH2 0xDFD PUSH2 0xDF8 PUSH2 0xDF3 DUP5 PUSH2 0xCDC JUMP JUMPDEST PUSH2 0xDDA JUMP JUMPDEST PUSH2 0xCDC JUMP JUMPDEST SWAP1 POP SWAP2 SWAP1 POP JUMP JUMPDEST PUSH0 PUSH2 0xE0E DUP3 PUSH2 0xDE3 JUMP JUMPDEST SWAP1 POP SWAP2 SWAP1 POP JUMP JUMPDEST PUSH0 PUSH2 0xE1F DUP3 PUSH2 0xE04 JUMP JUMPDEST SWAP1 POP SWAP2 SWAP1 POP JUMP JUMPDEST PUSH2 0xE2F DUP2 PUSH2 0xE15 JUMP JUMPDEST DUP3 MSTORE POP POP JUMP JUMPDEST PUSH0 PUSH1 0x20 DUP3 ADD SWAP1 POP PUSH2 0xE48 PUSH0 DUP4 ADD DUP5 PUSH2 0xE26 JUMP JUMPDEST SWAP3 SWAP2 POP POP JUMP JUMPDEST PUSH2 0xE57 DUP2 PUSH2 0xCFB JUMP JUMPDEST DUP3 MSTORE POP POP JUMP JUMPDEST PUSH0 PUSH1 0x20 DUP3 ADD SWAP1 POP PUSH2 0xE70 PUSH0 DUP4 ADD DUP5 PUSH2 0xE4E JUMP JUMPDEST SWAP3 SWAP2 POP POP JUMP JUMPDEST PUSH0 PUSH1 0x20 DUP3 DUP5 SUB SLT ISZERO PUSH2 0xE8B JUMPI PUSH2 0xE8A PUSH2 0xCD8 JUMP JUMPDEST JUMPDEST PUSH0 PUSH2 0xE98 DUP5 DUP3 DUP6 ADD PUSH2 0xD22 JUMP JUMPDEST SWAP2 POP POP SWAP3 SWAP2 POP POP JUMP JUMPDEST PUSH2 0xEAA DUP2 PUSH2 0xD36 JUMP JUMPDEST DUP3 MSTORE POP POP JUMP JUMPDEST PUSH0 PUSH1 0x20 DUP3 ADD SWAP1 POP PUSH2 0xEC3 PUSH0 DUP4 ADD DUP5 PUSH2 0xEA1 JUMP JUMPDEST SWAP3 SWAP2 POP POP JUMP JUMPDEST PUSH0 DUP1 PUSH0 PUSH1 0x60 DUP5 DUP7 SUB SLT ISZERO PUSH2 0xEE0 JUMPI PUSH2 0xEDF PUSH2 0xCD8 JUMP JUMPDEST JUMPDEST PUSH0 PUSH2 0xEED DUP7 DUP3 DUP8 ADD PUSH2 0xD22 JUMP JUMPDEST SWAP4 POP POP PUSH1 0x20 PUSH2 0xEFE DUP7 DUP3 DUP8 ADD PUSH2 0xD22 JUMP JUMPDEST SWAP3 POP POP PUSH1 0x40 PUSH2 0xF0F DUP7 DUP3 DUP8 ADD PUSH2 0xD55 JUMP JUMPDEST SWAP2 POP POP SWAP3 POP SWAP3 POP SWAP3 JUMP JUMPDEST PUSH0 PUSH1 0x20 DUP3 DUP5 SUB SLT ISZERO PUSH2 0xF2E JUMPI PUSH2 0xF2D PUSH2 0xCD8 JUMP JUMPDEST JUMPDEST PUSH0 PUSH2 0xF3B DUP5 DUP3 DUP6 ADD PUSH2 0xD55 JUMP JUMPDEST SWAP2 POP POP SWAP3 SWAP2 POP POP JUMP JUMPDEST PUSH0 PUSH1 0x60 DUP3 ADD SWAP1 POP PUSH2 0xF57 PUSH0 DUP4 ADD DUP7 PUSH2 0xE4E JUMP JUMPDEST PUSH2 0xF64 PUSH1 0x20 DUP4 ADD DUP6 PUSH2 0xE4E JUMP JUMPDEST PUSH2 0xF71 PUSH1 0x40 DUP4 ADD DUP5 PUSH2 0xEA1 JUMP JUMPDEST SWAP5 SWAP4 POP POP POP POP JUMP JUMPDEST PUSH2 0xF82 DUP2 PUSH2 0xDA7 JUMP JUMPDEST DUP2 EQ PUSH2 0xF8C JUMPI PUSH0 DUP1 REVERT JUMPDEST POP JUMP JUMPDEST PUSH0 DUP2 MLOAD SWAP1 POP PUSH2 0xF9D DUP2 PUSH2 0xF79 JUMP JUMPDEST SWAP3 SWAP2 POP POP JUMP JUMPDEST PUSH0 PUSH1 0x20 DUP3 DUP5 SUB SLT ISZERO PUSH2 0xFB8 JUMPI PUSH2 0xFB7 PUSH2 0xCD8 JUMP JUMPDEST JUMPDEST PUSH0 PUSH2 0xFC5 DUP5 DUP3 DUP6 ADD PUSH2 0xF8F JUMP JUMPDEST SWAP2 POP POP SWAP3 SWAP2 POP POP JUMP JUMPDEST PUSH0 PUSH1 0x40 DUP3 ADD SWAP1 POP PUSH2 0xFE1 PUSH0 DUP4 ADD DUP6 PUSH2 0xEA1 JUMP JUMPDEST PUSH2 0xFEE PUSH1 0x20 DUP4 ADD DUP5 PUSH2 0xE4E JUMP JUMPDEST SWAP4 SWAP3 POP POP POP JUMP JUMPDEST PUSH0 DUP2 MLOAD SWAP1 POP PUSH2 0x1003 DUP2 PUSH2 0xD3F JUMP JUMPDEST SWAP3 SWAP2 POP POP JUMP JUMPDEST PUSH0 PUSH1 0x20 DUP3 DUP5 SUB SLT ISZERO PUSH2 0x101E JUMPI PUSH2 0x101D PUSH2 0xCD8 JUMP JUMPDEST JUMPDEST PUSH0 PUSH2 0x102B DUP5 DUP3 DUP6 ADD PUSH2 0xFF5 JUMP JUMPDEST SWAP2 POP POP SWAP3 SWAP2 POP POP JUMP JUMPDEST PUSH0 DUP3 DUP3 MSTORE PUSH1 0x20 DUP3 ADD SWAP1 POP SWAP3 SWAP2 POP POP JUMP JUMPDEST PUSH32 0x54686520707572636861736520616D6F756E7420657863656564732074686520 PUSH0 DUP3 ADD MSTORE PUSH32 0x616D6F756E7420617661696C61626C6520696E20726573657276652E00000000 PUSH1 0x20 DUP3 ADD MSTORE POP JUMP JUMPDEST PUSH0 PUSH2 0x109E PUSH1 0x3C DUP4 PUSH2 0x1034 JUMP JUMPDEST SWAP2 POP PUSH2 0x10A9 DUP3 PUSH2 0x1044 JUMP JUMPDEST PUSH1 0x40 DUP3 ADD SWAP1 POP SWAP2 SWAP1 POP JUMP JUMPDEST PUSH0 PUSH1 0x20 DUP3 ADD SWAP1 POP DUP2 DUP2 SUB PUSH0 DUP4 ADD MSTORE PUSH2 0x10CB DUP2 PUSH2 0x1092 JUMP JUMPDEST SWAP1 POP SWAP2 SWAP1 POP JUMP JUMPDEST PUSH32 0x506C65617365207370656E6420736F6D65204D4154494320746F206275790000 PUSH0 DUP3 ADD MSTORE POP JUMP JUMPDEST PUSH0 PUSH2 0x1106 PUSH1 0x1E DUP4 PUSH2 0x1034 JUMP JUMPDEST SWAP2 POP PUSH2 0x1111 DUP3 PUSH2 0x10D2 JUMP JUMPDEST PUSH1 0x20 DUP3 ADD SWAP1 POP SWAP2 SWAP1 POP JUMP JUMPDEST PUSH0 PUSH1 0x20 DUP3 ADD SWAP1 POP DUP2 DUP2 SUB PUSH0 DUP4 ADD MSTORE PUSH2 0x1133 DUP2 PUSH2 0x10FA JUMP JUMPDEST SWAP1 POP SWAP2 SWAP1 POP JUMP JUMPDEST PUSH0 PUSH1 0x40 DUP3 ADD SWAP1 POP PUSH2 0x114D PUSH0 DUP4 ADD DUP6 PUSH2 0xE4E JUMP JUMPDEST PUSH2 0x115A PUSH1 0x20 DUP4 ADD DUP5 PUSH2 0xEA1 JUMP JUMPDEST SWAP4 SWAP3 POP POP POP JUMP JUMPDEST PUSH32 0x4E487B7100000000000000000000000000000000000000000000000000000000 PUSH0 MSTORE PUSH1 0x11 PUSH1 0x4 MSTORE PUSH1 0x24 PUSH0 REVERT JUMPDEST PUSH0 PUSH2 0x1198 DUP3 PUSH2 0xD36 JUMP JUMPDEST SWAP2 POP PUSH2 0x11A3 DUP4 PUSH2 0xD36 JUMP JUMPDEST SWAP3 POP DUP3 DUP3 MUL PUSH2 0x11B1 DUP2 PUSH2 0xD36 JUMP JUMPDEST SWAP2 POP DUP3 DUP3 DIV DUP5 EQ DUP4 ISZERO OR PUSH2 0x11C8 JUMPI PUSH2 0x11C7 PUSH2 0x1161 JUMP JUMPDEST JUMPDEST POP SWAP3 SWAP2 POP POP JUMP JUMPDEST PUSH32 0x4E487B7100000000000000000000000000000000000000000000000000000000 PUSH0 MSTORE PUSH1 0x12 PUSH1 0x4 MSTORE PUSH1 0x24 PUSH0 REVERT JUMPDEST PUSH0 PUSH2 0x1206 DUP3 PUSH2 0xD36 JUMP JUMPDEST SWAP2 POP PUSH2 0x1211 DUP4 PUSH2 0xD36 JUMP JUMPDEST SWAP3 POP DUP3 PUSH2 0x1221 JUMPI PUSH2 0x1220 PUSH2 0x11CF JUMP JUMPDEST JUMPDEST DUP3 DUP3 DIV SWAP1 POP SWAP3 SWAP2 POP POP JUMP JUMPDEST PUSH32 0x4E6F7420656E6F75676820746F6B656E7320746F207377617000000000000000 PUSH0 DUP3 ADD MSTORE POP JUMP JUMPDEST PUSH0 PUSH2 0x1260 PUSH1 0x19 DUP4 PUSH2 0x1034 JUMP JUMPDEST SWAP2 POP PUSH2 0x126B DUP3 PUSH2 0x122C JUMP JUMPDEST PUSH1 0x20 DUP3 ADD SWAP1 POP SWAP2 SWAP1 POP JUMP JUMPDEST PUSH0 PUSH1 0x20 DUP3 ADD SWAP1 POP DUP2 DUP2 SUB PUSH0 DUP4 ADD MSTORE PUSH2 0x128D DUP2 PUSH2 0x1254 JUMP JUMPDEST SWAP1 POP SWAP2 SWAP1 POP JUMP JUMPDEST PUSH0 PUSH1 0x40 DUP3 ADD SWAP1 POP PUSH2 0x12A7 PUSH0 DUP4 ADD DUP6 PUSH2 0xE4E JUMP JUMPDEST PUSH2 0x12B4 PUSH1 0x20 DUP4 ADD DUP5 PUSH2 0xE4E JUMP JUMPDEST SWAP4 SWAP3 POP POP POP JUMP JUMPDEST PUSH32 0x416C6C6F77616E636520636865636B206265666F72652073656C6C0000000000 PUSH0 DUP3 ADD MSTORE POP JUMP JUMPDEST PUSH0 PUSH2 0x12EF PUSH1 0x1B DUP4 PUSH2 0x1034 JUMP JUMPDEST SWAP2 POP PUSH2 0x12FA DUP3 PUSH2 0x12BB JUMP JUMPDEST PUSH1 0x20 DUP3 ADD SWAP1 POP SWAP2 SWAP1 POP JUMP JUMPDEST PUSH0 PUSH1 0x40 DUP3 ADD SWAP1 POP DUP2 DUP2 SUB PUSH0 DUP4 ADD MSTORE PUSH2 0x131C DUP2 PUSH2 0x12E3 JUMP JUMPDEST SWAP1 POP PUSH2 0x132B PUSH1 0x20 DUP4 ADD DUP5 PUSH2 0xEA1 JUMP JUMPDEST SWAP3 SWAP2 POP POP JUMP JUMPDEST PUSH32 0x416C6C6F77616E6365206973206C657373207468616E2074686520616D6F756E PUSH0 DUP3 ADD MSTORE PUSH32 0x7420746F2073656C6C0000000000000000000000000000000000000000000000 PUSH1 0x20 DUP3 ADD MSTORE POP JUMP JUMPDEST PUSH0 PUSH2 0x138B PUSH1 0x29 DUP4 PUSH2 0x1034 JUMP JUMPDEST SWAP2 POP PUSH2 0x1396 DUP3 PUSH2 0x1331 JUMP JUMPDEST PUSH1 0x40 DUP3 ADD SWAP1 POP SWAP2 SWAP1 POP JUMP JUMPDEST PUSH0 PUSH1 0x20 DUP3 ADD SWAP1 POP DUP2 DUP2 SUB PUSH0 DUP4 ADD MSTORE PUSH2 0x13B8 DUP2 PUSH2 0x137F JUMP JUMPDEST SWAP1 POP SWAP2 SWAP1 POP JUMP JUMPDEST PUSH32 0x42616C616E636520636865636B206265666F72652073656C6C00000000000000 PUSH0 DUP3 ADD MSTORE POP JUMP JUMPDEST PUSH0 PUSH2 0x13F3 PUSH1 0x19 DUP4 PUSH2 0x1034 JUMP JUMPDEST SWAP2 POP PUSH2 0x13FE DUP3 PUSH2 0x13BF JUMP JUMPDEST PUSH1 0x20 DUP3 ADD SWAP1 POP SWAP2 SWAP1 POP JUMP JUMPDEST PUSH0 PUSH1 0x40 DUP3 ADD SWAP1 POP DUP2 DUP2 SUB PUSH0 DUP4 ADD MSTORE PUSH2 0x1420 DUP2 PUSH2 0x13E7 JUMP JUMPDEST SWAP1 POP PUSH2 0x142F PUSH1 0x20 DUP4 ADD DUP5 PUSH2 0xEA1 JUMP JUMPDEST SWAP3 SWAP2 POP POP JUMP JUMPDEST PUSH32 0x496E73756666696369656E742062616C616E6365000000000000000000000000 PUSH0 DUP3 ADD MSTORE POP JUMP JUMPDEST PUSH0 PUSH2 0x1469 PUSH1 0x14 DUP4 PUSH2 0x1034 JUMP JUMPDEST SWAP2 POP PUSH2 0x1474 DUP3 PUSH2 0x1435 JUMP JUMPDEST PUSH1 0x20 DUP3 ADD SWAP1 POP SWAP2 SWAP1 POP JUMP JUMPDEST PUSH0 PUSH1 0x20 DUP3 ADD SWAP1 POP DUP2 DUP2 SUB PUSH0 DUP4 ADD MSTORE PUSH2 0x1496 DUP2 PUSH2 0x145D JUMP JUMPDEST SWAP1 POP SWAP2 SWAP1 POP JUMP INVALID LOG2 PUSH5 0x6970667358 0x22 SLT KECCAK256 DUP16 PUSH24 0x8F6EDD6E518B494092576EE54D18DADCEA520A6497B7F22F PUSH10 0x1B022EA47664736F6C63 NUMBER STOP ADDMOD EQ STOP CALLER PUSH1 0x80 PUSH1 0x40 MSTORE PUSH1 0x40 MLOAD DUP1 PUSH1 0x40 ADD PUSH1 0x40 MSTORE DUP1 PUSH1 0x8 DUP2 MSTORE PUSH1 0x20 ADD PUSH32 0x44582D746F6B656E000000000000000000000000000000000000000000000000 DUP2 MSTORE POP PUSH1 0x2 SWAP1 DUP2 PUSH3 0x4A SWAP2 SWAP1 PUSH3 0x375 JUMP JUMPDEST POP PUSH1 0x40 MLOAD DUP1 PUSH1 0x40 ADD PUSH1 0x40 MSTORE DUP1 PUSH1 0x4 DUP2 MSTORE PUSH1 0x20 ADD PUSH32 0x4458544B00000000000000000000000000000000000000000000000000000000 DUP2 MSTORE POP PUSH1 0x3 SWAP1 DUP2 PUSH3 0x91 SWAP2 SWAP1 PUSH3 0x375 JUMP JUMPDEST POP PUSH10 0x152D02C7E14AF6800000 PUSH1 0x4 SSTORE PUSH1 0x12 PUSH1 0x5 PUSH0 PUSH2 0x100 EXP DUP2 SLOAD DUP2 PUSH1 0xFF MUL NOT AND SWAP1 DUP4 PUSH1 0xFF AND MUL OR SWAP1 SSTORE POP CALLVALUE DUP1 ISZERO PUSH3 0xC7 JUMPI PUSH0 DUP1 REVERT JUMPDEST POP PUSH1 0x4 SLOAD PUSH0 DUP1 CALLER PUSH20 0xFFFFFFFFFFFFFFFFFFFFFFFFFFFFFFFFFFFFFFFF AND PUSH20 0xFFFFFFFFFFFFFFFFFFFFFFFFFFFFFFFFFFFFFFFF AND DUP2 MSTORE PUSH1 0x20 ADD SWAP1 DUP2 MSTORE PUSH1 0x20 ADD PUSH0 KECCAK256 DUP2 SWAP1 SSTORE POP PUSH3 0x459 JUMP JUMPDEST PUSH0 DUP2 MLOAD SWAP1 POP SWAP2 SWAP1 POP JUMP JUMPDEST PUSH32 0x4E487B7100000000000000000000000000000000000000000000000000000000 PUSH0 MSTORE PUSH1 0x41 PUSH1 0x4 MSTORE PUSH1 0x24 PUSH0 REVERT JUMPDEST PUSH32 0x4E487B7100000000000000000000000000000000000000000000000000000000 PUSH0 MSTORE PUSH1 0x22 PUSH1 0x4 MSTORE PUSH1 0x24 PUSH0 REVERT JUMPDEST PUSH0 PUSH1 0x2 DUP3 DIV SWAP1 POP PUSH1 0x1 DUP3 AND DUP1 PUSH3 0x18D JUMPI PUSH1 0x7F DUP3 AND SWAP2 POP JUMPDEST PUSH1 0x20 DUP3 LT DUP2 SUB PUSH3 0x1A3 JUMPI PUSH3 0x1A2 PUSH3 0x148 JUMP JUMPDEST JUMPDEST POP SWAP2 SWAP1 POP JUMP JUMPDEST PUSH0 DUP2 SWAP1 POP DUP2 PUSH0 MSTORE PUSH1 0x20 PUSH0 KECCAK256 SWAP1 POP SWAP2 SWAP1 POP JUMP JUMPDEST PUSH0 PUSH1 0x20 PUSH1 0x1F DUP4 ADD DIV SWAP1 POP SWAP2 SWAP1 POP JUMP JUMPDEST PUSH0 DUP3 DUP3 SHL SWAP1 POP SWAP3 SWAP2 POP POP JUMP JUMPDEST PUSH0 PUSH1 0x8 DUP4 MUL PUSH3 0x207 PUSH32 0xFFFFFFFFFFFFFFFFFFFFFFFFFFFFFFFFFFFFFFFFFFFFFFFFFFFFFFFFFFFFFFFF DUP3 PUSH3 0x1CA JUMP JUMPDEST PUSH3 0x213 DUP7 DUP4 PUSH3 0x1CA JUMP JUMPDEST SWAP6 POP DUP1 NOT DUP5 AND SWAP4 POP DUP1 DUP7 AND DUP5 OR SWAP3 POP POP POP SWAP4 SWAP3 POP POP POP JUMP JUMPDEST PUSH0 DUP2 SWAP1 POP SWAP2 SWAP1 POP JUMP JUMPDEST PUSH0 DUP2 SWAP1 POP SWAP2 SWAP1 POP JUMP JUMPDEST PUSH0 PUSH3 0x25D PUSH3 0x257 PUSH3 0x251 DUP5 PUSH3 0x22B JUMP JUMPDEST PUSH3 0x234 JUMP JUMPDEST PUSH3 0x22B JUMP JUMPDEST SWAP1 POP SWAP2 SWAP1 POP JUMP JUMPDEST PUSH0 DUP2 SWAP1 POP SWAP2 SWAP1 POP JUMP JUMPDEST PUSH3 0x278 DUP4 PUSH3 0x23D JUMP JUMPDEST PUSH3 0x290 PUSH3 0x287 DUP3 PUSH3 0x264 JUMP JUMPDEST DUP5 DUP5 SLOAD PUSH3 0x1D6 JUMP JUMPDEST DUP3 SSTORE POP POP POP POP JUMP JUMPDEST PUSH0 SWAP1 JUMP JUMPDEST PUSH3 0x2A6 PUSH3 0x298 JUMP JUMPDEST PUSH3 0x2B3 DUP2 DUP5 DUP5 PUSH3 0x26D JUMP JUMPDEST POP POP POP JUMP JUMPDEST JUMPDEST DUP2 DUP2 LT ISZERO PUSH3 0x2DA JUMPI PUSH3 0x2CE PUSH0 DUP3 PUSH3 0x29C JUMP JUMPDEST PUSH1 0x1 DUP2 ADD SWAP1 POP PUSH3 0x2B9 JUMP JUMPDEST POP POP JUMP JUMPDEST PUSH1 0x1F DUP3 GT ISZERO PUSH3 0x329 JUMPI PUSH3 0x2F3 DUP2 PUSH3 0x1A9 JUMP JUMPDEST PUSH3 0x2FE DUP5 PUSH3 0x1BB JUMP JUMPDEST DUP2 ADD PUSH1 0x20 DUP6 LT ISZERO PUSH3 0x30E JUMPI DUP2 SWAP1 POP JUMPDEST PUSH3 0x326 PUSH3 0x31D DUP6 PUSH3 0x1BB JUMP JUMPDEST DUP4 ADD DUP3 PUSH3 0x2B8 JUMP JUMPDEST POP POP JUMPDEST POP POP POP JUMP JUMPDEST PUSH0 DUP3 DUP3 SHR SWAP1 POP SWAP3 SWAP2 POP POP JUMP JUMPDEST PUSH0 PUSH3 0x34B PUSH0 NOT DUP5 PUSH1 0x8 MUL PUSH3 0x32E JUMP JUMPDEST NOT DUP1 DUP4 AND SWAP2 POP POP SWAP3 SWAP2 POP POP JUMP JUMPDEST PUSH0 PUSH3 0x365 DUP4 DUP4 PUSH3 0x33A JUMP JUMPDEST SWAP2 POP DUP3 PUSH1 0x2 MUL DUP3 OR SWAP1 POP SWAP3 SWAP2 POP POP JUMP JUMPDEST PUSH3 0x380 DUP3 PUSH3 0x111 JUMP JUMPDEST PUSH8 0xFFFFFFFFFFFFFFFF DUP2 GT ISZERO PUSH3 0x39C JUMPI PUSH3 0x39B PUSH3 0x11B JUMP JUMPDEST JUMPDEST PUSH3 0x3A8 DUP3 SLOAD PUSH3 0x175 JUMP JUMPDEST PUSH3 0x3B5 DUP3 DUP3 DUP6 PUSH3 0x2DE JUMP JUMPDEST PUSH0 PUSH1 0x20 SWAP1 POP PUSH1 0x1F DUP4 GT PUSH1 0x1 DUP2 EQ PUSH3 0x3EB JUMPI PUSH0 DUP5 ISZERO PUSH3 0x3D6 JUMPI DUP3 DUP8 ADD MLOAD SWAP1 POP JUMPDEST PUSH3 0x3E2 DUP6 DUP3 PUSH3 0x358 JUMP JUMPDEST DUP7 SSTORE POP PUSH3 0x451 JUMP JUMPDEST PUSH1 0x1F NOT DUP5 AND PUSH3 0x3FB DUP7 PUSH3 0x1A9 JUMP JUMPDEST PUSH0 JUMPDEST DUP3 DUP2 LT ISZERO PUSH3 0x424 JUMPI DUP5 DUP10 ADD MLOAD DUP3 SSTORE PUSH1 0x1 DUP3 ADD SWAP2 POP PUSH1 0x20 DUP6 ADD SWAP5 POP PUSH1 0x20 DUP2 ADD SWAP1 POP PUSH3 0x3FD JUMP JUMPDEST DUP7 DUP4 LT ISZERO PUSH3 0x444 JUMPI DUP5 DUP10 ADD MLOAD PUSH3 0x440 PUSH1 0x1F DUP10 AND DUP3 PUSH3 0x33A JUMP JUMPDEST DUP4 SSTORE POP JUMPDEST PUSH1 0x1 PUSH1 0x2 DUP9 MUL ADD DUP9 SSTORE POP POP POP JUMPDEST POP POP POP POP POP POP JUMP JUMPDEST PUSH2 0x116D DUP1 PUSH3 0x467 PUSH0 CODECOPY PUSH0 RETURN INVALID PUSH1 0x80 PUSH1 0x40 MSTORE CALLVALUE DUP1 ISZERO PUSH2 0xF JUMPI PUSH0 DUP1 REVERT JUMPDEST POP PUSH1 0x4 CALLDATASIZE LT PUSH2 0xF3 JUMPI PUSH0 CALLDATALOAD PUSH1 0xE0 SHR DUP1 PUSH4 0x70A08231 GT PUSH2 0x95 JUMPI DUP1 PUSH4 0xC4E41B22 GT PUSH2 0x64 JUMPI DUP1 PUSH4 0xC4E41B22 EQ PUSH2 0x285 JUMPI DUP1 PUSH4 0xDD62ED3E EQ PUSH2 0x2A3 JUMPI DUP1 PUSH4 0xE1F21C67 EQ PUSH2 0x2D3 JUMPI DUP1 PUSH4 0xF6AE79AC EQ PUSH2 0x303 JUMPI PUSH2 0xF3 JUMP JUMPDEST DUP1 PUSH4 0x70A08231 EQ PUSH2 0x1EB JUMPI DUP1 PUSH4 0x95D89B41 EQ PUSH2 0x21B JUMPI DUP1 PUSH4 0x9DC29FAC EQ PUSH2 0x239 JUMPI DUP1 PUSH4 0xA9059CBB EQ PUSH2 0x255 JUMPI PUSH2 0xF3 JUMP JUMPDEST DUP1 PUSH4 0x2BE7C04A GT PUSH2 0xD1 JUMPI DUP1 PUSH4 0x2BE7C04A EQ PUSH2 0x163 JUMPI DUP1 PUSH4 0x313CE567 EQ PUSH2 0x193 JUMPI DUP1 PUSH4 0x38CC4831 EQ PUSH2 0x1B1 JUMPI DUP1 PUSH4 0x40C10F19 EQ PUSH2 0x1CF JUMPI PUSH2 0xF3 JUMP JUMPDEST DUP1 PUSH4 0x6FDDE03 EQ PUSH2 0xF7 JUMPI DUP1 PUSH4 0x18160DDD EQ PUSH2 0x115 JUMPI DUP1 PUSH4 0x23B872DD EQ PUSH2 0x133 JUMPI JUMPDEST PUSH0 DUP1 REVERT JUMPDEST PUSH2 0xFF PUSH2 0x333 JUMP JUMPDEST PUSH1 0x40 MLOAD PUSH2 0x10C SWAP2 SWAP1 PUSH2 0xD18 JUMP JUMPDEST PUSH1 0x40 MLOAD DUP1 SWAP2 SUB SWAP1 RETURN JUMPDEST PUSH2 0x11D PUSH2 0x3BF JUMP JUMPDEST PUSH1 0x40 MLOAD PUSH2 0x12A SWAP2 SWAP1 PUSH2 0xD50 JUMP JUMPDEST PUSH1 0x40 MLOAD DUP1 SWAP2 SUB SWAP1 RETURN JUMPDEST PUSH2 0x14D PUSH1 0x4 DUP1 CALLDATASIZE SUB DUP2 ADD SWAP1 PUSH2 0x148 SWAP2 SWAP1 PUSH2 0xDF1 JUMP JUMPDEST PUSH2 0x3C5 JUMP JUMPDEST PUSH1 0x40 MLOAD PUSH2 0x15A SWAP2 SWAP1 PUSH2 0xE5B JUMP JUMPDEST PUSH1 0x40 MLOAD DUP1 SWAP2 SUB SWAP1 RETURN JUMPDEST PUSH2 0x17D PUSH1 0x4 DUP1 CALLDATASIZE SUB DUP2 ADD SWAP1 PUSH2 0x178 SWAP2 SWAP1 PUSH2 0xE74 JUMP JUMPDEST PUSH2 0x6A2 JUMP JUMPDEST PUSH1 0x40 MLOAD PUSH2 0x18A SWAP2 SWAP1 PUSH2 0xD50 JUMP JUMPDEST PUSH1 0x40 MLOAD DUP1 SWAP2 SUB SWAP1 RETURN JUMPDEST PUSH2 0x19B PUSH2 0x6C2 JUMP JUMPDEST PUSH1 0x40 MLOAD PUSH2 0x1A8 SWAP2 SWAP1 PUSH2 0xECD JUMP JUMPDEST PUSH1 0x40 MLOAD DUP1 SWAP2 SUB SWAP1 RETURN JUMPDEST PUSH2 0x1B9 PUSH2 0x6D4 JUMP JUMPDEST PUSH1 0x40 MLOAD PUSH2 0x1C6 SWAP2 SWAP1 PUSH2 0xEF5 JUMP JUMPDEST PUSH1 0x40 MLOAD DUP1 SWAP2 SUB SWAP1 RETURN JUMPDEST PUSH2 0x1E9 PUSH1 0x4 DUP1 CALLDATASIZE SUB DUP2 ADD SWAP1 PUSH2 0x1E4 SWAP2 SWAP1 PUSH2 0xF0E JUMP JUMPDEST PUSH2 0x6DB JUMP JUMPDEST STOP JUMPDEST PUSH2 0x205 PUSH1 0x4 DUP1 CALLDATASIZE SUB DUP2 ADD SWAP1 PUSH2 0x200 SWAP2 SWAP1 PUSH2 0xF4C JUMP JUMPDEST PUSH2 0x6E9 JUMP JUMPDEST PUSH1 0x40 MLOAD PUSH2 0x212 SWAP2 SWAP1 PUSH2 0xD50 JUMP JUMPDEST PUSH1 0x40 MLOAD DUP1 SWAP2 SUB SWAP1 RETURN JUMPDEST PUSH2 0x223 PUSH2 0x72E JUMP JUMPDEST PUSH1 0x40 MLOAD PUSH2 0x230 SWAP2 SWAP1 PUSH2 0xD18 JUMP JUMPDEST PUSH1 0x40 MLOAD DUP1 SWAP2 SUB SWAP1 RETURN JUMPDEST PUSH2 0x253 PUSH1 0x4 DUP1 CALLDATASIZE SUB DUP2 ADD SWAP1 PUSH2 0x24E SWAP2 SWAP1 PUSH2 0xF0E JUMP JUMPDEST PUSH2 0x7BA JUMP JUMPDEST STOP JUMPDEST PUSH2 0x26F PUSH1 0x4 DUP1 CALLDATASIZE SUB DUP2 ADD SWAP1 PUSH2 0x26A SWAP2 SWAP1 PUSH2 0xF0E JUMP JUMPDEST PUSH2 0x7C8 JUMP JUMPDEST PUSH1 0x40 MLOAD PUSH2 0x27C SWAP2 SWAP1 PUSH2 0xE5B JUMP JUMPDEST PUSH1 0x40 MLOAD DUP1 SWAP2 SUB SWAP1 RETURN JUMPDEST PUSH2 0x28D PUSH2 0x95B JUMP JUMPDEST PUSH1 0x40 MLOAD PUSH2 0x29A SWAP2 SWAP1 PUSH2 0xD50 JUMP JUMPDEST PUSH1 0x40 MLOAD DUP1 SWAP2 SUB SWAP1 RETURN JUMPDEST PUSH2 0x2BD PUSH1 0x4 DUP1 CALLDATASIZE SUB DUP2 ADD SWAP1 PUSH2 0x2B8 SWAP2 SWAP1 PUSH2 0xE74 JUMP JUMPDEST PUSH2 0x964 JUMP JUMPDEST PUSH1 0x40 MLOAD PUSH2 0x2CA SWAP2 SWAP1 PUSH2 0xD50 JUMP JUMPDEST PUSH1 0x40 MLOAD DUP1 SWAP2 SUB SWAP1 RETURN JUMPDEST PUSH2 0x2ED PUSH1 0x4 DUP1 CALLDATASIZE SUB DUP2 ADD SWAP1 PUSH2 0x2E8 SWAP2 SWAP1 PUSH2 0xDF1 JUMP JUMPDEST PUSH2 0x9E6 JUMP JUMPDEST PUSH1 0x40 MLOAD PUSH2 0x2FA SWAP2 SWAP1 PUSH2 0xE5B JUMP JUMPDEST PUSH1 0x40 MLOAD DUP1 SWAP2 SUB SWAP1 RETURN JUMPDEST PUSH2 0x31D PUSH1 0x4 DUP1 CALLDATASIZE SUB DUP2 ADD SWAP1 PUSH2 0x318 SWAP2 SWAP1 PUSH2 0xF4C JUMP JUMPDEST PUSH2 0xAD4 JUMP JUMPDEST PUSH1 0x40 MLOAD PUSH2 0x32A SWAP2 SWAP1 PUSH2 0xD50 JUMP JUMPDEST PUSH1 0x40 MLOAD DUP1 SWAP2 SUB SWAP1 RETURN JUMPDEST PUSH1 0x2 DUP1 SLOAD PUSH2 0x340 SWAP1 PUSH2 0xFA4 JUMP JUMPDEST DUP1 PUSH1 0x1F ADD PUSH1 0x20 DUP1 SWAP2 DIV MUL PUSH1 0x20 ADD PUSH1 0x40 MLOAD SWAP1 DUP2 ADD PUSH1 0x40 MSTORE DUP1 SWAP3 SWAP2 SWAP1 DUP2 DUP2 MSTORE PUSH1 0x20 ADD DUP3 DUP1 SLOAD PUSH2 0x36C SWAP1 PUSH2 0xFA4 JUMP JUMPDEST DUP1 ISZERO PUSH2 0x3B7 JUMPI DUP1 PUSH1 0x1F LT PUSH2 0x38E JUMPI PUSH2 0x100 DUP1 DUP4 SLOAD DIV MUL DUP4 MSTORE SWAP2 PUSH1 0x20 ADD SWAP2 PUSH2 0x3B7 JUMP JUMPDEST DUP3 ADD SWAP2 SWAP1 PUSH0 MSTORE PUSH1 0x20 PUSH0 KECCAK256 SWAP1 JUMPDEST DUP2 SLOAD DUP2 MSTORE SWAP1 PUSH1 0x1 ADD SWAP1 PUSH1 0x20 ADD DUP1 DUP4 GT PUSH2 0x39A JUMPI DUP3 SWAP1 SUB PUSH1 0x1F AND DUP3 ADD SWAP2 JUMPDEST POP POP POP POP POP DUP2 JUMP JUMPDEST PUSH1 0x4 SLOAD DUP2 JUMP JUMPDEST PUSH0 DUP1 PUSH0 DUP6 PUSH20 0xFFFFFFFFFFFFFFFFFFFFFFFFFFFFFFFFFFFFFFFF AND PUSH20 0xFFFFFFFFFFFFFFFFFFFFFFFFFFFFFFFFFFFFFFFF AND DUP2 MSTORE PUSH1 0x20 ADD SWAP1 DUP2 MSTORE PUSH1 0x20 ADD PUSH0 KECCAK256 SLOAD DUP3 GT ISZERO PUSH2 0x445 JUMPI PUSH1 0x40 MLOAD PUSH32 0x8C379A000000000000000000000000000000000000000000000000000000000 DUP2 MSTORE PUSH1 0x4 ADD PUSH2 0x43C SWAP1 PUSH2 0x101E JUMP JUMPDEST PUSH1 0x40 MLOAD DUP1 SWAP2 SUB SWAP1 REVERT JUMPDEST PUSH1 0x1 PUSH0 DUP6 PUSH20 0xFFFFFFFFFFFFFFFFFFFFFFFFFFFFFFFFFFFFFFFF AND PUSH20 0xFFFFFFFFFFFFFFFFFFFFFFFFFFFFFFFFFFFFFFFF AND DUP2 MSTORE PUSH1 0x20 ADD SWAP1 DUP2 MSTORE PUSH1 0x20 ADD PUSH0 KECCAK256 PUSH0 CALLER PUSH20 0xFFFFFFFFFFFFFFFFFFFFFFFFFFFFFFFFFFFFFFFF AND PUSH20 0xFFFFFFFFFFFFFFFFFFFFFFFFFFFFFFFFFFFFFFFF AND DUP2 MSTORE PUSH1 0x20 ADD SWAP1 DUP2 MSTORE PUSH1 0x20 ADD PUSH0 KECCAK256 SLOAD DUP3 GT ISZERO PUSH2 0x500 JUMPI PUSH1 0x40 MLOAD PUSH32 0x8C379A000000000000000000000000000000000000000000000000000000000 DUP2 MSTORE PUSH1 0x4 ADD PUSH2 0x4F7 SWAP1 PUSH2 0x1086 JUMP JUMPDEST PUSH1 0x40 MLOAD DUP1 SWAP2 SUB SWAP1 REVERT JUMPDEST DUP2 PUSH1 0x1 PUSH0 DUP7 PUSH20 0xFFFFFFFFFFFFFFFFFFFFFFFFFFFFFFFFFFFFFFFF AND PUSH20 0xFFFFFFFFFFFFFFFFFFFFFFFFFFFFFFFFFFFFFFFF AND DUP2 MSTORE PUSH1 0x20 ADD SWAP1 DUP2 MSTORE PUSH1 0x20 ADD PUSH0 KECCAK256 PUSH0 CALLER PUSH20 0xFFFFFFFFFFFFFFFFFFFFFFFFFFFFFFFFFFFFFFFF AND PUSH20 0xFFFFFFFFFFFFFFFFFFFFFFFFFFFFFFFFFFFFFFFF AND DUP2 MSTORE PUSH1 0x20 ADD SWAP1 DUP2 MSTORE PUSH1 0x20 ADD PUSH0 KECCAK256 PUSH0 DUP3 DUP3 SLOAD PUSH2 0x587 SWAP2 SWAP1 PUSH2 0x10D1 JUMP JUMPDEST SWAP3 POP POP DUP2 SWAP1 SSTORE POP DUP2 PUSH0 DUP1 DUP7 PUSH20 0xFFFFFFFFFFFFFFFFFFFFFFFFFFFFFFFFFFFFFFFF AND PUSH20 0xFFFFFFFFFFFFFFFFFFFFFFFFFFFFFFFFFFFFFFFF AND DUP2 MSTORE PUSH1 0x20 ADD SWAP1 DUP2 MSTORE PUSH1 0x20 ADD PUSH0 KECCAK256 PUSH0 DUP3 DUP3 SLOAD PUSH2 0x5D9 SWAP2 SWAP1 PUSH2 0x10D1 JUMP JUMPDEST SWAP3 POP POP DUP2 SWAP1 SSTORE POP DUP2 PUSH0 DUP1 DUP6 PUSH20 0xFFFFFFFFFFFFFFFFFFFFFFFFFFFFFFFFFFFFFFFF AND PUSH20 0xFFFFFFFFFFFFFFFFFFFFFFFFFFFFFFFFFFFFFFFF AND DUP2 MSTORE PUSH1 0x20 ADD SWAP1 DUP2 MSTORE PUSH1 0x20 ADD PUSH0 KECCAK256 PUSH0 DUP3 DUP3 SLOAD PUSH2 0x62B SWAP2 SWAP1 PUSH2 0x1104 JUMP JUMPDEST SWAP3 POP POP DUP2 SWAP1 SSTORE POP DUP3 PUSH20 0xFFFFFFFFFFFFFFFFFFFFFFFFFFFFFFFFFFFFFFFF AND DUP5 PUSH20 0xFFFFFFFFFFFFFFFFFFFFFFFFFFFFFFFFFFFFFFFF AND PUSH32 0xDDF252AD1BE2C89B69C2B068FC378DAA952BA7F163C4A11628F55A4DF523B3EF DUP5 PUSH1 0x40 MLOAD PUSH2 0x68F SWAP2 SWAP1 PUSH2 0xD50 JUMP JUMPDEST PUSH1 0x40 MLOAD DUP1 SWAP2 SUB SWAP1 LOG3 PUSH1 0x1 SWAP1 POP SWAP4 SWAP3 POP POP POP JUMP JUMPDEST PUSH1 0x1 PUSH1 0x20 MSTORE DUP2 PUSH0 MSTORE PUSH1 0x40 PUSH0 KECCAK256 PUSH1 0x20 MSTORE DUP1 PUSH0 MSTORE PUSH1 0x40 PUSH0 KECCAK256 PUSH0 SWAP2 POP SWAP2 POP POP SLOAD DUP2 JUMP JUMPDEST PUSH1 0x5 PUSH0 SWAP1 SLOAD SWAP1 PUSH2 0x100 EXP SWAP1 DIV PUSH1 0xFF AND DUP2 JUMP JUMPDEST PUSH0 ADDRESS SWAP1 POP SWAP1 JUMP JUMPDEST PUSH2 0x6E5 DUP3 DUP3 PUSH2 0xAE8 JUMP JUMPDEST POP POP JUMP JUMPDEST PUSH0 DUP1 PUSH0 DUP4 PUSH20 0xFFFFFFFFFFFFFFFFFFFFFFFFFFFFFFFFFFFFFFFF AND PUSH20 0xFFFFFFFFFFFFFFFFFFFFFFFFFFFFFFFFFFFFFFFF AND DUP2 MSTORE PUSH1 0x20 ADD SWAP1 DUP2 MSTORE PUSH1 0x20 ADD PUSH0 KECCAK256 SLOAD SWAP1 POP SWAP2 SWAP1 POP JUMP JUMPDEST PUSH1 0x3 DUP1 SLOAD PUSH2 0x73B SWAP1 PUSH2 0xFA4 JUMP JUMPDEST DUP1 PUSH1 0x1F ADD PUSH1 0x20 DUP1 SWAP2 DIV MUL PUSH1 0x20 ADD PUSH1 0x40 MLOAD SWAP1 DUP2 ADD PUSH1 0x40 MSTORE DUP1 SWAP3 SWAP2 SWAP1 DUP2 DUP2 MSTORE PUSH1 0x20 ADD DUP3 DUP1 SLOAD PUSH2 0x767 SWAP1 PUSH2 0xFA4 JUMP JUMPDEST DUP1 ISZERO PUSH2 0x7B2 JUMPI DUP1 PUSH1 0x1F LT PUSH2 0x789 JUMPI PUSH2 0x100 DUP1 DUP4 SLOAD DIV MUL DUP4 MSTORE SWAP2 PUSH1 0x20 ADD SWAP2 PUSH2 0x7B2 JUMP JUMPDEST DUP3 ADD SWAP2 SWAP1 PUSH0 MSTORE PUSH1 0x20 PUSH0 KECCAK256 SWAP1 JUMPDEST DUP2 SLOAD DUP2 MSTORE SWAP1 PUSH1 0x1 ADD SWAP1 PUSH1 0x20 ADD DUP1 DUP4 GT PUSH2 0x795 JUMPI DUP3 SWAP1 SUB PUSH1 0x1F AND DUP3 ADD SWAP2 JUMPDEST POP POP POP POP POP DUP2 JUMP JUMPDEST PUSH2 0x7C4 DUP3 DUP3 PUSH2 0xBBB JUMP JUMPDEST POP POP JUMP JUMPDEST PUSH0 DUP1 PUSH0 CALLER PUSH20 0xFFFFFFFFFFFFFFFFFFFFFFFFFFFFFFFFFFFFFFFF AND PUSH20 0xFFFFFFFFFFFFFFFFFFFFFFFFFFFFFFFFFFFFFFFF AND DUP2 MSTORE PUSH1 0x20 ADD SWAP1 DUP2 MSTORE PUSH1 0x20 ADD PUSH0 KECCAK256 SLOAD DUP3 GT ISZERO PUSH2 0x848 JUMPI PUSH1 0x40 MLOAD PUSH32 0x8C379A000000000000000000000000000000000000000000000000000000000 DUP2 MSTORE PUSH1 0x4 ADD PUSH2 0x83F SWAP1 PUSH2 0x101E JUMP JUMPDEST PUSH1 0x40 MLOAD DUP1 SWAP2 SUB SWAP1 REVERT JUMPDEST DUP2 PUSH0 DUP1 CALLER PUSH20 0xFFFFFFFFFFFFFFFFFFFFFFFFFFFFFFFFFFFFFFFF AND PUSH20 0xFFFFFFFFFFFFFFFFFFFFFFFFFFFFFFFFFFFFFFFF AND DUP2 MSTORE PUSH1 0x20 ADD SWAP1 DUP2 MSTORE PUSH1 0x20 ADD PUSH0 KECCAK256 PUSH0 DUP3 DUP3 SLOAD PUSH2 0x893 SWAP2 SWAP1 PUSH2 0x10D1 JUMP JUMPDEST SWAP3 POP POP DUP2 SWAP1 SSTORE POP DUP2 PUSH0 DUP1 DUP6 PUSH20 0xFFFFFFFFFFFFFFFFFFFFFFFFFFFFFFFFFFFFFFFF AND PUSH20 0xFFFFFFFFFFFFFFFFFFFFFFFFFFFFFFFFFFFFFFFF AND DUP2 MSTORE PUSH1 0x20 ADD SWAP1 DUP2 MSTORE PUSH1 0x20 ADD PUSH0 KECCAK256 PUSH0 DUP3 DUP3 SLOAD PUSH2 0x8E5 SWAP2 SWAP1 PUSH2 0x1104 JUMP JUMPDEST SWAP3 POP POP DUP2 SWAP1 SSTORE POP DUP3 PUSH20 0xFFFFFFFFFFFFFFFFFFFFFFFFFFFFFFFFFFFFFFFF AND CALLER PUSH20 0xFFFFFFFFFFFFFFFFFFFFFFFFFFFFFFFFFFFFFFFF AND PUSH32 0xDDF252AD1BE2C89B69C2B068FC378DAA952BA7F163C4A11628F55A4DF523B3EF DUP5 PUSH1 0x40 MLOAD PUSH2 0x949 SWAP2 SWAP1 PUSH2 0xD50 JUMP JUMPDEST PUSH1 0x40 MLOAD DUP1 SWAP2 SUB SWAP1 LOG3 PUSH1 0x1 SWAP1 POP SWAP3 SWAP2 POP POP JUMP JUMPDEST PUSH0 PUSH1 0x4 SLOAD SWAP1 POP SWAP1 JUMP JUMPDEST PUSH0 PUSH1 0x1 PUSH0 DUP5 PUSH20 0xFFFFFFFFFFFFFFFFFFFFFFFFFFFFFFFFFFFFFFFF AND PUSH20 0xFFFFFFFFFFFFFFFFFFFFFFFFFFFFFFFFFFFFFFFF AND DUP2 MSTORE PUSH1 0x20 ADD SWAP1 DUP2 MSTORE PUSH1 0x20 ADD PUSH0 KECCAK256 PUSH0 DUP4 PUSH20 0xFFFFFFFFFFFFFFFFFFFFFFFFFFFFFFFFFFFFFFFF AND PUSH20 0xFFFFFFFFFFFFFFFFFFFFFFFFFFFFFFFFFFFFFFFF AND DUP2 MSTORE PUSH1 0x20 ADD SWAP1 DUP2 MSTORE PUSH1 0x20 ADD PUSH0 KECCAK256 SLOAD SWAP1 POP SWAP3 SWAP2 POP POP JUMP JUMPDEST PUSH0 DUP2 PUSH1 0x1 PUSH0 DUP7 PUSH20 0xFFFFFFFFFFFFFFFFFFFFFFFFFFFFFFFFFFFFFFFF AND PUSH20 0xFFFFFFFFFFFFFFFFFFFFFFFFFFFFFFFFFFFFFFFF AND DUP2 MSTORE PUSH1 0x20 ADD SWAP1 DUP2 MSTORE PUSH1 0x20 ADD PUSH0 KECCAK256 PUSH0 DUP6 PUSH20 0xFFFFFFFFFFFFFFFFFFFFFFFFFFFFFFFFFFFFFFFF AND PUSH20 0xFFFFFFFFFFFFFFFFFFFFFFFFFFFFFFFFFFFFFFFF AND DUP2 MSTORE PUSH1 0x20 ADD SWAP1 DUP2 MSTORE PUSH1 0x20 ADD PUSH0 KECCAK256 DUP2 SWAP1 SSTORE POP DUP3 PUSH20 0xFFFFFFFFFFFFFFFFFFFFFFFFFFFFFFFFFFFFFFFF AND DUP5 PUSH20 0xFFFFFFFFFFFFFFFFFFFFFFFFFFFFFFFFFFFFFFFF AND PUSH32 0x8C5BE1E5EBEC7D5BD14F71427D1E84F3DD0314C0F7B2291E5B200AC8C7C3B925 DUP5 PUSH1 0x40 MLOAD PUSH2 0xAC1 SWAP2 SWAP1 PUSH2 0xD50 JUMP JUMPDEST PUSH1 0x40 MLOAD DUP1 SWAP2 SUB SWAP1 LOG3 PUSH1 0x1 SWAP1 POP SWAP4 SWAP3 POP POP POP JUMP JUMPDEST PUSH0 PUSH1 0x20 MSTORE DUP1 PUSH0 MSTORE PUSH1 0x40 PUSH0 KECCAK256 PUSH0 SWAP2 POP SWAP1 POP SLOAD DUP2 JUMP JUMPDEST DUP1 PUSH0 DUP1 DUP5 PUSH20 0xFFFFFFFFFFFFFFFFFFFFFFFFFFFFFFFFFFFFFFFF AND PUSH20 0xFFFFFFFFFFFFFFFFFFFFFFFFFFFFFFFFFFFFFFFF AND DUP2 MSTORE PUSH1 0x20 ADD SWAP1 DUP2 MSTORE PUSH1 0x20 ADD PUSH0 KECCAK256 PUSH0 DUP3 DUP3 SLOAD PUSH2 0xB33 SWAP2 SWAP1 PUSH2 0x1104 JUMP JUMPDEST SWAP3 POP POP DUP2 SWAP1 SSTORE POP DUP1 PUSH1 0x4 PUSH0 DUP3 DUP3 SLOAD PUSH2 0xB4B SWAP2 SWAP1 PUSH2 0x1104 JUMP JUMPDEST SWAP3 POP POP DUP2 SWAP1 SSTORE POP DUP2 PUSH20 0xFFFFFFFFFFFFFFFFFFFFFFFFFFFFFFFFFFFFFFFF AND PUSH0 PUSH20 0xFFFFFFFFFFFFFFFFFFFFFFFFFFFFFFFFFFFFFFFF AND PUSH32 0xDDF252AD1BE2C89B69C2B068FC378DAA952BA7F163C4A11628F55A4DF523B3EF DUP4 PUSH1 0x40 MLOAD PUSH2 0xBAF SWAP2 SWAP1 PUSH2 0xD50 JUMP JUMPDEST PUSH1 0x40 MLOAD DUP1 SWAP2 SUB SWAP1 LOG3 POP POP JUMP JUMPDEST DUP1 PUSH0 DUP1 DUP5 PUSH20 0xFFFFFFFFFFFFFFFFFFFFFFFFFFFFFFFFFFFFFFFF AND PUSH20 0xFFFFFFFFFFFFFFFFFFFFFFFFFFFFFFFFFFFFFFFF AND DUP2 MSTORE PUSH1 0x20 ADD SWAP1 DUP2 MSTORE PUSH1 0x20 ADD PUSH0 KECCAK256 PUSH0 DUP3 DUP3 SLOAD PUSH2 0xC06 SWAP2 SWAP1 PUSH2 0x10D1 JUMP JUMPDEST SWAP3 POP POP DUP2 SWAP1 SSTORE POP DUP1 PUSH1 0x4 PUSH0 DUP3 DUP3 SLOAD PUSH2 0xC1E SWAP2 SWAP1 PUSH2 0x10D1 JUMP JUMPDEST SWAP3 POP POP DUP2 SWAP1 SSTORE POP PUSH0 PUSH20 0xFFFFFFFFFFFFFFFFFFFFFFFFFFFFFFFFFFFFFFFF AND DUP3 PUSH20 0xFFFFFFFFFFFFFFFFFFFFFFFFFFFFFFFFFFFFFFFF AND PUSH32 0xDDF252AD1BE2C89B69C2B068FC378DAA952BA7F163C4A11628F55A4DF523B3EF DUP4 PUSH1 0x40 MLOAD PUSH2 0xC82 SWAP2 SWAP1 PUSH2 0xD50 JUMP JUMPDEST PUSH1 0x40 MLOAD DUP1 SWAP2 SUB SWAP1 LOG3 POP POP JUMP JUMPDEST PUSH0 DUP2 MLOAD SWAP1 POP SWAP2 SWAP1 POP JUMP JUMPDEST PUSH0 DUP3 DUP3 MSTORE PUSH1 0x20 DUP3 ADD SWAP1 POP SWAP3 SWAP2 POP POP JUMP JUMPDEST PUSH0 JUMPDEST DUP4 DUP2 LT ISZERO PUSH2 0xCC5 JUMPI DUP1 DUP3 ADD MLOAD DUP2 DUP5 ADD MSTORE PUSH1 0x20 DUP2 ADD SWAP1 POP PUSH2 0xCAA JUMP JUMPDEST PUSH0 DUP5 DUP5 ADD MSTORE POP POP POP POP JUMP JUMPDEST PUSH0 PUSH1 0x1F NOT PUSH1 0x1F DUP4 ADD AND SWAP1 POP SWAP2 SWAP1 POP JUMP JUMPDEST PUSH0 PUSH2 0xCEA DUP3 PUSH2 0xC8E JUMP JUMPDEST PUSH2 0xCF4 DUP2 DUP6 PUSH2 0xC98 JUMP JUMPDEST SWAP4 POP PUSH2 0xD04 DUP2 DUP6 PUSH1 0x20 DUP7 ADD PUSH2 0xCA8 JUMP JUMPDEST PUSH2 0xD0D DUP2 PUSH2 0xCD0 JUMP JUMPDEST DUP5 ADD SWAP2 POP POP SWAP3 SWAP2 POP POP JUMP JUMPDEST PUSH0 PUSH1 0x20 DUP3 ADD SWAP1 POP DUP2 DUP2 SUB PUSH0 DUP4 ADD MSTORE PUSH2 0xD30 DUP2 DUP5 PUSH2 0xCE0 JUMP JUMPDEST SWAP1 POP SWAP3 SWAP2 POP POP JUMP JUMPDEST PUSH0 DUP2 SWAP1 POP SWAP2 SWAP1 POP JUMP JUMPDEST PUSH2 0xD4A DUP2 PUSH2 0xD38 JUMP JUMPDEST DUP3 MSTORE POP POP JUMP JUMPDEST PUSH0 PUSH1 0x20 DUP3 ADD SWAP1 POP PUSH2 0xD63 PUSH0 DUP4 ADD DUP5 PUSH2 0xD41 JUMP JUMPDEST SWAP3 SWAP2 POP POP JUMP JUMPDEST PUSH0 DUP1 REVERT JUMPDEST PUSH0 PUSH20 0xFFFFFFFFFFFFFFFFFFFFFFFFFFFFFFFFFFFFFFFF DUP3 AND SWAP1 POP SWAP2 SWAP1 POP JUMP JUMPDEST PUSH0 PUSH2 0xD96 DUP3 PUSH2 0xD6D JUMP JUMPDEST SWAP1 POP SWAP2 SWAP1 POP JUMP JUMPDEST PUSH2 0xDA6 DUP2 PUSH2 0xD8C JUMP JUMPDEST DUP2 EQ PUSH2 0xDB0 JUMPI PUSH0 DUP1 REVERT JUMPDEST POP JUMP JUMPDEST PUSH0 DUP2 CALLDATALOAD SWAP1 POP PUSH2 0xDC1 DUP2 PUSH2 0xD9D JUMP JUMPDEST SWAP3 SWAP2 POP POP JUMP JUMPDEST PUSH2 0xDD0 DUP2 PUSH2 0xD38 JUMP JUMPDEST DUP2 EQ PUSH2 0xDDA JUMPI PUSH0 DUP1 REVERT JUMPDEST POP JUMP JUMPDEST PUSH0 DUP2 CALLDATALOAD SWAP1 POP PUSH2 0xDEB DUP2 PUSH2 0xDC7 JUMP JUMPDEST SWAP3 SWAP2 POP POP JUMP JUMPDEST PUSH0 DUP1 PUSH0 PUSH1 0x60 DUP5 DUP7 SUB SLT ISZERO PUSH2 0xE08 JUMPI PUSH2 0xE07 PUSH2 0xD69 JUMP JUMPDEST JUMPDEST PUSH0 PUSH2 0xE15 DUP7 DUP3 DUP8 ADD PUSH2 0xDB3 JUMP JUMPDEST SWAP4 POP POP PUSH1 0x20 PUSH2 0xE26 DUP7 DUP3 DUP8 ADD PUSH2 0xDB3 JUMP JUMPDEST SWAP3 POP POP PUSH1 0x40 PUSH2 0xE37 DUP7 DUP3 DUP8 ADD PUSH2 0xDDD JUMP JUMPDEST SWAP2 POP POP SWAP3 POP SWAP3 POP SWAP3 JUMP JUMPDEST PUSH0 DUP2 ISZERO ISZERO SWAP1 POP SWAP2 SWAP1 POP JUMP JUMPDEST PUSH2 0xE55 DUP2 PUSH2 0xE41 JUMP JUMPDEST DUP3 MSTORE POP POP JUMP JUMPDEST PUSH0 PUSH1 0x20 DUP3 ADD SWAP1 POP PUSH2 0xE6E PUSH0 DUP4 ADD DUP5 PUSH2 0xE4C JUMP JUMPDEST SWAP3 SWAP2 POP POP JUMP JUMPDEST PUSH0 DUP1 PUSH1 0x40 DUP4 DUP6 SUB SLT ISZERO PUSH2 0xE8A JUMPI PUSH2 0xE89 PUSH2 0xD69 JUMP JUMPDEST JUMPDEST PUSH0 PUSH2 0xE97 DUP6 DUP3 DUP7 ADD PUSH2 0xDB3 JUMP JUMPDEST SWAP3 POP POP PUSH1 0x20 PUSH2 0xEA8 DUP6 DUP3 DUP7 ADD PUSH2 0xDB3 JUMP JUMPDEST SWAP2 POP POP SWAP3 POP SWAP3 SWAP1 POP JUMP JUMPDEST PUSH0 PUSH1 0xFF DUP3 AND SWAP1 POP SWAP2 SWAP1 POP JUMP JUMPDEST PUSH2 0xEC7 DUP2 PUSH2 0xEB2 JUMP JUMPDEST DUP3 MSTORE POP POP JUMP JUMPDEST PUSH0 PUSH1 0x20 DUP3 ADD SWAP1 POP PUSH2 0xEE0 PUSH0 DUP4 ADD DUP5 PUSH2 0xEBE JUMP JUMPDEST SWAP3 SWAP2 POP POP JUMP JUMPDEST PUSH2 0xEEF DUP2 PUSH2 0xD8C JUMP JUMPDEST DUP3 MSTORE POP POP JUMP JUMPDEST PUSH0 PUSH1 0x20 DUP3 ADD SWAP1 POP PUSH2 0xF08 PUSH0 DUP4 ADD DUP5 PUSH2 0xEE6 JUMP JUMPDEST SWAP3 SWAP2 POP POP JUMP JUMPDEST PUSH0 DUP1 PUSH1 0x40 DUP4 DUP6 SUB SLT ISZERO PUSH2 0xF24 JUMPI PUSH2 0xF23 PUSH2 0xD69 JUMP JUMPDEST JUMPDEST PUSH0 PUSH2 0xF31 DUP6 DUP3 DUP7 ADD PUSH2 0xDB3 JUMP JUMPDEST SWAP3 POP POP PUSH1 0x20 PUSH2 0xF42 DUP6 DUP3 DUP7 ADD PUSH2 0xDDD JUMP JUMPDEST SWAP2 POP POP SWAP3 POP SWAP3 SWAP1 POP JUMP JUMPDEST PUSH0 PUSH1 0x20 DUP3 DUP5 SUB SLT ISZERO PUSH2 0xF61 JUMPI PUSH2 0xF60 PUSH2 0xD69 JUMP JUMPDEST JUMPDEST PUSH0 PUSH2 0xF6E DUP5 DUP3 DUP6 ADD PUSH2 0xDB3 JUMP JUMPDEST SWAP2 POP POP SWAP3 SWAP2 POP POP JUMP JUMPDEST PUSH32 0x4E487B7100000000000000000000000000000000000000000000000000000000 PUSH0 MSTORE PUSH1 0x22 PUSH1 0x4 MSTORE PUSH1 0x24 PUSH0 REVERT JUMPDEST PUSH0 PUSH1 0x2 DUP3 DIV SWAP1 POP PUSH1 0x1 DUP3 AND DUP1 PUSH2 0xFBB JUMPI PUSH1 0x7F DUP3 AND SWAP2 POP JUMPDEST PUSH1 0x20 DUP3 LT DUP2 SUB PUSH2 0xFCE JUMPI PUSH2 0xFCD PUSH2 0xF77 JUMP JUMPDEST JUMPDEST POP SWAP2 SWAP1 POP JUMP JUMPDEST PUSH32 0x496E73756666696369656E742062616C616E6365000000000000000000000000 PUSH0 DUP3 ADD MSTORE POP JUMP JUMPDEST PUSH0 PUSH2 0x1008 PUSH1 0x14 DUP4 PUSH2 0xC98 JUMP JUMPDEST SWAP2 POP PUSH2 0x1013 DUP3 PUSH2 0xFD4 JUMP JUMPDEST PUSH1 0x20 DUP3 ADD SWAP1 POP SWAP2 SWAP1 POP JUMP JUMPDEST PUSH0 PUSH1 0x20 DUP3 ADD SWAP1 POP DUP2 DUP2 SUB PUSH0 DUP4 ADD MSTORE PUSH2 0x1035 DUP2 PUSH2 0xFFC JUMP JUMPDEST SWAP1 POP SWAP2 SWAP1 POP JUMP JUMPDEST PUSH32 0x416C6C6F77616E63652065786365656465640000000000000000000000000000 PUSH0 DUP3 ADD MSTORE POP JUMP JUMPDEST PUSH0 PUSH2 0x1070 PUSH1 0x12 DUP4 PUSH2 0xC98 JUMP JUMPDEST SWAP2 POP PUSH2 0x107B DUP3 PUSH2 0x103C JUMP JUMPDEST PUSH1 0x20 DUP3 ADD SWAP1 POP SWAP2 SWAP1 POP JUMP JUMPDEST PUSH0 PUSH1 0x20 DUP3 ADD SWAP1 POP DUP2 DUP2 SUB PUSH0 DUP4 ADD MSTORE PUSH2 0x109D DUP2 PUSH2 0x1064 JUMP JUMPDEST SWAP1 POP SWAP2 SWAP1 POP JUMP JUMPDEST PUSH32 0x4E487B7100000000000000000000000000000000000000000000000000000000 PUSH0 MSTORE PUSH1 0x11 PUSH1 0x4 MSTORE PUSH1 0x24 PUSH0 REVERT JUMPDEST PUSH0 PUSH2 0x10DB DUP3 PUSH2 0xD38 JUMP JUMPDEST SWAP2 POP PUSH2 0x10E6 DUP4 PUSH2 0xD38 JUMP JUMPDEST SWAP3 POP DUP3 DUP3 SUB SWAP1 POP DUP2 DUP2 GT ISZERO PUSH2 0x10FE JUMPI PUSH2 0x10FD PUSH2 0x10A4 JUMP JUMPDEST JUMPDEST SWAP3 SWAP2 POP POP JUMP JUMPDEST PUSH0 PUSH2 0x110E DUP3 PUSH2 0xD38 JUMP JUMPDEST SWAP2 POP PUSH2 0x1119 DUP4 PUSH2 0xD38 JUMP JUMPDEST SWAP3 POP DUP3 DUP3 ADD SWAP1 POP DUP1 DUP3 GT ISZERO PUSH2 0x1131 JUMPI PUSH2 0x1130 PUSH2 0x10A4 JUMP JUMPDEST JUMPDEST SWAP3 SWAP2 POP POP JUMP INVALID LOG2 PUSH5 0x6970667358 0x22 SLT KECCAK256 MUL 0xC4 0xDA SWAP9 0x27 DUP4 PUSH30 0x8C279A208B5FCE61E4C758A11C4F237BD862F4829CC5735B9464736F6C63 NUMBER STOP ADDMOD EQ STOP CALLER "
				},
				"gasEstimates": {
					"creation": {
						"codeDepositCost": "1066200",
						"executionCost": "infinite",
						"totalCost": "infinite"
					},
					"external": {
						"addLiquidity(address,uint256)": "infinite",
						"approve(address,uint256)": "infinite",
						"buy()": "infinite",
						"dexToken()": "infinite",
						"getDexBalance(address)": "infinite",
						"getDexTokenAddress()": "2560",
						"getOwnerBalance(address)": "infinite",
						"getSwapPrice(address,address,uint256)": "infinite",
						"sell(uint256)": "infinite",
						"swap(address,address,uint256)": "infinite"
					}
				},
				"methodIdentifiers": {
					"addLiquidity(address,uint256)": "56688700",
					"approve(address,uint256)": "095ea7b3",
					"buy()": "a6f2ae3a",
					"dexToken()": "16cfc4c1",
					"getDexBalance(address)": "5700d9ff",
					"getDexTokenAddress()": "200c43c9",
					"getOwnerBalance(address)": "7fcf440a",
					"getSwapPrice(address,address,uint256)": "bfd7e00d",
					"sell(uint256)": "e4849b32",
					"swap(address,address,uint256)": "df791e50"
				}
			},
			"storageLayout": {
				"storage": [
					{
						"astId": 417,
						"contract": "contracts/SwappableToken.sol:Dex",
						"label": "dexToken",
						"offset": 0,
						"slot": "0",
						"type": "t_contract(IERC20)116"
					}
				],
				"types": {
					"t_contract(IERC20)116": {
						"encoding": "inplace",
						"label": "contract IERC20",
						"numberOfBytes": "20"
					}
				}
			},
			"userdoc": {
				"kind": "user",
				"methods": {},
				"version": 1
			}
		}
	}
}