{
	"contracts/Dex.sol": {
		"DXTK": {
			"abi": [
				{
					"inputs": [],
					"stateMutability": "nonpayable",
					"type": "constructor"
				},
				{
					"anonymous": false,
					"inputs": [
						{
							"indexed": true,
							"internalType": "address",
							"name": "owner",
							"type": "address"
						},
						{
							"indexed": true,
							"internalType": "address",
							"name": "spender",
							"type": "address"
						},
						{
							"indexed": false,
							"internalType": "uint256",
							"name": "value",
							"type": "uint256"
						}
					],
					"name": "Approval",
					"type": "event"
				},
				{
					"anonymous": false,
					"inputs": [
						{
							"indexed": true,
							"internalType": "address",
							"name": "from",
							"type": "address"
						},
						{
							"indexed": true,
							"internalType": "address",
							"name": "to",
							"type": "address"
						},
						{
							"indexed": false,
							"internalType": "uint256",
							"name": "value",
							"type": "uint256"
						}
					],
					"name": "Transfer",
					"type": "event"
				},
				{
					"inputs": [
						{
							"internalType": "address",
							"name": "",
							"type": "address"
						},
						{
							"internalType": "address",
							"name": "",
							"type": "address"
						}
					],
					"name": "accAllowance",
					"outputs": [
						{
							"internalType": "uint256",
							"name": "",
							"type": "uint256"
						}
					],
					"stateMutability": "view",
					"type": "function"
				},
				{
					"inputs": [
						{
							"internalType": "address",
							"name": "",
							"type": "address"
						}
					],
					"name": "accBalance",
					"outputs": [
						{
							"internalType": "uint256",
							"name": "",
							"type": "uint256"
						}
					],
					"stateMutability": "view",
					"type": "function"
				},
				{
					"inputs": [
						{
							"internalType": "address",
							"name": "owner",
							"type": "address"
						},
						{
							"internalType": "address",
							"name": "spender",
							"type": "address"
						}
					],
					"name": "allowance",
					"outputs": [
						{
							"internalType": "uint256",
							"name": "",
							"type": "uint256"
						}
					],
					"stateMutability": "view",
					"type": "function"
				},
				{
					"inputs": [
						{
							"internalType": "address",
							"name": "owner",
							"type": "address"
						},
						{
							"internalType": "address",
							"name": "spender",
							"type": "address"
						},
						{
							"internalType": "uint256",
							"name": "amount",
							"type": "uint256"
						}
					],
					"name": "approve",
					"outputs": [
						{
							"internalType": "bool",
							"name": "",
							"type": "bool"
						}
					],
					"stateMutability": "nonpayable",
					"type": "function"
				},
				{
					"inputs": [
						{
							"internalType": "address",
							"name": "owner",
							"type": "address"
						}
					],
					"name": "balanceOf",
					"outputs": [
						{
							"internalType": "uint256",
							"name": "",
							"type": "uint256"
						}
					],
					"stateMutability": "view",
					"type": "function"
				},
				{
					"inputs": [
						{
							"internalType": "address",
							"name": "from",
							"type": "address"
						},
						{
							"internalType": "uint256",
							"name": "amount",
							"type": "uint256"
						}
					],
					"name": "burn",
					"outputs": [],
					"stateMutability": "nonpayable",
					"type": "function"
				},
				{
					"inputs": [],
					"name": "decimals",
					"outputs": [
						{
							"internalType": "uint8",
							"name": "",
							"type": "uint8"
						}
					],
					"stateMutability": "view",
					"type": "function"
				},
				{
					"inputs": [],
					"name": "getAddress",
					"outputs": [
						{
							"internalType": "address",
							"name": "",
							"type": "address"
						}
					],
					"stateMutability": "view",
					"type": "function"
				},
				{
					"inputs": [],
					"name": "getTotalSupply",
					"outputs": [
						{
							"internalType": "uint256",
							"name": "",
							"type": "uint256"
						}
					],
					"stateMutability": "view",
					"type": "function"
				},
				{
					"inputs": [
						{
							"internalType": "address",
							"name": "to",
							"type": "address"
						},
						{
							"internalType": "uint256",
							"name": "amount",
							"type": "uint256"
						}
					],
					"name": "mint",
					"outputs": [],
					"stateMutability": "nonpayable",
					"type": "function"
				},
				{
					"inputs": [],
					"name": "name",
					"outputs": [
						{
							"internalType": "string",
							"name": "",
							"type": "string"
						}
					],
					"stateMutability": "view",
					"type": "function"
				},
				{
					"inputs": [],
					"name": "symbol",
					"outputs": [
						{
							"internalType": "string",
							"name": "",
							"type": "string"
						}
					],
					"stateMutability": "view",
					"type": "function"
				},
				{
					"inputs": [],
					"name": "totalSupply",
					"outputs": [
						{
							"internalType": "uint256",
							"name": "",
							"type": "uint256"
						}
					],
					"stateMutability": "view",
					"type": "function"
				},
				{
					"inputs": [
						{
							"internalType": "address",
							"name": "recipient",
							"type": "address"
						},
						{
							"internalType": "uint256",
							"name": "amount",
							"type": "uint256"
						}
					],
					"name": "transfer",
					"outputs": [
						{
							"internalType": "bool",
							"name": "",
							"type": "bool"
						}
					],
					"stateMutability": "nonpayable",
					"type": "function"
				},
				{
					"inputs": [
						{
							"internalType": "address",
							"name": "sender",
							"type": "address"
						},
						{
							"internalType": "address",
							"name": "recipient",
							"type": "address"
						},
						{
							"internalType": "uint256",
							"name": "amount",
							"type": "uint256"
						}
					],
					"name": "transferFrom",
					"outputs": [
						{
							"internalType": "bool",
							"name": "",
							"type": "bool"
						}
					],
					"stateMutability": "nonpayable",
					"type": "function"
				}
			],
			"devdoc": {
				"kind": "dev",
				"methods": {},
				"version": 1
			},
			"evm": {
				"assembly": "    /* \"contracts/Dex.sol\":2157:4737  contract DXTK is IERC20 {... */\n  mstore(0x40, 0x80)\n    /* \"contracts/Dex.sol\":2311:2342  string public name = \"DX-token\" */\n  mload(0x40)\n  dup1\n  0x40\n  add\n  0x40\n  mstore\n  dup1\n  0x08\n  dup2\n  mstore\n  0x20\n  add\n  0x44582d746f6b656e000000000000000000000000000000000000000000000000\n  dup2\n  mstore\n  pop\n  0x02\n  swap1\n  dup2\n  tag_1\n  swap2\n  swap1\n  tag_2\n  jump\t// in\ntag_1:\n  pop\n    /* \"contracts/Dex.sol\":2348:2377  string public symbol = \"DXTK\" */\n  mload(0x40)\n  dup1\n  0x40\n  add\n  0x40\n  mstore\n  dup1\n  0x04\n  dup2\n  mstore\n  0x20\n  add\n  0x4458544b00000000000000000000000000000000000000000000000000000000\n  dup2\n  mstore\n  pop\n  0x03\n  swap1\n  dup2\n  tag_3\n  swap2\n  swap1\n  tag_2\n  jump\t// in\ntag_3:\n  pop\n    /* \"contracts/Dex.sol\":2412:2436  100000000000000000000000 */\n  0x152d02c7e14af6800000\n    /* \"contracts/Dex.sol\":2383:2436  uint256 public totalSupply = 100000000000000000000000 */\n  0x04\n  sstore\n    /* \"contracts/Dex.sol\":2479:2481  18 */\n  0x12\n    /* \"contracts/Dex.sol\":2457:2481  uint8 public decimals=18 */\n  0x05\n  exp(0x0100, 0x00)\n  dup2\n  sload\n  dup2\n  0xff\n  mul\n  not\n  and\n  swap1\n  dup4\n  0xff\n  and\n  mul\n  or\n  swap1\n  sstore\n  pop\n    /* \"contracts/Dex.sol\":2488:2705  constructor() {... */\n  callvalue\n  dup1\n  iszero\n  tag_4\n  jumpi\n  0x00\n  dup1\n  revert\ntag_4:\n  pop\n    /* \"contracts/Dex.sol\":2662:2673  totalSupply */\n  sload(0x04)\n    /* \"contracts/Dex.sol\":2637:2647  accBalance */\n  0x00\n    /* \"contracts/Dex.sol\":2637:2659  accBalance[msg.sender] */\n  dup1\n    /* \"contracts/Dex.sol\":2648:2658  msg.sender */\n  caller\n    /* \"contracts/Dex.sol\":2637:2659  accBalance[msg.sender] */\n  0xffffffffffffffffffffffffffffffffffffffff\n  and\n  0xffffffffffffffffffffffffffffffffffffffff\n  and\n  dup2\n  mstore\n  0x20\n  add\n  swap1\n  dup2\n  mstore\n  0x20\n  add\n  0x00\n  keccak256\n    /* \"contracts/Dex.sol\":2637:2673  accBalance[msg.sender] = totalSupply */\n  dup2\n  swap1\n  sstore\n  pop\n    /* \"contracts/Dex.sol\":2157:4737  contract DXTK is IERC20 {... */\n  jump(tag_7)\n    /* \"#utility.yul\":7:106   */\ntag_8:\n    /* \"#utility.yul\":59:65   */\n  0x00\n    /* \"#utility.yul\":93:98   */\n  dup2\n    /* \"#utility.yul\":87:99   */\n  mload\n    /* \"#utility.yul\":77:99   */\n  swap1\n  pop\n    /* \"#utility.yul\":7:106   */\n  swap2\n  swap1\n  pop\n  jump\t// out\n    /* \"#utility.yul\":112:292   */\ntag_9:\n    /* \"#utility.yul\":160:237   */\n  0x4e487b7100000000000000000000000000000000000000000000000000000000\n    /* \"#utility.yul\":157:158   */\n  0x00\n    /* \"#utility.yul\":150:238   */\n  mstore\n    /* \"#utility.yul\":257:261   */\n  0x41\n    /* \"#utility.yul\":254:255   */\n  0x04\n    /* \"#utility.yul\":247:262   */\n  mstore\n    /* \"#utility.yul\":281:285   */\n  0x24\n    /* \"#utility.yul\":278:279   */\n  0x00\n    /* \"#utility.yul\":271:286   */\n  revert\n    /* \"#utility.yul\":298:478   */\ntag_10:\n    /* \"#utility.yul\":346:423   */\n  0x4e487b7100000000000000000000000000000000000000000000000000000000\n    /* \"#utility.yul\":343:344   */\n  0x00\n    /* \"#utility.yul\":336:424   */\n  mstore\n    /* \"#utility.yul\":443:447   */\n  0x22\n    /* \"#utility.yul\":440:441   */\n  0x04\n    /* \"#utility.yul\":433:448   */\n  mstore\n    /* \"#utility.yul\":467:471   */\n  0x24\n    /* \"#utility.yul\":464:465   */\n  0x00\n    /* \"#utility.yul\":457:472   */\n  revert\n    /* \"#utility.yul\":484:804   */\ntag_11:\n    /* \"#utility.yul\":528:534   */\n  0x00\n    /* \"#utility.yul\":565:566   */\n  0x02\n    /* \"#utility.yul\":559:563   */\n  dup3\n    /* \"#utility.yul\":555:567   */\n  div\n    /* \"#utility.yul\":545:567   */\n  swap1\n  pop\n    /* \"#utility.yul\":612:613   */\n  0x01\n    /* \"#utility.yul\":606:610   */\n  dup3\n    /* \"#utility.yul\":602:614   */\n  and\n    /* \"#utility.yul\":633:651   */\n  dup1\n    /* \"#utility.yul\":623:704   */\n  tag_33\n  jumpi\n    /* \"#utility.yul\":689:693   */\n  0x7f\n    /* \"#utility.yul\":681:687   */\n  dup3\n    /* \"#utility.yul\":677:694   */\n  and\n    /* \"#utility.yul\":667:694   */\n  swap2\n  pop\n    /* \"#utility.yul\":623:704   */\ntag_33:\n    /* \"#utility.yul\":751:753   */\n  0x20\n    /* \"#utility.yul\":743:749   */\n  dup3\n    /* \"#utility.yul\":740:754   */\n  lt\n    /* \"#utility.yul\":720:738   */\n  dup2\n    /* \"#utility.yul\":717:755   */\n  sub\n    /* \"#utility.yul\":714:798   */\n  tag_34\n  jumpi\n    /* \"#utility.yul\":770:788   */\n  tag_35\n  tag_10\n  jump\t// in\ntag_35:\n    /* \"#utility.yul\":714:798   */\ntag_34:\n    /* \"#utility.yul\":535:804   */\n  pop\n    /* \"#utility.yul\":484:804   */\n  swap2\n  swap1\n  pop\n  jump\t// out\n    /* \"#utility.yul\":810:951   */\ntag_12:\n    /* \"#utility.yul\":859:863   */\n  0x00\n    /* \"#utility.yul\":882:885   */\n  dup2\n    /* \"#utility.yul\":874:885   */\n  swap1\n  pop\n    /* \"#utility.yul\":905:908   */\n  dup2\n    /* \"#utility.yul\":902:903   */\n  0x00\n    /* \"#utility.yul\":895:909   */\n  mstore\n    /* \"#utility.yul\":939:943   */\n  0x20\n    /* \"#utility.yul\":936:937   */\n  0x00\n    /* \"#utility.yul\":926:944   */\n  keccak256\n    /* \"#utility.yul\":918:944   */\n  swap1\n  pop\n    /* \"#utility.yul\":810:951   */\n  swap2\n  swap1\n  pop\n  jump\t// out\n    /* \"#utility.yul\":957:1050   */\ntag_13:\n    /* \"#utility.yul\":994:1000   */\n  0x00\n    /* \"#utility.yul\":1041:1043   */\n  0x20\n    /* \"#utility.yul\":1036:1038   */\n  0x1f\n    /* \"#utility.yul\":1029:1034   */\n  dup4\n    /* \"#utility.yul\":1025:1039   */\n  add\n    /* \"#utility.yul\":1021:1044   */\n  div\n    /* \"#utility.yul\":1011:1044   */\n  swap1\n  pop\n    /* \"#utility.yul\":957:1050   */\n  swap2\n  swap1\n  pop\n  jump\t// out\n    /* \"#utility.yul\":1056:1163   */\ntag_14:\n    /* \"#utility.yul\":1100:1108   */\n  0x00\n    /* \"#utility.yul\":1150:1155   */\n  dup3\n    /* \"#utility.yul\":1144:1148   */\n  dup3\n    /* \"#utility.yul\":1140:1156   */\n  shl\n    /* \"#utility.yul\":1119:1156   */\n  swap1\n  pop\n    /* \"#utility.yul\":1056:1163   */\n  swap3\n  swap2\n  pop\n  pop\n  jump\t// out\n    /* \"#utility.yul\":1169:1562   */\ntag_15:\n    /* \"#utility.yul\":1238:1244   */\n  0x00\n    /* \"#utility.yul\":1288:1289   */\n  0x08\n    /* \"#utility.yul\":1276:1286   */\n  dup4\n    /* \"#utility.yul\":1272:1290   */\n  mul\n    /* \"#utility.yul\":1311:1408   */\n  tag_40\n    /* \"#utility.yul\":1341:1407   */\n  0xffffffffffffffffffffffffffffffffffffffffffffffffffffffffffffffff\n    /* \"#utility.yul\":1330:1339   */\n  dup3\n    /* \"#utility.yul\":1311:1408   */\n  tag_14\n  jump\t// in\ntag_40:\n    /* \"#utility.yul\":1429:1468   */\n  tag_41\n    /* \"#utility.yul\":1459:1467   */\n  dup7\n    /* \"#utility.yul\":1448:1457   */\n  dup4\n    /* \"#utility.yul\":1429:1468   */\n  tag_14\n  jump\t// in\ntag_41:\n    /* \"#utility.yul\":1417:1468   */\n  swap6\n  pop\n    /* \"#utility.yul\":1501:1505   */\n  dup1\n    /* \"#utility.yul\":1497:1506   */\n  not\n    /* \"#utility.yul\":1490:1495   */\n  dup5\n    /* \"#utility.yul\":1486:1507   */\n  and\n    /* \"#utility.yul\":1477:1507   */\n  swap4\n  pop\n    /* \"#utility.yul\":1550:1554   */\n  dup1\n    /* \"#utility.yul\":1540:1548   */\n  dup7\n    /* \"#utility.yul\":1536:1555   */\n  and\n    /* \"#utility.yul\":1529:1534   */\n  dup5\n    /* \"#utility.yul\":1526:1556   */\n  or\n    /* \"#utility.yul\":1516:1556   */\n  swap3\n  pop\n    /* \"#utility.yul\":1245:1562   */\n  pop\n  pop\n    /* \"#utility.yul\":1169:1562   */\n  swap4\n  swap3\n  pop\n  pop\n  pop\n  jump\t// out\n    /* \"#utility.yul\":1568:1645   */\ntag_16:\n    /* \"#utility.yul\":1605:1612   */\n  0x00\n    /* \"#utility.yul\":1634:1639   */\n  dup2\n    /* \"#utility.yul\":1623:1639   */\n  swap1\n  pop\n    /* \"#utility.yul\":1568:1645   */\n  swap2\n  swap1\n  pop\n  jump\t// out\n    /* \"#utility.yul\":1651:1711   */\ntag_17:\n    /* \"#utility.yul\":1679:1682   */\n  0x00\n    /* \"#utility.yul\":1700:1705   */\n  dup2\n    /* \"#utility.yul\":1693:1705   */\n  swap1\n  pop\n    /* \"#utility.yul\":1651:1711   */\n  swap2\n  swap1\n  pop\n  jump\t// out\n    /* \"#utility.yul\":1717:1859   */\ntag_18:\n    /* \"#utility.yul\":1767:1776   */\n  0x00\n    /* \"#utility.yul\":1800:1853   */\n  tag_45\n    /* \"#utility.yul\":1818:1852   */\n  tag_46\n    /* \"#utility.yul\":1827:1851   */\n  tag_47\n    /* \"#utility.yul\":1845:1850   */\n  dup5\n    /* \"#utility.yul\":1827:1851   */\n  tag_16\n  jump\t// in\ntag_47:\n    /* \"#utility.yul\":1818:1852   */\n  tag_17\n  jump\t// in\ntag_46:\n    /* \"#utility.yul\":1800:1853   */\n  tag_16\n  jump\t// in\ntag_45:\n    /* \"#utility.yul\":1787:1853   */\n  swap1\n  pop\n    /* \"#utility.yul\":1717:1859   */\n  swap2\n  swap1\n  pop\n  jump\t// out\n    /* \"#utility.yul\":1865:1940   */\ntag_19:\n    /* \"#utility.yul\":1908:1911   */\n  0x00\n    /* \"#utility.yul\":1929:1934   */\n  dup2\n    /* \"#utility.yul\":1922:1934   */\n  swap1\n  pop\n    /* \"#utility.yul\":1865:1940   */\n  swap2\n  swap1\n  pop\n  jump\t// out\n    /* \"#utility.yul\":1946:2215   */\ntag_20:\n    /* \"#utility.yul\":2056:2095   */\n  tag_50\n    /* \"#utility.yul\":2087:2094   */\n  dup4\n    /* \"#utility.yul\":2056:2095   */\n  tag_18\n  jump\t// in\ntag_50:\n    /* \"#utility.yul\":2117:2208   */\n  tag_51\n    /* \"#utility.yul\":2166:2207   */\n  tag_52\n    /* \"#utility.yul\":2190:2206   */\n  dup3\n    /* \"#utility.yul\":2166:2207   */\n  tag_19\n  jump\t// in\ntag_52:\n    /* \"#utility.yul\":2158:2164   */\n  dup5\n    /* \"#utility.yul\":2151:2155   */\n  dup5\n    /* \"#utility.yul\":2145:2156   */\n  sload\n    /* \"#utility.yul\":2117:2208   */\n  tag_15\n  jump\t// in\ntag_51:\n    /* \"#utility.yul\":2111:2115   */\n  dup3\n    /* \"#utility.yul\":2104:2209   */\n  sstore\n    /* \"#utility.yul\":2022:2215   */\n  pop\n    /* \"#utility.yul\":1946:2215   */\n  pop\n  pop\n  pop\n  jump\t// out\n    /* \"#utility.yul\":2221:2294   */\ntag_21:\n    /* \"#utility.yul\":2266:2269   */\n  0x00\n    /* \"#utility.yul\":2221:2294   */\n  swap1\n  jump\t// out\n    /* \"#utility.yul\":2300:2489   */\ntag_22:\n    /* \"#utility.yul\":2377:2409   */\n  tag_55\n  tag_21\n  jump\t// in\ntag_55:\n    /* \"#utility.yul\":2418:2483   */\n  tag_56\n    /* \"#utility.yul\":2476:2482   */\n  dup2\n    /* \"#utility.yul\":2468:2474   */\n  dup5\n    /* \"#utility.yul\":2462:2466   */\n  dup5\n    /* \"#utility.yul\":2418:2483   */\n  tag_20\n  jump\t// in\ntag_56:\n    /* \"#utility.yul\":2353:2489   */\n  pop\n    /* \"#utility.yul\":2300:2489   */\n  pop\n  pop\n  jump\t// out\n    /* \"#utility.yul\":2495:2681   */\ntag_23:\n    /* \"#utility.yul\":2555:2675   */\ntag_58:\n    /* \"#utility.yul\":2572:2575   */\n  dup2\n    /* \"#utility.yul\":2565:2570   */\n  dup2\n    /* \"#utility.yul\":2562:2576   */\n  lt\n    /* \"#utility.yul\":2555:2675   */\n  iszero\n  tag_60\n  jumpi\n    /* \"#utility.yul\":2626:2665   */\n  tag_61\n    /* \"#utility.yul\":2663:2664   */\n  0x00\n    /* \"#utility.yul\":2656:2661   */\n  dup3\n    /* \"#utility.yul\":2626:2665   */\n  tag_22\n  jump\t// in\ntag_61:\n    /* \"#utility.yul\":2599:2600   */\n  0x01\n    /* \"#utility.yul\":2592:2597   */\n  dup2\n    /* \"#utility.yul\":2588:2601   */\n  add\n    /* \"#utility.yul\":2579:2601   */\n  swap1\n  pop\n    /* \"#utility.yul\":2555:2675   */\n  jump(tag_58)\ntag_60:\n    /* \"#utility.yul\":2495:2681   */\n  pop\n  pop\n  jump\t// out\n    /* \"#utility.yul\":2687:3230   */\ntag_24:\n    /* \"#utility.yul\":2788:2790   */\n  0x1f\n    /* \"#utility.yul\":2783:2786   */\n  dup3\n    /* \"#utility.yul\":2780:2791   */\n  gt\n    /* \"#utility.yul\":2777:3223   */\n  iszero\n  tag_63\n  jumpi\n    /* \"#utility.yul\":2822:2860   */\n  tag_64\n    /* \"#utility.yul\":2854:2859   */\n  dup2\n    /* \"#utility.yul\":2822:2860   */\n  tag_12\n  jump\t// in\ntag_64:\n    /* \"#utility.yul\":2906:2935   */\n  tag_65\n    /* \"#utility.yul\":2924:2934   */\n  dup5\n    /* \"#utility.yul\":2906:2935   */\n  tag_13\n  jump\t// in\ntag_65:\n    /* \"#utility.yul\":2896:2904   */\n  dup2\n    /* \"#utility.yul\":2892:2936   */\n  add\n    /* \"#utility.yul\":3089:3091   */\n  0x20\n    /* \"#utility.yul\":3077:3087   */\n  dup6\n    /* \"#utility.yul\":3074:3092   */\n  lt\n    /* \"#utility.yul\":3071:3120   */\n  iszero\n  tag_66\n  jumpi\n    /* \"#utility.yul\":3110:3118   */\n  dup2\n    /* \"#utility.yul\":3095:3118   */\n  swap1\n  pop\n    /* \"#utility.yul\":3071:3120   */\ntag_66:\n    /* \"#utility.yul\":3133:3213   */\n  tag_67\n    /* \"#utility.yul\":3189:3211   */\n  tag_68\n    /* \"#utility.yul\":3207:3210   */\n  dup6\n    /* \"#utility.yul\":3189:3211   */\n  tag_13\n  jump\t// in\ntag_68:\n    /* \"#utility.yul\":3179:3187   */\n  dup4\n    /* \"#utility.yul\":3175:3212   */\n  add\n    /* \"#utility.yul\":3162:3173   */\n  dup3\n    /* \"#utility.yul\":3133:3213   */\n  tag_23\n  jump\t// in\ntag_67:\n    /* \"#utility.yul\":2792:3223   */\n  pop\n  pop\n    /* \"#utility.yul\":2777:3223   */\ntag_63:\n    /* \"#utility.yul\":2687:3230   */\n  pop\n  pop\n  pop\n  jump\t// out\n    /* \"#utility.yul\":3236:3353   */\ntag_25:\n    /* \"#utility.yul\":3290:3298   */\n  0x00\n    /* \"#utility.yul\":3340:3345   */\n  dup3\n    /* \"#utility.yul\":3334:3338   */\n  dup3\n    /* \"#utility.yul\":3330:3346   */\n  shr\n    /* \"#utility.yul\":3309:3346   */\n  swap1\n  pop\n    /* \"#utility.yul\":3236:3353   */\n  swap3\n  swap2\n  pop\n  pop\n  jump\t// out\n    /* \"#utility.yul\":3359:3528   */\ntag_26:\n    /* \"#utility.yul\":3403:3409   */\n  0x00\n    /* \"#utility.yul\":3436:3487   */\n  tag_71\n    /* \"#utility.yul\":3484:3485   */\n  0x00\n    /* \"#utility.yul\":3480:3486   */\n  not\n    /* \"#utility.yul\":3472:3477   */\n  dup5\n    /* \"#utility.yul\":3469:3470   */\n  0x08\n    /* \"#utility.yul\":3465:3478   */\n  mul\n    /* \"#utility.yul\":3436:3487   */\n  tag_25\n  jump\t// in\ntag_71:\n    /* \"#utility.yul\":3432:3488   */\n  not\n    /* \"#utility.yul\":3517:3521   */\n  dup1\n    /* \"#utility.yul\":3511:3515   */\n  dup4\n    /* \"#utility.yul\":3507:3522   */\n  and\n    /* \"#utility.yul\":3497:3522   */\n  swap2\n  pop\n    /* \"#utility.yul\":3410:3528   */\n  pop\n    /* \"#utility.yul\":3359:3528   */\n  swap3\n  swap2\n  pop\n  pop\n  jump\t// out\n    /* \"#utility.yul\":3533:3828   */\ntag_27:\n    /* \"#utility.yul\":3609:3613   */\n  0x00\n    /* \"#utility.yul\":3755:3784   */\n  tag_73\n    /* \"#utility.yul\":3780:3783   */\n  dup4\n    /* \"#utility.yul\":3774:3778   */\n  dup4\n    /* \"#utility.yul\":3755:3784   */\n  tag_26\n  jump\t// in\ntag_73:\n    /* \"#utility.yul\":3747:3784   */\n  swap2\n  pop\n    /* \"#utility.yul\":3817:3820   */\n  dup3\n    /* \"#utility.yul\":3814:3815   */\n  0x02\n    /* \"#utility.yul\":3810:3821   */\n  mul\n    /* \"#utility.yul\":3804:3808   */\n  dup3\n    /* \"#utility.yul\":3801:3822   */\n  or\n    /* \"#utility.yul\":3793:3822   */\n  swap1\n  pop\n    /* \"#utility.yul\":3533:3828   */\n  swap3\n  swap2\n  pop\n  pop\n  jump\t// out\n    /* \"#utility.yul\":3833:5228   */\ntag_2:\n    /* \"#utility.yul\":3950:3987   */\n  tag_75\n    /* \"#utility.yul\":3983:3986   */\n  dup3\n    /* \"#utility.yul\":3950:3987   */\n  tag_8\n  jump\t// in\ntag_75:\n    /* \"#utility.yul\":4052:4070   */\n  0xffffffffffffffff\n    /* \"#utility.yul\":4044:4050   */\n  dup2\n    /* \"#utility.yul\":4041:4071   */\n  gt\n    /* \"#utility.yul\":4038:4094   */\n  iszero\n  tag_76\n  jumpi\n    /* \"#utility.yul\":4074:4092   */\n  tag_77\n  tag_9\n  jump\t// in\ntag_77:\n    /* \"#utility.yul\":4038:4094   */\ntag_76:\n    /* \"#utility.yul\":4118:4156   */\n  tag_78\n    /* \"#utility.yul\":4150:4154   */\n  dup3\n    /* \"#utility.yul\":4144:4155   */\n  sload\n    /* \"#utility.yul\":4118:4156   */\n  tag_11\n  jump\t// in\ntag_78:\n    /* \"#utility.yul\":4203:4270   */\n  tag_79\n    /* \"#utility.yul\":4263:4269   */\n  dup3\n    /* \"#utility.yul\":4255:4261   */\n  dup3\n    /* \"#utility.yul\":4249:4253   */\n  dup6\n    /* \"#utility.yul\":4203:4270   */\n  tag_24\n  jump\t// in\ntag_79:\n    /* \"#utility.yul\":4297:4298   */\n  0x00\n    /* \"#utility.yul\":4321:4325   */\n  0x20\n    /* \"#utility.yul\":4308:4325   */\n  swap1\n  pop\n    /* \"#utility.yul\":4353:4355   */\n  0x1f\n    /* \"#utility.yul\":4345:4351   */\n  dup4\n    /* \"#utility.yul\":4342:4356   */\n  gt\n    /* \"#utility.yul\":4370:4371   */\n  0x01\n    /* \"#utility.yul\":4365:4983   */\n  dup2\n  eq\n  tag_81\n  jumpi\n    /* \"#utility.yul\":5027:5028   */\n  0x00\n    /* \"#utility.yul\":5044:5050   */\n  dup5\n    /* \"#utility.yul\":5041:5118   */\n  iszero\n  tag_82\n  jumpi\n    /* \"#utility.yul\":5093:5102   */\n  dup3\n    /* \"#utility.yul\":5088:5091   */\n  dup8\n    /* \"#utility.yul\":5084:5103   */\n  add\n    /* \"#utility.yul\":5078:5104   */\n  mload\n    /* \"#utility.yul\":5069:5104   */\n  swap1\n  pop\n    /* \"#utility.yul\":5041:5118   */\ntag_82:\n    /* \"#utility.yul\":5144:5211   */\n  tag_83\n    /* \"#utility.yul\":5204:5210   */\n  dup6\n    /* \"#utility.yul\":5197:5202   */\n  dup3\n    /* \"#utility.yul\":5144:5211   */\n  tag_27\n  jump\t// in\ntag_83:\n    /* \"#utility.yul\":5138:5142   */\n  dup7\n    /* \"#utility.yul\":5131:5212   */\n  sstore\n    /* \"#utility.yul\":5000:5222   */\n  pop\n    /* \"#utility.yul\":4335:5222   */\n  jump(tag_80)\n    /* \"#utility.yul\":4365:4983   */\ntag_81:\n    /* \"#utility.yul\":4417:4421   */\n  0x1f\n    /* \"#utility.yul\":4413:4422   */\n  not\n    /* \"#utility.yul\":4405:4411   */\n  dup5\n    /* \"#utility.yul\":4401:4423   */\n  and\n    /* \"#utility.yul\":4451:4488   */\n  tag_84\n    /* \"#utility.yul\":4483:4487   */\n  dup7\n    /* \"#utility.yul\":4451:4488   */\n  tag_12\n  jump\t// in\ntag_84:\n    /* \"#utility.yul\":4510:4511   */\n  0x00\n    /* \"#utility.yul\":4524:4732   */\ntag_85:\n    /* \"#utility.yul\":4538:4545   */\n  dup3\n    /* \"#utility.yul\":4535:4536   */\n  dup2\n    /* \"#utility.yul\":4532:4546   */\n  lt\n    /* \"#utility.yul\":4524:4732   */\n  iszero\n  tag_87\n  jumpi\n    /* \"#utility.yul\":4617:4626   */\n  dup5\n    /* \"#utility.yul\":4612:4615   */\n  dup10\n    /* \"#utility.yul\":4608:4627   */\n  add\n    /* \"#utility.yul\":4602:4628   */\n  mload\n    /* \"#utility.yul\":4594:4600   */\n  dup3\n    /* \"#utility.yul\":4587:4629   */\n  sstore\n    /* \"#utility.yul\":4668:4669   */\n  0x01\n    /* \"#utility.yul\":4660:4666   */\n  dup3\n    /* \"#utility.yul\":4656:4670   */\n  add\n    /* \"#utility.yul\":4646:4670   */\n  swap2\n  pop\n    /* \"#utility.yul\":4715:4717   */\n  0x20\n    /* \"#utility.yul\":4704:4713   */\n  dup6\n    /* \"#utility.yul\":4700:4718   */\n  add\n    /* \"#utility.yul\":4687:4718   */\n  swap5\n  pop\n    /* \"#utility.yul\":4561:4565   */\n  0x20\n    /* \"#utility.yul\":4558:4559   */\n  dup2\n    /* \"#utility.yul\":4554:4566   */\n  add\n    /* \"#utility.yul\":4549:4566   */\n  swap1\n  pop\n    /* \"#utility.yul\":4524:4732   */\n  jump(tag_85)\ntag_87:\n    /* \"#utility.yul\":4760:4766   */\n  dup7\n    /* \"#utility.yul\":4751:4758   */\n  dup4\n    /* \"#utility.yul\":4748:4767   */\n  lt\n    /* \"#utility.yul\":4745:4924   */\n  iszero\n  tag_88\n  jumpi\n    /* \"#utility.yul\":4818:4827   */\n  dup5\n    /* \"#utility.yul\":4813:4816   */\n  dup10\n    /* \"#utility.yul\":4809:4828   */\n  add\n    /* \"#utility.yul\":4803:4829   */\n  mload\n    /* \"#utility.yul\":4861:4909   */\n  tag_89\n    /* \"#utility.yul\":4903:4907   */\n  0x1f\n    /* \"#utility.yul\":4895:4901   */\n  dup10\n    /* \"#utility.yul\":4891:4908   */\n  and\n    /* \"#utility.yul\":4880:4889   */\n  dup3\n    /* \"#utility.yul\":4861:4909   */\n  tag_26\n  jump\t// in\ntag_89:\n    /* \"#utility.yul\":4853:4859   */\n  dup4\n    /* \"#utility.yul\":4846:4910   */\n  sstore\n    /* \"#utility.yul\":4768:4924   */\n  pop\n    /* \"#utility.yul\":4745:4924   */\ntag_88:\n    /* \"#utility.yul\":4970:4971   */\n  0x01\n    /* \"#utility.yul\":4966:4967   */\n  0x02\n    /* \"#utility.yul\":4958:4964   */\n  dup9\n    /* \"#utility.yul\":4954:4968   */\n  mul\n    /* \"#utility.yul\":4950:4972   */\n  add\n    /* \"#utility.yul\":4944:4948   */\n  dup9\n    /* \"#utility.yul\":4937:4973   */\n  sstore\n    /* \"#utility.yul\":4372:4983   */\n  pop\n  pop\n  pop\n    /* \"#utility.yul\":4335:5222   */\ntag_80:\n  pop\n    /* \"#utility.yul\":3925:5228   */\n  pop\n  pop\n  pop\n    /* \"#utility.yul\":3833:5228   */\n  pop\n  pop\n  jump\t// out\n    /* \"contracts/Dex.sol\":2157:4737  contract DXTK is IERC20 {... */\ntag_7:\n  dataSize(sub_0)\n  dup1\n  dataOffset(sub_0)\n  0x00\n  codecopy\n  0x00\n  return\nstop\n\nsub_0: assembly {\n        /* \"contracts/Dex.sol\":2157:4737  contract DXTK is IERC20 {... */\n      mstore(0x40, 0x80)\n      callvalue\n      dup1\n      iszero\n      tag_1\n      jumpi\n      0x00\n      dup1\n      revert\n    tag_1:\n      pop\n      jumpi(tag_2, lt(calldatasize, 0x04))\n      shr(0xe0, calldataload(0x00))\n      dup1\n      0x70a08231\n      gt\n      tag_18\n      jumpi\n      dup1\n      0xc4e41b22\n      gt\n      tag_19\n      jumpi\n      dup1\n      0xc4e41b22\n      eq\n      tag_14\n      jumpi\n      dup1\n      0xdd62ed3e\n      eq\n      tag_15\n      jumpi\n      dup1\n      0xe1f21c67\n      eq\n      tag_16\n      jumpi\n      dup1\n      0xf6ae79ac\n      eq\n      tag_17\n      jumpi\n      jump(tag_2)\n    tag_19:\n      dup1\n      0x70a08231\n      eq\n      tag_10\n      jumpi\n      dup1\n      0x95d89b41\n      eq\n      tag_11\n      jumpi\n      dup1\n      0x9dc29fac\n      eq\n      tag_12\n      jumpi\n      dup1\n      0xa9059cbb\n      eq\n      tag_13\n      jumpi\n      jump(tag_2)\n    tag_18:\n      dup1\n      0x2be7c04a\n      gt\n      tag_20\n      jumpi\n      dup1\n      0x2be7c04a\n      eq\n      tag_6\n      jumpi\n      dup1\n      0x313ce567\n      eq\n      tag_7\n      jumpi\n      dup1\n      0x38cc4831\n      eq\n      tag_8\n      jumpi\n      dup1\n      0x40c10f19\n      eq\n      tag_9\n      jumpi\n      jump(tag_2)\n    tag_20:\n      dup1\n      0x06fdde03\n      eq\n      tag_3\n      jumpi\n      dup1\n      0x18160ddd\n      eq\n      tag_4\n      jumpi\n      dup1\n      0x23b872dd\n      eq\n      tag_5\n      jumpi\n    tag_2:\n      0x00\n      dup1\n      revert\n        /* \"contracts/Dex.sol\":2311:2342  string public name = \"DX-token\" */\n    tag_3:\n      tag_21\n      tag_22\n      jump\t// in\n    tag_21:\n      mload(0x40)\n      tag_23\n      swap2\n      swap1\n      tag_24\n      jump\t// in\n    tag_23:\n      mload(0x40)\n      dup1\n      swap2\n      sub\n      swap1\n      return\n        /* \"contracts/Dex.sol\":2383:2436  uint256 public totalSupply = 100000000000000000000000 */\n    tag_4:\n      tag_25\n      tag_26\n      jump\t// in\n    tag_25:\n      mload(0x40)\n      tag_27\n      swap2\n      swap1\n      tag_28\n      jump\t// in\n    tag_27:\n      mload(0x40)\n      dup1\n      swap2\n      sub\n      swap1\n      return\n        /* \"contracts/Dex.sol\":3247:3685  function transferFrom(address sender, address recipient, uint256 amount)... */\n    tag_5:\n      tag_29\n      0x04\n      dup1\n      calldatasize\n      sub\n      dup2\n      add\n      swap1\n      tag_30\n      swap2\n      swap1\n      tag_31\n      jump\t// in\n    tag_30:\n      tag_32\n      jump\t// in\n    tag_29:\n      mload(0x40)\n      tag_33\n      swap2\n      swap1\n      tag_34\n      jump\t// in\n    tag_33:\n      mload(0x40)\n      dup1\n      swap2\n      sub\n      swap1\n      return\n        /* \"contracts/Dex.sol\":2238:2305  mapping(address => mapping(address => uint256)) public accAllowance */\n    tag_6:\n      tag_35\n      0x04\n      dup1\n      calldatasize\n      sub\n      dup2\n      add\n      swap1\n      tag_36\n      swap2\n      swap1\n      tag_37\n      jump\t// in\n    tag_36:\n      tag_38\n      jump\t// in\n    tag_35:\n      mload(0x40)\n      tag_39\n      swap2\n      swap1\n      tag_28\n      jump\t// in\n    tag_39:\n      mload(0x40)\n      dup1\n      swap2\n      sub\n      swap1\n      return\n        /* \"contracts/Dex.sol\":2457:2481  uint8 public decimals=18 */\n    tag_7:\n      tag_40\n      tag_41\n      jump\t// in\n    tag_40:\n      mload(0x40)\n      tag_42\n      swap2\n      swap1\n      tag_43\n      jump\t// in\n    tag_42:\n      mload(0x40)\n      dup1\n      swap2\n      sub\n      swap1\n      return\n        /* \"contracts/Dex.sol\":3888:3978  function getAddress() external view returns (address){... */\n    tag_8:\n      tag_44\n      tag_45\n      jump\t// in\n    tag_44:\n      mload(0x40)\n      tag_46\n      swap2\n      swap1\n      tag_47\n      jump\t// in\n    tag_46:\n      mload(0x40)\n      dup1\n      swap2\n      sub\n      swap1\n      return\n        /* \"contracts/Dex.sol\":4555:4640  function mint(address to, uint256 amount) external {... */\n    tag_9:\n      tag_48\n      0x04\n      dup1\n      calldatasize\n      sub\n      dup2\n      add\n      swap1\n      tag_49\n      swap2\n      swap1\n      tag_50\n      jump\t// in\n    tag_49:\n      tag_51\n      jump\t// in\n    tag_48:\n      stop\n        /* \"contracts/Dex.sol\":4082:4189  function balanceOf(address owner) external view returns (uint256) {... */\n    tag_10:\n      tag_52\n      0x04\n      dup1\n      calldatasize\n      sub\n      dup2\n      add\n      swap1\n      tag_53\n      swap2\n      swap1\n      tag_54\n      jump\t// in\n    tag_53:\n      tag_55\n      jump\t// in\n    tag_52:\n      mload(0x40)\n      tag_56\n      swap2\n      swap1\n      tag_28\n      jump\t// in\n    tag_56:\n      mload(0x40)\n      dup1\n      swap2\n      sub\n      swap1\n      return\n        /* \"contracts/Dex.sol\":2348:2377  string public symbol = \"DXTK\" */\n    tag_11:\n      tag_57\n      tag_58\n      jump\t// in\n    tag_57:\n      mload(0x40)\n      tag_59\n      swap2\n      swap1\n      tag_24\n      jump\t// in\n    tag_59:\n      mload(0x40)\n      dup1\n      swap2\n      sub\n      swap1\n      return\n        /* \"contracts/Dex.sol\":4646:4735  function burn(address from, uint256 amount) external {... */\n    tag_12:\n      tag_60\n      0x04\n      dup1\n      calldatasize\n      sub\n      dup2\n      add\n      swap1\n      tag_61\n      swap2\n      swap1\n      tag_50\n      jump\t// in\n    tag_61:\n      tag_62\n      jump\t// in\n    tag_60:\n      stop\n        /* \"contracts/Dex.sol\":2711:3024  function transfer(address recipient, uint256 amount)... */\n    tag_13:\n      tag_63\n      0x04\n      dup1\n      calldatasize\n      sub\n      dup2\n      add\n      swap1\n      tag_64\n      swap2\n      swap1\n      tag_50\n      jump\t// in\n    tag_64:\n      tag_65\n      jump\t// in\n    tag_63:\n      mload(0x40)\n      tag_66\n      swap2\n      swap1\n      tag_34\n      jump\t// in\n    tag_66:\n      mload(0x40)\n      dup1\n      swap2\n      sub\n      swap1\n      return\n        /* \"contracts/Dex.sol\":3984:4076  function getTotalSupply() external view returns (uint256){... */\n    tag_14:\n      tag_67\n      tag_68\n      jump\t// in\n    tag_67:\n      mload(0x40)\n      tag_69\n      swap2\n      swap1\n      tag_28\n      jump\t// in\n    tag_69:\n      mload(0x40)\n      dup1\n      swap2\n      sub\n      swap1\n      return\n        /* \"contracts/Dex.sol\":3748:3882  function allowance(address owner, address spender) external view returns (uint256){... */\n    tag_15:\n      tag_70\n      0x04\n      dup1\n      calldatasize\n      sub\n      dup2\n      add\n      swap1\n      tag_71\n      swap2\n      swap1\n      tag_37\n      jump\t// in\n    tag_71:\n      tag_72\n      jump\t// in\n    tag_70:\n      mload(0x40)\n      tag_73\n      swap2\n      swap1\n      tag_28\n      jump\t// in\n    tag_73:\n      mload(0x40)\n      dup1\n      swap2\n      sub\n      swap1\n      return\n        /* \"contracts/Dex.sol\":3030:3241  function approve(address owner, address spender, uint256 amount) external returns (bool) {... */\n    tag_16:\n      tag_74\n      0x04\n      dup1\n      calldatasize\n      sub\n      dup2\n      add\n      swap1\n      tag_75\n      swap2\n      swap1\n      tag_31\n      jump\t// in\n    tag_75:\n      tag_76\n      jump\t// in\n    tag_74:\n      mload(0x40)\n      tag_77\n      swap2\n      swap1\n      tag_34\n      jump\t// in\n    tag_77:\n      mload(0x40)\n      dup1\n      swap2\n      sub\n      swap1\n      return\n        /* \"contracts/Dex.sol\":2187:2232  mapping(address => uint256) public accBalance */\n    tag_17:\n      tag_78\n      0x04\n      dup1\n      calldatasize\n      sub\n      dup2\n      add\n      swap1\n      tag_79\n      swap2\n      swap1\n      tag_54\n      jump\t// in\n    tag_79:\n      tag_80\n      jump\t// in\n    tag_78:\n      mload(0x40)\n      tag_81\n      swap2\n      swap1\n      tag_28\n      jump\t// in\n    tag_81:\n      mload(0x40)\n      dup1\n      swap2\n      sub\n      swap1\n      return\n        /* \"contracts/Dex.sol\":2311:2342  string public name = \"DX-token\" */\n    tag_22:\n      0x02\n      dup1\n      sload\n      tag_82\n      swap1\n      tag_83\n      jump\t// in\n    tag_82:\n      dup1\n      0x1f\n      add\n      0x20\n      dup1\n      swap2\n      div\n      mul\n      0x20\n      add\n      mload(0x40)\n      swap1\n      dup2\n      add\n      0x40\n      mstore\n      dup1\n      swap3\n      swap2\n      swap1\n      dup2\n      dup2\n      mstore\n      0x20\n      add\n      dup3\n      dup1\n      sload\n      tag_84\n      swap1\n      tag_83\n      jump\t// in\n    tag_84:\n      dup1\n      iszero\n      tag_85\n      jumpi\n      dup1\n      0x1f\n      lt\n      tag_86\n      jumpi\n      0x0100\n      dup1\n      dup4\n      sload\n      div\n      mul\n      dup4\n      mstore\n      swap2\n      0x20\n      add\n      swap2\n      jump(tag_85)\n    tag_86:\n      dup3\n      add\n      swap2\n      swap1\n      0x00\n      mstore\n      keccak256(0x00, 0x20)\n      swap1\n    tag_87:\n      dup2\n      sload\n      dup2\n      mstore\n      swap1\n      0x01\n      add\n      swap1\n      0x20\n      add\n      dup1\n      dup4\n      gt\n      tag_87\n      jumpi\n      dup3\n      swap1\n      sub\n      0x1f\n      and\n      dup3\n      add\n      swap2\n    tag_85:\n      pop\n      pop\n      pop\n      pop\n      pop\n      dup2\n      jump\t// out\n        /* \"contracts/Dex.sol\":2383:2436  uint256 public totalSupply = 100000000000000000000000 */\n    tag_26:\n      sload(0x04)\n      dup2\n      jump\t// out\n        /* \"contracts/Dex.sol\":3247:3685  function transferFrom(address sender, address recipient, uint256 amount)... */\n    tag_32:\n        /* \"contracts/Dex.sol\":3354:3358  bool */\n      0x00\n        /* \"contracts/Dex.sol\":3395:3405  accBalance */\n      dup1\n        /* \"contracts/Dex.sol\":3395:3413  accBalance[sender] */\n      0x00\n        /* \"contracts/Dex.sol\":3406:3412  sender */\n      dup6\n        /* \"contracts/Dex.sol\":3395:3413  accBalance[sender] */\n      0xffffffffffffffffffffffffffffffffffffffff\n      and\n      0xffffffffffffffffffffffffffffffffffffffff\n      and\n      dup2\n      mstore\n      0x20\n      add\n      swap1\n      dup2\n      mstore\n      0x20\n      add\n      0x00\n      keccak256\n      sload\n        /* \"contracts/Dex.sol\":3385:3391  amount */\n      dup3\n        /* \"contracts/Dex.sol\":3385:3413  amount <= accBalance[sender] */\n      gt\n      iszero\n        /* \"contracts/Dex.sol\":3377:3414  require(amount <= accBalance[sender]) */\n      tag_89\n      jumpi\n      0x00\n      dup1\n      revert\n    tag_89:\n        /* \"contracts/Dex.sol\":3442:3454  accAllowance */\n      0x01\n        /* \"contracts/Dex.sol\":3442:3462  accAllowance[sender] */\n      0x00\n        /* \"contracts/Dex.sol\":3455:3461  sender */\n      dup6\n        /* \"contracts/Dex.sol\":3442:3462  accAllowance[sender] */\n      0xffffffffffffffffffffffffffffffffffffffff\n      and\n      0xffffffffffffffffffffffffffffffffffffffff\n      and\n      dup2\n      mstore\n      0x20\n      add\n      swap1\n      dup2\n      mstore\n      0x20\n      add\n      0x00\n      keccak256\n        /* \"contracts/Dex.sol\":3442:3474  accAllowance[sender][msg.sender] */\n      0x00\n        /* \"contracts/Dex.sol\":3463:3473  msg.sender */\n      caller\n        /* \"contracts/Dex.sol\":3442:3474  accAllowance[sender][msg.sender] */\n      0xffffffffffffffffffffffffffffffffffffffff\n      and\n      0xffffffffffffffffffffffffffffffffffffffff\n      and\n      dup2\n      mstore\n      0x20\n      add\n      swap1\n      dup2\n      mstore\n      0x20\n      add\n      0x00\n      keccak256\n      sload\n        /* \"contracts/Dex.sol\":3432:3438  amount */\n      dup3\n        /* \"contracts/Dex.sol\":3432:3474  amount <= accAllowance[sender][msg.sender] */\n      gt\n      iszero\n        /* \"contracts/Dex.sol\":3424:3475  require(amount <= accAllowance[sender][msg.sender]) */\n      tag_90\n      jumpi\n      0x00\n      dup1\n      revert\n    tag_90:\n        /* \"contracts/Dex.sol\":3522:3528  amount */\n      dup2\n        /* \"contracts/Dex.sol\":3486:3498  accAllowance */\n      0x01\n        /* \"contracts/Dex.sol\":3486:3506  accAllowance[sender] */\n      0x00\n        /* \"contracts/Dex.sol\":3499:3505  sender */\n      dup7\n        /* \"contracts/Dex.sol\":3486:3506  accAllowance[sender] */\n      0xffffffffffffffffffffffffffffffffffffffff\n      and\n      0xffffffffffffffffffffffffffffffffffffffff\n      and\n      dup2\n      mstore\n      0x20\n      add\n      swap1\n      dup2\n      mstore\n      0x20\n      add\n      0x00\n      keccak256\n        /* \"contracts/Dex.sol\":3486:3518  accAllowance[sender][msg.sender] */\n      0x00\n        /* \"contracts/Dex.sol\":3507:3517  msg.sender */\n      caller\n        /* \"contracts/Dex.sol\":3486:3518  accAllowance[sender][msg.sender] */\n      0xffffffffffffffffffffffffffffffffffffffff\n      and\n      0xffffffffffffffffffffffffffffffffffffffff\n      and\n      dup2\n      mstore\n      0x20\n      add\n      swap1\n      dup2\n      mstore\n      0x20\n      add\n      0x00\n      keccak256\n      0x00\n        /* \"contracts/Dex.sol\":3486:3528  accAllowance[sender][msg.sender] -= amount */\n      dup3\n      dup3\n      sload\n      tag_91\n      swap2\n      swap1\n      tag_92\n      jump\t// in\n    tag_91:\n      swap3\n      pop\n      pop\n      dup2\n      swap1\n      sstore\n      pop\n        /* \"contracts/Dex.sol\":3560:3566  amount */\n      dup2\n        /* \"contracts/Dex.sol\":3538:3548  accBalance */\n      0x00\n        /* \"contracts/Dex.sol\":3538:3556  accBalance[sender] */\n      dup1\n        /* \"contracts/Dex.sol\":3549:3555  sender */\n      dup7\n        /* \"contracts/Dex.sol\":3538:3556  accBalance[sender] */\n      0xffffffffffffffffffffffffffffffffffffffff\n      and\n      0xffffffffffffffffffffffffffffffffffffffff\n      and\n      dup2\n      mstore\n      0x20\n      add\n      swap1\n      dup2\n      mstore\n      0x20\n      add\n      0x00\n      keccak256\n      0x00\n        /* \"contracts/Dex.sol\":3538:3566  accBalance[sender] -= amount */\n      dup3\n      dup3\n      sload\n      tag_93\n      swap2\n      swap1\n      tag_92\n      jump\t// in\n    tag_93:\n      swap3\n      pop\n      pop\n      dup2\n      swap1\n      sstore\n      pop\n        /* \"contracts/Dex.sol\":3601:3607  amount */\n      dup2\n        /* \"contracts/Dex.sol\":3576:3586  accBalance */\n      0x00\n        /* \"contracts/Dex.sol\":3576:3597  accBalance[recipient] */\n      dup1\n        /* \"contracts/Dex.sol\":3587:3596  recipient */\n      dup6\n        /* \"contracts/Dex.sol\":3576:3597  accBalance[recipient] */\n      0xffffffffffffffffffffffffffffffffffffffff\n      and\n      0xffffffffffffffffffffffffffffffffffffffff\n      and\n      dup2\n      mstore\n      0x20\n      add\n      swap1\n      dup2\n      mstore\n      0x20\n      add\n      0x00\n      keccak256\n      0x00\n        /* \"contracts/Dex.sol\":3576:3607  accBalance[recipient] += amount */\n      dup3\n      dup3\n      sload\n      tag_94\n      swap2\n      swap1\n      tag_95\n      jump\t// in\n    tag_94:\n      swap3\n      pop\n      pop\n      dup2\n      swap1\n      sstore\n      pop\n        /* \"contracts/Dex.sol\":3639:3648  recipient */\n      dup3\n        /* \"contracts/Dex.sol\":3622:3657  Transfer(sender, recipient, amount) */\n      0xffffffffffffffffffffffffffffffffffffffff\n      and\n        /* \"contracts/Dex.sol\":3631:3637  sender */\n      dup5\n        /* \"contracts/Dex.sol\":3622:3657  Transfer(sender, recipient, amount) */\n      0xffffffffffffffffffffffffffffffffffffffff\n      and\n      0xddf252ad1be2c89b69c2b068fc378daa952ba7f163c4a11628f55a4df523b3ef\n        /* \"contracts/Dex.sol\":3650:3656  amount */\n      dup5\n        /* \"contracts/Dex.sol\":3622:3657  Transfer(sender, recipient, amount) */\n      mload(0x40)\n      tag_96\n      swap2\n      swap1\n      tag_28\n      jump\t// in\n    tag_96:\n      mload(0x40)\n      dup1\n      swap2\n      sub\n      swap1\n      log3\n        /* \"contracts/Dex.sol\":3674:3678  true */\n      0x01\n        /* \"contracts/Dex.sol\":3667:3678  return true */\n      swap1\n      pop\n        /* \"contracts/Dex.sol\":3247:3685  function transferFrom(address sender, address recipient, uint256 amount)... */\n      swap4\n      swap3\n      pop\n      pop\n      pop\n      jump\t// out\n        /* \"contracts/Dex.sol\":2238:2305  mapping(address => mapping(address => uint256)) public accAllowance */\n    tag_38:\n      mstore(0x20, 0x01)\n      dup2\n      0x00\n      mstore\n      mstore(0x20, keccak256(0x00, 0x40))\n      dup1\n      0x00\n      mstore\n      keccak256(0x00, 0x40)\n      0x00\n      swap2\n      pop\n      swap2\n      pop\n      pop\n      sload\n      dup2\n      jump\t// out\n        /* \"contracts/Dex.sol\":2457:2481  uint8 public decimals=18 */\n    tag_41:\n      0x05\n      0x00\n      swap1\n      sload\n      swap1\n      0x0100\n      exp\n      swap1\n      div\n      0xff\n      and\n      dup2\n      jump\t// out\n        /* \"contracts/Dex.sol\":3888:3978  function getAddress() external view returns (address){... */\n    tag_45:\n        /* \"contracts/Dex.sol\":3933:3940  address */\n      0x00\n        /* \"contracts/Dex.sol\":3966:3970  this */\n      address\n        /* \"contracts/Dex.sol\":3951:3971  return address(this) */\n      swap1\n      pop\n        /* \"contracts/Dex.sol\":3888:3978  function getAddress() external view returns (address){... */\n      swap1\n      jump\t// out\n        /* \"contracts/Dex.sol\":4555:4640  function mint(address to, uint256 amount) external {... */\n    tag_51:\n        /* \"contracts/Dex.sol\":4616:4633  _mint(to, amount) */\n      tag_99\n        /* \"contracts/Dex.sol\":4622:4624  to */\n      dup3\n        /* \"contracts/Dex.sol\":4626:4632  amount */\n      dup3\n        /* \"contracts/Dex.sol\":4616:4621  _mint */\n      tag_100\n        /* \"contracts/Dex.sol\":4616:4633  _mint(to, amount) */\n      jump\t// in\n    tag_99:\n        /* \"contracts/Dex.sol\":4555:4640  function mint(address to, uint256 amount) external {... */\n      pop\n      pop\n      jump\t// out\n        /* \"contracts/Dex.sol\":4082:4189  function balanceOf(address owner) external view returns (uint256) {... */\n    tag_55:\n        /* \"contracts/Dex.sol\":4139:4146  uint256 */\n      0x00\n        /* \"contracts/Dex.sol\":4165:4175  accBalance */\n      dup1\n        /* \"contracts/Dex.sol\":4165:4182  accBalance[owner] */\n      0x00\n        /* \"contracts/Dex.sol\":4176:4181  owner */\n      dup4\n        /* \"contracts/Dex.sol\":4165:4182  accBalance[owner] */\n      0xffffffffffffffffffffffffffffffffffffffff\n      and\n      0xffffffffffffffffffffffffffffffffffffffff\n      and\n      dup2\n      mstore\n      0x20\n      add\n      swap1\n      dup2\n      mstore\n      0x20\n      add\n      0x00\n      keccak256\n      sload\n        /* \"contracts/Dex.sol\":4158:4182  return accBalance[owner] */\n      swap1\n      pop\n        /* \"contracts/Dex.sol\":4082:4189  function balanceOf(address owner) external view returns (uint256) {... */\n      swap2\n      swap1\n      pop\n      jump\t// out\n        /* \"contracts/Dex.sol\":2348:2377  string public symbol = \"DXTK\" */\n    tag_58:\n      0x03\n      dup1\n      sload\n      tag_102\n      swap1\n      tag_83\n      jump\t// in\n    tag_102:\n      dup1\n      0x1f\n      add\n      0x20\n      dup1\n      swap2\n      div\n      mul\n      0x20\n      add\n      mload(0x40)\n      swap1\n      dup2\n      add\n      0x40\n      mstore\n      dup1\n      swap3\n      swap2\n      swap1\n      dup2\n      dup2\n      mstore\n      0x20\n      add\n      dup3\n      dup1\n      sload\n      tag_103\n      swap1\n      tag_83\n      jump\t// in\n    tag_103:\n      dup1\n      iszero\n      tag_104\n      jumpi\n      dup1\n      0x1f\n      lt\n      tag_105\n      jumpi\n      0x0100\n      dup1\n      dup4\n      sload\n      div\n      mul\n      dup4\n      mstore\n      swap2\n      0x20\n      add\n      swap2\n      jump(tag_104)\n    tag_105:\n      dup3\n      add\n      swap2\n      swap1\n      0x00\n      mstore\n      keccak256(0x00, 0x20)\n      swap1\n    tag_106:\n      dup2\n      sload\n      dup2\n      mstore\n      swap1\n      0x01\n      add\n      swap1\n      0x20\n      add\n      dup1\n      dup4\n      gt\n      tag_106\n      jumpi\n      dup3\n      swap1\n      sub\n      0x1f\n      and\n      dup3\n      add\n      swap2\n    tag_104:\n      pop\n      pop\n      pop\n      pop\n      pop\n      dup2\n      jump\t// out\n        /* \"contracts/Dex.sol\":4646:4735  function burn(address from, uint256 amount) external {... */\n    tag_62:\n        /* \"contracts/Dex.sol\":4709:4728  _burn(from, amount) */\n      tag_108\n        /* \"contracts/Dex.sol\":4715:4719  from */\n      dup3\n        /* \"contracts/Dex.sol\":4721:4727  amount */\n      dup3\n        /* \"contracts/Dex.sol\":4709:4714  _burn */\n      tag_109\n        /* \"contracts/Dex.sol\":4709:4728  _burn(from, amount) */\n      jump\t// in\n    tag_108:\n        /* \"contracts/Dex.sol\":4646:4735  function burn(address from, uint256 amount) external {... */\n      pop\n      pop\n      jump\t// out\n        /* \"contracts/Dex.sol\":2711:3024  function transfer(address recipient, uint256 amount)... */\n    tag_65:\n        /* \"contracts/Dex.sol\":2798:2802  bool */\n      0x00\n        /* \"contracts/Dex.sol\":2836:2846  accBalance */\n      dup1\n        /* \"contracts/Dex.sol\":2836:2858  accBalance[msg.sender] */\n      0x00\n        /* \"contracts/Dex.sol\":2847:2857  msg.sender */\n      caller\n        /* \"contracts/Dex.sol\":2836:2858  accBalance[msg.sender] */\n      0xffffffffffffffffffffffffffffffffffffffff\n      and\n      0xffffffffffffffffffffffffffffffffffffffff\n      and\n      dup2\n      mstore\n      0x20\n      add\n      swap1\n      dup2\n      mstore\n      0x20\n      add\n      0x00\n      keccak256\n      sload\n        /* \"contracts/Dex.sol\":2826:2832  amount */\n      dup3\n        /* \"contracts/Dex.sol\":2826:2858  amount <= accBalance[msg.sender] */\n      gt\n      iszero\n        /* \"contracts/Dex.sol\":2818:2859  require(amount <= accBalance[msg.sender]) */\n      tag_111\n      jumpi\n      0x00\n      dup1\n      revert\n    tag_111:\n        /* \"contracts/Dex.sol\":2895:2901  amount */\n      dup2\n        /* \"contracts/Dex.sol\":2869:2879  accBalance */\n      0x00\n        /* \"contracts/Dex.sol\":2869:2891  accBalance[msg.sender] */\n      dup1\n        /* \"contracts/Dex.sol\":2880:2890  msg.sender */\n      caller\n        /* \"contracts/Dex.sol\":2869:2891  accBalance[msg.sender] */\n      0xffffffffffffffffffffffffffffffffffffffff\n      and\n      0xffffffffffffffffffffffffffffffffffffffff\n      and\n      dup2\n      mstore\n      0x20\n      add\n      swap1\n      dup2\n      mstore\n      0x20\n      add\n      0x00\n      keccak256\n      0x00\n        /* \"contracts/Dex.sol\":2869:2901  accBalance[msg.sender] -= amount */\n      dup3\n      dup3\n      sload\n      tag_112\n      swap2\n      swap1\n      tag_92\n      jump\t// in\n    tag_112:\n      swap3\n      pop\n      pop\n      dup2\n      swap1\n      sstore\n      pop\n        /* \"contracts/Dex.sol\":2936:2942  amount */\n      dup2\n        /* \"contracts/Dex.sol\":2911:2921  accBalance */\n      0x00\n        /* \"contracts/Dex.sol\":2911:2932  accBalance[recipient] */\n      dup1\n        /* \"contracts/Dex.sol\":2922:2931  recipient */\n      dup6\n        /* \"contracts/Dex.sol\":2911:2932  accBalance[recipient] */\n      0xffffffffffffffffffffffffffffffffffffffff\n      and\n      0xffffffffffffffffffffffffffffffffffffffff\n      and\n      dup2\n      mstore\n      0x20\n      add\n      swap1\n      dup2\n      mstore\n      0x20\n      add\n      0x00\n      keccak256\n      0x00\n        /* \"contracts/Dex.sol\":2911:2942  accBalance[recipient] += amount */\n      dup3\n      dup3\n      sload\n      tag_113\n      swap2\n      swap1\n      tag_95\n      jump\t// in\n    tag_113:\n      swap3\n      pop\n      pop\n      dup2\n      swap1\n      sstore\n      pop\n        /* \"contracts/Dex.sol\":2978:2987  recipient */\n      dup3\n        /* \"contracts/Dex.sol\":2957:2996  Transfer(msg.sender, recipient, amount) */\n      0xffffffffffffffffffffffffffffffffffffffff\n      and\n        /* \"contracts/Dex.sol\":2966:2976  msg.sender */\n      caller\n        /* \"contracts/Dex.sol\":2957:2996  Transfer(msg.sender, recipient, amount) */\n      0xffffffffffffffffffffffffffffffffffffffff\n      and\n      0xddf252ad1be2c89b69c2b068fc378daa952ba7f163c4a11628f55a4df523b3ef\n        /* \"contracts/Dex.sol\":2989:2995  amount */\n      dup5\n        /* \"contracts/Dex.sol\":2957:2996  Transfer(msg.sender, recipient, amount) */\n      mload(0x40)\n      tag_114\n      swap2\n      swap1\n      tag_28\n      jump\t// in\n    tag_114:\n      mload(0x40)\n      dup1\n      swap2\n      sub\n      swap1\n      log3\n        /* \"contracts/Dex.sol\":3013:3017  true */\n      0x01\n        /* \"contracts/Dex.sol\":3006:3017  return true */\n      swap1\n      pop\n        /* \"contracts/Dex.sol\":2711:3024  function transfer(address recipient, uint256 amount)... */\n      swap3\n      swap2\n      pop\n      pop\n      jump\t// out\n        /* \"contracts/Dex.sol\":3984:4076  function getTotalSupply() external view returns (uint256){... */\n    tag_68:\n        /* \"contracts/Dex.sol\":4033:4040  uint256 */\n      0x00\n        /* \"contracts/Dex.sol\":4058:4069  totalSupply */\n      sload(0x04)\n        /* \"contracts/Dex.sol\":4051:4069  return totalSupply */\n      swap1\n      pop\n        /* \"contracts/Dex.sol\":3984:4076  function getTotalSupply() external view returns (uint256){... */\n      swap1\n      jump\t// out\n        /* \"contracts/Dex.sol\":3748:3882  function allowance(address owner, address spender) external view returns (uint256){... */\n    tag_72:\n        /* \"contracts/Dex.sol\":3822:3829  uint256 */\n      0x00\n        /* \"contracts/Dex.sol\":3847:3859  accAllowance */\n      0x01\n        /* \"contracts/Dex.sol\":3847:3866  accAllowance[owner] */\n      0x00\n        /* \"contracts/Dex.sol\":3860:3865  owner */\n      dup5\n        /* \"contracts/Dex.sol\":3847:3866  accAllowance[owner] */\n      0xffffffffffffffffffffffffffffffffffffffff\n      and\n      0xffffffffffffffffffffffffffffffffffffffff\n      and\n      dup2\n      mstore\n      0x20\n      add\n      swap1\n      dup2\n      mstore\n      0x20\n      add\n      0x00\n      keccak256\n        /* \"contracts/Dex.sol\":3847:3875  accAllowance[owner][spender] */\n      0x00\n        /* \"contracts/Dex.sol\":3867:3874  spender */\n      dup4\n        /* \"contracts/Dex.sol\":3847:3875  accAllowance[owner][spender] */\n      0xffffffffffffffffffffffffffffffffffffffff\n      and\n      0xffffffffffffffffffffffffffffffffffffffff\n      and\n      dup2\n      mstore\n      0x20\n      add\n      swap1\n      dup2\n      mstore\n      0x20\n      add\n      0x00\n      keccak256\n      sload\n        /* \"contracts/Dex.sol\":3840:3875  return accAllowance[owner][spender] */\n      swap1\n      pop\n        /* \"contracts/Dex.sol\":3748:3882  function allowance(address owner, address spender) external view returns (uint256){... */\n      swap3\n      swap2\n      pop\n      pop\n      jump\t// out\n        /* \"contracts/Dex.sol\":3030:3241  function approve(address owner, address spender, uint256 amount) external returns (bool) {... */\n    tag_76:\n        /* \"contracts/Dex.sol\":3113:3117  bool */\n      0x00\n        /* \"contracts/Dex.sol\":3160:3166  amount */\n      dup2\n        /* \"contracts/Dex.sol\":3129:3141  accAllowance */\n      0x01\n        /* \"contracts/Dex.sol\":3129:3148  accAllowance[owner] */\n      0x00\n        /* \"contracts/Dex.sol\":3142:3147  owner */\n      dup7\n        /* \"contracts/Dex.sol\":3129:3148  accAllowance[owner] */\n      0xffffffffffffffffffffffffffffffffffffffff\n      and\n      0xffffffffffffffffffffffffffffffffffffffff\n      and\n      dup2\n      mstore\n      0x20\n      add\n      swap1\n      dup2\n      mstore\n      0x20\n      add\n      0x00\n      keccak256\n        /* \"contracts/Dex.sol\":3129:3157  accAllowance[owner][spender] */\n      0x00\n        /* \"contracts/Dex.sol\":3149:3156  spender */\n      dup6\n        /* \"contracts/Dex.sol\":3129:3157  accAllowance[owner][spender] */\n      0xffffffffffffffffffffffffffffffffffffffff\n      and\n      0xffffffffffffffffffffffffffffffffffffffff\n      and\n      dup2\n      mstore\n      0x20\n      add\n      swap1\n      dup2\n      mstore\n      0x20\n      add\n      0x00\n      keccak256\n        /* \"contracts/Dex.sol\":3129:3166  accAllowance[owner][spender] = amount */\n      dup2\n      swap1\n      sstore\n      pop\n        /* \"contracts/Dex.sol\":3197:3204  spender */\n      dup3\n        /* \"contracts/Dex.sol\":3181:3213  Approval(owner, spender, amount) */\n      0xffffffffffffffffffffffffffffffffffffffff\n      and\n        /* \"contracts/Dex.sol\":3190:3195  owner */\n      dup5\n        /* \"contracts/Dex.sol\":3181:3213  Approval(owner, spender, amount) */\n      0xffffffffffffffffffffffffffffffffffffffff\n      and\n      0x8c5be1e5ebec7d5bd14f71427d1e84f3dd0314c0f7b2291e5b200ac8c7c3b925\n        /* \"contracts/Dex.sol\":3206:3212  amount */\n      dup5\n        /* \"contracts/Dex.sol\":3181:3213  Approval(owner, spender, amount) */\n      mload(0x40)\n      tag_118\n      swap2\n      swap1\n      tag_28\n      jump\t// in\n    tag_118:\n      mload(0x40)\n      dup1\n      swap2\n      sub\n      swap1\n      log3\n        /* \"contracts/Dex.sol\":3230:3234  true */\n      0x01\n        /* \"contracts/Dex.sol\":3223:3234  return true */\n      swap1\n      pop\n        /* \"contracts/Dex.sol\":3030:3241  function approve(address owner, address spender, uint256 amount) external returns (bool) {... */\n      swap4\n      swap3\n      pop\n      pop\n      pop\n      jump\t// out\n        /* \"contracts/Dex.sol\":2187:2232  mapping(address => uint256) public accBalance */\n    tag_80:\n      mstore(0x20, 0x00)\n      dup1\n      0x00\n      mstore\n      keccak256(0x00, 0x40)\n      0x00\n      swap2\n      pop\n      swap1\n      pop\n      sload\n      dup2\n      jump\t// out\n        /* \"contracts/Dex.sol\":4195:4366  function _mint(address to, uint256 amount) internal {... */\n    tag_100:\n        /* \"contracts/Dex.sol\":4275:4281  amount */\n      dup1\n        /* \"contracts/Dex.sol\":4257:4267  accBalance */\n      0x00\n        /* \"contracts/Dex.sol\":4257:4271  accBalance[to] */\n      dup1\n        /* \"contracts/Dex.sol\":4268:4270  to */\n      dup5\n        /* \"contracts/Dex.sol\":4257:4271  accBalance[to] */\n      0xffffffffffffffffffffffffffffffffffffffff\n      and\n      0xffffffffffffffffffffffffffffffffffffffff\n      and\n      dup2\n      mstore\n      0x20\n      add\n      swap1\n      dup2\n      mstore\n      0x20\n      add\n      0x00\n      keccak256\n      0x00\n        /* \"contracts/Dex.sol\":4257:4281  accBalance[to] += amount */\n      dup3\n      dup3\n      sload\n      tag_120\n      swap2\n      swap1\n      tag_95\n      jump\t// in\n    tag_120:\n      swap3\n      pop\n      pop\n      dup2\n      swap1\n      sstore\n      pop\n        /* \"contracts/Dex.sol\":4306:4312  amount */\n      dup1\n        /* \"contracts/Dex.sol\":4291:4302  totalSupply */\n      0x04\n      0x00\n        /* \"contracts/Dex.sol\":4291:4312  totalSupply += amount */\n      dup3\n      dup3\n      sload\n      tag_121\n      swap2\n      swap1\n      tag_95\n      jump\t// in\n    tag_121:\n      swap3\n      pop\n      pop\n      dup2\n      swap1\n      sstore\n      pop\n        /* \"contracts/Dex.sol\":4348:4350  to */\n      dup2\n        /* \"contracts/Dex.sol\":4327:4359  Transfer(address(0), to, amount) */\n      0xffffffffffffffffffffffffffffffffffffffff\n      and\n        /* \"contracts/Dex.sol\":4344:4345  0 */\n      0x00\n        /* \"contracts/Dex.sol\":4327:4359  Transfer(address(0), to, amount) */\n      0xffffffffffffffffffffffffffffffffffffffff\n      and\n      0xddf252ad1be2c89b69c2b068fc378daa952ba7f163c4a11628f55a4df523b3ef\n        /* \"contracts/Dex.sol\":4352:4358  amount */\n      dup4\n        /* \"contracts/Dex.sol\":4327:4359  Transfer(address(0), to, amount) */\n      mload(0x40)\n      tag_122\n      swap2\n      swap1\n      tag_28\n      jump\t// in\n    tag_122:\n      mload(0x40)\n      dup1\n      swap2\n      sub\n      swap1\n      log3\n        /* \"contracts/Dex.sol\":4195:4366  function _mint(address to, uint256 amount) internal {... */\n      pop\n      pop\n      jump\t// out\n        /* \"contracts/Dex.sol\":4372:4549  function _burn(address from, uint256 amount) internal {... */\n    tag_109:\n        /* \"contracts/Dex.sol\":4456:4462  amount */\n      dup1\n        /* \"contracts/Dex.sol\":4436:4446  accBalance */\n      0x00\n        /* \"contracts/Dex.sol\":4436:4452  accBalance[from] */\n      dup1\n        /* \"contracts/Dex.sol\":4447:4451  from */\n      dup5\n        /* \"contracts/Dex.sol\":4436:4452  accBalance[from] */\n      0xffffffffffffffffffffffffffffffffffffffff\n      and\n      0xffffffffffffffffffffffffffffffffffffffff\n      and\n      dup2\n      mstore\n      0x20\n      add\n      swap1\n      dup2\n      mstore\n      0x20\n      add\n      0x00\n      keccak256\n      0x00\n        /* \"contracts/Dex.sol\":4436:4462  accBalance[from] -= amount */\n      dup3\n      dup3\n      sload\n      tag_124\n      swap2\n      swap1\n      tag_92\n      jump\t// in\n    tag_124:\n      swap3\n      pop\n      pop\n      dup2\n      swap1\n      sstore\n      pop\n        /* \"contracts/Dex.sol\":4487:4493  amount */\n      dup1\n        /* \"contracts/Dex.sol\":4472:4483  totalSupply */\n      0x04\n      0x00\n        /* \"contracts/Dex.sol\":4472:4493  totalSupply -= amount */\n      dup3\n      dup3\n      sload\n      tag_125\n      swap2\n      swap1\n      tag_92\n      jump\t// in\n    tag_125:\n      swap3\n      pop\n      pop\n      dup2\n      swap1\n      sstore\n      pop\n        /* \"contracts/Dex.sol\":4531:4532  0 */\n      0x00\n        /* \"contracts/Dex.sol\":4508:4542  Transfer(from, address(0), amount) */\n      0xffffffffffffffffffffffffffffffffffffffff\n      and\n        /* \"contracts/Dex.sol\":4517:4521  from */\n      dup3\n        /* \"contracts/Dex.sol\":4508:4542  Transfer(from, address(0), amount) */\n      0xffffffffffffffffffffffffffffffffffffffff\n      and\n      0xddf252ad1be2c89b69c2b068fc378daa952ba7f163c4a11628f55a4df523b3ef\n        /* \"contracts/Dex.sol\":4535:4541  amount */\n      dup4\n        /* \"contracts/Dex.sol\":4508:4542  Transfer(from, address(0), amount) */\n      mload(0x40)\n      tag_126\n      swap2\n      swap1\n      tag_28\n      jump\t// in\n    tag_126:\n      mload(0x40)\n      dup1\n      swap2\n      sub\n      swap1\n      log3\n        /* \"contracts/Dex.sol\":4372:4549  function _burn(address from, uint256 amount) internal {... */\n      pop\n      pop\n      jump\t// out\n        /* \"#utility.yul\":7:106   */\n    tag_127:\n        /* \"#utility.yul\":59:65   */\n      0x00\n        /* \"#utility.yul\":93:98   */\n      dup2\n        /* \"#utility.yul\":87:99   */\n      mload\n        /* \"#utility.yul\":77:99   */\n      swap1\n      pop\n        /* \"#utility.yul\":7:106   */\n      swap2\n      swap1\n      pop\n      jump\t// out\n        /* \"#utility.yul\":112:281   */\n    tag_128:\n        /* \"#utility.yul\":196:207   */\n      0x00\n        /* \"#utility.yul\":230:236   */\n      dup3\n        /* \"#utility.yul\":225:228   */\n      dup3\n        /* \"#utility.yul\":218:237   */\n      mstore\n        /* \"#utility.yul\":270:274   */\n      0x20\n        /* \"#utility.yul\":265:268   */\n      dup3\n        /* \"#utility.yul\":261:275   */\n      add\n        /* \"#utility.yul\":246:275   */\n      swap1\n      pop\n        /* \"#utility.yul\":112:281   */\n      swap3\n      swap2\n      pop\n      pop\n      jump\t// out\n        /* \"#utility.yul\":287:533   */\n    tag_129:\n        /* \"#utility.yul\":368:369   */\n      0x00\n        /* \"#utility.yul\":378:491   */\n    tag_154:\n        /* \"#utility.yul\":392:398   */\n      dup4\n        /* \"#utility.yul\":389:390   */\n      dup2\n        /* \"#utility.yul\":386:399   */\n      lt\n        /* \"#utility.yul\":378:491   */\n      iszero\n      tag_156\n      jumpi\n        /* \"#utility.yul\":477:478   */\n      dup1\n        /* \"#utility.yul\":472:475   */\n      dup3\n        /* \"#utility.yul\":468:479   */\n      add\n        /* \"#utility.yul\":462:480   */\n      mload\n        /* \"#utility.yul\":458:459   */\n      dup2\n        /* \"#utility.yul\":453:456   */\n      dup5\n        /* \"#utility.yul\":449:460   */\n      add\n        /* \"#utility.yul\":442:481   */\n      mstore\n        /* \"#utility.yul\":414:416   */\n      0x20\n        /* \"#utility.yul\":411:412   */\n      dup2\n        /* \"#utility.yul\":407:417   */\n      add\n        /* \"#utility.yul\":402:417   */\n      swap1\n      pop\n        /* \"#utility.yul\":378:491   */\n      jump(tag_154)\n    tag_156:\n        /* \"#utility.yul\":525:526   */\n      0x00\n        /* \"#utility.yul\":516:522   */\n      dup5\n        /* \"#utility.yul\":511:514   */\n      dup5\n        /* \"#utility.yul\":507:523   */\n      add\n        /* \"#utility.yul\":500:527   */\n      mstore\n        /* \"#utility.yul\":349:533   */\n      pop\n        /* \"#utility.yul\":287:533   */\n      pop\n      pop\n      pop\n      jump\t// out\n        /* \"#utility.yul\":539:641   */\n    tag_130:\n        /* \"#utility.yul\":580:586   */\n      0x00\n        /* \"#utility.yul\":631:633   */\n      0x1f\n        /* \"#utility.yul\":627:634   */\n      not\n        /* \"#utility.yul\":622:624   */\n      0x1f\n        /* \"#utility.yul\":615:620   */\n      dup4\n        /* \"#utility.yul\":611:625   */\n      add\n        /* \"#utility.yul\":607:635   */\n      and\n        /* \"#utility.yul\":597:635   */\n      swap1\n      pop\n        /* \"#utility.yul\":539:641   */\n      swap2\n      swap1\n      pop\n      jump\t// out\n        /* \"#utility.yul\":647:1024   */\n    tag_131:\n        /* \"#utility.yul\":735:738   */\n      0x00\n        /* \"#utility.yul\":763:802   */\n      tag_159\n        /* \"#utility.yul\":796:801   */\n      dup3\n        /* \"#utility.yul\":763:802   */\n      tag_127\n      jump\t// in\n    tag_159:\n        /* \"#utility.yul\":818:889   */\n      tag_160\n        /* \"#utility.yul\":882:888   */\n      dup2\n        /* \"#utility.yul\":877:880   */\n      dup6\n        /* \"#utility.yul\":818:889   */\n      tag_128\n      jump\t// in\n    tag_160:\n        /* \"#utility.yul\":811:889   */\n      swap4\n      pop\n        /* \"#utility.yul\":898:963   */\n      tag_161\n        /* \"#utility.yul\":956:962   */\n      dup2\n        /* \"#utility.yul\":951:954   */\n      dup6\n        /* \"#utility.yul\":944:948   */\n      0x20\n        /* \"#utility.yul\":937:942   */\n      dup7\n        /* \"#utility.yul\":933:949   */\n      add\n        /* \"#utility.yul\":898:963   */\n      tag_129\n      jump\t// in\n    tag_161:\n        /* \"#utility.yul\":988:1017   */\n      tag_162\n        /* \"#utility.yul\":1010:1016   */\n      dup2\n        /* \"#utility.yul\":988:1017   */\n      tag_130\n      jump\t// in\n    tag_162:\n        /* \"#utility.yul\":983:986   */\n      dup5\n        /* \"#utility.yul\":979:1018   */\n      add\n        /* \"#utility.yul\":972:1018   */\n      swap2\n      pop\n        /* \"#utility.yul\":739:1024   */\n      pop\n        /* \"#utility.yul\":647:1024   */\n      swap3\n      swap2\n      pop\n      pop\n      jump\t// out\n        /* \"#utility.yul\":1030:1343   */\n    tag_24:\n        /* \"#utility.yul\":1143:1147   */\n      0x00\n        /* \"#utility.yul\":1181:1183   */\n      0x20\n        /* \"#utility.yul\":1170:1179   */\n      dup3\n        /* \"#utility.yul\":1166:1184   */\n      add\n        /* \"#utility.yul\":1158:1184   */\n      swap1\n      pop\n        /* \"#utility.yul\":1230:1239   */\n      dup2\n        /* \"#utility.yul\":1224:1228   */\n      dup2\n        /* \"#utility.yul\":1220:1240   */\n      sub\n        /* \"#utility.yul\":1216:1217   */\n      0x00\n        /* \"#utility.yul\":1205:1214   */\n      dup4\n        /* \"#utility.yul\":1201:1218   */\n      add\n        /* \"#utility.yul\":1194:1241   */\n      mstore\n        /* \"#utility.yul\":1258:1336   */\n      tag_164\n        /* \"#utility.yul\":1331:1335   */\n      dup2\n        /* \"#utility.yul\":1322:1328   */\n      dup5\n        /* \"#utility.yul\":1258:1336   */\n      tag_131\n      jump\t// in\n    tag_164:\n        /* \"#utility.yul\":1250:1336   */\n      swap1\n      pop\n        /* \"#utility.yul\":1030:1343   */\n      swap3\n      swap2\n      pop\n      pop\n      jump\t// out\n        /* \"#utility.yul\":1349:1426   */\n    tag_132:\n        /* \"#utility.yul\":1386:1393   */\n      0x00\n        /* \"#utility.yul\":1415:1420   */\n      dup2\n        /* \"#utility.yul\":1404:1420   */\n      swap1\n      pop\n        /* \"#utility.yul\":1349:1426   */\n      swap2\n      swap1\n      pop\n      jump\t// out\n        /* \"#utility.yul\":1432:1550   */\n    tag_133:\n        /* \"#utility.yul\":1519:1543   */\n      tag_167\n        /* \"#utility.yul\":1537:1542   */\n      dup2\n        /* \"#utility.yul\":1519:1543   */\n      tag_132\n      jump\t// in\n    tag_167:\n        /* \"#utility.yul\":1514:1517   */\n      dup3\n        /* \"#utility.yul\":1507:1544   */\n      mstore\n        /* \"#utility.yul\":1432:1550   */\n      pop\n      pop\n      jump\t// out\n        /* \"#utility.yul\":1556:1778   */\n    tag_28:\n        /* \"#utility.yul\":1649:1653   */\n      0x00\n        /* \"#utility.yul\":1687:1689   */\n      0x20\n        /* \"#utility.yul\":1676:1685   */\n      dup3\n        /* \"#utility.yul\":1672:1690   */\n      add\n        /* \"#utility.yul\":1664:1690   */\n      swap1\n      pop\n        /* \"#utility.yul\":1700:1771   */\n      tag_169\n        /* \"#utility.yul\":1768:1769   */\n      0x00\n        /* \"#utility.yul\":1757:1766   */\n      dup4\n        /* \"#utility.yul\":1753:1770   */\n      add\n        /* \"#utility.yul\":1744:1750   */\n      dup5\n        /* \"#utility.yul\":1700:1771   */\n      tag_133\n      jump\t// in\n    tag_169:\n        /* \"#utility.yul\":1556:1778   */\n      swap3\n      swap2\n      pop\n      pop\n      jump\t// out\n        /* \"#utility.yul\":1865:1982   */\n    tag_135:\n        /* \"#utility.yul\":1974:1975   */\n      0x00\n        /* \"#utility.yul\":1971:1972   */\n      dup1\n        /* \"#utility.yul\":1964:1976   */\n      revert\n        /* \"#utility.yul\":2111:2237   */\n    tag_137:\n        /* \"#utility.yul\":2148:2155   */\n      0x00\n        /* \"#utility.yul\":2188:2230   */\n      0xffffffffffffffffffffffffffffffffffffffff\n        /* \"#utility.yul\":2181:2186   */\n      dup3\n        /* \"#utility.yul\":2177:2231   */\n      and\n        /* \"#utility.yul\":2166:2231   */\n      swap1\n      pop\n        /* \"#utility.yul\":2111:2237   */\n      swap2\n      swap1\n      pop\n      jump\t// out\n        /* \"#utility.yul\":2243:2339   */\n    tag_138:\n        /* \"#utility.yul\":2280:2287   */\n      0x00\n        /* \"#utility.yul\":2309:2333   */\n      tag_175\n        /* \"#utility.yul\":2327:2332   */\n      dup3\n        /* \"#utility.yul\":2309:2333   */\n      tag_137\n      jump\t// in\n    tag_175:\n        /* \"#utility.yul\":2298:2333   */\n      swap1\n      pop\n        /* \"#utility.yul\":2243:2339   */\n      swap2\n      swap1\n      pop\n      jump\t// out\n        /* \"#utility.yul\":2345:2467   */\n    tag_139:\n        /* \"#utility.yul\":2418:2442   */\n      tag_177\n        /* \"#utility.yul\":2436:2441   */\n      dup2\n        /* \"#utility.yul\":2418:2442   */\n      tag_138\n      jump\t// in\n    tag_177:\n        /* \"#utility.yul\":2411:2416   */\n      dup2\n        /* \"#utility.yul\":2408:2443   */\n      eq\n        /* \"#utility.yul\":2398:2461   */\n      tag_178\n      jumpi\n        /* \"#utility.yul\":2457:2458   */\n      0x00\n        /* \"#utility.yul\":2454:2455   */\n      dup1\n        /* \"#utility.yul\":2447:2459   */\n      revert\n        /* \"#utility.yul\":2398:2461   */\n    tag_178:\n        /* \"#utility.yul\":2345:2467   */\n      pop\n      jump\t// out\n        /* \"#utility.yul\":2473:2612   */\n    tag_140:\n        /* \"#utility.yul\":2519:2524   */\n      0x00\n        /* \"#utility.yul\":2557:2563   */\n      dup2\n        /* \"#utility.yul\":2544:2564   */\n      calldataload\n        /* \"#utility.yul\":2535:2564   */\n      swap1\n      pop\n        /* \"#utility.yul\":2573:2606   */\n      tag_180\n        /* \"#utility.yul\":2600:2605   */\n      dup2\n        /* \"#utility.yul\":2573:2606   */\n      tag_139\n      jump\t// in\n    tag_180:\n        /* \"#utility.yul\":2473:2612   */\n      swap3\n      swap2\n      pop\n      pop\n      jump\t// out\n        /* \"#utility.yul\":2618:2740   */\n    tag_141:\n        /* \"#utility.yul\":2691:2715   */\n      tag_182\n        /* \"#utility.yul\":2709:2714   */\n      dup2\n        /* \"#utility.yul\":2691:2715   */\n      tag_132\n      jump\t// in\n    tag_182:\n        /* \"#utility.yul\":2684:2689   */\n      dup2\n        /* \"#utility.yul\":2681:2716   */\n      eq\n        /* \"#utility.yul\":2671:2734   */\n      tag_183\n      jumpi\n        /* \"#utility.yul\":2730:2731   */\n      0x00\n        /* \"#utility.yul\":2727:2728   */\n      dup1\n        /* \"#utility.yul\":2720:2732   */\n      revert\n        /* \"#utility.yul\":2671:2734   */\n    tag_183:\n        /* \"#utility.yul\":2618:2740   */\n      pop\n      jump\t// out\n        /* \"#utility.yul\":2746:2885   */\n    tag_142:\n        /* \"#utility.yul\":2792:2797   */\n      0x00\n        /* \"#utility.yul\":2830:2836   */\n      dup2\n        /* \"#utility.yul\":2817:2837   */\n      calldataload\n        /* \"#utility.yul\":2808:2837   */\n      swap1\n      pop\n        /* \"#utility.yul\":2846:2879   */\n      tag_185\n        /* \"#utility.yul\":2873:2878   */\n      dup2\n        /* \"#utility.yul\":2846:2879   */\n      tag_141\n      jump\t// in\n    tag_185:\n        /* \"#utility.yul\":2746:2885   */\n      swap3\n      swap2\n      pop\n      pop\n      jump\t// out\n        /* \"#utility.yul\":2891:3510   */\n    tag_31:\n        /* \"#utility.yul\":2968:2974   */\n      0x00\n        /* \"#utility.yul\":2976:2982   */\n      dup1\n        /* \"#utility.yul\":2984:2990   */\n      0x00\n        /* \"#utility.yul\":3033:3035   */\n      0x60\n        /* \"#utility.yul\":3021:3030   */\n      dup5\n        /* \"#utility.yul\":3012:3019   */\n      dup7\n        /* \"#utility.yul\":3008:3031   */\n      sub\n        /* \"#utility.yul\":3004:3036   */\n      slt\n        /* \"#utility.yul\":3001:3120   */\n      iszero\n      tag_187\n      jumpi\n        /* \"#utility.yul\":3039:3118   */\n      tag_188\n      tag_135\n      jump\t// in\n    tag_188:\n        /* \"#utility.yul\":3001:3120   */\n    tag_187:\n        /* \"#utility.yul\":3159:3160   */\n      0x00\n        /* \"#utility.yul\":3184:3237   */\n      tag_189\n        /* \"#utility.yul\":3229:3236   */\n      dup7\n        /* \"#utility.yul\":3220:3226   */\n      dup3\n        /* \"#utility.yul\":3209:3218   */\n      dup8\n        /* \"#utility.yul\":3205:3227   */\n      add\n        /* \"#utility.yul\":3184:3237   */\n      tag_140\n      jump\t// in\n    tag_189:\n        /* \"#utility.yul\":3174:3237   */\n      swap4\n      pop\n        /* \"#utility.yul\":3130:3247   */\n      pop\n        /* \"#utility.yul\":3286:3288   */\n      0x20\n        /* \"#utility.yul\":3312:3365   */\n      tag_190\n        /* \"#utility.yul\":3357:3364   */\n      dup7\n        /* \"#utility.yul\":3348:3354   */\n      dup3\n        /* \"#utility.yul\":3337:3346   */\n      dup8\n        /* \"#utility.yul\":3333:3355   */\n      add\n        /* \"#utility.yul\":3312:3365   */\n      tag_140\n      jump\t// in\n    tag_190:\n        /* \"#utility.yul\":3302:3365   */\n      swap3\n      pop\n        /* \"#utility.yul\":3257:3375   */\n      pop\n        /* \"#utility.yul\":3414:3416   */\n      0x40\n        /* \"#utility.yul\":3440:3493   */\n      tag_191\n        /* \"#utility.yul\":3485:3492   */\n      dup7\n        /* \"#utility.yul\":3476:3482   */\n      dup3\n        /* \"#utility.yul\":3465:3474   */\n      dup8\n        /* \"#utility.yul\":3461:3483   */\n      add\n        /* \"#utility.yul\":3440:3493   */\n      tag_142\n      jump\t// in\n    tag_191:\n        /* \"#utility.yul\":3430:3493   */\n      swap2\n      pop\n        /* \"#utility.yul\":3385:3503   */\n      pop\n        /* \"#utility.yul\":2891:3510   */\n      swap3\n      pop\n      swap3\n      pop\n      swap3\n      jump\t// out\n        /* \"#utility.yul\":3516:3606   */\n    tag_143:\n        /* \"#utility.yul\":3550:3557   */\n      0x00\n        /* \"#utility.yul\":3593:3598   */\n      dup2\n        /* \"#utility.yul\":3586:3599   */\n      iszero\n        /* \"#utility.yul\":3579:3600   */\n      iszero\n        /* \"#utility.yul\":3568:3600   */\n      swap1\n      pop\n        /* \"#utility.yul\":3516:3606   */\n      swap2\n      swap1\n      pop\n      jump\t// out\n        /* \"#utility.yul\":3612:3721   */\n    tag_144:\n        /* \"#utility.yul\":3693:3714   */\n      tag_194\n        /* \"#utility.yul\":3708:3713   */\n      dup2\n        /* \"#utility.yul\":3693:3714   */\n      tag_143\n      jump\t// in\n    tag_194:\n        /* \"#utility.yul\":3688:3691   */\n      dup3\n        /* \"#utility.yul\":3681:3715   */\n      mstore\n        /* \"#utility.yul\":3612:3721   */\n      pop\n      pop\n      jump\t// out\n        /* \"#utility.yul\":3727:3937   */\n    tag_34:\n        /* \"#utility.yul\":3814:3818   */\n      0x00\n        /* \"#utility.yul\":3852:3854   */\n      0x20\n        /* \"#utility.yul\":3841:3850   */\n      dup3\n        /* \"#utility.yul\":3837:3855   */\n      add\n        /* \"#utility.yul\":3829:3855   */\n      swap1\n      pop\n        /* \"#utility.yul\":3865:3930   */\n      tag_196\n        /* \"#utility.yul\":3927:3928   */\n      0x00\n        /* \"#utility.yul\":3916:3925   */\n      dup4\n        /* \"#utility.yul\":3912:3929   */\n      add\n        /* \"#utility.yul\":3903:3909   */\n      dup5\n        /* \"#utility.yul\":3865:3930   */\n      tag_144\n      jump\t// in\n    tag_196:\n        /* \"#utility.yul\":3727:3937   */\n      swap3\n      swap2\n      pop\n      pop\n      jump\t// out\n        /* \"#utility.yul\":3943:4417   */\n    tag_37:\n        /* \"#utility.yul\":4011:4017   */\n      0x00\n        /* \"#utility.yul\":4019:4025   */\n      dup1\n        /* \"#utility.yul\":4068:4070   */\n      0x40\n        /* \"#utility.yul\":4056:4065   */\n      dup4\n        /* \"#utility.yul\":4047:4054   */\n      dup6\n        /* \"#utility.yul\":4043:4066   */\n      sub\n        /* \"#utility.yul\":4039:4071   */\n      slt\n        /* \"#utility.yul\":4036:4155   */\n      iszero\n      tag_198\n      jumpi\n        /* \"#utility.yul\":4074:4153   */\n      tag_199\n      tag_135\n      jump\t// in\n    tag_199:\n        /* \"#utility.yul\":4036:4155   */\n    tag_198:\n        /* \"#utility.yul\":4194:4195   */\n      0x00\n        /* \"#utility.yul\":4219:4272   */\n      tag_200\n        /* \"#utility.yul\":4264:4271   */\n      dup6\n        /* \"#utility.yul\":4255:4261   */\n      dup3\n        /* \"#utility.yul\":4244:4253   */\n      dup7\n        /* \"#utility.yul\":4240:4262   */\n      add\n        /* \"#utility.yul\":4219:4272   */\n      tag_140\n      jump\t// in\n    tag_200:\n        /* \"#utility.yul\":4209:4272   */\n      swap3\n      pop\n        /* \"#utility.yul\":4165:4282   */\n      pop\n        /* \"#utility.yul\":4321:4323   */\n      0x20\n        /* \"#utility.yul\":4347:4400   */\n      tag_201\n        /* \"#utility.yul\":4392:4399   */\n      dup6\n        /* \"#utility.yul\":4383:4389   */\n      dup3\n        /* \"#utility.yul\":4372:4381   */\n      dup7\n        /* \"#utility.yul\":4368:4390   */\n      add\n        /* \"#utility.yul\":4347:4400   */\n      tag_140\n      jump\t// in\n    tag_201:\n        /* \"#utility.yul\":4337:4400   */\n      swap2\n      pop\n        /* \"#utility.yul\":4292:4410   */\n      pop\n        /* \"#utility.yul\":3943:4417   */\n      swap3\n      pop\n      swap3\n      swap1\n      pop\n      jump\t// out\n        /* \"#utility.yul\":4423:4509   */\n    tag_145:\n        /* \"#utility.yul\":4458:4465   */\n      0x00\n        /* \"#utility.yul\":4498:4502   */\n      0xff\n        /* \"#utility.yul\":4491:4496   */\n      dup3\n        /* \"#utility.yul\":4487:4503   */\n      and\n        /* \"#utility.yul\":4476:4503   */\n      swap1\n      pop\n        /* \"#utility.yul\":4423:4509   */\n      swap2\n      swap1\n      pop\n      jump\t// out\n        /* \"#utility.yul\":4515:4627   */\n    tag_146:\n        /* \"#utility.yul\":4598:4620   */\n      tag_204\n        /* \"#utility.yul\":4614:4619   */\n      dup2\n        /* \"#utility.yul\":4598:4620   */\n      tag_145\n      jump\t// in\n    tag_204:\n        /* \"#utility.yul\":4593:4596   */\n      dup3\n        /* \"#utility.yul\":4586:4621   */\n      mstore\n        /* \"#utility.yul\":4515:4627   */\n      pop\n      pop\n      jump\t// out\n        /* \"#utility.yul\":4633:4847   */\n    tag_43:\n        /* \"#utility.yul\":4722:4726   */\n      0x00\n        /* \"#utility.yul\":4760:4762   */\n      0x20\n        /* \"#utility.yul\":4749:4758   */\n      dup3\n        /* \"#utility.yul\":4745:4763   */\n      add\n        /* \"#utility.yul\":4737:4763   */\n      swap1\n      pop\n        /* \"#utility.yul\":4773:4840   */\n      tag_206\n        /* \"#utility.yul\":4837:4838   */\n      0x00\n        /* \"#utility.yul\":4826:4835   */\n      dup4\n        /* \"#utility.yul\":4822:4839   */\n      add\n        /* \"#utility.yul\":4813:4819   */\n      dup5\n        /* \"#utility.yul\":4773:4840   */\n      tag_146\n      jump\t// in\n    tag_206:\n        /* \"#utility.yul\":4633:4847   */\n      swap3\n      swap2\n      pop\n      pop\n      jump\t// out\n        /* \"#utility.yul\":4853:4971   */\n    tag_147:\n        /* \"#utility.yul\":4940:4964   */\n      tag_208\n        /* \"#utility.yul\":4958:4963   */\n      dup2\n        /* \"#utility.yul\":4940:4964   */\n      tag_138\n      jump\t// in\n    tag_208:\n        /* \"#utility.yul\":4935:4938   */\n      dup3\n        /* \"#utility.yul\":4928:4965   */\n      mstore\n        /* \"#utility.yul\":4853:4971   */\n      pop\n      pop\n      jump\t// out\n        /* \"#utility.yul\":4977:5199   */\n    tag_47:\n        /* \"#utility.yul\":5070:5074   */\n      0x00\n        /* \"#utility.yul\":5108:5110   */\n      0x20\n        /* \"#utility.yul\":5097:5106   */\n      dup3\n        /* \"#utility.yul\":5093:5111   */\n      add\n        /* \"#utility.yul\":5085:5111   */\n      swap1\n      pop\n        /* \"#utility.yul\":5121:5192   */\n      tag_210\n        /* \"#utility.yul\":5189:5190   */\n      0x00\n        /* \"#utility.yul\":5178:5187   */\n      dup4\n        /* \"#utility.yul\":5174:5191   */\n      add\n        /* \"#utility.yul\":5165:5171   */\n      dup5\n        /* \"#utility.yul\":5121:5192   */\n      tag_147\n      jump\t// in\n    tag_210:\n        /* \"#utility.yul\":4977:5199   */\n      swap3\n      swap2\n      pop\n      pop\n      jump\t// out\n        /* \"#utility.yul\":5205:5679   */\n    tag_50:\n        /* \"#utility.yul\":5273:5279   */\n      0x00\n        /* \"#utility.yul\":5281:5287   */\n      dup1\n        /* \"#utility.yul\":5330:5332   */\n      0x40\n        /* \"#utility.yul\":5318:5327   */\n      dup4\n        /* \"#utility.yul\":5309:5316   */\n      dup6\n        /* \"#utility.yul\":5305:5328   */\n      sub\n        /* \"#utility.yul\":5301:5333   */\n      slt\n        /* \"#utility.yul\":5298:5417   */\n      iszero\n      tag_212\n      jumpi\n        /* \"#utility.yul\":5336:5415   */\n      tag_213\n      tag_135\n      jump\t// in\n    tag_213:\n        /* \"#utility.yul\":5298:5417   */\n    tag_212:\n        /* \"#utility.yul\":5456:5457   */\n      0x00\n        /* \"#utility.yul\":5481:5534   */\n      tag_214\n        /* \"#utility.yul\":5526:5533   */\n      dup6\n        /* \"#utility.yul\":5517:5523   */\n      dup3\n        /* \"#utility.yul\":5506:5515   */\n      dup7\n        /* \"#utility.yul\":5502:5524   */\n      add\n        /* \"#utility.yul\":5481:5534   */\n      tag_140\n      jump\t// in\n    tag_214:\n        /* \"#utility.yul\":5471:5534   */\n      swap3\n      pop\n        /* \"#utility.yul\":5427:5544   */\n      pop\n        /* \"#utility.yul\":5583:5585   */\n      0x20\n        /* \"#utility.yul\":5609:5662   */\n      tag_215\n        /* \"#utility.yul\":5654:5661   */\n      dup6\n        /* \"#utility.yul\":5645:5651   */\n      dup3\n        /* \"#utility.yul\":5634:5643   */\n      dup7\n        /* \"#utility.yul\":5630:5652   */\n      add\n        /* \"#utility.yul\":5609:5662   */\n      tag_142\n      jump\t// in\n    tag_215:\n        /* \"#utility.yul\":5599:5662   */\n      swap2\n      pop\n        /* \"#utility.yul\":5554:5672   */\n      pop\n        /* \"#utility.yul\":5205:5679   */\n      swap3\n      pop\n      swap3\n      swap1\n      pop\n      jump\t// out\n        /* \"#utility.yul\":5685:6014   */\n    tag_54:\n        /* \"#utility.yul\":5744:5750   */\n      0x00\n        /* \"#utility.yul\":5793:5795   */\n      0x20\n        /* \"#utility.yul\":5781:5790   */\n      dup3\n        /* \"#utility.yul\":5772:5779   */\n      dup5\n        /* \"#utility.yul\":5768:5791   */\n      sub\n        /* \"#utility.yul\":5764:5796   */\n      slt\n        /* \"#utility.yul\":5761:5880   */\n      iszero\n      tag_217\n      jumpi\n        /* \"#utility.yul\":5799:5878   */\n      tag_218\n      tag_135\n      jump\t// in\n    tag_218:\n        /* \"#utility.yul\":5761:5880   */\n    tag_217:\n        /* \"#utility.yul\":5919:5920   */\n      0x00\n        /* \"#utility.yul\":5944:5997   */\n      tag_219\n        /* \"#utility.yul\":5989:5996   */\n      dup5\n        /* \"#utility.yul\":5980:5986   */\n      dup3\n        /* \"#utility.yul\":5969:5978   */\n      dup6\n        /* \"#utility.yul\":5965:5987   */\n      add\n        /* \"#utility.yul\":5944:5997   */\n      tag_140\n      jump\t// in\n    tag_219:\n        /* \"#utility.yul\":5934:5997   */\n      swap2\n      pop\n        /* \"#utility.yul\":5890:6007   */\n      pop\n        /* \"#utility.yul\":5685:6014   */\n      swap3\n      swap2\n      pop\n      pop\n      jump\t// out\n        /* \"#utility.yul\":6020:6200   */\n    tag_148:\n        /* \"#utility.yul\":6068:6145   */\n      0x4e487b7100000000000000000000000000000000000000000000000000000000\n        /* \"#utility.yul\":6065:6066   */\n      0x00\n        /* \"#utility.yul\":6058:6146   */\n      mstore\n        /* \"#utility.yul\":6165:6169   */\n      0x22\n        /* \"#utility.yul\":6162:6163   */\n      0x04\n        /* \"#utility.yul\":6155:6170   */\n      mstore\n        /* \"#utility.yul\":6189:6193   */\n      0x24\n        /* \"#utility.yul\":6186:6187   */\n      0x00\n        /* \"#utility.yul\":6179:6194   */\n      revert\n        /* \"#utility.yul\":6206:6526   */\n    tag_83:\n        /* \"#utility.yul\":6250:6256   */\n      0x00\n        /* \"#utility.yul\":6287:6288   */\n      0x02\n        /* \"#utility.yul\":6281:6285   */\n      dup3\n        /* \"#utility.yul\":6277:6289   */\n      div\n        /* \"#utility.yul\":6267:6289   */\n      swap1\n      pop\n        /* \"#utility.yul\":6334:6335   */\n      0x01\n        /* \"#utility.yul\":6328:6332   */\n      dup3\n        /* \"#utility.yul\":6324:6336   */\n      and\n        /* \"#utility.yul\":6355:6373   */\n      dup1\n        /* \"#utility.yul\":6345:6426   */\n      tag_222\n      jumpi\n        /* \"#utility.yul\":6411:6415   */\n      0x7f\n        /* \"#utility.yul\":6403:6409   */\n      dup3\n        /* \"#utility.yul\":6399:6416   */\n      and\n        /* \"#utility.yul\":6389:6416   */\n      swap2\n      pop\n        /* \"#utility.yul\":6345:6426   */\n    tag_222:\n        /* \"#utility.yul\":6473:6475   */\n      0x20\n        /* \"#utility.yul\":6465:6471   */\n      dup3\n        /* \"#utility.yul\":6462:6476   */\n      lt\n        /* \"#utility.yul\":6442:6460   */\n      dup2\n        /* \"#utility.yul\":6439:6477   */\n      sub\n        /* \"#utility.yul\":6436:6520   */\n      tag_223\n      jumpi\n        /* \"#utility.yul\":6492:6510   */\n      tag_224\n      tag_148\n      jump\t// in\n    tag_224:\n        /* \"#utility.yul\":6436:6520   */\n    tag_223:\n        /* \"#utility.yul\":6257:6526   */\n      pop\n        /* \"#utility.yul\":6206:6526   */\n      swap2\n      swap1\n      pop\n      jump\t// out\n        /* \"#utility.yul\":6532:6712   */\n    tag_149:\n        /* \"#utility.yul\":6580:6657   */\n      0x4e487b7100000000000000000000000000000000000000000000000000000000\n        /* \"#utility.yul\":6577:6578   */\n      0x00\n        /* \"#utility.yul\":6570:6658   */\n      mstore\n        /* \"#utility.yul\":6677:6681   */\n      0x11\n        /* \"#utility.yul\":6674:6675   */\n      0x04\n        /* \"#utility.yul\":6667:6682   */\n      mstore\n        /* \"#utility.yul\":6701:6705   */\n      0x24\n        /* \"#utility.yul\":6698:6699   */\n      0x00\n        /* \"#utility.yul\":6691:6706   */\n      revert\n        /* \"#utility.yul\":6718:6912   */\n    tag_92:\n        /* \"#utility.yul\":6758:6762   */\n      0x00\n        /* \"#utility.yul\":6778:6798   */\n      tag_227\n        /* \"#utility.yul\":6796:6797   */\n      dup3\n        /* \"#utility.yul\":6778:6798   */\n      tag_132\n      jump\t// in\n    tag_227:\n        /* \"#utility.yul\":6773:6798   */\n      swap2\n      pop\n        /* \"#utility.yul\":6812:6832   */\n      tag_228\n        /* \"#utility.yul\":6830:6831   */\n      dup4\n        /* \"#utility.yul\":6812:6832   */\n      tag_132\n      jump\t// in\n    tag_228:\n        /* \"#utility.yul\":6807:6832   */\n      swap3\n      pop\n        /* \"#utility.yul\":6856:6857   */\n      dup3\n        /* \"#utility.yul\":6853:6854   */\n      dup3\n        /* \"#utility.yul\":6849:6858   */\n      sub\n        /* \"#utility.yul\":6841:6858   */\n      swap1\n      pop\n        /* \"#utility.yul\":6880:6881   */\n      dup2\n        /* \"#utility.yul\":6874:6878   */\n      dup2\n        /* \"#utility.yul\":6871:6882   */\n      gt\n        /* \"#utility.yul\":6868:6905   */\n      iszero\n      tag_229\n      jumpi\n        /* \"#utility.yul\":6885:6903   */\n      tag_230\n      tag_149\n      jump\t// in\n    tag_230:\n        /* \"#utility.yul\":6868:6905   */\n    tag_229:\n        /* \"#utility.yul\":6718:6912   */\n      swap3\n      swap2\n      pop\n      pop\n      jump\t// out\n        /* \"#utility.yul\":6918:7109   */\n    tag_95:\n        /* \"#utility.yul\":6958:6961   */\n      0x00\n        /* \"#utility.yul\":6977:6997   */\n      tag_232\n        /* \"#utility.yul\":6995:6996   */\n      dup3\n        /* \"#utility.yul\":6977:6997   */\n      tag_132\n      jump\t// in\n    tag_232:\n        /* \"#utility.yul\":6972:6997   */\n      swap2\n      pop\n        /* \"#utility.yul\":7011:7031   */\n      tag_233\n        /* \"#utility.yul\":7029:7030   */\n      dup4\n        /* \"#utility.yul\":7011:7031   */\n      tag_132\n      jump\t// in\n    tag_233:\n        /* \"#utility.yul\":7006:7031   */\n      swap3\n      pop\n        /* \"#utility.yul\":7054:7055   */\n      dup3\n        /* \"#utility.yul\":7051:7052   */\n      dup3\n        /* \"#utility.yul\":7047:7056   */\n      add\n        /* \"#utility.yul\":7040:7056   */\n      swap1\n      pop\n        /* \"#utility.yul\":7075:7078   */\n      dup1\n        /* \"#utility.yul\":7072:7073   */\n      dup3\n        /* \"#utility.yul\":7069:7079   */\n      gt\n        /* \"#utility.yul\":7066:7102   */\n      iszero\n      tag_234\n      jumpi\n        /* \"#utility.yul\":7082:7100   */\n      tag_235\n      tag_149\n      jump\t// in\n    tag_235:\n        /* \"#utility.yul\":7066:7102   */\n    tag_234:\n        /* \"#utility.yul\":6918:7109   */\n      swap3\n      swap2\n      pop\n      pop\n      jump\t// out\n\n    auxdata: 0xa26469706673582212200d5dbd18552064ca2525d5945641b1148109abdb7893f18339df64af8226799d64736f6c63430008140033\n}\n",
				"bytecode": {
					"linkReferences": {},
					"object": "60806040526040518060400160405280600881526020017f44582d746f6b656e000000000000000000000000000000000000000000000000815250600290816200004a919062000375565b506040518060400160405280600481526020017f4458544b000000000000000000000000000000000000000000000000000000008152506003908162000091919062000375565b5069152d02c7e14af6800000600455601260055f6101000a81548160ff021916908360ff160217905550348015620000c7575f80fd5b506004545f803373ffffffffffffffffffffffffffffffffffffffff1673ffffffffffffffffffffffffffffffffffffffff1681526020019081526020015f208190555062000459565b5f81519050919050565b7f4e487b71000000000000000000000000000000000000000000000000000000005f52604160045260245ffd5b7f4e487b71000000000000000000000000000000000000000000000000000000005f52602260045260245ffd5b5f60028204905060018216806200018d57607f821691505b602082108103620001a357620001a262000148565b5b50919050565b5f819050815f5260205f209050919050565b5f6020601f8301049050919050565b5f82821b905092915050565b5f60088302620002077fffffffffffffffffffffffffffffffffffffffffffffffffffffffffffffffff82620001ca565b620002138683620001ca565b95508019841693508086168417925050509392505050565b5f819050919050565b5f819050919050565b5f6200025d6200025762000251846200022b565b62000234565b6200022b565b9050919050565b5f819050919050565b62000278836200023d565b62000290620002878262000264565b848454620001d6565b825550505050565b5f90565b620002a662000298565b620002b38184846200026d565b505050565b5b81811015620002da57620002ce5f826200029c565b600181019050620002b9565b5050565b601f8211156200032957620002f381620001a9565b620002fe84620001bb565b810160208510156200030e578190505b620003266200031d85620001bb565b830182620002b8565b50505b505050565b5f82821c905092915050565b5f6200034b5f19846008026200032e565b1980831691505092915050565b5f6200036583836200033a565b9150826002028217905092915050565b620003808262000111565b67ffffffffffffffff8111156200039c576200039b6200011b565b5b620003a8825462000175565b620003b5828285620002de565b5f60209050601f831160018114620003eb575f8415620003d6578287015190505b620003e2858262000358565b86555062000451565b601f198416620003fb86620001a9565b5f5b828110156200042457848901518255600182019150602085019450602081019050620003fd565b8683101562000444578489015162000440601f8916826200033a565b8355505b6001600288020188555050505b505050505050565b610ff880620004675f395ff3fe608060405234801561000f575f80fd5b50600436106100f3575f3560e01c806370a0823111610095578063c4e41b2211610064578063c4e41b2214610285578063dd62ed3e146102a3578063e1f21c67146102d3578063f6ae79ac14610303576100f3565b806370a08231146101eb57806395d89b411461021b5780639dc29fac14610239578063a9059cbb14610255576100f3565b80632be7c04a116100d15780632be7c04a14610163578063313ce5671461019357806338cc4831146101b157806340c10f19146101cf576100f3565b806306fdde03146100f757806318160ddd1461011557806323b872dd14610133575b5f80fd5b6100ff610333565b60405161010c9190610c73565b60405180910390f35b61011d6103bf565b60405161012a9190610cab565b60405180910390f35b61014d60048036038101906101489190610d4c565b6103c5565b60405161015a9190610db6565b60405180910390f35b61017d60048036038101906101789190610dcf565b610634565b60405161018a9190610cab565b60405180910390f35b61019b610654565b6040516101a89190610e28565b60405180910390f35b6101b9610666565b6040516101c69190610e50565b60405180910390f35b6101e960048036038101906101e49190610e69565b61066d565b005b61020560048036038101906102009190610ea7565b61067b565b6040516102129190610cab565b60405180910390f35b6102236106c0565b6040516102309190610c73565b60405180910390f35b610253600480360381019061024e9190610e69565b61074c565b005b61026f600480360381019061026a9190610e69565b61075a565b60405161027c9190610db6565b60405180910390f35b61028d6108b6565b60405161029a9190610cab565b60405180910390f35b6102bd60048036038101906102b89190610dcf565b6108bf565b6040516102ca9190610cab565b60405180910390f35b6102ed60048036038101906102e89190610d4c565b610941565b6040516102fa9190610db6565b60405180910390f35b61031d60048036038101906103189190610ea7565b610a2f565b60405161032a9190610cab565b60405180910390f35b6002805461034090610eff565b80601f016020809104026020016040519081016040528092919081815260200182805461036c90610eff565b80156103b75780601f1061038e576101008083540402835291602001916103b7565b820191905f5260205f20905b81548152906001019060200180831161039a57829003601f168201915b505050505081565b60045481565b5f805f8573ffffffffffffffffffffffffffffffffffffffff1673ffffffffffffffffffffffffffffffffffffffff1681526020019081526020015f205482111561040e575f80fd5b60015f8573ffffffffffffffffffffffffffffffffffffffff1673ffffffffffffffffffffffffffffffffffffffff1681526020019081526020015f205f3373ffffffffffffffffffffffffffffffffffffffff1673ffffffffffffffffffffffffffffffffffffffff1681526020019081526020015f2054821115610492575f80fd5b8160015f8673ffffffffffffffffffffffffffffffffffffffff1673ffffffffffffffffffffffffffffffffffffffff1681526020019081526020015f205f3373ffffffffffffffffffffffffffffffffffffffff1673ffffffffffffffffffffffffffffffffffffffff1681526020019081526020015f205f8282546105199190610f5c565b92505081905550815f808673ffffffffffffffffffffffffffffffffffffffff1673ffffffffffffffffffffffffffffffffffffffff1681526020019081526020015f205f82825461056b9190610f5c565b92505081905550815f808573ffffffffffffffffffffffffffffffffffffffff1673ffffffffffffffffffffffffffffffffffffffff1681526020019081526020015f205f8282546105bd9190610f8f565b925050819055508273ffffffffffffffffffffffffffffffffffffffff168473ffffffffffffffffffffffffffffffffffffffff167fddf252ad1be2c89b69c2b068fc378daa952ba7f163c4a11628f55a4df523b3ef846040516106219190610cab565b60405180910390a3600190509392505050565b6001602052815f5260405f20602052805f5260405f205f91509150505481565b60055f9054906101000a900460ff1681565b5f30905090565b6106778282610a43565b5050565b5f805f8373ffffffffffffffffffffffffffffffffffffffff1673ffffffffffffffffffffffffffffffffffffffff1681526020019081526020015f20549050919050565b600380546106cd90610eff565b80601f01602080910402602001604051908101604052809291908181526020018280546106f990610eff565b80156107445780601f1061071b57610100808354040283529160200191610744565b820191905f5260205f20905b81548152906001019060200180831161072757829003601f168201915b505050505081565b6107568282610b16565b5050565b5f805f3373ffffffffffffffffffffffffffffffffffffffff1673ffffffffffffffffffffffffffffffffffffffff1681526020019081526020015f20548211156107a3575f80fd5b815f803373ffffffffffffffffffffffffffffffffffffffff1673ffffffffffffffffffffffffffffffffffffffff1681526020019081526020015f205f8282546107ee9190610f5c565b92505081905550815f808573ffffffffffffffffffffffffffffffffffffffff1673ffffffffffffffffffffffffffffffffffffffff1681526020019081526020015f205f8282546108409190610f8f565b925050819055508273ffffffffffffffffffffffffffffffffffffffff163373ffffffffffffffffffffffffffffffffffffffff167fddf252ad1be2c89b69c2b068fc378daa952ba7f163c4a11628f55a4df523b3ef846040516108a49190610cab565b60405180910390a36001905092915050565b5f600454905090565b5f60015f8473ffffffffffffffffffffffffffffffffffffffff1673ffffffffffffffffffffffffffffffffffffffff1681526020019081526020015f205f8373ffffffffffffffffffffffffffffffffffffffff1673ffffffffffffffffffffffffffffffffffffffff1681526020019081526020015f2054905092915050565b5f8160015f8673ffffffffffffffffffffffffffffffffffffffff1673ffffffffffffffffffffffffffffffffffffffff1681526020019081526020015f205f8573ffffffffffffffffffffffffffffffffffffffff1673ffffffffffffffffffffffffffffffffffffffff1681526020019081526020015f20819055508273ffffffffffffffffffffffffffffffffffffffff168473ffffffffffffffffffffffffffffffffffffffff167f8c5be1e5ebec7d5bd14f71427d1e84f3dd0314c0f7b2291e5b200ac8c7c3b92584604051610a1c9190610cab565b60405180910390a3600190509392505050565b5f602052805f5260405f205f915090505481565b805f808473ffffffffffffffffffffffffffffffffffffffff1673ffffffffffffffffffffffffffffffffffffffff1681526020019081526020015f205f828254610a8e9190610f8f565b925050819055508060045f828254610aa69190610f8f565b925050819055508173ffffffffffffffffffffffffffffffffffffffff165f73ffffffffffffffffffffffffffffffffffffffff167fddf252ad1be2c89b69c2b068fc378daa952ba7f163c4a11628f55a4df523b3ef83604051610b0a9190610cab565b60405180910390a35050565b805f808473ffffffffffffffffffffffffffffffffffffffff1673ffffffffffffffffffffffffffffffffffffffff1681526020019081526020015f205f828254610b619190610f5c565b925050819055508060045f828254610b799190610f5c565b925050819055505f73ffffffffffffffffffffffffffffffffffffffff168273ffffffffffffffffffffffffffffffffffffffff167fddf252ad1be2c89b69c2b068fc378daa952ba7f163c4a11628f55a4df523b3ef83604051610bdd9190610cab565b60405180910390a35050565b5f81519050919050565b5f82825260208201905092915050565b5f5b83811015610c20578082015181840152602081019050610c05565b5f8484015250505050565b5f601f19601f8301169050919050565b5f610c4582610be9565b610c4f8185610bf3565b9350610c5f818560208601610c03565b610c6881610c2b565b840191505092915050565b5f6020820190508181035f830152610c8b8184610c3b565b905092915050565b5f819050919050565b610ca581610c93565b82525050565b5f602082019050610cbe5f830184610c9c565b92915050565b5f80fd5b5f73ffffffffffffffffffffffffffffffffffffffff82169050919050565b5f610cf182610cc8565b9050919050565b610d0181610ce7565b8114610d0b575f80fd5b50565b5f81359050610d1c81610cf8565b92915050565b610d2b81610c93565b8114610d35575f80fd5b50565b5f81359050610d4681610d22565b92915050565b5f805f60608486031215610d6357610d62610cc4565b5b5f610d7086828701610d0e565b9350506020610d8186828701610d0e565b9250506040610d9286828701610d38565b9150509250925092565b5f8115159050919050565b610db081610d9c565b82525050565b5f602082019050610dc95f830184610da7565b92915050565b5f8060408385031215610de557610de4610cc4565b5b5f610df285828601610d0e565b9250506020610e0385828601610d0e565b9150509250929050565b5f60ff82169050919050565b610e2281610e0d565b82525050565b5f602082019050610e3b5f830184610e19565b92915050565b610e4a81610ce7565b82525050565b5f602082019050610e635f830184610e41565b92915050565b5f8060408385031215610e7f57610e7e610cc4565b5b5f610e8c85828601610d0e565b9250506020610e9d85828601610d38565b9150509250929050565b5f60208284031215610ebc57610ebb610cc4565b5b5f610ec984828501610d0e565b91505092915050565b7f4e487b71000000000000000000000000000000000000000000000000000000005f52602260045260245ffd5b5f6002820490506001821680610f1657607f821691505b602082108103610f2957610f28610ed2565b5b50919050565b7f4e487b71000000000000000000000000000000000000000000000000000000005f52601160045260245ffd5b5f610f6682610c93565b9150610f7183610c93565b9250828203905081811115610f8957610f88610f2f565b5b92915050565b5f610f9982610c93565b9150610fa483610c93565b9250828201905080821115610fbc57610fbb610f2f565b5b9291505056fea26469706673582212200d5dbd18552064ca2525d5945641b1148109abdb7893f18339df64af8226799d64736f6c63430008140033",
					"opcodes": "PUSH1 0x80 PUSH1 0x40 MSTORE PUSH1 0x40 MLOAD DUP1 PUSH1 0x40 ADD PUSH1 0x40 MSTORE DUP1 PUSH1 0x8 DUP2 MSTORE PUSH1 0x20 ADD PUSH32 0x44582D746F6B656E000000000000000000000000000000000000000000000000 DUP2 MSTORE POP PUSH1 0x2 SWAP1 DUP2 PUSH3 0x4A SWAP2 SWAP1 PUSH3 0x375 JUMP JUMPDEST POP PUSH1 0x40 MLOAD DUP1 PUSH1 0x40 ADD PUSH1 0x40 MSTORE DUP1 PUSH1 0x4 DUP2 MSTORE PUSH1 0x20 ADD PUSH32 0x4458544B00000000000000000000000000000000000000000000000000000000 DUP2 MSTORE POP PUSH1 0x3 SWAP1 DUP2 PUSH3 0x91 SWAP2 SWAP1 PUSH3 0x375 JUMP JUMPDEST POP PUSH10 0x152D02C7E14AF6800000 PUSH1 0x4 SSTORE PUSH1 0x12 PUSH1 0x5 PUSH0 PUSH2 0x100 EXP DUP2 SLOAD DUP2 PUSH1 0xFF MUL NOT AND SWAP1 DUP4 PUSH1 0xFF AND MUL OR SWAP1 SSTORE POP CALLVALUE DUP1 ISZERO PUSH3 0xC7 JUMPI PUSH0 DUP1 REVERT JUMPDEST POP PUSH1 0x4 SLOAD PUSH0 DUP1 CALLER PUSH20 0xFFFFFFFFFFFFFFFFFFFFFFFFFFFFFFFFFFFFFFFF AND PUSH20 0xFFFFFFFFFFFFFFFFFFFFFFFFFFFFFFFFFFFFFFFF AND DUP2 MSTORE PUSH1 0x20 ADD SWAP1 DUP2 MSTORE PUSH1 0x20 ADD PUSH0 KECCAK256 DUP2 SWAP1 SSTORE POP PUSH3 0x459 JUMP JUMPDEST PUSH0 DUP2 MLOAD SWAP1 POP SWAP2 SWAP1 POP JUMP JUMPDEST PUSH32 0x4E487B7100000000000000000000000000000000000000000000000000000000 PUSH0 MSTORE PUSH1 0x41 PUSH1 0x4 MSTORE PUSH1 0x24 PUSH0 REVERT JUMPDEST PUSH32 0x4E487B7100000000000000000000000000000000000000000000000000000000 PUSH0 MSTORE PUSH1 0x22 PUSH1 0x4 MSTORE PUSH1 0x24 PUSH0 REVERT JUMPDEST PUSH0 PUSH1 0x2 DUP3 DIV SWAP1 POP PUSH1 0x1 DUP3 AND DUP1 PUSH3 0x18D JUMPI PUSH1 0x7F DUP3 AND SWAP2 POP JUMPDEST PUSH1 0x20 DUP3 LT DUP2 SUB PUSH3 0x1A3 JUMPI PUSH3 0x1A2 PUSH3 0x148 JUMP JUMPDEST JUMPDEST POP SWAP2 SWAP1 POP JUMP JUMPDEST PUSH0 DUP2 SWAP1 POP DUP2 PUSH0 MSTORE PUSH1 0x20 PUSH0 KECCAK256 SWAP1 POP SWAP2 SWAP1 POP JUMP JUMPDEST PUSH0 PUSH1 0x20 PUSH1 0x1F DUP4 ADD DIV SWAP1 POP SWAP2 SWAP1 POP JUMP JUMPDEST PUSH0 DUP3 DUP3 SHL SWAP1 POP SWAP3 SWAP2 POP POP JUMP JUMPDEST PUSH0 PUSH1 0x8 DUP4 MUL PUSH3 0x207 PUSH32 0xFFFFFFFFFFFFFFFFFFFFFFFFFFFFFFFFFFFFFFFFFFFFFFFFFFFFFFFFFFFFFFFF DUP3 PUSH3 0x1CA JUMP JUMPDEST PUSH3 0x213 DUP7 DUP4 PUSH3 0x1CA JUMP JUMPDEST SWAP6 POP DUP1 NOT DUP5 AND SWAP4 POP DUP1 DUP7 AND DUP5 OR SWAP3 POP POP POP SWAP4 SWAP3 POP POP POP JUMP JUMPDEST PUSH0 DUP2 SWAP1 POP SWAP2 SWAP1 POP JUMP JUMPDEST PUSH0 DUP2 SWAP1 POP SWAP2 SWAP1 POP JUMP JUMPDEST PUSH0 PUSH3 0x25D PUSH3 0x257 PUSH3 0x251 DUP5 PUSH3 0x22B JUMP JUMPDEST PUSH3 0x234 JUMP JUMPDEST PUSH3 0x22B JUMP JUMPDEST SWAP1 POP SWAP2 SWAP1 POP JUMP JUMPDEST PUSH0 DUP2 SWAP1 POP SWAP2 SWAP1 POP JUMP JUMPDEST PUSH3 0x278 DUP4 PUSH3 0x23D JUMP JUMPDEST PUSH3 0x290 PUSH3 0x287 DUP3 PUSH3 0x264 JUMP JUMPDEST DUP5 DUP5 SLOAD PUSH3 0x1D6 JUMP JUMPDEST DUP3 SSTORE POP POP POP POP JUMP JUMPDEST PUSH0 SWAP1 JUMP JUMPDEST PUSH3 0x2A6 PUSH3 0x298 JUMP JUMPDEST PUSH3 0x2B3 DUP2 DUP5 DUP5 PUSH3 0x26D JUMP JUMPDEST POP POP POP JUMP JUMPDEST JUMPDEST DUP2 DUP2 LT ISZERO PUSH3 0x2DA JUMPI PUSH3 0x2CE PUSH0 DUP3 PUSH3 0x29C JUMP JUMPDEST PUSH1 0x1 DUP2 ADD SWAP1 POP PUSH3 0x2B9 JUMP JUMPDEST POP POP JUMP JUMPDEST PUSH1 0x1F DUP3 GT ISZERO PUSH3 0x329 JUMPI PUSH3 0x2F3 DUP2 PUSH3 0x1A9 JUMP JUMPDEST PUSH3 0x2FE DUP5 PUSH3 0x1BB JUMP JUMPDEST DUP2 ADD PUSH1 0x20 DUP6 LT ISZERO PUSH3 0x30E JUMPI DUP2 SWAP1 POP JUMPDEST PUSH3 0x326 PUSH3 0x31D DUP6 PUSH3 0x1BB JUMP JUMPDEST DUP4 ADD DUP3 PUSH3 0x2B8 JUMP JUMPDEST POP POP JUMPDEST POP POP POP JUMP JUMPDEST PUSH0 DUP3 DUP3 SHR SWAP1 POP SWAP3 SWAP2 POP POP JUMP JUMPDEST PUSH0 PUSH3 0x34B PUSH0 NOT DUP5 PUSH1 0x8 MUL PUSH3 0x32E JUMP JUMPDEST NOT DUP1 DUP4 AND SWAP2 POP POP SWAP3 SWAP2 POP POP JUMP JUMPDEST PUSH0 PUSH3 0x365 DUP4 DUP4 PUSH3 0x33A JUMP JUMPDEST SWAP2 POP DUP3 PUSH1 0x2 MUL DUP3 OR SWAP1 POP SWAP3 SWAP2 POP POP JUMP JUMPDEST PUSH3 0x380 DUP3 PUSH3 0x111 JUMP JUMPDEST PUSH8 0xFFFFFFFFFFFFFFFF DUP2 GT ISZERO PUSH3 0x39C JUMPI PUSH3 0x39B PUSH3 0x11B JUMP JUMPDEST JUMPDEST PUSH3 0x3A8 DUP3 SLOAD PUSH3 0x175 JUMP JUMPDEST PUSH3 0x3B5 DUP3 DUP3 DUP6 PUSH3 0x2DE JUMP JUMPDEST PUSH0 PUSH1 0x20 SWAP1 POP PUSH1 0x1F DUP4 GT PUSH1 0x1 DUP2 EQ PUSH3 0x3EB JUMPI PUSH0 DUP5 ISZERO PUSH3 0x3D6 JUMPI DUP3 DUP8 ADD MLOAD SWAP1 POP JUMPDEST PUSH3 0x3E2 DUP6 DUP3 PUSH3 0x358 JUMP JUMPDEST DUP7 SSTORE POP PUSH3 0x451 JUMP JUMPDEST PUSH1 0x1F NOT DUP5 AND PUSH3 0x3FB DUP7 PUSH3 0x1A9 JUMP JUMPDEST PUSH0 JUMPDEST DUP3 DUP2 LT ISZERO PUSH3 0x424 JUMPI DUP5 DUP10 ADD MLOAD DUP3 SSTORE PUSH1 0x1 DUP3 ADD SWAP2 POP PUSH1 0x20 DUP6 ADD SWAP5 POP PUSH1 0x20 DUP2 ADD SWAP1 POP PUSH3 0x3FD JUMP JUMPDEST DUP7 DUP4 LT ISZERO PUSH3 0x444 JUMPI DUP5 DUP10 ADD MLOAD PUSH3 0x440 PUSH1 0x1F DUP10 AND DUP3 PUSH3 0x33A JUMP JUMPDEST DUP4 SSTORE POP JUMPDEST PUSH1 0x1 PUSH1 0x2 DUP9 MUL ADD DUP9 SSTORE POP POP POP JUMPDEST POP POP POP POP POP POP JUMP JUMPDEST PUSH2 0xFF8 DUP1 PUSH3 0x467 PUSH0 CODECOPY PUSH0 RETURN INVALID PUSH1 0x80 PUSH1 0x40 MSTORE CALLVALUE DUP1 ISZERO PUSH2 0xF JUMPI PUSH0 DUP1 REVERT JUMPDEST POP PUSH1 0x4 CALLDATASIZE LT PUSH2 0xF3 JUMPI PUSH0 CALLDATALOAD PUSH1 0xE0 SHR DUP1 PUSH4 0x70A08231 GT PUSH2 0x95 JUMPI DUP1 PUSH4 0xC4E41B22 GT PUSH2 0x64 JUMPI DUP1 PUSH4 0xC4E41B22 EQ PUSH2 0x285 JUMPI DUP1 PUSH4 0xDD62ED3E EQ PUSH2 0x2A3 JUMPI DUP1 PUSH4 0xE1F21C67 EQ PUSH2 0x2D3 JUMPI DUP1 PUSH4 0xF6AE79AC EQ PUSH2 0x303 JUMPI PUSH2 0xF3 JUMP JUMPDEST DUP1 PUSH4 0x70A08231 EQ PUSH2 0x1EB JUMPI DUP1 PUSH4 0x95D89B41 EQ PUSH2 0x21B JUMPI DUP1 PUSH4 0x9DC29FAC EQ PUSH2 0x239 JUMPI DUP1 PUSH4 0xA9059CBB EQ PUSH2 0x255 JUMPI PUSH2 0xF3 JUMP JUMPDEST DUP1 PUSH4 0x2BE7C04A GT PUSH2 0xD1 JUMPI DUP1 PUSH4 0x2BE7C04A EQ PUSH2 0x163 JUMPI DUP1 PUSH4 0x313CE567 EQ PUSH2 0x193 JUMPI DUP1 PUSH4 0x38CC4831 EQ PUSH2 0x1B1 JUMPI DUP1 PUSH4 0x40C10F19 EQ PUSH2 0x1CF JUMPI PUSH2 0xF3 JUMP JUMPDEST DUP1 PUSH4 0x6FDDE03 EQ PUSH2 0xF7 JUMPI DUP1 PUSH4 0x18160DDD EQ PUSH2 0x115 JUMPI DUP1 PUSH4 0x23B872DD EQ PUSH2 0x133 JUMPI JUMPDEST PUSH0 DUP1 REVERT JUMPDEST PUSH2 0xFF PUSH2 0x333 JUMP JUMPDEST PUSH1 0x40 MLOAD PUSH2 0x10C SWAP2 SWAP1 PUSH2 0xC73 JUMP JUMPDEST PUSH1 0x40 MLOAD DUP1 SWAP2 SUB SWAP1 RETURN JUMPDEST PUSH2 0x11D PUSH2 0x3BF JUMP JUMPDEST PUSH1 0x40 MLOAD PUSH2 0x12A SWAP2 SWAP1 PUSH2 0xCAB JUMP JUMPDEST PUSH1 0x40 MLOAD DUP1 SWAP2 SUB SWAP1 RETURN JUMPDEST PUSH2 0x14D PUSH1 0x4 DUP1 CALLDATASIZE SUB DUP2 ADD SWAP1 PUSH2 0x148 SWAP2 SWAP1 PUSH2 0xD4C JUMP JUMPDEST PUSH2 0x3C5 JUMP JUMPDEST PUSH1 0x40 MLOAD PUSH2 0x15A SWAP2 SWAP1 PUSH2 0xDB6 JUMP JUMPDEST PUSH1 0x40 MLOAD DUP1 SWAP2 SUB SWAP1 RETURN JUMPDEST PUSH2 0x17D PUSH1 0x4 DUP1 CALLDATASIZE SUB DUP2 ADD SWAP1 PUSH2 0x178 SWAP2 SWAP1 PUSH2 0xDCF JUMP JUMPDEST PUSH2 0x634 JUMP JUMPDEST PUSH1 0x40 MLOAD PUSH2 0x18A SWAP2 SWAP1 PUSH2 0xCAB JUMP JUMPDEST PUSH1 0x40 MLOAD DUP1 SWAP2 SUB SWAP1 RETURN JUMPDEST PUSH2 0x19B PUSH2 0x654 JUMP JUMPDEST PUSH1 0x40 MLOAD PUSH2 0x1A8 SWAP2 SWAP1 PUSH2 0xE28 JUMP JUMPDEST PUSH1 0x40 MLOAD DUP1 SWAP2 SUB SWAP1 RETURN JUMPDEST PUSH2 0x1B9 PUSH2 0x666 JUMP JUMPDEST PUSH1 0x40 MLOAD PUSH2 0x1C6 SWAP2 SWAP1 PUSH2 0xE50 JUMP JUMPDEST PUSH1 0x40 MLOAD DUP1 SWAP2 SUB SWAP1 RETURN JUMPDEST PUSH2 0x1E9 PUSH1 0x4 DUP1 CALLDATASIZE SUB DUP2 ADD SWAP1 PUSH2 0x1E4 SWAP2 SWAP1 PUSH2 0xE69 JUMP JUMPDEST PUSH2 0x66D JUMP JUMPDEST STOP JUMPDEST PUSH2 0x205 PUSH1 0x4 DUP1 CALLDATASIZE SUB DUP2 ADD SWAP1 PUSH2 0x200 SWAP2 SWAP1 PUSH2 0xEA7 JUMP JUMPDEST PUSH2 0x67B JUMP JUMPDEST PUSH1 0x40 MLOAD PUSH2 0x212 SWAP2 SWAP1 PUSH2 0xCAB JUMP JUMPDEST PUSH1 0x40 MLOAD DUP1 SWAP2 SUB SWAP1 RETURN JUMPDEST PUSH2 0x223 PUSH2 0x6C0 JUMP JUMPDEST PUSH1 0x40 MLOAD PUSH2 0x230 SWAP2 SWAP1 PUSH2 0xC73 JUMP JUMPDEST PUSH1 0x40 MLOAD DUP1 SWAP2 SUB SWAP1 RETURN JUMPDEST PUSH2 0x253 PUSH1 0x4 DUP1 CALLDATASIZE SUB DUP2 ADD SWAP1 PUSH2 0x24E SWAP2 SWAP1 PUSH2 0xE69 JUMP JUMPDEST PUSH2 0x74C JUMP JUMPDEST STOP JUMPDEST PUSH2 0x26F PUSH1 0x4 DUP1 CALLDATASIZE SUB DUP2 ADD SWAP1 PUSH2 0x26A SWAP2 SWAP1 PUSH2 0xE69 JUMP JUMPDEST PUSH2 0x75A JUMP JUMPDEST PUSH1 0x40 MLOAD PUSH2 0x27C SWAP2 SWAP1 PUSH2 0xDB6 JUMP JUMPDEST PUSH1 0x40 MLOAD DUP1 SWAP2 SUB SWAP1 RETURN JUMPDEST PUSH2 0x28D PUSH2 0x8B6 JUMP JUMPDEST PUSH1 0x40 MLOAD PUSH2 0x29A SWAP2 SWAP1 PUSH2 0xCAB JUMP JUMPDEST PUSH1 0x40 MLOAD DUP1 SWAP2 SUB SWAP1 RETURN JUMPDEST PUSH2 0x2BD PUSH1 0x4 DUP1 CALLDATASIZE SUB DUP2 ADD SWAP1 PUSH2 0x2B8 SWAP2 SWAP1 PUSH2 0xDCF JUMP JUMPDEST PUSH2 0x8BF JUMP JUMPDEST PUSH1 0x40 MLOAD PUSH2 0x2CA SWAP2 SWAP1 PUSH2 0xCAB JUMP JUMPDEST PUSH1 0x40 MLOAD DUP1 SWAP2 SUB SWAP1 RETURN JUMPDEST PUSH2 0x2ED PUSH1 0x4 DUP1 CALLDATASIZE SUB DUP2 ADD SWAP1 PUSH2 0x2E8 SWAP2 SWAP1 PUSH2 0xD4C JUMP JUMPDEST PUSH2 0x941 JUMP JUMPDEST PUSH1 0x40 MLOAD PUSH2 0x2FA SWAP2 SWAP1 PUSH2 0xDB6 JUMP JUMPDEST PUSH1 0x40 MLOAD DUP1 SWAP2 SUB SWAP1 RETURN JUMPDEST PUSH2 0x31D PUSH1 0x4 DUP1 CALLDATASIZE SUB DUP2 ADD SWAP1 PUSH2 0x318 SWAP2 SWAP1 PUSH2 0xEA7 JUMP JUMPDEST PUSH2 0xA2F JUMP JUMPDEST PUSH1 0x40 MLOAD PUSH2 0x32A SWAP2 SWAP1 PUSH2 0xCAB JUMP JUMPDEST PUSH1 0x40 MLOAD DUP1 SWAP2 SUB SWAP1 RETURN JUMPDEST PUSH1 0x2 DUP1 SLOAD PUSH2 0x340 SWAP1 PUSH2 0xEFF JUMP JUMPDEST DUP1 PUSH1 0x1F ADD PUSH1 0x20 DUP1 SWAP2 DIV MUL PUSH1 0x20 ADD PUSH1 0x40 MLOAD SWAP1 DUP2 ADD PUSH1 0x40 MSTORE DUP1 SWAP3 SWAP2 SWAP1 DUP2 DUP2 MSTORE PUSH1 0x20 ADD DUP3 DUP1 SLOAD PUSH2 0x36C SWAP1 PUSH2 0xEFF JUMP JUMPDEST DUP1 ISZERO PUSH2 0x3B7 JUMPI DUP1 PUSH1 0x1F LT PUSH2 0x38E JUMPI PUSH2 0x100 DUP1 DUP4 SLOAD DIV MUL DUP4 MSTORE SWAP2 PUSH1 0x20 ADD SWAP2 PUSH2 0x3B7 JUMP JUMPDEST DUP3 ADD SWAP2 SWAP1 PUSH0 MSTORE PUSH1 0x20 PUSH0 KECCAK256 SWAP1 JUMPDEST DUP2 SLOAD DUP2 MSTORE SWAP1 PUSH1 0x1 ADD SWAP1 PUSH1 0x20 ADD DUP1 DUP4 GT PUSH2 0x39A JUMPI DUP3 SWAP1 SUB PUSH1 0x1F AND DUP3 ADD SWAP2 JUMPDEST POP POP POP POP POP DUP2 JUMP JUMPDEST PUSH1 0x4 SLOAD DUP2 JUMP JUMPDEST PUSH0 DUP1 PUSH0 DUP6 PUSH20 0xFFFFFFFFFFFFFFFFFFFFFFFFFFFFFFFFFFFFFFFF AND PUSH20 0xFFFFFFFFFFFFFFFFFFFFFFFFFFFFFFFFFFFFFFFF AND DUP2 MSTORE PUSH1 0x20 ADD SWAP1 DUP2 MSTORE PUSH1 0x20 ADD PUSH0 KECCAK256 SLOAD DUP3 GT ISZERO PUSH2 0x40E JUMPI PUSH0 DUP1 REVERT JUMPDEST PUSH1 0x1 PUSH0 DUP6 PUSH20 0xFFFFFFFFFFFFFFFFFFFFFFFFFFFFFFFFFFFFFFFF AND PUSH20 0xFFFFFFFFFFFFFFFFFFFFFFFFFFFFFFFFFFFFFFFF AND DUP2 MSTORE PUSH1 0x20 ADD SWAP1 DUP2 MSTORE PUSH1 0x20 ADD PUSH0 KECCAK256 PUSH0 CALLER PUSH20 0xFFFFFFFFFFFFFFFFFFFFFFFFFFFFFFFFFFFFFFFF AND PUSH20 0xFFFFFFFFFFFFFFFFFFFFFFFFFFFFFFFFFFFFFFFF AND DUP2 MSTORE PUSH1 0x20 ADD SWAP1 DUP2 MSTORE PUSH1 0x20 ADD PUSH0 KECCAK256 SLOAD DUP3 GT ISZERO PUSH2 0x492 JUMPI PUSH0 DUP1 REVERT JUMPDEST DUP2 PUSH1 0x1 PUSH0 DUP7 PUSH20 0xFFFFFFFFFFFFFFFFFFFFFFFFFFFFFFFFFFFFFFFF AND PUSH20 0xFFFFFFFFFFFFFFFFFFFFFFFFFFFFFFFFFFFFFFFF AND DUP2 MSTORE PUSH1 0x20 ADD SWAP1 DUP2 MSTORE PUSH1 0x20 ADD PUSH0 KECCAK256 PUSH0 CALLER PUSH20 0xFFFFFFFFFFFFFFFFFFFFFFFFFFFFFFFFFFFFFFFF AND PUSH20 0xFFFFFFFFFFFFFFFFFFFFFFFFFFFFFFFFFFFFFFFF AND DUP2 MSTORE PUSH1 0x20 ADD SWAP1 DUP2 MSTORE PUSH1 0x20 ADD PUSH0 KECCAK256 PUSH0 DUP3 DUP3 SLOAD PUSH2 0x519 SWAP2 SWAP1 PUSH2 0xF5C JUMP JUMPDEST SWAP3 POP POP DUP2 SWAP1 SSTORE POP DUP2 PUSH0 DUP1 DUP7 PUSH20 0xFFFFFFFFFFFFFFFFFFFFFFFFFFFFFFFFFFFFFFFF AND PUSH20 0xFFFFFFFFFFFFFFFFFFFFFFFFFFFFFFFFFFFFFFFF AND DUP2 MSTORE PUSH1 0x20 ADD SWAP1 DUP2 MSTORE PUSH1 0x20 ADD PUSH0 KECCAK256 PUSH0 DUP3 DUP3 SLOAD PUSH2 0x56B SWAP2 SWAP1 PUSH2 0xF5C JUMP JUMPDEST SWAP3 POP POP DUP2 SWAP1 SSTORE POP DUP2 PUSH0 DUP1 DUP6 PUSH20 0xFFFFFFFFFFFFFFFFFFFFFFFFFFFFFFFFFFFFFFFF AND PUSH20 0xFFFFFFFFFFFFFFFFFFFFFFFFFFFFFFFFFFFFFFFF AND DUP2 MSTORE PUSH1 0x20 ADD SWAP1 DUP2 MSTORE PUSH1 0x20 ADD PUSH0 KECCAK256 PUSH0 DUP3 DUP3 SLOAD PUSH2 0x5BD SWAP2 SWAP1 PUSH2 0xF8F JUMP JUMPDEST SWAP3 POP POP DUP2 SWAP1 SSTORE POP DUP3 PUSH20 0xFFFFFFFFFFFFFFFFFFFFFFFFFFFFFFFFFFFFFFFF AND DUP5 PUSH20 0xFFFFFFFFFFFFFFFFFFFFFFFFFFFFFFFFFFFFFFFF AND PUSH32 0xDDF252AD1BE2C89B69C2B068FC378DAA952BA7F163C4A11628F55A4DF523B3EF DUP5 PUSH1 0x40 MLOAD PUSH2 0x621 SWAP2 SWAP1 PUSH2 0xCAB JUMP JUMPDEST PUSH1 0x40 MLOAD DUP1 SWAP2 SUB SWAP1 LOG3 PUSH1 0x1 SWAP1 POP SWAP4 SWAP3 POP POP POP JUMP JUMPDEST PUSH1 0x1 PUSH1 0x20 MSTORE DUP2 PUSH0 MSTORE PUSH1 0x40 PUSH0 KECCAK256 PUSH1 0x20 MSTORE DUP1 PUSH0 MSTORE PUSH1 0x40 PUSH0 KECCAK256 PUSH0 SWAP2 POP SWAP2 POP POP SLOAD DUP2 JUMP JUMPDEST PUSH1 0x5 PUSH0 SWAP1 SLOAD SWAP1 PUSH2 0x100 EXP SWAP1 DIV PUSH1 0xFF AND DUP2 JUMP JUMPDEST PUSH0 ADDRESS SWAP1 POP SWAP1 JUMP JUMPDEST PUSH2 0x677 DUP3 DUP3 PUSH2 0xA43 JUMP JUMPDEST POP POP JUMP JUMPDEST PUSH0 DUP1 PUSH0 DUP4 PUSH20 0xFFFFFFFFFFFFFFFFFFFFFFFFFFFFFFFFFFFFFFFF AND PUSH20 0xFFFFFFFFFFFFFFFFFFFFFFFFFFFFFFFFFFFFFFFF AND DUP2 MSTORE PUSH1 0x20 ADD SWAP1 DUP2 MSTORE PUSH1 0x20 ADD PUSH0 KECCAK256 SLOAD SWAP1 POP SWAP2 SWAP1 POP JUMP JUMPDEST PUSH1 0x3 DUP1 SLOAD PUSH2 0x6CD SWAP1 PUSH2 0xEFF JUMP JUMPDEST DUP1 PUSH1 0x1F ADD PUSH1 0x20 DUP1 SWAP2 DIV MUL PUSH1 0x20 ADD PUSH1 0x40 MLOAD SWAP1 DUP2 ADD PUSH1 0x40 MSTORE DUP1 SWAP3 SWAP2 SWAP1 DUP2 DUP2 MSTORE PUSH1 0x20 ADD DUP3 DUP1 SLOAD PUSH2 0x6F9 SWAP1 PUSH2 0xEFF JUMP JUMPDEST DUP1 ISZERO PUSH2 0x744 JUMPI DUP1 PUSH1 0x1F LT PUSH2 0x71B JUMPI PUSH2 0x100 DUP1 DUP4 SLOAD DIV MUL DUP4 MSTORE SWAP2 PUSH1 0x20 ADD SWAP2 PUSH2 0x744 JUMP JUMPDEST DUP3 ADD SWAP2 SWAP1 PUSH0 MSTORE PUSH1 0x20 PUSH0 KECCAK256 SWAP1 JUMPDEST DUP2 SLOAD DUP2 MSTORE SWAP1 PUSH1 0x1 ADD SWAP1 PUSH1 0x20 ADD DUP1 DUP4 GT PUSH2 0x727 JUMPI DUP3 SWAP1 SUB PUSH1 0x1F AND DUP3 ADD SWAP2 JUMPDEST POP POP POP POP POP DUP2 JUMP JUMPDEST PUSH2 0x756 DUP3 DUP3 PUSH2 0xB16 JUMP JUMPDEST POP POP JUMP JUMPDEST PUSH0 DUP1 PUSH0 CALLER PUSH20 0xFFFFFFFFFFFFFFFFFFFFFFFFFFFFFFFFFFFFFFFF AND PUSH20 0xFFFFFFFFFFFFFFFFFFFFFFFFFFFFFFFFFFFFFFFF AND DUP2 MSTORE PUSH1 0x20 ADD SWAP1 DUP2 MSTORE PUSH1 0x20 ADD PUSH0 KECCAK256 SLOAD DUP3 GT ISZERO PUSH2 0x7A3 JUMPI PUSH0 DUP1 REVERT JUMPDEST DUP2 PUSH0 DUP1 CALLER PUSH20 0xFFFFFFFFFFFFFFFFFFFFFFFFFFFFFFFFFFFFFFFF AND PUSH20 0xFFFFFFFFFFFFFFFFFFFFFFFFFFFFFFFFFFFFFFFF AND DUP2 MSTORE PUSH1 0x20 ADD SWAP1 DUP2 MSTORE PUSH1 0x20 ADD PUSH0 KECCAK256 PUSH0 DUP3 DUP3 SLOAD PUSH2 0x7EE SWAP2 SWAP1 PUSH2 0xF5C JUMP JUMPDEST SWAP3 POP POP DUP2 SWAP1 SSTORE POP DUP2 PUSH0 DUP1 DUP6 PUSH20 0xFFFFFFFFFFFFFFFFFFFFFFFFFFFFFFFFFFFFFFFF AND PUSH20 0xFFFFFFFFFFFFFFFFFFFFFFFFFFFFFFFFFFFFFFFF AND DUP2 MSTORE PUSH1 0x20 ADD SWAP1 DUP2 MSTORE PUSH1 0x20 ADD PUSH0 KECCAK256 PUSH0 DUP3 DUP3 SLOAD PUSH2 0x840 SWAP2 SWAP1 PUSH2 0xF8F JUMP JUMPDEST SWAP3 POP POP DUP2 SWAP1 SSTORE POP DUP3 PUSH20 0xFFFFFFFFFFFFFFFFFFFFFFFFFFFFFFFFFFFFFFFF AND CALLER PUSH20 0xFFFFFFFFFFFFFFFFFFFFFFFFFFFFFFFFFFFFFFFF AND PUSH32 0xDDF252AD1BE2C89B69C2B068FC378DAA952BA7F163C4A11628F55A4DF523B3EF DUP5 PUSH1 0x40 MLOAD PUSH2 0x8A4 SWAP2 SWAP1 PUSH2 0xCAB JUMP JUMPDEST PUSH1 0x40 MLOAD DUP1 SWAP2 SUB SWAP1 LOG3 PUSH1 0x1 SWAP1 POP SWAP3 SWAP2 POP POP JUMP JUMPDEST PUSH0 PUSH1 0x4 SLOAD SWAP1 POP SWAP1 JUMP JUMPDEST PUSH0 PUSH1 0x1 PUSH0 DUP5 PUSH20 0xFFFFFFFFFFFFFFFFFFFFFFFFFFFFFFFFFFFFFFFF AND PUSH20 0xFFFFFFFFFFFFFFFFFFFFFFFFFFFFFFFFFFFFFFFF AND DUP2 MSTORE PUSH1 0x20 ADD SWAP1 DUP2 MSTORE PUSH1 0x20 ADD PUSH0 KECCAK256 PUSH0 DUP4 PUSH20 0xFFFFFFFFFFFFFFFFFFFFFFFFFFFFFFFFFFFFFFFF AND PUSH20 0xFFFFFFFFFFFFFFFFFFFFFFFFFFFFFFFFFFFFFFFF AND DUP2 MSTORE PUSH1 0x20 ADD SWAP1 DUP2 MSTORE PUSH1 0x20 ADD PUSH0 KECCAK256 SLOAD SWAP1 POP SWAP3 SWAP2 POP POP JUMP JUMPDEST PUSH0 DUP2 PUSH1 0x1 PUSH0 DUP7 PUSH20 0xFFFFFFFFFFFFFFFFFFFFFFFFFFFFFFFFFFFFFFFF AND PUSH20 0xFFFFFFFFFFFFFFFFFFFFFFFFFFFFFFFFFFFFFFFF AND DUP2 MSTORE PUSH1 0x20 ADD SWAP1 DUP2 MSTORE PUSH1 0x20 ADD PUSH0 KECCAK256 PUSH0 DUP6 PUSH20 0xFFFFFFFFFFFFFFFFFFFFFFFFFFFFFFFFFFFFFFFF AND PUSH20 0xFFFFFFFFFFFFFFFFFFFFFFFFFFFFFFFFFFFFFFFF AND DUP2 MSTORE PUSH1 0x20 ADD SWAP1 DUP2 MSTORE PUSH1 0x20 ADD PUSH0 KECCAK256 DUP2 SWAP1 SSTORE POP DUP3 PUSH20 0xFFFFFFFFFFFFFFFFFFFFFFFFFFFFFFFFFFFFFFFF AND DUP5 PUSH20 0xFFFFFFFFFFFFFFFFFFFFFFFFFFFFFFFFFFFFFFFF AND PUSH32 0x8C5BE1E5EBEC7D5BD14F71427D1E84F3DD0314C0F7B2291E5B200AC8C7C3B925 DUP5 PUSH1 0x40 MLOAD PUSH2 0xA1C SWAP2 SWAP1 PUSH2 0xCAB JUMP JUMPDEST PUSH1 0x40 MLOAD DUP1 SWAP2 SUB SWAP1 LOG3 PUSH1 0x1 SWAP1 POP SWAP4 SWAP3 POP POP POP JUMP JUMPDEST PUSH0 PUSH1 0x20 MSTORE DUP1 PUSH0 MSTORE PUSH1 0x40 PUSH0 KECCAK256 PUSH0 SWAP2 POP SWAP1 POP SLOAD DUP2 JUMP JUMPDEST DUP1 PUSH0 DUP1 DUP5 PUSH20 0xFFFFFFFFFFFFFFFFFFFFFFFFFFFFFFFFFFFFFFFF AND PUSH20 0xFFFFFFFFFFFFFFFFFFFFFFFFFFFFFFFFFFFFFFFF AND DUP2 MSTORE PUSH1 0x20 ADD SWAP1 DUP2 MSTORE PUSH1 0x20 ADD PUSH0 KECCAK256 PUSH0 DUP3 DUP3 SLOAD PUSH2 0xA8E SWAP2 SWAP1 PUSH2 0xF8F JUMP JUMPDEST SWAP3 POP POP DUP2 SWAP1 SSTORE POP DUP1 PUSH1 0x4 PUSH0 DUP3 DUP3 SLOAD PUSH2 0xAA6 SWAP2 SWAP1 PUSH2 0xF8F JUMP JUMPDEST SWAP3 POP POP DUP2 SWAP1 SSTORE POP DUP2 PUSH20 0xFFFFFFFFFFFFFFFFFFFFFFFFFFFFFFFFFFFFFFFF AND PUSH0 PUSH20 0xFFFFFFFFFFFFFFFFFFFFFFFFFFFFFFFFFFFFFFFF AND PUSH32 0xDDF252AD1BE2C89B69C2B068FC378DAA952BA7F163C4A11628F55A4DF523B3EF DUP4 PUSH1 0x40 MLOAD PUSH2 0xB0A SWAP2 SWAP1 PUSH2 0xCAB JUMP JUMPDEST PUSH1 0x40 MLOAD DUP1 SWAP2 SUB SWAP1 LOG3 POP POP JUMP JUMPDEST DUP1 PUSH0 DUP1 DUP5 PUSH20 0xFFFFFFFFFFFFFFFFFFFFFFFFFFFFFFFFFFFFFFFF AND PUSH20 0xFFFFFFFFFFFFFFFFFFFFFFFFFFFFFFFFFFFFFFFF AND DUP2 MSTORE PUSH1 0x20 ADD SWAP1 DUP2 MSTORE PUSH1 0x20 ADD PUSH0 KECCAK256 PUSH0 DUP3 DUP3 SLOAD PUSH2 0xB61 SWAP2 SWAP1 PUSH2 0xF5C JUMP JUMPDEST SWAP3 POP POP DUP2 SWAP1 SSTORE POP DUP1 PUSH1 0x4 PUSH0 DUP3 DUP3 SLOAD PUSH2 0xB79 SWAP2 SWAP1 PUSH2 0xF5C JUMP JUMPDEST SWAP3 POP POP DUP2 SWAP1 SSTORE POP PUSH0 PUSH20 0xFFFFFFFFFFFFFFFFFFFFFFFFFFFFFFFFFFFFFFFF AND DUP3 PUSH20 0xFFFFFFFFFFFFFFFFFFFFFFFFFFFFFFFFFFFFFFFF AND PUSH32 0xDDF252AD1BE2C89B69C2B068FC378DAA952BA7F163C4A11628F55A4DF523B3EF DUP4 PUSH1 0x40 MLOAD PUSH2 0xBDD SWAP2 SWAP1 PUSH2 0xCAB JUMP JUMPDEST PUSH1 0x40 MLOAD DUP1 SWAP2 SUB SWAP1 LOG3 POP POP JUMP JUMPDEST PUSH0 DUP2 MLOAD SWAP1 POP SWAP2 SWAP1 POP JUMP JUMPDEST PUSH0 DUP3 DUP3 MSTORE PUSH1 0x20 DUP3 ADD SWAP1 POP SWAP3 SWAP2 POP POP JUMP JUMPDEST PUSH0 JUMPDEST DUP4 DUP2 LT ISZERO PUSH2 0xC20 JUMPI DUP1 DUP3 ADD MLOAD DUP2 DUP5 ADD MSTORE PUSH1 0x20 DUP2 ADD SWAP1 POP PUSH2 0xC05 JUMP JUMPDEST PUSH0 DUP5 DUP5 ADD MSTORE POP POP POP POP JUMP JUMPDEST PUSH0 PUSH1 0x1F NOT PUSH1 0x1F DUP4 ADD AND SWAP1 POP SWAP2 SWAP1 POP JUMP JUMPDEST PUSH0 PUSH2 0xC45 DUP3 PUSH2 0xBE9 JUMP JUMPDEST PUSH2 0xC4F DUP2 DUP6 PUSH2 0xBF3 JUMP JUMPDEST SWAP4 POP PUSH2 0xC5F DUP2 DUP6 PUSH1 0x20 DUP7 ADD PUSH2 0xC03 JUMP JUMPDEST PUSH2 0xC68 DUP2 PUSH2 0xC2B JUMP JUMPDEST DUP5 ADD SWAP2 POP POP SWAP3 SWAP2 POP POP JUMP JUMPDEST PUSH0 PUSH1 0x20 DUP3 ADD SWAP1 POP DUP2 DUP2 SUB PUSH0 DUP4 ADD MSTORE PUSH2 0xC8B DUP2 DUP5 PUSH2 0xC3B JUMP JUMPDEST SWAP1 POP SWAP3 SWAP2 POP POP JUMP JUMPDEST PUSH0 DUP2 SWAP1 POP SWAP2 SWAP1 POP JUMP JUMPDEST PUSH2 0xCA5 DUP2 PUSH2 0xC93 JUMP JUMPDEST DUP3 MSTORE POP POP JUMP JUMPDEST PUSH0 PUSH1 0x20 DUP3 ADD SWAP1 POP PUSH2 0xCBE PUSH0 DUP4 ADD DUP5 PUSH2 0xC9C JUMP JUMPDEST SWAP3 SWAP2 POP POP JUMP JUMPDEST PUSH0 DUP1 REVERT JUMPDEST PUSH0 PUSH20 0xFFFFFFFFFFFFFFFFFFFFFFFFFFFFFFFFFFFFFFFF DUP3 AND SWAP1 POP SWAP2 SWAP1 POP JUMP JUMPDEST PUSH0 PUSH2 0xCF1 DUP3 PUSH2 0xCC8 JUMP JUMPDEST SWAP1 POP SWAP2 SWAP1 POP JUMP JUMPDEST PUSH2 0xD01 DUP2 PUSH2 0xCE7 JUMP JUMPDEST DUP2 EQ PUSH2 0xD0B JUMPI PUSH0 DUP1 REVERT JUMPDEST POP JUMP JUMPDEST PUSH0 DUP2 CALLDATALOAD SWAP1 POP PUSH2 0xD1C DUP2 PUSH2 0xCF8 JUMP JUMPDEST SWAP3 SWAP2 POP POP JUMP JUMPDEST PUSH2 0xD2B DUP2 PUSH2 0xC93 JUMP JUMPDEST DUP2 EQ PUSH2 0xD35 JUMPI PUSH0 DUP1 REVERT JUMPDEST POP JUMP JUMPDEST PUSH0 DUP2 CALLDATALOAD SWAP1 POP PUSH2 0xD46 DUP2 PUSH2 0xD22 JUMP JUMPDEST SWAP3 SWAP2 POP POP JUMP JUMPDEST PUSH0 DUP1 PUSH0 PUSH1 0x60 DUP5 DUP7 SUB SLT ISZERO PUSH2 0xD63 JUMPI PUSH2 0xD62 PUSH2 0xCC4 JUMP JUMPDEST JUMPDEST PUSH0 PUSH2 0xD70 DUP7 DUP3 DUP8 ADD PUSH2 0xD0E JUMP JUMPDEST SWAP4 POP POP PUSH1 0x20 PUSH2 0xD81 DUP7 DUP3 DUP8 ADD PUSH2 0xD0E JUMP JUMPDEST SWAP3 POP POP PUSH1 0x40 PUSH2 0xD92 DUP7 DUP3 DUP8 ADD PUSH2 0xD38 JUMP JUMPDEST SWAP2 POP POP SWAP3 POP SWAP3 POP SWAP3 JUMP JUMPDEST PUSH0 DUP2 ISZERO ISZERO SWAP1 POP SWAP2 SWAP1 POP JUMP JUMPDEST PUSH2 0xDB0 DUP2 PUSH2 0xD9C JUMP JUMPDEST DUP3 MSTORE POP POP JUMP JUMPDEST PUSH0 PUSH1 0x20 DUP3 ADD SWAP1 POP PUSH2 0xDC9 PUSH0 DUP4 ADD DUP5 PUSH2 0xDA7 JUMP JUMPDEST SWAP3 SWAP2 POP POP JUMP JUMPDEST PUSH0 DUP1 PUSH1 0x40 DUP4 DUP6 SUB SLT ISZERO PUSH2 0xDE5 JUMPI PUSH2 0xDE4 PUSH2 0xCC4 JUMP JUMPDEST JUMPDEST PUSH0 PUSH2 0xDF2 DUP6 DUP3 DUP7 ADD PUSH2 0xD0E JUMP JUMPDEST SWAP3 POP POP PUSH1 0x20 PUSH2 0xE03 DUP6 DUP3 DUP7 ADD PUSH2 0xD0E JUMP JUMPDEST SWAP2 POP POP SWAP3 POP SWAP3 SWAP1 POP JUMP JUMPDEST PUSH0 PUSH1 0xFF DUP3 AND SWAP1 POP SWAP2 SWAP1 POP JUMP JUMPDEST PUSH2 0xE22 DUP2 PUSH2 0xE0D JUMP JUMPDEST DUP3 MSTORE POP POP JUMP JUMPDEST PUSH0 PUSH1 0x20 DUP3 ADD SWAP1 POP PUSH2 0xE3B PUSH0 DUP4 ADD DUP5 PUSH2 0xE19 JUMP JUMPDEST SWAP3 SWAP2 POP POP JUMP JUMPDEST PUSH2 0xE4A DUP2 PUSH2 0xCE7 JUMP JUMPDEST DUP3 MSTORE POP POP JUMP JUMPDEST PUSH0 PUSH1 0x20 DUP3 ADD SWAP1 POP PUSH2 0xE63 PUSH0 DUP4 ADD DUP5 PUSH2 0xE41 JUMP JUMPDEST SWAP3 SWAP2 POP POP JUMP JUMPDEST PUSH0 DUP1 PUSH1 0x40 DUP4 DUP6 SUB SLT ISZERO PUSH2 0xE7F JUMPI PUSH2 0xE7E PUSH2 0xCC4 JUMP JUMPDEST JUMPDEST PUSH0 PUSH2 0xE8C DUP6 DUP3 DUP7 ADD PUSH2 0xD0E JUMP JUMPDEST SWAP3 POP POP PUSH1 0x20 PUSH2 0xE9D DUP6 DUP3 DUP7 ADD PUSH2 0xD38 JUMP JUMPDEST SWAP2 POP POP SWAP3 POP SWAP3 SWAP1 POP JUMP JUMPDEST PUSH0 PUSH1 0x20 DUP3 DUP5 SUB SLT ISZERO PUSH2 0xEBC JUMPI PUSH2 0xEBB PUSH2 0xCC4 JUMP JUMPDEST JUMPDEST PUSH0 PUSH2 0xEC9 DUP5 DUP3 DUP6 ADD PUSH2 0xD0E JUMP JUMPDEST SWAP2 POP POP SWAP3 SWAP2 POP POP JUMP JUMPDEST PUSH32 0x4E487B7100000000000000000000000000000000000000000000000000000000 PUSH0 MSTORE PUSH1 0x22 PUSH1 0x4 MSTORE PUSH1 0x24 PUSH0 REVERT JUMPDEST PUSH0 PUSH1 0x2 DUP3 DIV SWAP1 POP PUSH1 0x1 DUP3 AND DUP1 PUSH2 0xF16 JUMPI PUSH1 0x7F DUP3 AND SWAP2 POP JUMPDEST PUSH1 0x20 DUP3 LT DUP2 SUB PUSH2 0xF29 JUMPI PUSH2 0xF28 PUSH2 0xED2 JUMP JUMPDEST JUMPDEST POP SWAP2 SWAP1 POP JUMP JUMPDEST PUSH32 0x4E487B7100000000000000000000000000000000000000000000000000000000 PUSH0 MSTORE PUSH1 0x11 PUSH1 0x4 MSTORE PUSH1 0x24 PUSH0 REVERT JUMPDEST PUSH0 PUSH2 0xF66 DUP3 PUSH2 0xC93 JUMP JUMPDEST SWAP2 POP PUSH2 0xF71 DUP4 PUSH2 0xC93 JUMP JUMPDEST SWAP3 POP DUP3 DUP3 SUB SWAP1 POP DUP2 DUP2 GT ISZERO PUSH2 0xF89 JUMPI PUSH2 0xF88 PUSH2 0xF2F JUMP JUMPDEST JUMPDEST SWAP3 SWAP2 POP POP JUMP JUMPDEST PUSH0 PUSH2 0xF99 DUP3 PUSH2 0xC93 JUMP JUMPDEST SWAP2 POP PUSH2 0xFA4 DUP4 PUSH2 0xC93 JUMP JUMPDEST SWAP3 POP DUP3 DUP3 ADD SWAP1 POP DUP1 DUP3 GT ISZERO PUSH2 0xFBC JUMPI PUSH2 0xFBB PUSH2 0xF2F JUMP JUMPDEST JUMPDEST SWAP3 SWAP2 POP POP JUMP INVALID LOG2 PUSH5 0x6970667358 0x22 SLT KECCAK256 0xD 0x5D 0xBD XOR SSTORE KECCAK256 PUSH5 0xCA2525D594 JUMP COINBASE 0xB1 EQ DUP2 MULMOD 0xAB 0xDB PUSH25 0x93F18339DF64AF8226799D64736F6C63430008140033000000 "
				},
				"gasEstimates": {
					"creation": {
						"codeDepositCost": "817600",
						"executionCost": "infinite",
						"totalCost": "infinite"
					},
					"external": {
						"accAllowance(address,address)": "infinite",
						"accBalance(address)": "2889",
						"allowance(address,address)": "infinite",
						"approve(address,address,uint256)": "infinite",
						"balanceOf(address)": "2852",
						"burn(address,uint256)": "infinite",
						"decimals()": "2511",
						"getAddress()": "446",
						"getTotalSupply()": "2454",
						"mint(address,uint256)": "infinite",
						"name()": "infinite",
						"symbol()": "infinite",
						"totalSupply()": "2471",
						"transfer(address,uint256)": "infinite",
						"transferFrom(address,address,uint256)": "infinite"
					},
					"internal": {
						"_burn(address,uint256)": "infinite",
						"_mint(address,uint256)": "infinite"
					}
				},
				"methodIdentifiers": {
					"accAllowance(address,address)": "2be7c04a",
					"accBalance(address)": "f6ae79ac",
					"allowance(address,address)": "dd62ed3e",
					"approve(address,address,uint256)": "e1f21c67",
					"balanceOf(address)": "70a08231",
					"burn(address,uint256)": "9dc29fac",
					"decimals()": "313ce567",
					"getAddress()": "38cc4831",
					"getTotalSupply()": "c4e41b22",
					"mint(address,uint256)": "40c10f19",
					"name()": "06fdde03",
					"symbol()": "95d89b41",
					"totalSupply()": "18160ddd",
					"transfer(address,uint256)": "a9059cbb",
					"transferFrom(address,address,uint256)": "23b872dd"
				}
			},
			"storageLayout": {
				"storage": [
					{
						"astId": 121,
						"contract": "contracts/Dex.sol:DXTK",
						"label": "accBalance",
						"offset": 0,
						"slot": "0",
						"type": "t_mapping(t_address,t_uint256)"
					},
					{
						"astId": 127,
						"contract": "contracts/Dex.sol:DXTK",
						"label": "accAllowance",
						"offset": 0,
						"slot": "1",
						"type": "t_mapping(t_address,t_mapping(t_address,t_uint256))"
					},
					{
						"astId": 130,
						"contract": "contracts/Dex.sol:DXTK",
						"label": "name",
						"offset": 0,
						"slot": "2",
						"type": "t_string_storage"
					},
					{
						"astId": 133,
						"contract": "contracts/Dex.sol:DXTK",
						"label": "symbol",
						"offset": 0,
						"slot": "3",
						"type": "t_string_storage"
					},
					{
						"astId": 136,
						"contract": "contracts/Dex.sol:DXTK",
						"label": "totalSupply",
						"offset": 0,
						"slot": "4",
						"type": "t_uint256"
					},
					{
						"astId": 139,
						"contract": "contracts/Dex.sol:DXTK",
						"label": "decimals",
						"offset": 0,
						"slot": "5",
						"type": "t_uint8"
					}
				],
				"types": {
					"t_address": {
						"encoding": "inplace",
						"label": "address",
						"numberOfBytes": "20"
					},
					"t_mapping(t_address,t_mapping(t_address,t_uint256))": {
						"encoding": "mapping",
						"key": "t_address",
						"label": "mapping(address => mapping(address => uint256))",
						"numberOfBytes": "32",
						"value": "t_mapping(t_address,t_uint256)"
					},
					"t_mapping(t_address,t_uint256)": {
						"encoding": "mapping",
						"key": "t_address",
						"label": "mapping(address => uint256)",
						"numberOfBytes": "32",
						"value": "t_uint256"
					},
					"t_string_storage": {
						"encoding": "bytes",
						"label": "string",
						"numberOfBytes": "32"
					},
					"t_uint256": {
						"encoding": "inplace",
						"label": "uint256",
						"numberOfBytes": "32"
					},
					"t_uint8": {
						"encoding": "inplace",
						"label": "uint8",
						"numberOfBytes": "1"
					}
				}
			},
			"userdoc": {
				"kind": "user",
				"methods": {},
				"version": 1
			}
		}
	}
}