{
	"contracts/DexToken.sol": {
		"ERC20": {
			"abi": [
				{
					"inputs": [
						{
							"internalType": "string",
							"name": "_name",
							"type": "string"
						},
						{
							"internalType": "string",
							"name": "_symbol",
							"type": "string"
						},
						{
							"internalType": "uint256",
							"name": "_totalSupply",
							"type": "uint256"
						}
					],
					"stateMutability": "nonpayable",
					"type": "constructor"
				},
				{
					"anonymous": false,
					"inputs": [
						{
							"indexed": true,
							"internalType": "address",
							"name": "owner",
							"type": "address"
						},
						{
							"indexed": true,
							"internalType": "address",
							"name": "spender",
							"type": "address"
						},
						{
							"indexed": false,
							"internalType": "uint256",
							"name": "value",
							"type": "uint256"
						}
					],
					"name": "Approval",
					"type": "event"
				},
				{
					"anonymous": false,
					"inputs": [
						{
							"indexed": true,
							"internalType": "address",
							"name": "from",
							"type": "address"
						},
						{
							"indexed": true,
							"internalType": "address",
							"name": "to",
							"type": "address"
						},
						{
							"indexed": false,
							"internalType": "uint256",
							"name": "value",
							"type": "uint256"
						}
					],
					"name": "Transfer",
					"type": "event"
				},
				{
					"inputs": [
						{
							"internalType": "address",
							"name": "",
							"type": "address"
						},
						{
							"internalType": "address",
							"name": "",
							"type": "address"
						}
					],
					"name": "accAllowance",
					"outputs": [
						{
							"internalType": "uint256",
							"name": "",
							"type": "uint256"
						}
					],
					"stateMutability": "view",
					"type": "function"
				},
				{
					"inputs": [
						{
							"internalType": "address",
							"name": "",
							"type": "address"
						}
					],
					"name": "accBalance",
					"outputs": [
						{
							"internalType": "uint256",
							"name": "",
							"type": "uint256"
						}
					],
					"stateMutability": "view",
					"type": "function"
				},
				{
					"inputs": [
						{
							"internalType": "address",
							"name": "owner",
							"type": "address"
						},
						{
							"internalType": "address",
							"name": "spender",
							"type": "address"
						}
					],
					"name": "allowance",
					"outputs": [
						{
							"internalType": "uint256",
							"name": "",
							"type": "uint256"
						}
					],
					"stateMutability": "view",
					"type": "function"
				},
				{
					"inputs": [
						{
							"internalType": "address",
							"name": "spender",
							"type": "address"
						},
						{
							"internalType": "uint256",
							"name": "amount",
							"type": "uint256"
						}
					],
					"name": "approve",
					"outputs": [
						{
							"internalType": "bool",
							"name": "",
							"type": "bool"
						}
					],
					"stateMutability": "nonpayable",
					"type": "function"
				},
				{
					"inputs": [
						{
							"internalType": "address",
							"name": "owner",
							"type": "address"
						}
					],
					"name": "balanceOf",
					"outputs": [
						{
							"internalType": "uint256",
							"name": "",
							"type": "uint256"
						}
					],
					"stateMutability": "view",
					"type": "function"
				},
				{
					"inputs": [
						{
							"internalType": "address",
							"name": "from",
							"type": "address"
						},
						{
							"internalType": "uint256",
							"name": "amount",
							"type": "uint256"
						}
					],
					"name": "burn",
					"outputs": [],
					"stateMutability": "nonpayable",
					"type": "function"
				},
				{
					"inputs": [],
					"name": "decimals",
					"outputs": [
						{
							"internalType": "uint8",
							"name": "",
							"type": "uint8"
						}
					],
					"stateMutability": "view",
					"type": "function"
				},
				{
					"inputs": [],
					"name": "getAddress",
					"outputs": [
						{
							"internalType": "address",
							"name": "",
							"type": "address"
						}
					],
					"stateMutability": "view",
					"type": "function"
				},
				{
					"inputs": [],
					"name": "getTotalSupply",
					"outputs": [
						{
							"internalType": "uint256",
							"name": "",
							"type": "uint256"
						}
					],
					"stateMutability": "view",
					"type": "function"
				},
				{
					"inputs": [
						{
							"internalType": "address",
							"name": "to",
							"type": "address"
						},
						{
							"internalType": "uint256",
							"name": "amount",
							"type": "uint256"
						}
					],
					"name": "mint",
					"outputs": [],
					"stateMutability": "nonpayable",
					"type": "function"
				},
				{
					"inputs": [],
					"name": "name",
					"outputs": [
						{
							"internalType": "string",
							"name": "",
							"type": "string"
						}
					],
					"stateMutability": "view",
					"type": "function"
				},
				{
					"inputs": [],
					"name": "symbol",
					"outputs": [
						{
							"internalType": "string",
							"name": "",
							"type": "string"
						}
					],
					"stateMutability": "view",
					"type": "function"
				},
				{
					"inputs": [],
					"name": "totalSupply",
					"outputs": [
						{
							"internalType": "uint256",
							"name": "",
							"type": "uint256"
						}
					],
					"stateMutability": "view",
					"type": "function"
				},
				{
					"inputs": [
						{
							"internalType": "address",
							"name": "recipient",
							"type": "address"
						},
						{
							"internalType": "uint256",
							"name": "amount",
							"type": "uint256"
						}
					],
					"name": "transfer",
					"outputs": [
						{
							"internalType": "bool",
							"name": "",
							"type": "bool"
						}
					],
					"stateMutability": "nonpayable",
					"type": "function"
				},
				{
					"inputs": [
						{
							"internalType": "address",
							"name": "sender",
							"type": "address"
						},
						{
							"internalType": "address",
							"name": "recipient",
							"type": "address"
						},
						{
							"internalType": "uint256",
							"name": "amount",
							"type": "uint256"
						}
					],
					"name": "transferFrom",
					"outputs": [
						{
							"internalType": "bool",
							"name": "",
							"type": "bool"
						}
					],
					"stateMutability": "nonpayable",
					"type": "function"
				}
			],
			"devdoc": {
				"kind": "dev",
				"methods": {},
				"version": 1
			},
			"evm": {
				"assembly": "    /* \"contracts/DexToken.sol\":1845:4349  contract ERC20 is IERC20 {... */\n  mstore(0x40, 0x80)\n    /* \"contracts/DexToken.sol\":2105:2107  18 */\n  0x12\n    /* \"contracts/DexToken.sol\":2083:2107  uint8 public decimals=18 */\n  0x05\n  exp(0x0100, 0x00)\n  dup2\n  sload\n  dup2\n  0xff\n  mul\n  not\n  and\n  swap1\n  dup4\n  0xff\n  and\n  mul\n  or\n  swap1\n  sstore\n  pop\n    /* \"contracts/DexToken.sol\":2114:2315  constructor(string memory _name, string memory _symbol, uint256 _totalSupply) {... */\n  callvalue\n  dup1\n  iszero\n  tag_1\n  jumpi\n  0x00\n  dup1\n  revert\ntag_1:\n  pop\n  mload(0x40)\n  sub(codesize, bytecodeSize)\n  dup1\n  bytecodeSize\n  dup4\n  codecopy\n  dup2\n  dup2\n  add\n  0x40\n  mstore\n  dup2\n  add\n  swap1\n  tag_2\n  swap2\n  swap1\n  tag_3\n  jump\t// in\ntag_2:\n    /* \"contracts/DexToken.sol\":2209:2214  _name */\n  dup3\n    /* \"contracts/DexToken.sol\":2202:2206  name */\n  0x03\n    /* \"contracts/DexToken.sol\":2202:2214  name = _name */\n  swap1\n  dup2\n  tag_6\n  swap2\n  swap1\n  tag_7\n  jump\t// in\ntag_6:\n  pop\n    /* \"contracts/DexToken.sol\":2233:2240  _symbol */\n  dup2\n    /* \"contracts/DexToken.sol\":2224:2230  symbol */\n  0x04\n    /* \"contracts/DexToken.sol\":2224:2240  symbol = _symbol */\n  swap1\n  dup2\n  tag_8\n  swap2\n  swap1\n  tag_7\n  jump\t// in\ntag_8:\n  pop\n    /* \"contracts/DexToken.sol\":2264:2276  _totalSupply */\n  dup1\n    /* \"contracts/DexToken.sol\":2250:2261  totalSupply */\n  0x00\n    /* \"contracts/DexToken.sol\":2250:2276  totalSupply = _totalSupply */\n  dup2\n  swap1\n  sstore\n  pop\n    /* \"contracts/DexToken.sol\":2114:2315  constructor(string memory _name, string memory _symbol, uint256 _totalSupply) {... */\n  pop\n  pop\n  pop\n    /* \"contracts/DexToken.sol\":1845:4349  contract ERC20 is IERC20 {... */\n  jump(tag_9)\n    /* \"#utility.yul\":7:82   */\ntag_10:\n    /* \"#utility.yul\":40:46   */\n  0x00\n    /* \"#utility.yul\":73:75   */\n  0x40\n    /* \"#utility.yul\":67:76   */\n  mload\n    /* \"#utility.yul\":57:76   */\n  swap1\n  pop\n    /* \"#utility.yul\":7:82   */\n  swap1\n  jump\t// out\n    /* \"#utility.yul\":88:205   */\ntag_11:\n    /* \"#utility.yul\":197:198   */\n  0x00\n    /* \"#utility.yul\":194:195   */\n  dup1\n    /* \"#utility.yul\":187:199   */\n  revert\n    /* \"#utility.yul\":211:328   */\ntag_12:\n    /* \"#utility.yul\":320:321   */\n  0x00\n    /* \"#utility.yul\":317:318   */\n  dup1\n    /* \"#utility.yul\":310:322   */\n  revert\n    /* \"#utility.yul\":334:451   */\ntag_13:\n    /* \"#utility.yul\":443:444   */\n  0x00\n    /* \"#utility.yul\":440:441   */\n  dup1\n    /* \"#utility.yul\":433:445   */\n  revert\n    /* \"#utility.yul\":457:574   */\ntag_14:\n    /* \"#utility.yul\":566:567   */\n  0x00\n    /* \"#utility.yul\":563:564   */\n  dup1\n    /* \"#utility.yul\":556:568   */\n  revert\n    /* \"#utility.yul\":580:682   */\ntag_15:\n    /* \"#utility.yul\":621:627   */\n  0x00\n    /* \"#utility.yul\":672:674   */\n  0x1f\n    /* \"#utility.yul\":668:675   */\n  not\n    /* \"#utility.yul\":663:665   */\n  0x1f\n    /* \"#utility.yul\":656:661   */\n  dup4\n    /* \"#utility.yul\":652:666   */\n  add\n    /* \"#utility.yul\":648:676   */\n  and\n    /* \"#utility.yul\":638:676   */\n  swap1\n  pop\n    /* \"#utility.yul\":580:682   */\n  swap2\n  swap1\n  pop\n  jump\t// out\n    /* \"#utility.yul\":688:868   */\ntag_16:\n    /* \"#utility.yul\":736:813   */\n  0x4e487b7100000000000000000000000000000000000000000000000000000000\n    /* \"#utility.yul\":733:734   */\n  0x00\n    /* \"#utility.yul\":726:814   */\n  mstore\n    /* \"#utility.yul\":833:837   */\n  0x41\n    /* \"#utility.yul\":830:831   */\n  0x04\n    /* \"#utility.yul\":823:838   */\n  mstore\n    /* \"#utility.yul\":857:861   */\n  0x24\n    /* \"#utility.yul\":854:855   */\n  0x00\n    /* \"#utility.yul\":847:862   */\n  revert\n    /* \"#utility.yul\":874:1155   */\ntag_17:\n    /* \"#utility.yul\":957:984   */\n  tag_53\n    /* \"#utility.yul\":979:983   */\n  dup3\n    /* \"#utility.yul\":957:984   */\n  tag_15\n  jump\t// in\ntag_53:\n    /* \"#utility.yul\":949:955   */\n  dup2\n    /* \"#utility.yul\":945:985   */\n  add\n    /* \"#utility.yul\":1087:1093   */\n  dup2\n    /* \"#utility.yul\":1075:1085   */\n  dup2\n    /* \"#utility.yul\":1072:1094   */\n  lt\n    /* \"#utility.yul\":1051:1069   */\n  0xffffffffffffffff\n    /* \"#utility.yul\":1039:1049   */\n  dup3\n    /* \"#utility.yul\":1036:1070   */\n  gt\n    /* \"#utility.yul\":1033:1095   */\n  or\n    /* \"#utility.yul\":1030:1118   */\n  iszero\n  tag_54\n  jumpi\n    /* \"#utility.yul\":1098:1116   */\n  tag_55\n  tag_16\n  jump\t// in\ntag_55:\n    /* \"#utility.yul\":1030:1118   */\ntag_54:\n    /* \"#utility.yul\":1138:1148   */\n  dup1\n    /* \"#utility.yul\":1134:1136   */\n  0x40\n    /* \"#utility.yul\":1127:1149   */\n  mstore\n    /* \"#utility.yul\":917:1155   */\n  pop\n    /* \"#utility.yul\":874:1155   */\n  pop\n  pop\n  jump\t// out\n    /* \"#utility.yul\":1161:1290   */\ntag_18:\n    /* \"#utility.yul\":1195:1201   */\n  0x00\n    /* \"#utility.yul\":1222:1242   */\n  tag_57\n  tag_10\n  jump\t// in\ntag_57:\n    /* \"#utility.yul\":1212:1242   */\n  swap1\n  pop\n    /* \"#utility.yul\":1251:1284   */\n  tag_58\n    /* \"#utility.yul\":1279:1283   */\n  dup3\n    /* \"#utility.yul\":1271:1277   */\n  dup3\n    /* \"#utility.yul\":1251:1284   */\n  tag_17\n  jump\t// in\ntag_58:\n    /* \"#utility.yul\":1161:1290   */\n  swap2\n  swap1\n  pop\n  jump\t// out\n    /* \"#utility.yul\":1296:1604   */\ntag_19:\n    /* \"#utility.yul\":1358:1362   */\n  0x00\n    /* \"#utility.yul\":1448:1466   */\n  0xffffffffffffffff\n    /* \"#utility.yul\":1440:1446   */\n  dup3\n    /* \"#utility.yul\":1437:1467   */\n  gt\n    /* \"#utility.yul\":1434:1490   */\n  iszero\n  tag_60\n  jumpi\n    /* \"#utility.yul\":1470:1488   */\n  tag_61\n  tag_16\n  jump\t// in\ntag_61:\n    /* \"#utility.yul\":1434:1490   */\ntag_60:\n    /* \"#utility.yul\":1508:1537   */\n  tag_62\n    /* \"#utility.yul\":1530:1536   */\n  dup3\n    /* \"#utility.yul\":1508:1537   */\n  tag_15\n  jump\t// in\ntag_62:\n    /* \"#utility.yul\":1500:1537   */\n  swap1\n  pop\n    /* \"#utility.yul\":1592:1596   */\n  0x20\n    /* \"#utility.yul\":1586:1590   */\n  dup2\n    /* \"#utility.yul\":1582:1597   */\n  add\n    /* \"#utility.yul\":1574:1597   */\n  swap1\n  pop\n    /* \"#utility.yul\":1296:1604   */\n  swap2\n  swap1\n  pop\n  jump\t// out\n    /* \"#utility.yul\":1610:1856   */\ntag_20:\n    /* \"#utility.yul\":1691:1692   */\n  0x00\n    /* \"#utility.yul\":1701:1814   */\ntag_64:\n    /* \"#utility.yul\":1715:1721   */\n  dup4\n    /* \"#utility.yul\":1712:1713   */\n  dup2\n    /* \"#utility.yul\":1709:1722   */\n  lt\n    /* \"#utility.yul\":1701:1814   */\n  iszero\n  tag_66\n  jumpi\n    /* \"#utility.yul\":1800:1801   */\n  dup1\n    /* \"#utility.yul\":1795:1798   */\n  dup3\n    /* \"#utility.yul\":1791:1802   */\n  add\n    /* \"#utility.yul\":1785:1803   */\n  mload\n    /* \"#utility.yul\":1781:1782   */\n  dup2\n    /* \"#utility.yul\":1776:1779   */\n  dup5\n    /* \"#utility.yul\":1772:1783   */\n  add\n    /* \"#utility.yul\":1765:1804   */\n  mstore\n    /* \"#utility.yul\":1737:1739   */\n  0x20\n    /* \"#utility.yul\":1734:1735   */\n  dup2\n    /* \"#utility.yul\":1730:1740   */\n  add\n    /* \"#utility.yul\":1725:1740   */\n  swap1\n  pop\n    /* \"#utility.yul\":1701:1814   */\n  jump(tag_64)\ntag_66:\n    /* \"#utility.yul\":1848:1849   */\n  0x00\n    /* \"#utility.yul\":1839:1845   */\n  dup5\n    /* \"#utility.yul\":1834:1837   */\n  dup5\n    /* \"#utility.yul\":1830:1846   */\n  add\n    /* \"#utility.yul\":1823:1850   */\n  mstore\n    /* \"#utility.yul\":1672:1856   */\n  pop\n    /* \"#utility.yul\":1610:1856   */\n  pop\n  pop\n  pop\n  jump\t// out\n    /* \"#utility.yul\":1862:2296   */\ntag_21:\n    /* \"#utility.yul\":1951:1956   */\n  0x00\n    /* \"#utility.yul\":1976:2042   */\n  tag_68\n    /* \"#utility.yul\":1992:2041   */\n  tag_69\n    /* \"#utility.yul\":2034:2040   */\n  dup5\n    /* \"#utility.yul\":1992:2041   */\n  tag_19\n  jump\t// in\ntag_69:\n    /* \"#utility.yul\":1976:2042   */\n  tag_18\n  jump\t// in\ntag_68:\n    /* \"#utility.yul\":1967:2042   */\n  swap1\n  pop\n    /* \"#utility.yul\":2065:2071   */\n  dup3\n    /* \"#utility.yul\":2058:2063   */\n  dup2\n    /* \"#utility.yul\":2051:2072   */\n  mstore\n    /* \"#utility.yul\":2103:2107   */\n  0x20\n    /* \"#utility.yul\":2096:2101   */\n  dup2\n    /* \"#utility.yul\":2092:2108   */\n  add\n    /* \"#utility.yul\":2141:2144   */\n  dup5\n    /* \"#utility.yul\":2132:2138   */\n  dup5\n    /* \"#utility.yul\":2127:2130   */\n  dup5\n    /* \"#utility.yul\":2123:2139   */\n  add\n    /* \"#utility.yul\":2120:2145   */\n  gt\n    /* \"#utility.yul\":2117:2229   */\n  iszero\n  tag_70\n  jumpi\n    /* \"#utility.yul\":2148:2227   */\n  tag_71\n  tag_14\n  jump\t// in\ntag_71:\n    /* \"#utility.yul\":2117:2229   */\ntag_70:\n    /* \"#utility.yul\":2238:2290   */\n  tag_72\n    /* \"#utility.yul\":2283:2289   */\n  dup5\n    /* \"#utility.yul\":2278:2281   */\n  dup3\n    /* \"#utility.yul\":2273:2276   */\n  dup6\n    /* \"#utility.yul\":2238:2290   */\n  tag_20\n  jump\t// in\ntag_72:\n    /* \"#utility.yul\":1957:2296   */\n  pop\n    /* \"#utility.yul\":1862:2296   */\n  swap4\n  swap3\n  pop\n  pop\n  pop\n  jump\t// out\n    /* \"#utility.yul\":2316:2671   */\ntag_22:\n    /* \"#utility.yul\":2383:2388   */\n  0x00\n    /* \"#utility.yul\":2432:2435   */\n  dup3\n    /* \"#utility.yul\":2425:2429   */\n  0x1f\n    /* \"#utility.yul\":2417:2423   */\n  dup4\n    /* \"#utility.yul\":2413:2430   */\n  add\n    /* \"#utility.yul\":2409:2436   */\n  slt\n    /* \"#utility.yul\":2399:2521   */\n  tag_74\n  jumpi\n    /* \"#utility.yul\":2440:2519   */\n  tag_75\n  tag_13\n  jump\t// in\ntag_75:\n    /* \"#utility.yul\":2399:2521   */\ntag_74:\n    /* \"#utility.yul\":2550:2556   */\n  dup2\n    /* \"#utility.yul\":2544:2557   */\n  mload\n    /* \"#utility.yul\":2575:2665   */\n  tag_76\n    /* \"#utility.yul\":2661:2664   */\n  dup5\n    /* \"#utility.yul\":2653:2659   */\n  dup3\n    /* \"#utility.yul\":2646:2650   */\n  0x20\n    /* \"#utility.yul\":2638:2644   */\n  dup7\n    /* \"#utility.yul\":2634:2651   */\n  add\n    /* \"#utility.yul\":2575:2665   */\n  tag_21\n  jump\t// in\ntag_76:\n    /* \"#utility.yul\":2566:2665   */\n  swap2\n  pop\n    /* \"#utility.yul\":2389:2671   */\n  pop\n    /* \"#utility.yul\":2316:2671   */\n  swap3\n  swap2\n  pop\n  pop\n  jump\t// out\n    /* \"#utility.yul\":2677:2754   */\ntag_23:\n    /* \"#utility.yul\":2714:2721   */\n  0x00\n    /* \"#utility.yul\":2743:2748   */\n  dup2\n    /* \"#utility.yul\":2732:2748   */\n  swap1\n  pop\n    /* \"#utility.yul\":2677:2754   */\n  swap2\n  swap1\n  pop\n  jump\t// out\n    /* \"#utility.yul\":2760:2882   */\ntag_24:\n    /* \"#utility.yul\":2833:2857   */\n  tag_79\n    /* \"#utility.yul\":2851:2856   */\n  dup2\n    /* \"#utility.yul\":2833:2857   */\n  tag_23\n  jump\t// in\ntag_79:\n    /* \"#utility.yul\":2826:2831   */\n  dup2\n    /* \"#utility.yul\":2823:2858   */\n  eq\n    /* \"#utility.yul\":2813:2876   */\n  tag_80\n  jumpi\n    /* \"#utility.yul\":2872:2873   */\n  0x00\n    /* \"#utility.yul\":2869:2870   */\n  dup1\n    /* \"#utility.yul\":2862:2874   */\n  revert\n    /* \"#utility.yul\":2813:2876   */\ntag_80:\n    /* \"#utility.yul\":2760:2882   */\n  pop\n  jump\t// out\n    /* \"#utility.yul\":2888:3031   */\ntag_25:\n    /* \"#utility.yul\":2945:2950   */\n  0x00\n    /* \"#utility.yul\":2976:2982   */\n  dup2\n    /* \"#utility.yul\":2970:2983   */\n  mload\n    /* \"#utility.yul\":2961:2983   */\n  swap1\n  pop\n    /* \"#utility.yul\":2992:3025   */\n  tag_82\n    /* \"#utility.yul\":3019:3024   */\n  dup2\n    /* \"#utility.yul\":2992:3025   */\n  tag_24\n  jump\t// in\ntag_82:\n    /* \"#utility.yul\":2888:3031   */\n  swap3\n  swap2\n  pop\n  pop\n  jump\t// out\n    /* \"#utility.yul\":3037:4046   */\ntag_3:\n    /* \"#utility.yul\":3145:3151   */\n  0x00\n    /* \"#utility.yul\":3153:3159   */\n  dup1\n    /* \"#utility.yul\":3161:3167   */\n  0x00\n    /* \"#utility.yul\":3210:3212   */\n  0x60\n    /* \"#utility.yul\":3198:3207   */\n  dup5\n    /* \"#utility.yul\":3189:3196   */\n  dup7\n    /* \"#utility.yul\":3185:3208   */\n  sub\n    /* \"#utility.yul\":3181:3213   */\n  slt\n    /* \"#utility.yul\":3178:3297   */\n  iszero\n  tag_84\n  jumpi\n    /* \"#utility.yul\":3216:3295   */\n  tag_85\n  tag_11\n  jump\t// in\ntag_85:\n    /* \"#utility.yul\":3178:3297   */\ntag_84:\n    /* \"#utility.yul\":3357:3358   */\n  0x00\n    /* \"#utility.yul\":3346:3355   */\n  dup5\n    /* \"#utility.yul\":3342:3359   */\n  add\n    /* \"#utility.yul\":3336:3360   */\n  mload\n    /* \"#utility.yul\":3387:3405   */\n  0xffffffffffffffff\n    /* \"#utility.yul\":3379:3385   */\n  dup2\n    /* \"#utility.yul\":3376:3406   */\n  gt\n    /* \"#utility.yul\":3373:3490   */\n  iszero\n  tag_86\n  jumpi\n    /* \"#utility.yul\":3409:3488   */\n  tag_87\n  tag_12\n  jump\t// in\ntag_87:\n    /* \"#utility.yul\":3373:3490   */\ntag_86:\n    /* \"#utility.yul\":3514:3588   */\n  tag_88\n    /* \"#utility.yul\":3580:3587   */\n  dup7\n    /* \"#utility.yul\":3571:3577   */\n  dup3\n    /* \"#utility.yul\":3560:3569   */\n  dup8\n    /* \"#utility.yul\":3556:3578   */\n  add\n    /* \"#utility.yul\":3514:3588   */\n  tag_22\n  jump\t// in\ntag_88:\n    /* \"#utility.yul\":3504:3588   */\n  swap4\n  pop\n    /* \"#utility.yul\":3307:3598   */\n  pop\n    /* \"#utility.yul\":3658:3660   */\n  0x20\n    /* \"#utility.yul\":3647:3656   */\n  dup5\n    /* \"#utility.yul\":3643:3661   */\n  add\n    /* \"#utility.yul\":3637:3662   */\n  mload\n    /* \"#utility.yul\":3689:3707   */\n  0xffffffffffffffff\n    /* \"#utility.yul\":3681:3687   */\n  dup2\n    /* \"#utility.yul\":3678:3708   */\n  gt\n    /* \"#utility.yul\":3675:3792   */\n  iszero\n  tag_89\n  jumpi\n    /* \"#utility.yul\":3711:3790   */\n  tag_90\n  tag_12\n  jump\t// in\ntag_90:\n    /* \"#utility.yul\":3675:3792   */\ntag_89:\n    /* \"#utility.yul\":3816:3890   */\n  tag_91\n    /* \"#utility.yul\":3882:3889   */\n  dup7\n    /* \"#utility.yul\":3873:3879   */\n  dup3\n    /* \"#utility.yul\":3862:3871   */\n  dup8\n    /* \"#utility.yul\":3858:3880   */\n  add\n    /* \"#utility.yul\":3816:3890   */\n  tag_22\n  jump\t// in\ntag_91:\n    /* \"#utility.yul\":3806:3890   */\n  swap3\n  pop\n    /* \"#utility.yul\":3608:3900   */\n  pop\n    /* \"#utility.yul\":3939:3941   */\n  0x40\n    /* \"#utility.yul\":3965:4029   */\n  tag_92\n    /* \"#utility.yul\":4021:4028   */\n  dup7\n    /* \"#utility.yul\":4012:4018   */\n  dup3\n    /* \"#utility.yul\":4001:4010   */\n  dup8\n    /* \"#utility.yul\":3997:4019   */\n  add\n    /* \"#utility.yul\":3965:4029   */\n  tag_25\n  jump\t// in\ntag_92:\n    /* \"#utility.yul\":3955:4029   */\n  swap2\n  pop\n    /* \"#utility.yul\":3910:4039   */\n  pop\n    /* \"#utility.yul\":3037:4046   */\n  swap3\n  pop\n  swap3\n  pop\n  swap3\n  jump\t// out\n    /* \"#utility.yul\":4052:4151   */\ntag_26:\n    /* \"#utility.yul\":4104:4110   */\n  0x00\n    /* \"#utility.yul\":4138:4143   */\n  dup2\n    /* \"#utility.yul\":4132:4144   */\n  mload\n    /* \"#utility.yul\":4122:4144   */\n  swap1\n  pop\n    /* \"#utility.yul\":4052:4151   */\n  swap2\n  swap1\n  pop\n  jump\t// out\n    /* \"#utility.yul\":4157:4337   */\ntag_27:\n    /* \"#utility.yul\":4205:4282   */\n  0x4e487b7100000000000000000000000000000000000000000000000000000000\n    /* \"#utility.yul\":4202:4203   */\n  0x00\n    /* \"#utility.yul\":4195:4283   */\n  mstore\n    /* \"#utility.yul\":4302:4306   */\n  0x22\n    /* \"#utility.yul\":4299:4300   */\n  0x04\n    /* \"#utility.yul\":4292:4307   */\n  mstore\n    /* \"#utility.yul\":4326:4330   */\n  0x24\n    /* \"#utility.yul\":4323:4324   */\n  0x00\n    /* \"#utility.yul\":4316:4331   */\n  revert\n    /* \"#utility.yul\":4343:4663   */\ntag_28:\n    /* \"#utility.yul\":4387:4393   */\n  0x00\n    /* \"#utility.yul\":4424:4425   */\n  0x02\n    /* \"#utility.yul\":4418:4422   */\n  dup3\n    /* \"#utility.yul\":4414:4426   */\n  div\n    /* \"#utility.yul\":4404:4426   */\n  swap1\n  pop\n    /* \"#utility.yul\":4471:4472   */\n  0x01\n    /* \"#utility.yul\":4465:4469   */\n  dup3\n    /* \"#utility.yul\":4461:4473   */\n  and\n    /* \"#utility.yul\":4492:4510   */\n  dup1\n    /* \"#utility.yul\":4482:4563   */\n  tag_96\n  jumpi\n    /* \"#utility.yul\":4548:4552   */\n  0x7f\n    /* \"#utility.yul\":4540:4546   */\n  dup3\n    /* \"#utility.yul\":4536:4553   */\n  and\n    /* \"#utility.yul\":4526:4553   */\n  swap2\n  pop\n    /* \"#utility.yul\":4482:4563   */\ntag_96:\n    /* \"#utility.yul\":4610:4612   */\n  0x20\n    /* \"#utility.yul\":4602:4608   */\n  dup3\n    /* \"#utility.yul\":4599:4613   */\n  lt\n    /* \"#utility.yul\":4579:4597   */\n  dup2\n    /* \"#utility.yul\":4576:4614   */\n  sub\n    /* \"#utility.yul\":4573:4657   */\n  tag_97\n  jumpi\n    /* \"#utility.yul\":4629:4647   */\n  tag_98\n  tag_27\n  jump\t// in\ntag_98:\n    /* \"#utility.yul\":4573:4657   */\ntag_97:\n    /* \"#utility.yul\":4394:4663   */\n  pop\n    /* \"#utility.yul\":4343:4663   */\n  swap2\n  swap1\n  pop\n  jump\t// out\n    /* \"#utility.yul\":4669:4810   */\ntag_29:\n    /* \"#utility.yul\":4718:4722   */\n  0x00\n    /* \"#utility.yul\":4741:4744   */\n  dup2\n    /* \"#utility.yul\":4733:4744   */\n  swap1\n  pop\n    /* \"#utility.yul\":4764:4767   */\n  dup2\n    /* \"#utility.yul\":4761:4762   */\n  0x00\n    /* \"#utility.yul\":4754:4768   */\n  mstore\n    /* \"#utility.yul\":4798:4802   */\n  0x20\n    /* \"#utility.yul\":4795:4796   */\n  0x00\n    /* \"#utility.yul\":4785:4803   */\n  keccak256\n    /* \"#utility.yul\":4777:4803   */\n  swap1\n  pop\n    /* \"#utility.yul\":4669:4810   */\n  swap2\n  swap1\n  pop\n  jump\t// out\n    /* \"#utility.yul\":4816:4909   */\ntag_30:\n    /* \"#utility.yul\":4853:4859   */\n  0x00\n    /* \"#utility.yul\":4900:4902   */\n  0x20\n    /* \"#utility.yul\":4895:4897   */\n  0x1f\n    /* \"#utility.yul\":4888:4893   */\n  dup4\n    /* \"#utility.yul\":4884:4898   */\n  add\n    /* \"#utility.yul\":4880:4903   */\n  div\n    /* \"#utility.yul\":4870:4903   */\n  swap1\n  pop\n    /* \"#utility.yul\":4816:4909   */\n  swap2\n  swap1\n  pop\n  jump\t// out\n    /* \"#utility.yul\":4915:5022   */\ntag_31:\n    /* \"#utility.yul\":4959:4967   */\n  0x00\n    /* \"#utility.yul\":5009:5014   */\n  dup3\n    /* \"#utility.yul\":5003:5007   */\n  dup3\n    /* \"#utility.yul\":4999:5015   */\n  shl\n    /* \"#utility.yul\":4978:5015   */\n  swap1\n  pop\n    /* \"#utility.yul\":4915:5022   */\n  swap3\n  swap2\n  pop\n  pop\n  jump\t// out\n    /* \"#utility.yul\":5028:5421   */\ntag_32:\n    /* \"#utility.yul\":5097:5103   */\n  0x00\n    /* \"#utility.yul\":5147:5148   */\n  0x08\n    /* \"#utility.yul\":5135:5145   */\n  dup4\n    /* \"#utility.yul\":5131:5149   */\n  mul\n    /* \"#utility.yul\":5170:5267   */\n  tag_103\n    /* \"#utility.yul\":5200:5266   */\n  0xffffffffffffffffffffffffffffffffffffffffffffffffffffffffffffffff\n    /* \"#utility.yul\":5189:5198   */\n  dup3\n    /* \"#utility.yul\":5170:5267   */\n  tag_31\n  jump\t// in\ntag_103:\n    /* \"#utility.yul\":5288:5327   */\n  tag_104\n    /* \"#utility.yul\":5318:5326   */\n  dup7\n    /* \"#utility.yul\":5307:5316   */\n  dup4\n    /* \"#utility.yul\":5288:5327   */\n  tag_31\n  jump\t// in\ntag_104:\n    /* \"#utility.yul\":5276:5327   */\n  swap6\n  pop\n    /* \"#utility.yul\":5360:5364   */\n  dup1\n    /* \"#utility.yul\":5356:5365   */\n  not\n    /* \"#utility.yul\":5349:5354   */\n  dup5\n    /* \"#utility.yul\":5345:5366   */\n  and\n    /* \"#utility.yul\":5336:5366   */\n  swap4\n  pop\n    /* \"#utility.yul\":5409:5413   */\n  dup1\n    /* \"#utility.yul\":5399:5407   */\n  dup7\n    /* \"#utility.yul\":5395:5414   */\n  and\n    /* \"#utility.yul\":5388:5393   */\n  dup5\n    /* \"#utility.yul\":5385:5415   */\n  or\n    /* \"#utility.yul\":5375:5415   */\n  swap3\n  pop\n    /* \"#utility.yul\":5104:5421   */\n  pop\n  pop\n    /* \"#utility.yul\":5028:5421   */\n  swap4\n  swap3\n  pop\n  pop\n  pop\n  jump\t// out\n    /* \"#utility.yul\":5427:5487   */\ntag_33:\n    /* \"#utility.yul\":5455:5458   */\n  0x00\n    /* \"#utility.yul\":5476:5481   */\n  dup2\n    /* \"#utility.yul\":5469:5481   */\n  swap1\n  pop\n    /* \"#utility.yul\":5427:5487   */\n  swap2\n  swap1\n  pop\n  jump\t// out\n    /* \"#utility.yul\":5493:5635   */\ntag_34:\n    /* \"#utility.yul\":5543:5552   */\n  0x00\n    /* \"#utility.yul\":5576:5629   */\n  tag_107\n    /* \"#utility.yul\":5594:5628   */\n  tag_108\n    /* \"#utility.yul\":5603:5627   */\n  tag_109\n    /* \"#utility.yul\":5621:5626   */\n  dup5\n    /* \"#utility.yul\":5603:5627   */\n  tag_23\n  jump\t// in\ntag_109:\n    /* \"#utility.yul\":5594:5628   */\n  tag_33\n  jump\t// in\ntag_108:\n    /* \"#utility.yul\":5576:5629   */\n  tag_23\n  jump\t// in\ntag_107:\n    /* \"#utility.yul\":5563:5629   */\n  swap1\n  pop\n    /* \"#utility.yul\":5493:5635   */\n  swap2\n  swap1\n  pop\n  jump\t// out\n    /* \"#utility.yul\":5641:5716   */\ntag_35:\n    /* \"#utility.yul\":5684:5687   */\n  0x00\n    /* \"#utility.yul\":5705:5710   */\n  dup2\n    /* \"#utility.yul\":5698:5710   */\n  swap1\n  pop\n    /* \"#utility.yul\":5641:5716   */\n  swap2\n  swap1\n  pop\n  jump\t// out\n    /* \"#utility.yul\":5722:5991   */\ntag_36:\n    /* \"#utility.yul\":5832:5871   */\n  tag_112\n    /* \"#utility.yul\":5863:5870   */\n  dup4\n    /* \"#utility.yul\":5832:5871   */\n  tag_34\n  jump\t// in\ntag_112:\n    /* \"#utility.yul\":5893:5984   */\n  tag_113\n    /* \"#utility.yul\":5942:5983   */\n  tag_114\n    /* \"#utility.yul\":5966:5982   */\n  dup3\n    /* \"#utility.yul\":5942:5983   */\n  tag_35\n  jump\t// in\ntag_114:\n    /* \"#utility.yul\":5934:5940   */\n  dup5\n    /* \"#utility.yul\":5927:5931   */\n  dup5\n    /* \"#utility.yul\":5921:5932   */\n  sload\n    /* \"#utility.yul\":5893:5984   */\n  tag_32\n  jump\t// in\ntag_113:\n    /* \"#utility.yul\":5887:5891   */\n  dup3\n    /* \"#utility.yul\":5880:5985   */\n  sstore\n    /* \"#utility.yul\":5798:5991   */\n  pop\n    /* \"#utility.yul\":5722:5991   */\n  pop\n  pop\n  pop\n  jump\t// out\n    /* \"#utility.yul\":5997:6070   */\ntag_37:\n    /* \"#utility.yul\":6042:6045   */\n  0x00\n    /* \"#utility.yul\":5997:6070   */\n  swap1\n  jump\t// out\n    /* \"#utility.yul\":6076:6265   */\ntag_38:\n    /* \"#utility.yul\":6153:6185   */\n  tag_117\n  tag_37\n  jump\t// in\ntag_117:\n    /* \"#utility.yul\":6194:6259   */\n  tag_118\n    /* \"#utility.yul\":6252:6258   */\n  dup2\n    /* \"#utility.yul\":6244:6250   */\n  dup5\n    /* \"#utility.yul\":6238:6242   */\n  dup5\n    /* \"#utility.yul\":6194:6259   */\n  tag_36\n  jump\t// in\ntag_118:\n    /* \"#utility.yul\":6129:6265   */\n  pop\n    /* \"#utility.yul\":6076:6265   */\n  pop\n  pop\n  jump\t// out\n    /* \"#utility.yul\":6271:6457   */\ntag_39:\n    /* \"#utility.yul\":6331:6451   */\ntag_120:\n    /* \"#utility.yul\":6348:6351   */\n  dup2\n    /* \"#utility.yul\":6341:6346   */\n  dup2\n    /* \"#utility.yul\":6338:6352   */\n  lt\n    /* \"#utility.yul\":6331:6451   */\n  iszero\n  tag_122\n  jumpi\n    /* \"#utility.yul\":6402:6441   */\n  tag_123\n    /* \"#utility.yul\":6439:6440   */\n  0x00\n    /* \"#utility.yul\":6432:6437   */\n  dup3\n    /* \"#utility.yul\":6402:6441   */\n  tag_38\n  jump\t// in\ntag_123:\n    /* \"#utility.yul\":6375:6376   */\n  0x01\n    /* \"#utility.yul\":6368:6373   */\n  dup2\n    /* \"#utility.yul\":6364:6377   */\n  add\n    /* \"#utility.yul\":6355:6377   */\n  swap1\n  pop\n    /* \"#utility.yul\":6331:6451   */\n  jump(tag_120)\ntag_122:\n    /* \"#utility.yul\":6271:6457   */\n  pop\n  pop\n  jump\t// out\n    /* \"#utility.yul\":6463:7006   */\ntag_40:\n    /* \"#utility.yul\":6564:6566   */\n  0x1f\n    /* \"#utility.yul\":6559:6562   */\n  dup3\n    /* \"#utility.yul\":6556:6567   */\n  gt\n    /* \"#utility.yul\":6553:6999   */\n  iszero\n  tag_125\n  jumpi\n    /* \"#utility.yul\":6598:6636   */\n  tag_126\n    /* \"#utility.yul\":6630:6635   */\n  dup2\n    /* \"#utility.yul\":6598:6636   */\n  tag_29\n  jump\t// in\ntag_126:\n    /* \"#utility.yul\":6682:6711   */\n  tag_127\n    /* \"#utility.yul\":6700:6710   */\n  dup5\n    /* \"#utility.yul\":6682:6711   */\n  tag_30\n  jump\t// in\ntag_127:\n    /* \"#utility.yul\":6672:6680   */\n  dup2\n    /* \"#utility.yul\":6668:6712   */\n  add\n    /* \"#utility.yul\":6865:6867   */\n  0x20\n    /* \"#utility.yul\":6853:6863   */\n  dup6\n    /* \"#utility.yul\":6850:6868   */\n  lt\n    /* \"#utility.yul\":6847:6896   */\n  iszero\n  tag_128\n  jumpi\n    /* \"#utility.yul\":6886:6894   */\n  dup2\n    /* \"#utility.yul\":6871:6894   */\n  swap1\n  pop\n    /* \"#utility.yul\":6847:6896   */\ntag_128:\n    /* \"#utility.yul\":6909:6989   */\n  tag_129\n    /* \"#utility.yul\":6965:6987   */\n  tag_130\n    /* \"#utility.yul\":6983:6986   */\n  dup6\n    /* \"#utility.yul\":6965:6987   */\n  tag_30\n  jump\t// in\ntag_130:\n    /* \"#utility.yul\":6955:6963   */\n  dup4\n    /* \"#utility.yul\":6951:6988   */\n  add\n    /* \"#utility.yul\":6938:6949   */\n  dup3\n    /* \"#utility.yul\":6909:6989   */\n  tag_39\n  jump\t// in\ntag_129:\n    /* \"#utility.yul\":6568:6999   */\n  pop\n  pop\n    /* \"#utility.yul\":6553:6999   */\ntag_125:\n    /* \"#utility.yul\":6463:7006   */\n  pop\n  pop\n  pop\n  jump\t// out\n    /* \"#utility.yul\":7012:7129   */\ntag_41:\n    /* \"#utility.yul\":7066:7074   */\n  0x00\n    /* \"#utility.yul\":7116:7121   */\n  dup3\n    /* \"#utility.yul\":7110:7114   */\n  dup3\n    /* \"#utility.yul\":7106:7122   */\n  shr\n    /* \"#utility.yul\":7085:7122   */\n  swap1\n  pop\n    /* \"#utility.yul\":7012:7129   */\n  swap3\n  swap2\n  pop\n  pop\n  jump\t// out\n    /* \"#utility.yul\":7135:7304   */\ntag_42:\n    /* \"#utility.yul\":7179:7185   */\n  0x00\n    /* \"#utility.yul\":7212:7263   */\n  tag_133\n    /* \"#utility.yul\":7260:7261   */\n  0x00\n    /* \"#utility.yul\":7256:7262   */\n  not\n    /* \"#utility.yul\":7248:7253   */\n  dup5\n    /* \"#utility.yul\":7245:7246   */\n  0x08\n    /* \"#utility.yul\":7241:7254   */\n  mul\n    /* \"#utility.yul\":7212:7263   */\n  tag_41\n  jump\t// in\ntag_133:\n    /* \"#utility.yul\":7208:7264   */\n  not\n    /* \"#utility.yul\":7293:7297   */\n  dup1\n    /* \"#utility.yul\":7287:7291   */\n  dup4\n    /* \"#utility.yul\":7283:7298   */\n  and\n    /* \"#utility.yul\":7273:7298   */\n  swap2\n  pop\n    /* \"#utility.yul\":7186:7304   */\n  pop\n    /* \"#utility.yul\":7135:7304   */\n  swap3\n  swap2\n  pop\n  pop\n  jump\t// out\n    /* \"#utility.yul\":7309:7604   */\ntag_43:\n    /* \"#utility.yul\":7385:7389   */\n  0x00\n    /* \"#utility.yul\":7531:7560   */\n  tag_135\n    /* \"#utility.yul\":7556:7559   */\n  dup4\n    /* \"#utility.yul\":7550:7554   */\n  dup4\n    /* \"#utility.yul\":7531:7560   */\n  tag_42\n  jump\t// in\ntag_135:\n    /* \"#utility.yul\":7523:7560   */\n  swap2\n  pop\n    /* \"#utility.yul\":7593:7596   */\n  dup3\n    /* \"#utility.yul\":7590:7591   */\n  0x02\n    /* \"#utility.yul\":7586:7597   */\n  mul\n    /* \"#utility.yul\":7580:7584   */\n  dup3\n    /* \"#utility.yul\":7577:7598   */\n  or\n    /* \"#utility.yul\":7569:7598   */\n  swap1\n  pop\n    /* \"#utility.yul\":7309:7604   */\n  swap3\n  swap2\n  pop\n  pop\n  jump\t// out\n    /* \"#utility.yul\":7609:9004   */\ntag_7:\n    /* \"#utility.yul\":7726:7763   */\n  tag_137\n    /* \"#utility.yul\":7759:7762   */\n  dup3\n    /* \"#utility.yul\":7726:7763   */\n  tag_26\n  jump\t// in\ntag_137:\n    /* \"#utility.yul\":7828:7846   */\n  0xffffffffffffffff\n    /* \"#utility.yul\":7820:7826   */\n  dup2\n    /* \"#utility.yul\":7817:7847   */\n  gt\n    /* \"#utility.yul\":7814:7870   */\n  iszero\n  tag_138\n  jumpi\n    /* \"#utility.yul\":7850:7868   */\n  tag_139\n  tag_16\n  jump\t// in\ntag_139:\n    /* \"#utility.yul\":7814:7870   */\ntag_138:\n    /* \"#utility.yul\":7894:7932   */\n  tag_140\n    /* \"#utility.yul\":7926:7930   */\n  dup3\n    /* \"#utility.yul\":7920:7931   */\n  sload\n    /* \"#utility.yul\":7894:7932   */\n  tag_28\n  jump\t// in\ntag_140:\n    /* \"#utility.yul\":7979:8046   */\n  tag_141\n    /* \"#utility.yul\":8039:8045   */\n  dup3\n    /* \"#utility.yul\":8031:8037   */\n  dup3\n    /* \"#utility.yul\":8025:8029   */\n  dup6\n    /* \"#utility.yul\":7979:8046   */\n  tag_40\n  jump\t// in\ntag_141:\n    /* \"#utility.yul\":8073:8074   */\n  0x00\n    /* \"#utility.yul\":8097:8101   */\n  0x20\n    /* \"#utility.yul\":8084:8101   */\n  swap1\n  pop\n    /* \"#utility.yul\":8129:8131   */\n  0x1f\n    /* \"#utility.yul\":8121:8127   */\n  dup4\n    /* \"#utility.yul\":8118:8132   */\n  gt\n    /* \"#utility.yul\":8146:8147   */\n  0x01\n    /* \"#utility.yul\":8141:8759   */\n  dup2\n  eq\n  tag_143\n  jumpi\n    /* \"#utility.yul\":8803:8804   */\n  0x00\n    /* \"#utility.yul\":8820:8826   */\n  dup5\n    /* \"#utility.yul\":8817:8894   */\n  iszero\n  tag_144\n  jumpi\n    /* \"#utility.yul\":8869:8878   */\n  dup3\n    /* \"#utility.yul\":8864:8867   */\n  dup8\n    /* \"#utility.yul\":8860:8879   */\n  add\n    /* \"#utility.yul\":8854:8880   */\n  mload\n    /* \"#utility.yul\":8845:8880   */\n  swap1\n  pop\n    /* \"#utility.yul\":8817:8894   */\ntag_144:\n    /* \"#utility.yul\":8920:8987   */\n  tag_145\n    /* \"#utility.yul\":8980:8986   */\n  dup6\n    /* \"#utility.yul\":8973:8978   */\n  dup3\n    /* \"#utility.yul\":8920:8987   */\n  tag_43\n  jump\t// in\ntag_145:\n    /* \"#utility.yul\":8914:8918   */\n  dup7\n    /* \"#utility.yul\":8907:8988   */\n  sstore\n    /* \"#utility.yul\":8776:8998   */\n  pop\n    /* \"#utility.yul\":8111:8998   */\n  jump(tag_142)\n    /* \"#utility.yul\":8141:8759   */\ntag_143:\n    /* \"#utility.yul\":8193:8197   */\n  0x1f\n    /* \"#utility.yul\":8189:8198   */\n  not\n    /* \"#utility.yul\":8181:8187   */\n  dup5\n    /* \"#utility.yul\":8177:8199   */\n  and\n    /* \"#utility.yul\":8227:8264   */\n  tag_146\n    /* \"#utility.yul\":8259:8263   */\n  dup7\n    /* \"#utility.yul\":8227:8264   */\n  tag_29\n  jump\t// in\ntag_146:\n    /* \"#utility.yul\":8286:8287   */\n  0x00\n    /* \"#utility.yul\":8300:8508   */\ntag_147:\n    /* \"#utility.yul\":8314:8321   */\n  dup3\n    /* \"#utility.yul\":8311:8312   */\n  dup2\n    /* \"#utility.yul\":8308:8322   */\n  lt\n    /* \"#utility.yul\":8300:8508   */\n  iszero\n  tag_149\n  jumpi\n    /* \"#utility.yul\":8393:8402   */\n  dup5\n    /* \"#utility.yul\":8388:8391   */\n  dup10\n    /* \"#utility.yul\":8384:8403   */\n  add\n    /* \"#utility.yul\":8378:8404   */\n  mload\n    /* \"#utility.yul\":8370:8376   */\n  dup3\n    /* \"#utility.yul\":8363:8405   */\n  sstore\n    /* \"#utility.yul\":8444:8445   */\n  0x01\n    /* \"#utility.yul\":8436:8442   */\n  dup3\n    /* \"#utility.yul\":8432:8446   */\n  add\n    /* \"#utility.yul\":8422:8446   */\n  swap2\n  pop\n    /* \"#utility.yul\":8491:8493   */\n  0x20\n    /* \"#utility.yul\":8480:8489   */\n  dup6\n    /* \"#utility.yul\":8476:8494   */\n  add\n    /* \"#utility.yul\":8463:8494   */\n  swap5\n  pop\n    /* \"#utility.yul\":8337:8341   */\n  0x20\n    /* \"#utility.yul\":8334:8335   */\n  dup2\n    /* \"#utility.yul\":8330:8342   */\n  add\n    /* \"#utility.yul\":8325:8342   */\n  swap1\n  pop\n    /* \"#utility.yul\":8300:8508   */\n  jump(tag_147)\ntag_149:\n    /* \"#utility.yul\":8536:8542   */\n  dup7\n    /* \"#utility.yul\":8527:8534   */\n  dup4\n    /* \"#utility.yul\":8524:8543   */\n  lt\n    /* \"#utility.yul\":8521:8700   */\n  iszero\n  tag_150\n  jumpi\n    /* \"#utility.yul\":8594:8603   */\n  dup5\n    /* \"#utility.yul\":8589:8592   */\n  dup10\n    /* \"#utility.yul\":8585:8604   */\n  add\n    /* \"#utility.yul\":8579:8605   */\n  mload\n    /* \"#utility.yul\":8637:8685   */\n  tag_151\n    /* \"#utility.yul\":8679:8683   */\n  0x1f\n    /* \"#utility.yul\":8671:8677   */\n  dup10\n    /* \"#utility.yul\":8667:8684   */\n  and\n    /* \"#utility.yul\":8656:8665   */\n  dup3\n    /* \"#utility.yul\":8637:8685   */\n  tag_42\n  jump\t// in\ntag_151:\n    /* \"#utility.yul\":8629:8635   */\n  dup4\n    /* \"#utility.yul\":8622:8686   */\n  sstore\n    /* \"#utility.yul\":8544:8700   */\n  pop\n    /* \"#utility.yul\":8521:8700   */\ntag_150:\n    /* \"#utility.yul\":8746:8747   */\n  0x01\n    /* \"#utility.yul\":8742:8743   */\n  0x02\n    /* \"#utility.yul\":8734:8740   */\n  dup9\n    /* \"#utility.yul\":8730:8744   */\n  mul\n    /* \"#utility.yul\":8726:8748   */\n  add\n    /* \"#utility.yul\":8720:8724   */\n  dup9\n    /* \"#utility.yul\":8713:8749   */\n  sstore\n    /* \"#utility.yul\":8148:8759   */\n  pop\n  pop\n  pop\n    /* \"#utility.yul\":8111:8998   */\ntag_142:\n  pop\n    /* \"#utility.yul\":7701:9004   */\n  pop\n  pop\n  pop\n    /* \"#utility.yul\":7609:9004   */\n  pop\n  pop\n  jump\t// out\n    /* \"contracts/DexToken.sol\":1845:4349  contract ERC20 is IERC20 {... */\ntag_9:\n  dataSize(sub_0)\n  dup1\n  dataOffset(sub_0)\n  0x00\n  codecopy\n  0x00\n  return\nstop\n\nsub_0: assembly {\n        /* \"contracts/DexToken.sol\":1845:4349  contract ERC20 is IERC20 {... */\n      mstore(0x40, 0x80)\n      callvalue\n      dup1\n      iszero\n      tag_1\n      jumpi\n      0x00\n      dup1\n      revert\n    tag_1:\n      pop\n      jumpi(tag_2, lt(calldatasize, 0x04))\n      shr(0xe0, calldataload(0x00))\n      dup1\n      0x40c10f19\n      gt\n      tag_18\n      jumpi\n      dup1\n      0xa9059cbb\n      gt\n      tag_19\n      jumpi\n      dup1\n      0xa9059cbb\n      eq\n      tag_14\n      jumpi\n      dup1\n      0xc4e41b22\n      eq\n      tag_15\n      jumpi\n      dup1\n      0xdd62ed3e\n      eq\n      tag_16\n      jumpi\n      dup1\n      0xf6ae79ac\n      eq\n      tag_17\n      jumpi\n      jump(tag_2)\n    tag_19:\n      dup1\n      0x40c10f19\n      eq\n      tag_10\n      jumpi\n      dup1\n      0x70a08231\n      eq\n      tag_11\n      jumpi\n      dup1\n      0x95d89b41\n      eq\n      tag_12\n      jumpi\n      dup1\n      0x9dc29fac\n      eq\n      tag_13\n      jumpi\n      jump(tag_2)\n    tag_18:\n      dup1\n      0x23b872dd\n      gt\n      tag_20\n      jumpi\n      dup1\n      0x23b872dd\n      eq\n      tag_6\n      jumpi\n      dup1\n      0x2be7c04a\n      eq\n      tag_7\n      jumpi\n      dup1\n      0x313ce567\n      eq\n      tag_8\n      jumpi\n      dup1\n      0x38cc4831\n      eq\n      tag_9\n      jumpi\n      jump(tag_2)\n    tag_20:\n      dup1\n      0x06fdde03\n      eq\n      tag_3\n      jumpi\n      dup1\n      0x095ea7b3\n      eq\n      tag_4\n      jumpi\n      dup1\n      0x18160ddd\n      eq\n      tag_5\n      jumpi\n    tag_2:\n      0x00\n      dup1\n      revert\n        /* \"contracts/DexToken.sol\":2033:2051  string public name */\n    tag_3:\n      tag_21\n      tag_22\n      jump\t// in\n    tag_21:\n      mload(0x40)\n      tag_23\n      swap2\n      swap1\n      tag_24\n      jump\t// in\n    tag_23:\n      mload(0x40)\n      dup1\n      swap2\n      sub\n      swap1\n      return\n        /* \"contracts/DexToken.sol\":2640:2846  function approve(address spender, uint256 amount) external returns (bool) {... */\n    tag_4:\n      tag_25\n      0x04\n      dup1\n      calldatasize\n      sub\n      dup2\n      add\n      swap1\n      tag_26\n      swap2\n      swap1\n      tag_27\n      jump\t// in\n    tag_26:\n      tag_28\n      jump\t// in\n    tag_25:\n      mload(0x40)\n      tag_29\n      swap2\n      swap1\n      tag_30\n      jump\t// in\n    tag_29:\n      mload(0x40)\n      dup1\n      swap2\n      sub\n      swap1\n      return\n        /* \"contracts/DexToken.sol\":1877:1903  uint256 public totalSupply */\n    tag_5:\n      tag_31\n      tag_32\n      jump\t// in\n    tag_31:\n      mload(0x40)\n      tag_33\n      swap2\n      swap1\n      tag_34\n      jump\t// in\n    tag_33:\n      mload(0x40)\n      dup1\n      swap2\n      sub\n      swap1\n      return\n        /* \"contracts/DexToken.sol\":2852:3290  function transferFrom(address sender, address recipient, uint256 amount)... */\n    tag_6:\n      tag_35\n      0x04\n      dup1\n      calldatasize\n      sub\n      dup2\n      add\n      swap1\n      tag_36\n      swap2\n      swap1\n      tag_37\n      jump\t// in\n    tag_36:\n      tag_38\n      jump\t// in\n    tag_35:\n      mload(0x40)\n      tag_39\n      swap2\n      swap1\n      tag_30\n      jump\t// in\n    tag_39:\n      mload(0x40)\n      dup1\n      swap2\n      sub\n      swap1\n      return\n        /* \"contracts/DexToken.sol\":1960:2027  mapping(address => mapping(address => uint256)) public accAllowance */\n    tag_7:\n      tag_40\n      0x04\n      dup1\n      calldatasize\n      sub\n      dup2\n      add\n      swap1\n      tag_41\n      swap2\n      swap1\n      tag_42\n      jump\t// in\n    tag_41:\n      tag_43\n      jump\t// in\n    tag_40:\n      mload(0x40)\n      tag_44\n      swap2\n      swap1\n      tag_34\n      jump\t// in\n    tag_44:\n      mload(0x40)\n      dup1\n      swap2\n      sub\n      swap1\n      return\n        /* \"contracts/DexToken.sol\":2083:2107  uint8 public decimals=18 */\n    tag_8:\n      tag_45\n      tag_46\n      jump\t// in\n    tag_45:\n      mload(0x40)\n      tag_47\n      swap2\n      swap1\n      tag_48\n      jump\t// in\n    tag_47:\n      mload(0x40)\n      dup1\n      swap2\n      sub\n      swap1\n      return\n        /* \"contracts/DexToken.sol\":3493:3583  function getAddress() external view returns (address){... */\n    tag_9:\n      tag_49\n      tag_50\n      jump\t// in\n    tag_49:\n      mload(0x40)\n      tag_51\n      swap2\n      swap1\n      tag_52\n      jump\t// in\n    tag_51:\n      mload(0x40)\n      dup1\n      swap2\n      sub\n      swap1\n      return\n        /* \"contracts/DexToken.sol\":4167:4252  function mint(address to, uint256 amount) external {... */\n    tag_10:\n      tag_53\n      0x04\n      dup1\n      calldatasize\n      sub\n      dup2\n      add\n      swap1\n      tag_54\n      swap2\n      swap1\n      tag_27\n      jump\t// in\n    tag_54:\n      tag_55\n      jump\t// in\n    tag_53:\n      stop\n        /* \"contracts/DexToken.sol\":3687:3801  function balanceOf(address owner) public override view returns (uint256) {... */\n    tag_11:\n      tag_56\n      0x04\n      dup1\n      calldatasize\n      sub\n      dup2\n      add\n      swap1\n      tag_57\n      swap2\n      swap1\n      tag_58\n      jump\t// in\n    tag_57:\n      tag_59\n      jump\t// in\n    tag_56:\n      mload(0x40)\n      tag_60\n      swap2\n      swap1\n      tag_34\n      jump\t// in\n    tag_60:\n      mload(0x40)\n      dup1\n      swap2\n      sub\n      swap1\n      return\n        /* \"contracts/DexToken.sol\":2057:2077  string public symbol */\n    tag_12:\n      tag_61\n      tag_62\n      jump\t// in\n    tag_61:\n      mload(0x40)\n      tag_63\n      swap2\n      swap1\n      tag_24\n      jump\t// in\n    tag_63:\n      mload(0x40)\n      dup1\n      swap2\n      sub\n      swap1\n      return\n        /* \"contracts/DexToken.sol\":4258:4347  function burn(address from, uint256 amount) external {... */\n    tag_13:\n      tag_64\n      0x04\n      dup1\n      calldatasize\n      sub\n      dup2\n      add\n      swap1\n      tag_65\n      swap2\n      swap1\n      tag_27\n      jump\t// in\n    tag_65:\n      tag_66\n      jump\t// in\n    tag_64:\n      stop\n        /* \"contracts/DexToken.sol\":2321:2634  function transfer(address recipient, uint256 amount)... */\n    tag_14:\n      tag_67\n      0x04\n      dup1\n      calldatasize\n      sub\n      dup2\n      add\n      swap1\n      tag_68\n      swap2\n      swap1\n      tag_27\n      jump\t// in\n    tag_68:\n      tag_69\n      jump\t// in\n    tag_67:\n      mload(0x40)\n      tag_70\n      swap2\n      swap1\n      tag_30\n      jump\t// in\n    tag_70:\n      mload(0x40)\n      dup1\n      swap2\n      sub\n      swap1\n      return\n        /* \"contracts/DexToken.sol\":3589:3681  function getTotalSupply() external view returns (uint256){... */\n    tag_15:\n      tag_71\n      tag_72\n      jump\t// in\n    tag_71:\n      mload(0x40)\n      tag_73\n      swap2\n      swap1\n      tag_34\n      jump\t// in\n    tag_73:\n      mload(0x40)\n      dup1\n      swap2\n      sub\n      swap1\n      return\n        /* \"contracts/DexToken.sol\":3353:3487  function allowance(address owner, address spender) external view returns (uint256){... */\n    tag_16:\n      tag_74\n      0x04\n      dup1\n      calldatasize\n      sub\n      dup2\n      add\n      swap1\n      tag_75\n      swap2\n      swap1\n      tag_42\n      jump\t// in\n    tag_75:\n      tag_76\n      jump\t// in\n    tag_74:\n      mload(0x40)\n      tag_77\n      swap2\n      swap1\n      tag_34\n      jump\t// in\n    tag_77:\n      mload(0x40)\n      dup1\n      swap2\n      sub\n      swap1\n      return\n        /* \"contracts/DexToken.sol\":1909:1954  mapping(address => uint256) public accBalance */\n    tag_17:\n      tag_78\n      0x04\n      dup1\n      calldatasize\n      sub\n      dup2\n      add\n      swap1\n      tag_79\n      swap2\n      swap1\n      tag_58\n      jump\t// in\n    tag_79:\n      tag_80\n      jump\t// in\n    tag_78:\n      mload(0x40)\n      tag_81\n      swap2\n      swap1\n      tag_34\n      jump\t// in\n    tag_81:\n      mload(0x40)\n      dup1\n      swap2\n      sub\n      swap1\n      return\n        /* \"contracts/DexToken.sol\":2033:2051  string public name */\n    tag_22:\n      0x03\n      dup1\n      sload\n      tag_82\n      swap1\n      tag_83\n      jump\t// in\n    tag_82:\n      dup1\n      0x1f\n      add\n      0x20\n      dup1\n      swap2\n      div\n      mul\n      0x20\n      add\n      mload(0x40)\n      swap1\n      dup2\n      add\n      0x40\n      mstore\n      dup1\n      swap3\n      swap2\n      swap1\n      dup2\n      dup2\n      mstore\n      0x20\n      add\n      dup3\n      dup1\n      sload\n      tag_84\n      swap1\n      tag_83\n      jump\t// in\n    tag_84:\n      dup1\n      iszero\n      tag_85\n      jumpi\n      dup1\n      0x1f\n      lt\n      tag_86\n      jumpi\n      0x0100\n      dup1\n      dup4\n      sload\n      div\n      mul\n      dup4\n      mstore\n      swap2\n      0x20\n      add\n      swap2\n      jump(tag_85)\n    tag_86:\n      dup3\n      add\n      swap2\n      swap1\n      0x00\n      mstore\n      keccak256(0x00, 0x20)\n      swap1\n    tag_87:\n      dup2\n      sload\n      dup2\n      mstore\n      swap1\n      0x01\n      add\n      swap1\n      0x20\n      add\n      dup1\n      dup4\n      gt\n      tag_87\n      jumpi\n      dup3\n      swap1\n      sub\n      0x1f\n      and\n      dup3\n      add\n      swap2\n    tag_85:\n      pop\n      pop\n      pop\n      pop\n      pop\n      dup2\n      jump\t// out\n        /* \"contracts/DexToken.sol\":2640:2846  function approve(address spender, uint256 amount) external returns (bool) {... */\n    tag_28:\n        /* \"contracts/DexToken.sol\":2708:2712  bool */\n      0x00\n        /* \"contracts/DexToken.sol\":2760:2766  amount */\n      dup2\n        /* \"contracts/DexToken.sol\":2724:2736  accAllowance */\n      0x02\n        /* \"contracts/DexToken.sol\":2724:2748  accAllowance[msg.sender] */\n      0x00\n        /* \"contracts/DexToken.sol\":2737:2747  msg.sender */\n      caller\n        /* \"contracts/DexToken.sol\":2724:2748  accAllowance[msg.sender] */\n      0xffffffffffffffffffffffffffffffffffffffff\n      and\n      0xffffffffffffffffffffffffffffffffffffffff\n      and\n      dup2\n      mstore\n      0x20\n      add\n      swap1\n      dup2\n      mstore\n      0x20\n      add\n      0x00\n      keccak256\n        /* \"contracts/DexToken.sol\":2724:2757  accAllowance[msg.sender][spender] */\n      0x00\n        /* \"contracts/DexToken.sol\":2749:2756  spender */\n      dup6\n        /* \"contracts/DexToken.sol\":2724:2757  accAllowance[msg.sender][spender] */\n      0xffffffffffffffffffffffffffffffffffffffff\n      and\n      0xffffffffffffffffffffffffffffffffffffffff\n      and\n      dup2\n      mstore\n      0x20\n      add\n      swap1\n      dup2\n      mstore\n      0x20\n      add\n      0x00\n      keccak256\n        /* \"contracts/DexToken.sol\":2724:2766  accAllowance[msg.sender][spender] = amount */\n      dup2\n      swap1\n      sstore\n      pop\n        /* \"contracts/DexToken.sol\":2802:2809  spender */\n      dup3\n        /* \"contracts/DexToken.sol\":2781:2818  Approval(msg.sender, spender, amount) */\n      0xffffffffffffffffffffffffffffffffffffffff\n      and\n        /* \"contracts/DexToken.sol\":2790:2800  msg.sender */\n      caller\n        /* \"contracts/DexToken.sol\":2781:2818  Approval(msg.sender, spender, amount) */\n      0xffffffffffffffffffffffffffffffffffffffff\n      and\n      0x8c5be1e5ebec7d5bd14f71427d1e84f3dd0314c0f7b2291e5b200ac8c7c3b925\n        /* \"contracts/DexToken.sol\":2811:2817  amount */\n      dup5\n        /* \"contracts/DexToken.sol\":2781:2818  Approval(msg.sender, spender, amount) */\n      mload(0x40)\n      tag_89\n      swap2\n      swap1\n      tag_34\n      jump\t// in\n    tag_89:\n      mload(0x40)\n      dup1\n      swap2\n      sub\n      swap1\n      log3\n        /* \"contracts/DexToken.sol\":2835:2839  true */\n      0x01\n        /* \"contracts/DexToken.sol\":2828:2839  return true */\n      swap1\n      pop\n        /* \"contracts/DexToken.sol\":2640:2846  function approve(address spender, uint256 amount) external returns (bool) {... */\n      swap3\n      swap2\n      pop\n      pop\n      jump\t// out\n        /* \"contracts/DexToken.sol\":1877:1903  uint256 public totalSupply */\n    tag_32:\n      sload(0x00)\n      dup2\n      jump\t// out\n        /* \"contracts/DexToken.sol\":2852:3290  function transferFrom(address sender, address recipient, uint256 amount)... */\n    tag_38:\n        /* \"contracts/DexToken.sol\":2959:2963  bool */\n      0x00\n        /* \"contracts/DexToken.sol\":3000:3010  accBalance */\n      0x01\n        /* \"contracts/DexToken.sol\":3000:3018  accBalance[sender] */\n      0x00\n        /* \"contracts/DexToken.sol\":3011:3017  sender */\n      dup6\n        /* \"contracts/DexToken.sol\":3000:3018  accBalance[sender] */\n      0xffffffffffffffffffffffffffffffffffffffff\n      and\n      0xffffffffffffffffffffffffffffffffffffffff\n      and\n      dup2\n      mstore\n      0x20\n      add\n      swap1\n      dup2\n      mstore\n      0x20\n      add\n      0x00\n      keccak256\n      sload\n        /* \"contracts/DexToken.sol\":2990:2996  amount */\n      dup3\n        /* \"contracts/DexToken.sol\":2990:3018  amount <= accBalance[sender] */\n      gt\n      iszero\n        /* \"contracts/DexToken.sol\":2982:3019  require(amount <= accBalance[sender]) */\n      tag_91\n      jumpi\n      0x00\n      dup1\n      revert\n    tag_91:\n        /* \"contracts/DexToken.sol\":3047:3059  accAllowance */\n      0x02\n        /* \"contracts/DexToken.sol\":3047:3067  accAllowance[sender] */\n      0x00\n        /* \"contracts/DexToken.sol\":3060:3066  sender */\n      dup6\n        /* \"contracts/DexToken.sol\":3047:3067  accAllowance[sender] */\n      0xffffffffffffffffffffffffffffffffffffffff\n      and\n      0xffffffffffffffffffffffffffffffffffffffff\n      and\n      dup2\n      mstore\n      0x20\n      add\n      swap1\n      dup2\n      mstore\n      0x20\n      add\n      0x00\n      keccak256\n        /* \"contracts/DexToken.sol\":3047:3079  accAllowance[sender][msg.sender] */\n      0x00\n        /* \"contracts/DexToken.sol\":3068:3078  msg.sender */\n      caller\n        /* \"contracts/DexToken.sol\":3047:3079  accAllowance[sender][msg.sender] */\n      0xffffffffffffffffffffffffffffffffffffffff\n      and\n      0xffffffffffffffffffffffffffffffffffffffff\n      and\n      dup2\n      mstore\n      0x20\n      add\n      swap1\n      dup2\n      mstore\n      0x20\n      add\n      0x00\n      keccak256\n      sload\n        /* \"contracts/DexToken.sol\":3037:3043  amount */\n      dup3\n        /* \"contracts/DexToken.sol\":3037:3079  amount <= accAllowance[sender][msg.sender] */\n      gt\n      iszero\n        /* \"contracts/DexToken.sol\":3029:3080  require(amount <= accAllowance[sender][msg.sender]) */\n      tag_92\n      jumpi\n      0x00\n      dup1\n      revert\n    tag_92:\n        /* \"contracts/DexToken.sol\":3127:3133  amount */\n      dup2\n        /* \"contracts/DexToken.sol\":3091:3103  accAllowance */\n      0x02\n        /* \"contracts/DexToken.sol\":3091:3111  accAllowance[sender] */\n      0x00\n        /* \"contracts/DexToken.sol\":3104:3110  sender */\n      dup7\n        /* \"contracts/DexToken.sol\":3091:3111  accAllowance[sender] */\n      0xffffffffffffffffffffffffffffffffffffffff\n      and\n      0xffffffffffffffffffffffffffffffffffffffff\n      and\n      dup2\n      mstore\n      0x20\n      add\n      swap1\n      dup2\n      mstore\n      0x20\n      add\n      0x00\n      keccak256\n        /* \"contracts/DexToken.sol\":3091:3123  accAllowance[sender][msg.sender] */\n      0x00\n        /* \"contracts/DexToken.sol\":3112:3122  msg.sender */\n      caller\n        /* \"contracts/DexToken.sol\":3091:3123  accAllowance[sender][msg.sender] */\n      0xffffffffffffffffffffffffffffffffffffffff\n      and\n      0xffffffffffffffffffffffffffffffffffffffff\n      and\n      dup2\n      mstore\n      0x20\n      add\n      swap1\n      dup2\n      mstore\n      0x20\n      add\n      0x00\n      keccak256\n      0x00\n        /* \"contracts/DexToken.sol\":3091:3133  accAllowance[sender][msg.sender] -= amount */\n      dup3\n      dup3\n      sload\n      tag_93\n      swap2\n      swap1\n      tag_94\n      jump\t// in\n    tag_93:\n      swap3\n      pop\n      pop\n      dup2\n      swap1\n      sstore\n      pop\n        /* \"contracts/DexToken.sol\":3165:3171  amount */\n      dup2\n        /* \"contracts/DexToken.sol\":3143:3153  accBalance */\n      0x01\n        /* \"contracts/DexToken.sol\":3143:3161  accBalance[sender] */\n      0x00\n        /* \"contracts/DexToken.sol\":3154:3160  sender */\n      dup7\n        /* \"contracts/DexToken.sol\":3143:3161  accBalance[sender] */\n      0xffffffffffffffffffffffffffffffffffffffff\n      and\n      0xffffffffffffffffffffffffffffffffffffffff\n      and\n      dup2\n      mstore\n      0x20\n      add\n      swap1\n      dup2\n      mstore\n      0x20\n      add\n      0x00\n      keccak256\n      0x00\n        /* \"contracts/DexToken.sol\":3143:3171  accBalance[sender] -= amount */\n      dup3\n      dup3\n      sload\n      tag_95\n      swap2\n      swap1\n      tag_94\n      jump\t// in\n    tag_95:\n      swap3\n      pop\n      pop\n      dup2\n      swap1\n      sstore\n      pop\n        /* \"contracts/DexToken.sol\":3206:3212  amount */\n      dup2\n        /* \"contracts/DexToken.sol\":3181:3191  accBalance */\n      0x01\n        /* \"contracts/DexToken.sol\":3181:3202  accBalance[recipient] */\n      0x00\n        /* \"contracts/DexToken.sol\":3192:3201  recipient */\n      dup6\n        /* \"contracts/DexToken.sol\":3181:3202  accBalance[recipient] */\n      0xffffffffffffffffffffffffffffffffffffffff\n      and\n      0xffffffffffffffffffffffffffffffffffffffff\n      and\n      dup2\n      mstore\n      0x20\n      add\n      swap1\n      dup2\n      mstore\n      0x20\n      add\n      0x00\n      keccak256\n      0x00\n        /* \"contracts/DexToken.sol\":3181:3212  accBalance[recipient] += amount */\n      dup3\n      dup3\n      sload\n      tag_96\n      swap2\n      swap1\n      tag_97\n      jump\t// in\n    tag_96:\n      swap3\n      pop\n      pop\n      dup2\n      swap1\n      sstore\n      pop\n        /* \"contracts/DexToken.sol\":3244:3253  recipient */\n      dup3\n        /* \"contracts/DexToken.sol\":3227:3262  Transfer(sender, recipient, amount) */\n      0xffffffffffffffffffffffffffffffffffffffff\n      and\n        /* \"contracts/DexToken.sol\":3236:3242  sender */\n      dup5\n        /* \"contracts/DexToken.sol\":3227:3262  Transfer(sender, recipient, amount) */\n      0xffffffffffffffffffffffffffffffffffffffff\n      and\n      0xddf252ad1be2c89b69c2b068fc378daa952ba7f163c4a11628f55a4df523b3ef\n        /* \"contracts/DexToken.sol\":3255:3261  amount */\n      dup5\n        /* \"contracts/DexToken.sol\":3227:3262  Transfer(sender, recipient, amount) */\n      mload(0x40)\n      tag_98\n      swap2\n      swap1\n      tag_34\n      jump\t// in\n    tag_98:\n      mload(0x40)\n      dup1\n      swap2\n      sub\n      swap1\n      log3\n        /* \"contracts/DexToken.sol\":3279:3283  true */\n      0x01\n        /* \"contracts/DexToken.sol\":3272:3283  return true */\n      swap1\n      pop\n        /* \"contracts/DexToken.sol\":2852:3290  function transferFrom(address sender, address recipient, uint256 amount)... */\n      swap4\n      swap3\n      pop\n      pop\n      pop\n      jump\t// out\n        /* \"contracts/DexToken.sol\":1960:2027  mapping(address => mapping(address => uint256)) public accAllowance */\n    tag_43:\n      mstore(0x20, 0x02)\n      dup2\n      0x00\n      mstore\n      mstore(0x20, keccak256(0x00, 0x40))\n      dup1\n      0x00\n      mstore\n      keccak256(0x00, 0x40)\n      0x00\n      swap2\n      pop\n      swap2\n      pop\n      pop\n      sload\n      dup2\n      jump\t// out\n        /* \"contracts/DexToken.sol\":2083:2107  uint8 public decimals=18 */\n    tag_46:\n      0x05\n      0x00\n      swap1\n      sload\n      swap1\n      0x0100\n      exp\n      swap1\n      div\n      0xff\n      and\n      dup2\n      jump\t// out\n        /* \"contracts/DexToken.sol\":3493:3583  function getAddress() external view returns (address){... */\n    tag_50:\n        /* \"contracts/DexToken.sol\":3538:3545  address */\n      0x00\n        /* \"contracts/DexToken.sol\":3571:3575  this */\n      address\n        /* \"contracts/DexToken.sol\":3556:3576  return address(this) */\n      swap1\n      pop\n        /* \"contracts/DexToken.sol\":3493:3583  function getAddress() external view returns (address){... */\n      swap1\n      jump\t// out\n        /* \"contracts/DexToken.sol\":4167:4252  function mint(address to, uint256 amount) external {... */\n    tag_55:\n        /* \"contracts/DexToken.sol\":4228:4245  _mint(to, amount) */\n      tag_101\n        /* \"contracts/DexToken.sol\":4234:4236  to */\n      dup3\n        /* \"contracts/DexToken.sol\":4238:4244  amount */\n      dup3\n        /* \"contracts/DexToken.sol\":4228:4233  _mint */\n      tag_102\n        /* \"contracts/DexToken.sol\":4228:4245  _mint(to, amount) */\n      jump\t// in\n    tag_101:\n        /* \"contracts/DexToken.sol\":4167:4252  function mint(address to, uint256 amount) external {... */\n      pop\n      pop\n      jump\t// out\n        /* \"contracts/DexToken.sol\":3687:3801  function balanceOf(address owner) public override view returns (uint256) {... */\n    tag_59:\n        /* \"contracts/DexToken.sol\":3751:3758  uint256 */\n      0x00\n        /* \"contracts/DexToken.sol\":3777:3787  accBalance */\n      0x01\n        /* \"contracts/DexToken.sol\":3777:3794  accBalance[owner] */\n      0x00\n        /* \"contracts/DexToken.sol\":3788:3793  owner */\n      dup4\n        /* \"contracts/DexToken.sol\":3777:3794  accBalance[owner] */\n      0xffffffffffffffffffffffffffffffffffffffff\n      and\n      0xffffffffffffffffffffffffffffffffffffffff\n      and\n      dup2\n      mstore\n      0x20\n      add\n      swap1\n      dup2\n      mstore\n      0x20\n      add\n      0x00\n      keccak256\n      sload\n        /* \"contracts/DexToken.sol\":3770:3794  return accBalance[owner] */\n      swap1\n      pop\n        /* \"contracts/DexToken.sol\":3687:3801  function balanceOf(address owner) public override view returns (uint256) {... */\n      swap2\n      swap1\n      pop\n      jump\t// out\n        /* \"contracts/DexToken.sol\":2057:2077  string public symbol */\n    tag_62:\n      0x04\n      dup1\n      sload\n      tag_104\n      swap1\n      tag_83\n      jump\t// in\n    tag_104:\n      dup1\n      0x1f\n      add\n      0x20\n      dup1\n      swap2\n      div\n      mul\n      0x20\n      add\n      mload(0x40)\n      swap1\n      dup2\n      add\n      0x40\n      mstore\n      dup1\n      swap3\n      swap2\n      swap1\n      dup2\n      dup2\n      mstore\n      0x20\n      add\n      dup3\n      dup1\n      sload\n      tag_105\n      swap1\n      tag_83\n      jump\t// in\n    tag_105:\n      dup1\n      iszero\n      tag_106\n      jumpi\n      dup1\n      0x1f\n      lt\n      tag_107\n      jumpi\n      0x0100\n      dup1\n      dup4\n      sload\n      div\n      mul\n      dup4\n      mstore\n      swap2\n      0x20\n      add\n      swap2\n      jump(tag_106)\n    tag_107:\n      dup3\n      add\n      swap2\n      swap1\n      0x00\n      mstore\n      keccak256(0x00, 0x20)\n      swap1\n    tag_108:\n      dup2\n      sload\n      dup2\n      mstore\n      swap1\n      0x01\n      add\n      swap1\n      0x20\n      add\n      dup1\n      dup4\n      gt\n      tag_108\n      jumpi\n      dup3\n      swap1\n      sub\n      0x1f\n      and\n      dup3\n      add\n      swap2\n    tag_106:\n      pop\n      pop\n      pop\n      pop\n      pop\n      dup2\n      jump\t// out\n        /* \"contracts/DexToken.sol\":4258:4347  function burn(address from, uint256 amount) external {... */\n    tag_66:\n        /* \"contracts/DexToken.sol\":4321:4340  _burn(from, amount) */\n      tag_110\n        /* \"contracts/DexToken.sol\":4327:4331  from */\n      dup3\n        /* \"contracts/DexToken.sol\":4333:4339  amount */\n      dup3\n        /* \"contracts/DexToken.sol\":4321:4326  _burn */\n      tag_111\n        /* \"contracts/DexToken.sol\":4321:4340  _burn(from, amount) */\n      jump\t// in\n    tag_110:\n        /* \"contracts/DexToken.sol\":4258:4347  function burn(address from, uint256 amount) external {... */\n      pop\n      pop\n      jump\t// out\n        /* \"contracts/DexToken.sol\":2321:2634  function transfer(address recipient, uint256 amount)... */\n    tag_69:\n        /* \"contracts/DexToken.sol\":2408:2412  bool */\n      0x00\n        /* \"contracts/DexToken.sol\":2446:2456  accBalance */\n      0x01\n        /* \"contracts/DexToken.sol\":2446:2468  accBalance[msg.sender] */\n      0x00\n        /* \"contracts/DexToken.sol\":2457:2467  msg.sender */\n      caller\n        /* \"contracts/DexToken.sol\":2446:2468  accBalance[msg.sender] */\n      0xffffffffffffffffffffffffffffffffffffffff\n      and\n      0xffffffffffffffffffffffffffffffffffffffff\n      and\n      dup2\n      mstore\n      0x20\n      add\n      swap1\n      dup2\n      mstore\n      0x20\n      add\n      0x00\n      keccak256\n      sload\n        /* \"contracts/DexToken.sol\":2436:2442  amount */\n      dup3\n        /* \"contracts/DexToken.sol\":2436:2468  amount <= accBalance[msg.sender] */\n      gt\n      iszero\n        /* \"contracts/DexToken.sol\":2428:2469  require(amount <= accBalance[msg.sender]) */\n      tag_113\n      jumpi\n      0x00\n      dup1\n      revert\n    tag_113:\n        /* \"contracts/DexToken.sol\":2505:2511  amount */\n      dup2\n        /* \"contracts/DexToken.sol\":2479:2489  accBalance */\n      0x01\n        /* \"contracts/DexToken.sol\":2479:2501  accBalance[msg.sender] */\n      0x00\n        /* \"contracts/DexToken.sol\":2490:2500  msg.sender */\n      caller\n        /* \"contracts/DexToken.sol\":2479:2501  accBalance[msg.sender] */\n      0xffffffffffffffffffffffffffffffffffffffff\n      and\n      0xffffffffffffffffffffffffffffffffffffffff\n      and\n      dup2\n      mstore\n      0x20\n      add\n      swap1\n      dup2\n      mstore\n      0x20\n      add\n      0x00\n      keccak256\n      0x00\n        /* \"contracts/DexToken.sol\":2479:2511  accBalance[msg.sender] -= amount */\n      dup3\n      dup3\n      sload\n      tag_114\n      swap2\n      swap1\n      tag_94\n      jump\t// in\n    tag_114:\n      swap3\n      pop\n      pop\n      dup2\n      swap1\n      sstore\n      pop\n        /* \"contracts/DexToken.sol\":2546:2552  amount */\n      dup2\n        /* \"contracts/DexToken.sol\":2521:2531  accBalance */\n      0x01\n        /* \"contracts/DexToken.sol\":2521:2542  accBalance[recipient] */\n      0x00\n        /* \"contracts/DexToken.sol\":2532:2541  recipient */\n      dup6\n        /* \"contracts/DexToken.sol\":2521:2542  accBalance[recipient] */\n      0xffffffffffffffffffffffffffffffffffffffff\n      and\n      0xffffffffffffffffffffffffffffffffffffffff\n      and\n      dup2\n      mstore\n      0x20\n      add\n      swap1\n      dup2\n      mstore\n      0x20\n      add\n      0x00\n      keccak256\n      0x00\n        /* \"contracts/DexToken.sol\":2521:2552  accBalance[recipient] += amount */\n      dup3\n      dup3\n      sload\n      tag_115\n      swap2\n      swap1\n      tag_97\n      jump\t// in\n    tag_115:\n      swap3\n      pop\n      pop\n      dup2\n      swap1\n      sstore\n      pop\n        /* \"contracts/DexToken.sol\":2588:2597  recipient */\n      dup3\n        /* \"contracts/DexToken.sol\":2567:2606  Transfer(msg.sender, recipient, amount) */\n      0xffffffffffffffffffffffffffffffffffffffff\n      and\n        /* \"contracts/DexToken.sol\":2576:2586  msg.sender */\n      caller\n        /* \"contracts/DexToken.sol\":2567:2606  Transfer(msg.sender, recipient, amount) */\n      0xffffffffffffffffffffffffffffffffffffffff\n      and\n      0xddf252ad1be2c89b69c2b068fc378daa952ba7f163c4a11628f55a4df523b3ef\n        /* \"contracts/DexToken.sol\":2599:2605  amount */\n      dup5\n        /* \"contracts/DexToken.sol\":2567:2606  Transfer(msg.sender, recipient, amount) */\n      mload(0x40)\n      tag_116\n      swap2\n      swap1\n      tag_34\n      jump\t// in\n    tag_116:\n      mload(0x40)\n      dup1\n      swap2\n      sub\n      swap1\n      log3\n        /* \"contracts/DexToken.sol\":2623:2627  true */\n      0x01\n        /* \"contracts/DexToken.sol\":2616:2627  return true */\n      swap1\n      pop\n        /* \"contracts/DexToken.sol\":2321:2634  function transfer(address recipient, uint256 amount)... */\n      swap3\n      swap2\n      pop\n      pop\n      jump\t// out\n        /* \"contracts/DexToken.sol\":3589:3681  function getTotalSupply() external view returns (uint256){... */\n    tag_72:\n        /* \"contracts/DexToken.sol\":3638:3645  uint256 */\n      0x00\n        /* \"contracts/DexToken.sol\":3663:3674  totalSupply */\n      dup1\n      sload\n        /* \"contracts/DexToken.sol\":3656:3674  return totalSupply */\n      swap1\n      pop\n        /* \"contracts/DexToken.sol\":3589:3681  function getTotalSupply() external view returns (uint256){... */\n      swap1\n      jump\t// out\n        /* \"contracts/DexToken.sol\":3353:3487  function allowance(address owner, address spender) external view returns (uint256){... */\n    tag_76:\n        /* \"contracts/DexToken.sol\":3427:3434  uint256 */\n      0x00\n        /* \"contracts/DexToken.sol\":3452:3464  accAllowance */\n      0x02\n        /* \"contracts/DexToken.sol\":3452:3471  accAllowance[owner] */\n      0x00\n        /* \"contracts/DexToken.sol\":3465:3470  owner */\n      dup5\n        /* \"contracts/DexToken.sol\":3452:3471  accAllowance[owner] */\n      0xffffffffffffffffffffffffffffffffffffffff\n      and\n      0xffffffffffffffffffffffffffffffffffffffff\n      and\n      dup2\n      mstore\n      0x20\n      add\n      swap1\n      dup2\n      mstore\n      0x20\n      add\n      0x00\n      keccak256\n        /* \"contracts/DexToken.sol\":3452:3480  accAllowance[owner][spender] */\n      0x00\n        /* \"contracts/DexToken.sol\":3472:3479  spender */\n      dup4\n        /* \"contracts/DexToken.sol\":3452:3480  accAllowance[owner][spender] */\n      0xffffffffffffffffffffffffffffffffffffffff\n      and\n      0xffffffffffffffffffffffffffffffffffffffff\n      and\n      dup2\n      mstore\n      0x20\n      add\n      swap1\n      dup2\n      mstore\n      0x20\n      add\n      0x00\n      keccak256\n      sload\n        /* \"contracts/DexToken.sol\":3445:3480  return accAllowance[owner][spender] */\n      swap1\n      pop\n        /* \"contracts/DexToken.sol\":3353:3487  function allowance(address owner, address spender) external view returns (uint256){... */\n      swap3\n      swap2\n      pop\n      pop\n      jump\t// out\n        /* \"contracts/DexToken.sol\":1909:1954  mapping(address => uint256) public accBalance */\n    tag_80:\n      mstore(0x20, 0x01)\n      dup1\n      0x00\n      mstore\n      keccak256(0x00, 0x40)\n      0x00\n      swap2\n      pop\n      swap1\n      pop\n      sload\n      dup2\n      jump\t// out\n        /* \"contracts/DexToken.sol\":3807:3978  function _mint(address to, uint256 amount) internal {... */\n    tag_102:\n        /* \"contracts/DexToken.sol\":3887:3893  amount */\n      dup1\n        /* \"contracts/DexToken.sol\":3869:3879  accBalance */\n      0x01\n        /* \"contracts/DexToken.sol\":3869:3883  accBalance[to] */\n      0x00\n        /* \"contracts/DexToken.sol\":3880:3882  to */\n      dup5\n        /* \"contracts/DexToken.sol\":3869:3883  accBalance[to] */\n      0xffffffffffffffffffffffffffffffffffffffff\n      and\n      0xffffffffffffffffffffffffffffffffffffffff\n      and\n      dup2\n      mstore\n      0x20\n      add\n      swap1\n      dup2\n      mstore\n      0x20\n      add\n      0x00\n      keccak256\n      0x00\n        /* \"contracts/DexToken.sol\":3869:3893  accBalance[to] += amount */\n      dup3\n      dup3\n      sload\n      tag_120\n      swap2\n      swap1\n      tag_97\n      jump\t// in\n    tag_120:\n      swap3\n      pop\n      pop\n      dup2\n      swap1\n      sstore\n      pop\n        /* \"contracts/DexToken.sol\":3918:3924  amount */\n      dup1\n        /* \"contracts/DexToken.sol\":3903:3914  totalSupply */\n      0x00\n      dup1\n        /* \"contracts/DexToken.sol\":3903:3924  totalSupply += amount */\n      dup3\n      dup3\n      sload\n      tag_121\n      swap2\n      swap1\n      tag_97\n      jump\t// in\n    tag_121:\n      swap3\n      pop\n      pop\n      dup2\n      swap1\n      sstore\n      pop\n        /* \"contracts/DexToken.sol\":3960:3962  to */\n      dup2\n        /* \"contracts/DexToken.sol\":3939:3971  Transfer(address(0), to, amount) */\n      0xffffffffffffffffffffffffffffffffffffffff\n      and\n        /* \"contracts/DexToken.sol\":3956:3957  0 */\n      0x00\n        /* \"contracts/DexToken.sol\":3939:3971  Transfer(address(0), to, amount) */\n      0xffffffffffffffffffffffffffffffffffffffff\n      and\n      0xddf252ad1be2c89b69c2b068fc378daa952ba7f163c4a11628f55a4df523b3ef\n        /* \"contracts/DexToken.sol\":3964:3970  amount */\n      dup4\n        /* \"contracts/DexToken.sol\":3939:3971  Transfer(address(0), to, amount) */\n      mload(0x40)\n      tag_122\n      swap2\n      swap1\n      tag_34\n      jump\t// in\n    tag_122:\n      mload(0x40)\n      dup1\n      swap2\n      sub\n      swap1\n      log3\n        /* \"contracts/DexToken.sol\":3807:3978  function _mint(address to, uint256 amount) internal {... */\n      pop\n      pop\n      jump\t// out\n        /* \"contracts/DexToken.sol\":3984:4161  function _burn(address from, uint256 amount) internal {... */\n    tag_111:\n        /* \"contracts/DexToken.sol\":4068:4074  amount */\n      dup1\n        /* \"contracts/DexToken.sol\":4048:4058  accBalance */\n      0x01\n        /* \"contracts/DexToken.sol\":4048:4064  accBalance[from] */\n      0x00\n        /* \"contracts/DexToken.sol\":4059:4063  from */\n      dup5\n        /* \"contracts/DexToken.sol\":4048:4064  accBalance[from] */\n      0xffffffffffffffffffffffffffffffffffffffff\n      and\n      0xffffffffffffffffffffffffffffffffffffffff\n      and\n      dup2\n      mstore\n      0x20\n      add\n      swap1\n      dup2\n      mstore\n      0x20\n      add\n      0x00\n      keccak256\n      0x00\n        /* \"contracts/DexToken.sol\":4048:4074  accBalance[from] -= amount */\n      dup3\n      dup3\n      sload\n      tag_124\n      swap2\n      swap1\n      tag_94\n      jump\t// in\n    tag_124:\n      swap3\n      pop\n      pop\n      dup2\n      swap1\n      sstore\n      pop\n        /* \"contracts/DexToken.sol\":4099:4105  amount */\n      dup1\n        /* \"contracts/DexToken.sol\":4084:4095  totalSupply */\n      0x00\n      dup1\n        /* \"contracts/DexToken.sol\":4084:4105  totalSupply -= amount */\n      dup3\n      dup3\n      sload\n      tag_125\n      swap2\n      swap1\n      tag_94\n      jump\t// in\n    tag_125:\n      swap3\n      pop\n      pop\n      dup2\n      swap1\n      sstore\n      pop\n        /* \"contracts/DexToken.sol\":4143:4144  0 */\n      0x00\n        /* \"contracts/DexToken.sol\":4120:4154  Transfer(from, address(0), amount) */\n      0xffffffffffffffffffffffffffffffffffffffff\n      and\n        /* \"contracts/DexToken.sol\":4129:4133  from */\n      dup3\n        /* \"contracts/DexToken.sol\":4120:4154  Transfer(from, address(0), amount) */\n      0xffffffffffffffffffffffffffffffffffffffff\n      and\n      0xddf252ad1be2c89b69c2b068fc378daa952ba7f163c4a11628f55a4df523b3ef\n        /* \"contracts/DexToken.sol\":4147:4153  amount */\n      dup4\n        /* \"contracts/DexToken.sol\":4120:4154  Transfer(from, address(0), amount) */\n      mload(0x40)\n      tag_126\n      swap2\n      swap1\n      tag_34\n      jump\t// in\n    tag_126:\n      mload(0x40)\n      dup1\n      swap2\n      sub\n      swap1\n      log3\n        /* \"contracts/DexToken.sol\":3984:4161  function _burn(address from, uint256 amount) internal {... */\n      pop\n      pop\n      jump\t// out\n        /* \"#utility.yul\":7:106   */\n    tag_127:\n        /* \"#utility.yul\":59:65   */\n      0x00\n        /* \"#utility.yul\":93:98   */\n      dup2\n        /* \"#utility.yul\":87:99   */\n      mload\n        /* \"#utility.yul\":77:99   */\n      swap1\n      pop\n        /* \"#utility.yul\":7:106   */\n      swap2\n      swap1\n      pop\n      jump\t// out\n        /* \"#utility.yul\":112:281   */\n    tag_128:\n        /* \"#utility.yul\":196:207   */\n      0x00\n        /* \"#utility.yul\":230:236   */\n      dup3\n        /* \"#utility.yul\":225:228   */\n      dup3\n        /* \"#utility.yul\":218:237   */\n      mstore\n        /* \"#utility.yul\":270:274   */\n      0x20\n        /* \"#utility.yul\":265:268   */\n      dup3\n        /* \"#utility.yul\":261:275   */\n      add\n        /* \"#utility.yul\":246:275   */\n      swap1\n      pop\n        /* \"#utility.yul\":112:281   */\n      swap3\n      swap2\n      pop\n      pop\n      jump\t// out\n        /* \"#utility.yul\":287:533   */\n    tag_129:\n        /* \"#utility.yul\":368:369   */\n      0x00\n        /* \"#utility.yul\":378:491   */\n    tag_154:\n        /* \"#utility.yul\":392:398   */\n      dup4\n        /* \"#utility.yul\":389:390   */\n      dup2\n        /* \"#utility.yul\":386:399   */\n      lt\n        /* \"#utility.yul\":378:491   */\n      iszero\n      tag_156\n      jumpi\n        /* \"#utility.yul\":477:478   */\n      dup1\n        /* \"#utility.yul\":472:475   */\n      dup3\n        /* \"#utility.yul\":468:479   */\n      add\n        /* \"#utility.yul\":462:480   */\n      mload\n        /* \"#utility.yul\":458:459   */\n      dup2\n        /* \"#utility.yul\":453:456   */\n      dup5\n        /* \"#utility.yul\":449:460   */\n      add\n        /* \"#utility.yul\":442:481   */\n      mstore\n        /* \"#utility.yul\":414:416   */\n      0x20\n        /* \"#utility.yul\":411:412   */\n      dup2\n        /* \"#utility.yul\":407:417   */\n      add\n        /* \"#utility.yul\":402:417   */\n      swap1\n      pop\n        /* \"#utility.yul\":378:491   */\n      jump(tag_154)\n    tag_156:\n        /* \"#utility.yul\":525:526   */\n      0x00\n        /* \"#utility.yul\":516:522   */\n      dup5\n        /* \"#utility.yul\":511:514   */\n      dup5\n        /* \"#utility.yul\":507:523   */\n      add\n        /* \"#utility.yul\":500:527   */\n      mstore\n        /* \"#utility.yul\":349:533   */\n      pop\n        /* \"#utility.yul\":287:533   */\n      pop\n      pop\n      pop\n      jump\t// out\n        /* \"#utility.yul\":539:641   */\n    tag_130:\n        /* \"#utility.yul\":580:586   */\n      0x00\n        /* \"#utility.yul\":631:633   */\n      0x1f\n        /* \"#utility.yul\":627:634   */\n      not\n        /* \"#utility.yul\":622:624   */\n      0x1f\n        /* \"#utility.yul\":615:620   */\n      dup4\n        /* \"#utility.yul\":611:625   */\n      add\n        /* \"#utility.yul\":607:635   */\n      and\n        /* \"#utility.yul\":597:635   */\n      swap1\n      pop\n        /* \"#utility.yul\":539:641   */\n      swap2\n      swap1\n      pop\n      jump\t// out\n        /* \"#utility.yul\":647:1024   */\n    tag_131:\n        /* \"#utility.yul\":735:738   */\n      0x00\n        /* \"#utility.yul\":763:802   */\n      tag_159\n        /* \"#utility.yul\":796:801   */\n      dup3\n        /* \"#utility.yul\":763:802   */\n      tag_127\n      jump\t// in\n    tag_159:\n        /* \"#utility.yul\":818:889   */\n      tag_160\n        /* \"#utility.yul\":882:888   */\n      dup2\n        /* \"#utility.yul\":877:880   */\n      dup6\n        /* \"#utility.yul\":818:889   */\n      tag_128\n      jump\t// in\n    tag_160:\n        /* \"#utility.yul\":811:889   */\n      swap4\n      pop\n        /* \"#utility.yul\":898:963   */\n      tag_161\n        /* \"#utility.yul\":956:962   */\n      dup2\n        /* \"#utility.yul\":951:954   */\n      dup6\n        /* \"#utility.yul\":944:948   */\n      0x20\n        /* \"#utility.yul\":937:942   */\n      dup7\n        /* \"#utility.yul\":933:949   */\n      add\n        /* \"#utility.yul\":898:963   */\n      tag_129\n      jump\t// in\n    tag_161:\n        /* \"#utility.yul\":988:1017   */\n      tag_162\n        /* \"#utility.yul\":1010:1016   */\n      dup2\n        /* \"#utility.yul\":988:1017   */\n      tag_130\n      jump\t// in\n    tag_162:\n        /* \"#utility.yul\":983:986   */\n      dup5\n        /* \"#utility.yul\":979:1018   */\n      add\n        /* \"#utility.yul\":972:1018   */\n      swap2\n      pop\n        /* \"#utility.yul\":739:1024   */\n      pop\n        /* \"#utility.yul\":647:1024   */\n      swap3\n      swap2\n      pop\n      pop\n      jump\t// out\n        /* \"#utility.yul\":1030:1343   */\n    tag_24:\n        /* \"#utility.yul\":1143:1147   */\n      0x00\n        /* \"#utility.yul\":1181:1183   */\n      0x20\n        /* \"#utility.yul\":1170:1179   */\n      dup3\n        /* \"#utility.yul\":1166:1184   */\n      add\n        /* \"#utility.yul\":1158:1184   */\n      swap1\n      pop\n        /* \"#utility.yul\":1230:1239   */\n      dup2\n        /* \"#utility.yul\":1224:1228   */\n      dup2\n        /* \"#utility.yul\":1220:1240   */\n      sub\n        /* \"#utility.yul\":1216:1217   */\n      0x00\n        /* \"#utility.yul\":1205:1214   */\n      dup4\n        /* \"#utility.yul\":1201:1218   */\n      add\n        /* \"#utility.yul\":1194:1241   */\n      mstore\n        /* \"#utility.yul\":1258:1336   */\n      tag_164\n        /* \"#utility.yul\":1331:1335   */\n      dup2\n        /* \"#utility.yul\":1322:1328   */\n      dup5\n        /* \"#utility.yul\":1258:1336   */\n      tag_131\n      jump\t// in\n    tag_164:\n        /* \"#utility.yul\":1250:1336   */\n      swap1\n      pop\n        /* \"#utility.yul\":1030:1343   */\n      swap3\n      swap2\n      pop\n      pop\n      jump\t// out\n        /* \"#utility.yul\":1430:1547   */\n    tag_133:\n        /* \"#utility.yul\":1539:1540   */\n      0x00\n        /* \"#utility.yul\":1536:1537   */\n      dup1\n        /* \"#utility.yul\":1529:1541   */\n      revert\n        /* \"#utility.yul\":1676:1802   */\n    tag_135:\n        /* \"#utility.yul\":1713:1720   */\n      0x00\n        /* \"#utility.yul\":1753:1795   */\n      0xffffffffffffffffffffffffffffffffffffffff\n        /* \"#utility.yul\":1746:1751   */\n      dup3\n        /* \"#utility.yul\":1742:1796   */\n      and\n        /* \"#utility.yul\":1731:1796   */\n      swap1\n      pop\n        /* \"#utility.yul\":1676:1802   */\n      swap2\n      swap1\n      pop\n      jump\t// out\n        /* \"#utility.yul\":1808:1904   */\n    tag_136:\n        /* \"#utility.yul\":1845:1852   */\n      0x00\n        /* \"#utility.yul\":1874:1898   */\n      tag_170\n        /* \"#utility.yul\":1892:1897   */\n      dup3\n        /* \"#utility.yul\":1874:1898   */\n      tag_135\n      jump\t// in\n    tag_170:\n        /* \"#utility.yul\":1863:1898   */\n      swap1\n      pop\n        /* \"#utility.yul\":1808:1904   */\n      swap2\n      swap1\n      pop\n      jump\t// out\n        /* \"#utility.yul\":1910:2032   */\n    tag_137:\n        /* \"#utility.yul\":1983:2007   */\n      tag_172\n        /* \"#utility.yul\":2001:2006   */\n      dup2\n        /* \"#utility.yul\":1983:2007   */\n      tag_136\n      jump\t// in\n    tag_172:\n        /* \"#utility.yul\":1976:1981   */\n      dup2\n        /* \"#utility.yul\":1973:2008   */\n      eq\n        /* \"#utility.yul\":1963:2026   */\n      tag_173\n      jumpi\n        /* \"#utility.yul\":2022:2023   */\n      0x00\n        /* \"#utility.yul\":2019:2020   */\n      dup1\n        /* \"#utility.yul\":2012:2024   */\n      revert\n        /* \"#utility.yul\":1963:2026   */\n    tag_173:\n        /* \"#utility.yul\":1910:2032   */\n      pop\n      jump\t// out\n        /* \"#utility.yul\":2038:2177   */\n    tag_138:\n        /* \"#utility.yul\":2084:2089   */\n      0x00\n        /* \"#utility.yul\":2122:2128   */\n      dup2\n        /* \"#utility.yul\":2109:2129   */\n      calldataload\n        /* \"#utility.yul\":2100:2129   */\n      swap1\n      pop\n        /* \"#utility.yul\":2138:2171   */\n      tag_175\n        /* \"#utility.yul\":2165:2170   */\n      dup2\n        /* \"#utility.yul\":2138:2171   */\n      tag_137\n      jump\t// in\n    tag_175:\n        /* \"#utility.yul\":2038:2177   */\n      swap3\n      swap2\n      pop\n      pop\n      jump\t// out\n        /* \"#utility.yul\":2183:2260   */\n    tag_139:\n        /* \"#utility.yul\":2220:2227   */\n      0x00\n        /* \"#utility.yul\":2249:2254   */\n      dup2\n        /* \"#utility.yul\":2238:2254   */\n      swap1\n      pop\n        /* \"#utility.yul\":2183:2260   */\n      swap2\n      swap1\n      pop\n      jump\t// out\n        /* \"#utility.yul\":2266:2388   */\n    tag_140:\n        /* \"#utility.yul\":2339:2363   */\n      tag_178\n        /* \"#utility.yul\":2357:2362   */\n      dup2\n        /* \"#utility.yul\":2339:2363   */\n      tag_139\n      jump\t// in\n    tag_178:\n        /* \"#utility.yul\":2332:2337   */\n      dup2\n        /* \"#utility.yul\":2329:2364   */\n      eq\n        /* \"#utility.yul\":2319:2382   */\n      tag_179\n      jumpi\n        /* \"#utility.yul\":2378:2379   */\n      0x00\n        /* \"#utility.yul\":2375:2376   */\n      dup1\n        /* \"#utility.yul\":2368:2380   */\n      revert\n        /* \"#utility.yul\":2319:2382   */\n    tag_179:\n        /* \"#utility.yul\":2266:2388   */\n      pop\n      jump\t// out\n        /* \"#utility.yul\":2394:2533   */\n    tag_141:\n        /* \"#utility.yul\":2440:2445   */\n      0x00\n        /* \"#utility.yul\":2478:2484   */\n      dup2\n        /* \"#utility.yul\":2465:2485   */\n      calldataload\n        /* \"#utility.yul\":2456:2485   */\n      swap1\n      pop\n        /* \"#utility.yul\":2494:2527   */\n      tag_181\n        /* \"#utility.yul\":2521:2526   */\n      dup2\n        /* \"#utility.yul\":2494:2527   */\n      tag_140\n      jump\t// in\n    tag_181:\n        /* \"#utility.yul\":2394:2533   */\n      swap3\n      swap2\n      pop\n      pop\n      jump\t// out\n        /* \"#utility.yul\":2539:3013   */\n    tag_27:\n        /* \"#utility.yul\":2607:2613   */\n      0x00\n        /* \"#utility.yul\":2615:2621   */\n      dup1\n        /* \"#utility.yul\":2664:2666   */\n      0x40\n        /* \"#utility.yul\":2652:2661   */\n      dup4\n        /* \"#utility.yul\":2643:2650   */\n      dup6\n        /* \"#utility.yul\":2639:2662   */\n      sub\n        /* \"#utility.yul\":2635:2667   */\n      slt\n        /* \"#utility.yul\":2632:2751   */\n      iszero\n      tag_183\n      jumpi\n        /* \"#utility.yul\":2670:2749   */\n      tag_184\n      tag_133\n      jump\t// in\n    tag_184:\n        /* \"#utility.yul\":2632:2751   */\n    tag_183:\n        /* \"#utility.yul\":2790:2791   */\n      0x00\n        /* \"#utility.yul\":2815:2868   */\n      tag_185\n        /* \"#utility.yul\":2860:2867   */\n      dup6\n        /* \"#utility.yul\":2851:2857   */\n      dup3\n        /* \"#utility.yul\":2840:2849   */\n      dup7\n        /* \"#utility.yul\":2836:2858   */\n      add\n        /* \"#utility.yul\":2815:2868   */\n      tag_138\n      jump\t// in\n    tag_185:\n        /* \"#utility.yul\":2805:2868   */\n      swap3\n      pop\n        /* \"#utility.yul\":2761:2878   */\n      pop\n        /* \"#utility.yul\":2917:2919   */\n      0x20\n        /* \"#utility.yul\":2943:2996   */\n      tag_186\n        /* \"#utility.yul\":2988:2995   */\n      dup6\n        /* \"#utility.yul\":2979:2985   */\n      dup3\n        /* \"#utility.yul\":2968:2977   */\n      dup7\n        /* \"#utility.yul\":2964:2986   */\n      add\n        /* \"#utility.yul\":2943:2996   */\n      tag_141\n      jump\t// in\n    tag_186:\n        /* \"#utility.yul\":2933:2996   */\n      swap2\n      pop\n        /* \"#utility.yul\":2888:3006   */\n      pop\n        /* \"#utility.yul\":2539:3013   */\n      swap3\n      pop\n      swap3\n      swap1\n      pop\n      jump\t// out\n        /* \"#utility.yul\":3019:3109   */\n    tag_142:\n        /* \"#utility.yul\":3053:3060   */\n      0x00\n        /* \"#utility.yul\":3096:3101   */\n      dup2\n        /* \"#utility.yul\":3089:3102   */\n      iszero\n        /* \"#utility.yul\":3082:3103   */\n      iszero\n        /* \"#utility.yul\":3071:3103   */\n      swap1\n      pop\n        /* \"#utility.yul\":3019:3109   */\n      swap2\n      swap1\n      pop\n      jump\t// out\n        /* \"#utility.yul\":3115:3224   */\n    tag_143:\n        /* \"#utility.yul\":3196:3217   */\n      tag_189\n        /* \"#utility.yul\":3211:3216   */\n      dup2\n        /* \"#utility.yul\":3196:3217   */\n      tag_142\n      jump\t// in\n    tag_189:\n        /* \"#utility.yul\":3191:3194   */\n      dup3\n        /* \"#utility.yul\":3184:3218   */\n      mstore\n        /* \"#utility.yul\":3115:3224   */\n      pop\n      pop\n      jump\t// out\n        /* \"#utility.yul\":3230:3440   */\n    tag_30:\n        /* \"#utility.yul\":3317:3321   */\n      0x00\n        /* \"#utility.yul\":3355:3357   */\n      0x20\n        /* \"#utility.yul\":3344:3353   */\n      dup3\n        /* \"#utility.yul\":3340:3358   */\n      add\n        /* \"#utility.yul\":3332:3358   */\n      swap1\n      pop\n        /* \"#utility.yul\":3368:3433   */\n      tag_191\n        /* \"#utility.yul\":3430:3431   */\n      0x00\n        /* \"#utility.yul\":3419:3428   */\n      dup4\n        /* \"#utility.yul\":3415:3432   */\n      add\n        /* \"#utility.yul\":3406:3412   */\n      dup5\n        /* \"#utility.yul\":3368:3433   */\n      tag_143\n      jump\t// in\n    tag_191:\n        /* \"#utility.yul\":3230:3440   */\n      swap3\n      swap2\n      pop\n      pop\n      jump\t// out\n        /* \"#utility.yul\":3446:3564   */\n    tag_144:\n        /* \"#utility.yul\":3533:3557   */\n      tag_193\n        /* \"#utility.yul\":3551:3556   */\n      dup2\n        /* \"#utility.yul\":3533:3557   */\n      tag_139\n      jump\t// in\n    tag_193:\n        /* \"#utility.yul\":3528:3531   */\n      dup3\n        /* \"#utility.yul\":3521:3558   */\n      mstore\n        /* \"#utility.yul\":3446:3564   */\n      pop\n      pop\n      jump\t// out\n        /* \"#utility.yul\":3570:3792   */\n    tag_34:\n        /* \"#utility.yul\":3663:3667   */\n      0x00\n        /* \"#utility.yul\":3701:3703   */\n      0x20\n        /* \"#utility.yul\":3690:3699   */\n      dup3\n        /* \"#utility.yul\":3686:3704   */\n      add\n        /* \"#utility.yul\":3678:3704   */\n      swap1\n      pop\n        /* \"#utility.yul\":3714:3785   */\n      tag_195\n        /* \"#utility.yul\":3782:3783   */\n      0x00\n        /* \"#utility.yul\":3771:3780   */\n      dup4\n        /* \"#utility.yul\":3767:3784   */\n      add\n        /* \"#utility.yul\":3758:3764   */\n      dup5\n        /* \"#utility.yul\":3714:3785   */\n      tag_144\n      jump\t// in\n    tag_195:\n        /* \"#utility.yul\":3570:3792   */\n      swap3\n      swap2\n      pop\n      pop\n      jump\t// out\n        /* \"#utility.yul\":3798:4417   */\n    tag_37:\n        /* \"#utility.yul\":3875:3881   */\n      0x00\n        /* \"#utility.yul\":3883:3889   */\n      dup1\n        /* \"#utility.yul\":3891:3897   */\n      0x00\n        /* \"#utility.yul\":3940:3942   */\n      0x60\n        /* \"#utility.yul\":3928:3937   */\n      dup5\n        /* \"#utility.yul\":3919:3926   */\n      dup7\n        /* \"#utility.yul\":3915:3938   */\n      sub\n        /* \"#utility.yul\":3911:3943   */\n      slt\n        /* \"#utility.yul\":3908:4027   */\n      iszero\n      tag_197\n      jumpi\n        /* \"#utility.yul\":3946:4025   */\n      tag_198\n      tag_133\n      jump\t// in\n    tag_198:\n        /* \"#utility.yul\":3908:4027   */\n    tag_197:\n        /* \"#utility.yul\":4066:4067   */\n      0x00\n        /* \"#utility.yul\":4091:4144   */\n      tag_199\n        /* \"#utility.yul\":4136:4143   */\n      dup7\n        /* \"#utility.yul\":4127:4133   */\n      dup3\n        /* \"#utility.yul\":4116:4125   */\n      dup8\n        /* \"#utility.yul\":4112:4134   */\n      add\n        /* \"#utility.yul\":4091:4144   */\n      tag_138\n      jump\t// in\n    tag_199:\n        /* \"#utility.yul\":4081:4144   */\n      swap4\n      pop\n        /* \"#utility.yul\":4037:4154   */\n      pop\n        /* \"#utility.yul\":4193:4195   */\n      0x20\n        /* \"#utility.yul\":4219:4272   */\n      tag_200\n        /* \"#utility.yul\":4264:4271   */\n      dup7\n        /* \"#utility.yul\":4255:4261   */\n      dup3\n        /* \"#utility.yul\":4244:4253   */\n      dup8\n        /* \"#utility.yul\":4240:4262   */\n      add\n        /* \"#utility.yul\":4219:4272   */\n      tag_138\n      jump\t// in\n    tag_200:\n        /* \"#utility.yul\":4209:4272   */\n      swap3\n      pop\n        /* \"#utility.yul\":4164:4282   */\n      pop\n        /* \"#utility.yul\":4321:4323   */\n      0x40\n        /* \"#utility.yul\":4347:4400   */\n      tag_201\n        /* \"#utility.yul\":4392:4399   */\n      dup7\n        /* \"#utility.yul\":4383:4389   */\n      dup3\n        /* \"#utility.yul\":4372:4381   */\n      dup8\n        /* \"#utility.yul\":4368:4390   */\n      add\n        /* \"#utility.yul\":4347:4400   */\n      tag_141\n      jump\t// in\n    tag_201:\n        /* \"#utility.yul\":4337:4400   */\n      swap2\n      pop\n        /* \"#utility.yul\":4292:4410   */\n      pop\n        /* \"#utility.yul\":3798:4417   */\n      swap3\n      pop\n      swap3\n      pop\n      swap3\n      jump\t// out\n        /* \"#utility.yul\":4423:4897   */\n    tag_42:\n        /* \"#utility.yul\":4491:4497   */\n      0x00\n        /* \"#utility.yul\":4499:4505   */\n      dup1\n        /* \"#utility.yul\":4548:4550   */\n      0x40\n        /* \"#utility.yul\":4536:4545   */\n      dup4\n        /* \"#utility.yul\":4527:4534   */\n      dup6\n        /* \"#utility.yul\":4523:4546   */\n      sub\n        /* \"#utility.yul\":4519:4551   */\n      slt\n        /* \"#utility.yul\":4516:4635   */\n      iszero\n      tag_203\n      jumpi\n        /* \"#utility.yul\":4554:4633   */\n      tag_204\n      tag_133\n      jump\t// in\n    tag_204:\n        /* \"#utility.yul\":4516:4635   */\n    tag_203:\n        /* \"#utility.yul\":4674:4675   */\n      0x00\n        /* \"#utility.yul\":4699:4752   */\n      tag_205\n        /* \"#utility.yul\":4744:4751   */\n      dup6\n        /* \"#utility.yul\":4735:4741   */\n      dup3\n        /* \"#utility.yul\":4724:4733   */\n      dup7\n        /* \"#utility.yul\":4720:4742   */\n      add\n        /* \"#utility.yul\":4699:4752   */\n      tag_138\n      jump\t// in\n    tag_205:\n        /* \"#utility.yul\":4689:4752   */\n      swap3\n      pop\n        /* \"#utility.yul\":4645:4762   */\n      pop\n        /* \"#utility.yul\":4801:4803   */\n      0x20\n        /* \"#utility.yul\":4827:4880   */\n      tag_206\n        /* \"#utility.yul\":4872:4879   */\n      dup6\n        /* \"#utility.yul\":4863:4869   */\n      dup3\n        /* \"#utility.yul\":4852:4861   */\n      dup7\n        /* \"#utility.yul\":4848:4870   */\n      add\n        /* \"#utility.yul\":4827:4880   */\n      tag_138\n      jump\t// in\n    tag_206:\n        /* \"#utility.yul\":4817:4880   */\n      swap2\n      pop\n        /* \"#utility.yul\":4772:4890   */\n      pop\n        /* \"#utility.yul\":4423:4897   */\n      swap3\n      pop\n      swap3\n      swap1\n      pop\n      jump\t// out\n        /* \"#utility.yul\":4903:4989   */\n    tag_145:\n        /* \"#utility.yul\":4938:4945   */\n      0x00\n        /* \"#utility.yul\":4978:4982   */\n      0xff\n        /* \"#utility.yul\":4971:4976   */\n      dup3\n        /* \"#utility.yul\":4967:4983   */\n      and\n        /* \"#utility.yul\":4956:4983   */\n      swap1\n      pop\n        /* \"#utility.yul\":4903:4989   */\n      swap2\n      swap1\n      pop\n      jump\t// out\n        /* \"#utility.yul\":4995:5107   */\n    tag_146:\n        /* \"#utility.yul\":5078:5100   */\n      tag_209\n        /* \"#utility.yul\":5094:5099   */\n      dup2\n        /* \"#utility.yul\":5078:5100   */\n      tag_145\n      jump\t// in\n    tag_209:\n        /* \"#utility.yul\":5073:5076   */\n      dup3\n        /* \"#utility.yul\":5066:5101   */\n      mstore\n        /* \"#utility.yul\":4995:5107   */\n      pop\n      pop\n      jump\t// out\n        /* \"#utility.yul\":5113:5327   */\n    tag_48:\n        /* \"#utility.yul\":5202:5206   */\n      0x00\n        /* \"#utility.yul\":5240:5242   */\n      0x20\n        /* \"#utility.yul\":5229:5238   */\n      dup3\n        /* \"#utility.yul\":5225:5243   */\n      add\n        /* \"#utility.yul\":5217:5243   */\n      swap1\n      pop\n        /* \"#utility.yul\":5253:5320   */\n      tag_211\n        /* \"#utility.yul\":5317:5318   */\n      0x00\n        /* \"#utility.yul\":5306:5315   */\n      dup4\n        /* \"#utility.yul\":5302:5319   */\n      add\n        /* \"#utility.yul\":5293:5299   */\n      dup5\n        /* \"#utility.yul\":5253:5320   */\n      tag_146\n      jump\t// in\n    tag_211:\n        /* \"#utility.yul\":5113:5327   */\n      swap3\n      swap2\n      pop\n      pop\n      jump\t// out\n        /* \"#utility.yul\":5333:5451   */\n    tag_147:\n        /* \"#utility.yul\":5420:5444   */\n      tag_213\n        /* \"#utility.yul\":5438:5443   */\n      dup2\n        /* \"#utility.yul\":5420:5444   */\n      tag_136\n      jump\t// in\n    tag_213:\n        /* \"#utility.yul\":5415:5418   */\n      dup3\n        /* \"#utility.yul\":5408:5445   */\n      mstore\n        /* \"#utility.yul\":5333:5451   */\n      pop\n      pop\n      jump\t// out\n        /* \"#utility.yul\":5457:5679   */\n    tag_52:\n        /* \"#utility.yul\":5550:5554   */\n      0x00\n        /* \"#utility.yul\":5588:5590   */\n      0x20\n        /* \"#utility.yul\":5577:5586   */\n      dup3\n        /* \"#utility.yul\":5573:5591   */\n      add\n        /* \"#utility.yul\":5565:5591   */\n      swap1\n      pop\n        /* \"#utility.yul\":5601:5672   */\n      tag_215\n        /* \"#utility.yul\":5669:5670   */\n      0x00\n        /* \"#utility.yul\":5658:5667   */\n      dup4\n        /* \"#utility.yul\":5654:5671   */\n      add\n        /* \"#utility.yul\":5645:5651   */\n      dup5\n        /* \"#utility.yul\":5601:5672   */\n      tag_147\n      jump\t// in\n    tag_215:\n        /* \"#utility.yul\":5457:5679   */\n      swap3\n      swap2\n      pop\n      pop\n      jump\t// out\n        /* \"#utility.yul\":5685:6014   */\n    tag_58:\n        /* \"#utility.yul\":5744:5750   */\n      0x00\n        /* \"#utility.yul\":5793:5795   */\n      0x20\n        /* \"#utility.yul\":5781:5790   */\n      dup3\n        /* \"#utility.yul\":5772:5779   */\n      dup5\n        /* \"#utility.yul\":5768:5791   */\n      sub\n        /* \"#utility.yul\":5764:5796   */\n      slt\n        /* \"#utility.yul\":5761:5880   */\n      iszero\n      tag_217\n      jumpi\n        /* \"#utility.yul\":5799:5878   */\n      tag_218\n      tag_133\n      jump\t// in\n    tag_218:\n        /* \"#utility.yul\":5761:5880   */\n    tag_217:\n        /* \"#utility.yul\":5919:5920   */\n      0x00\n        /* \"#utility.yul\":5944:5997   */\n      tag_219\n        /* \"#utility.yul\":5989:5996   */\n      dup5\n        /* \"#utility.yul\":5980:5986   */\n      dup3\n        /* \"#utility.yul\":5969:5978   */\n      dup6\n        /* \"#utility.yul\":5965:5987   */\n      add\n        /* \"#utility.yul\":5944:5997   */\n      tag_138\n      jump\t// in\n    tag_219:\n        /* \"#utility.yul\":5934:5997   */\n      swap2\n      pop\n        /* \"#utility.yul\":5890:6007   */\n      pop\n        /* \"#utility.yul\":5685:6014   */\n      swap3\n      swap2\n      pop\n      pop\n      jump\t// out\n        /* \"#utility.yul\":6020:6200   */\n    tag_148:\n        /* \"#utility.yul\":6068:6145   */\n      0x4e487b7100000000000000000000000000000000000000000000000000000000\n        /* \"#utility.yul\":6065:6066   */\n      0x00\n        /* \"#utility.yul\":6058:6146   */\n      mstore\n        /* \"#utility.yul\":6165:6169   */\n      0x22\n        /* \"#utility.yul\":6162:6163   */\n      0x04\n        /* \"#utility.yul\":6155:6170   */\n      mstore\n        /* \"#utility.yul\":6189:6193   */\n      0x24\n        /* \"#utility.yul\":6186:6187   */\n      0x00\n        /* \"#utility.yul\":6179:6194   */\n      revert\n        /* \"#utility.yul\":6206:6526   */\n    tag_83:\n        /* \"#utility.yul\":6250:6256   */\n      0x00\n        /* \"#utility.yul\":6287:6288   */\n      0x02\n        /* \"#utility.yul\":6281:6285   */\n      dup3\n        /* \"#utility.yul\":6277:6289   */\n      div\n        /* \"#utility.yul\":6267:6289   */\n      swap1\n      pop\n        /* \"#utility.yul\":6334:6335   */\n      0x01\n        /* \"#utility.yul\":6328:6332   */\n      dup3\n        /* \"#utility.yul\":6324:6336   */\n      and\n        /* \"#utility.yul\":6355:6373   */\n      dup1\n        /* \"#utility.yul\":6345:6426   */\n      tag_222\n      jumpi\n        /* \"#utility.yul\":6411:6415   */\n      0x7f\n        /* \"#utility.yul\":6403:6409   */\n      dup3\n        /* \"#utility.yul\":6399:6416   */\n      and\n        /* \"#utility.yul\":6389:6416   */\n      swap2\n      pop\n        /* \"#utility.yul\":6345:6426   */\n    tag_222:\n        /* \"#utility.yul\":6473:6475   */\n      0x20\n        /* \"#utility.yul\":6465:6471   */\n      dup3\n        /* \"#utility.yul\":6462:6476   */\n      lt\n        /* \"#utility.yul\":6442:6460   */\n      dup2\n        /* \"#utility.yul\":6439:6477   */\n      sub\n        /* \"#utility.yul\":6436:6520   */\n      tag_223\n      jumpi\n        /* \"#utility.yul\":6492:6510   */\n      tag_224\n      tag_148\n      jump\t// in\n    tag_224:\n        /* \"#utility.yul\":6436:6520   */\n    tag_223:\n        /* \"#utility.yul\":6257:6526   */\n      pop\n        /* \"#utility.yul\":6206:6526   */\n      swap2\n      swap1\n      pop\n      jump\t// out\n        /* \"#utility.yul\":6532:6712   */\n    tag_149:\n        /* \"#utility.yul\":6580:6657   */\n      0x4e487b7100000000000000000000000000000000000000000000000000000000\n        /* \"#utility.yul\":6577:6578   */\n      0x00\n        /* \"#utility.yul\":6570:6658   */\n      mstore\n        /* \"#utility.yul\":6677:6681   */\n      0x11\n        /* \"#utility.yul\":6674:6675   */\n      0x04\n        /* \"#utility.yul\":6667:6682   */\n      mstore\n        /* \"#utility.yul\":6701:6705   */\n      0x24\n        /* \"#utility.yul\":6698:6699   */\n      0x00\n        /* \"#utility.yul\":6691:6706   */\n      revert\n        /* \"#utility.yul\":6718:6912   */\n    tag_94:\n        /* \"#utility.yul\":6758:6762   */\n      0x00\n        /* \"#utility.yul\":6778:6798   */\n      tag_227\n        /* \"#utility.yul\":6796:6797   */\n      dup3\n        /* \"#utility.yul\":6778:6798   */\n      tag_139\n      jump\t// in\n    tag_227:\n        /* \"#utility.yul\":6773:6798   */\n      swap2\n      pop\n        /* \"#utility.yul\":6812:6832   */\n      tag_228\n        /* \"#utility.yul\":6830:6831   */\n      dup4\n        /* \"#utility.yul\":6812:6832   */\n      tag_139\n      jump\t// in\n    tag_228:\n        /* \"#utility.yul\":6807:6832   */\n      swap3\n      pop\n        /* \"#utility.yul\":6856:6857   */\n      dup3\n        /* \"#utility.yul\":6853:6854   */\n      dup3\n        /* \"#utility.yul\":6849:6858   */\n      sub\n        /* \"#utility.yul\":6841:6858   */\n      swap1\n      pop\n        /* \"#utility.yul\":6880:6881   */\n      dup2\n        /* \"#utility.yul\":6874:6878   */\n      dup2\n        /* \"#utility.yul\":6871:6882   */\n      gt\n        /* \"#utility.yul\":6868:6905   */\n      iszero\n      tag_229\n      jumpi\n        /* \"#utility.yul\":6885:6903   */\n      tag_230\n      tag_149\n      jump\t// in\n    tag_230:\n        /* \"#utility.yul\":6868:6905   */\n    tag_229:\n        /* \"#utility.yul\":6718:6912   */\n      swap3\n      swap2\n      pop\n      pop\n      jump\t// out\n        /* \"#utility.yul\":6918:7109   */\n    tag_97:\n        /* \"#utility.yul\":6958:6961   */\n      0x00\n        /* \"#utility.yul\":6977:6997   */\n      tag_232\n        /* \"#utility.yul\":6995:6996   */\n      dup3\n        /* \"#utility.yul\":6977:6997   */\n      tag_139\n      jump\t// in\n    tag_232:\n        /* \"#utility.yul\":6972:6997   */\n      swap2\n      pop\n        /* \"#utility.yul\":7011:7031   */\n      tag_233\n        /* \"#utility.yul\":7029:7030   */\n      dup4\n        /* \"#utility.yul\":7011:7031   */\n      tag_139\n      jump\t// in\n    tag_233:\n        /* \"#utility.yul\":7006:7031   */\n      swap3\n      pop\n        /* \"#utility.yul\":7054:7055   */\n      dup3\n        /* \"#utility.yul\":7051:7052   */\n      dup3\n        /* \"#utility.yul\":7047:7056   */\n      add\n        /* \"#utility.yul\":7040:7056   */\n      swap1\n      pop\n        /* \"#utility.yul\":7075:7078   */\n      dup1\n        /* \"#utility.yul\":7072:7073   */\n      dup3\n        /* \"#utility.yul\":7069:7079   */\n      gt\n        /* \"#utility.yul\":7066:7102   */\n      iszero\n      tag_234\n      jumpi\n        /* \"#utility.yul\":7082:7100   */\n      tag_235\n      tag_149\n      jump\t// in\n    tag_235:\n        /* \"#utility.yul\":7066:7102   */\n    tag_234:\n        /* \"#utility.yul\":6918:7109   */\n      swap3\n      swap2\n      pop\n      pop\n      jump\t// out\n\n    auxdata: 0xa264697066735822122066652f3d1fc5291879eca5da620026888c44aab6514abbe7ffd787643372864964736f6c63430008140033\n}\n",
				"bytecode": {
					"linkReferences": {},
					"object": "6080604052601260055f6101000a81548160ff021916908360ff1602179055503480156200002b575f80fd5b50604051620015f5380380620015f5833981810160405281019062000051919062000241565b826003908162000062919062000506565b50816004908162000074919062000506565b50805f81905550505050620005ea565b5f604051905090565b5f80fd5b5f80fd5b5f80fd5b5f80fd5b5f601f19601f8301169050919050565b7f4e487b71000000000000000000000000000000000000000000000000000000005f52604160045260245ffd5b620000e5826200009d565b810181811067ffffffffffffffff82111715620001075762000106620000ad565b5b80604052505050565b5f6200011b62000084565b9050620001298282620000da565b919050565b5f67ffffffffffffffff8211156200014b576200014a620000ad565b5b62000156826200009d565b9050602081019050919050565b5f5b838110156200018257808201518184015260208101905062000165565b5f8484015250505050565b5f620001a36200019d846200012e565b62000110565b905082815260208101848484011115620001c257620001c162000099565b5b620001cf84828562000163565b509392505050565b5f82601f830112620001ee57620001ed62000095565b5b8151620002008482602086016200018d565b91505092915050565b5f819050919050565b6200021d8162000209565b811462000228575f80fd5b50565b5f815190506200023b8162000212565b92915050565b5f805f606084860312156200025b576200025a6200008d565b5b5f84015167ffffffffffffffff8111156200027b576200027a62000091565b5b6200028986828701620001d7565b935050602084015167ffffffffffffffff811115620002ad57620002ac62000091565b5b620002bb86828701620001d7565b9250506040620002ce868287016200022b565b9150509250925092565b5f81519050919050565b7f4e487b71000000000000000000000000000000000000000000000000000000005f52602260045260245ffd5b5f60028204905060018216806200032757607f821691505b6020821081036200033d576200033c620002e2565b5b50919050565b5f819050815f5260205f209050919050565b5f6020601f8301049050919050565b5f82821b905092915050565b5f60088302620003a17fffffffffffffffffffffffffffffffffffffffffffffffffffffffffffffffff8262000364565b620003ad868362000364565b95508019841693508086168417925050509392505050565b5f819050919050565b5f620003ee620003e8620003e28462000209565b620003c5565b62000209565b9050919050565b5f819050919050565b6200040983620003ce565b620004216200041882620003f5565b84845462000370565b825550505050565b5f90565b6200043762000429565b62000444818484620003fe565b505050565b5b818110156200046b576200045f5f826200042d565b6001810190506200044a565b5050565b601f821115620004ba57620004848162000343565b6200048f8462000355565b810160208510156200049f578190505b620004b7620004ae8562000355565b83018262000449565b50505b505050565b5f82821c905092915050565b5f620004dc5f1984600802620004bf565b1980831691505092915050565b5f620004f68383620004cb565b9150826002028217905092915050565b6200051182620002d8565b67ffffffffffffffff8111156200052d576200052c620000ad565b5b6200053982546200030f565b620005468282856200046f565b5f60209050601f8311600181146200057c575f841562000567578287015190505b620005738582620004e9565b865550620005e2565b601f1984166200058c8662000343565b5f5b82811015620005b5578489015182556001820191506020850194506020810190506200058e565b86831015620005d55784890151620005d1601f891682620004cb565b8355505b6001600288020188555050505b505050505050565b610ffd80620005f85f395ff3fe608060405234801561000f575f80fd5b50600436106100f3575f3560e01c806340c10f1911610095578063a9059cbb11610064578063a9059cbb14610285578063c4e41b22146102b5578063dd62ed3e146102d3578063f6ae79ac14610303576100f3565b806340c10f19146101ff57806370a082311461021b57806395d89b411461024b5780639dc29fac14610269576100f3565b806323b872dd116100d157806323b872dd146101635780632be7c04a14610193578063313ce567146101c357806338cc4831146101e1576100f3565b806306fdde03146100f7578063095ea7b31461011557806318160ddd14610145575b5f80fd5b6100ff610333565b60405161010c9190610c78565b60405180910390f35b61012f600480360381019061012a9190610d29565b6103bf565b60405161013c9190610d81565b60405180910390f35b61014d6104ac565b60405161015a9190610da9565b60405180910390f35b61017d60048036038101906101789190610dc2565b6104b1565b60405161018a9190610d81565b60405180910390f35b6101ad60048036038101906101a89190610e12565b610723565b6040516101ba9190610da9565b60405180910390f35b6101cb610743565b6040516101d89190610e6b565b60405180910390f35b6101e9610755565b6040516101f69190610e93565b60405180910390f35b61021960048036038101906102149190610d29565b61075c565b005b61023560048036038101906102309190610eac565b61076a565b6040516102429190610da9565b60405180910390f35b6102536107b0565b6040516102609190610c78565b60405180910390f35b610283600480360381019061027e9190610d29565b61083c565b005b61029f600480360381019061029a9190610d29565b61084a565b6040516102ac9190610d81565b60405180910390f35b6102bd6109a9565b6040516102ca9190610da9565b60405180910390f35b6102ed60048036038101906102e89190610e12565b6109b1565b6040516102fa9190610da9565b60405180910390f35b61031d60048036038101906103189190610eac565b610a33565b60405161032a9190610da9565b60405180910390f35b6003805461034090610f04565b80601f016020809104026020016040519081016040528092919081815260200182805461036c90610f04565b80156103b75780601f1061038e576101008083540402835291602001916103b7565b820191905f5260205f20905b81548152906001019060200180831161039a57829003601f168201915b505050505081565b5f8160025f3373ffffffffffffffffffffffffffffffffffffffff1673ffffffffffffffffffffffffffffffffffffffff1681526020019081526020015f205f8573ffffffffffffffffffffffffffffffffffffffff1673ffffffffffffffffffffffffffffffffffffffff1681526020019081526020015f20819055508273ffffffffffffffffffffffffffffffffffffffff163373ffffffffffffffffffffffffffffffffffffffff167f8c5be1e5ebec7d5bd14f71427d1e84f3dd0314c0f7b2291e5b200ac8c7c3b9258460405161049a9190610da9565b60405180910390a36001905092915050565b5f5481565b5f60015f8573ffffffffffffffffffffffffffffffffffffffff1673ffffffffffffffffffffffffffffffffffffffff1681526020019081526020015f20548211156104fb575f80fd5b60025f8573ffffffffffffffffffffffffffffffffffffffff1673ffffffffffffffffffffffffffffffffffffffff1681526020019081526020015f205f3373ffffffffffffffffffffffffffffffffffffffff1673ffffffffffffffffffffffffffffffffffffffff1681526020019081526020015f205482111561057f575f80fd5b8160025f8673ffffffffffffffffffffffffffffffffffffffff1673ffffffffffffffffffffffffffffffffffffffff1681526020019081526020015f205f3373ffffffffffffffffffffffffffffffffffffffff1673ffffffffffffffffffffffffffffffffffffffff1681526020019081526020015f205f8282546106069190610f61565b925050819055508160015f8673ffffffffffffffffffffffffffffffffffffffff1673ffffffffffffffffffffffffffffffffffffffff1681526020019081526020015f205f8282546106599190610f61565b925050819055508160015f8573ffffffffffffffffffffffffffffffffffffffff1673ffffffffffffffffffffffffffffffffffffffff1681526020019081526020015f205f8282546106ac9190610f94565b925050819055508273ffffffffffffffffffffffffffffffffffffffff168473ffffffffffffffffffffffffffffffffffffffff167fddf252ad1be2c89b69c2b068fc378daa952ba7f163c4a11628f55a4df523b3ef846040516107109190610da9565b60405180910390a3600190509392505050565b6002602052815f5260405f20602052805f5260405f205f91509150505481565b60055f9054906101000a900460ff1681565b5f30905090565b6107668282610a48565b5050565b5f60015f8373ffffffffffffffffffffffffffffffffffffffff1673ffffffffffffffffffffffffffffffffffffffff1681526020019081526020015f20549050919050565b600480546107bd90610f04565b80601f01602080910402602001604051908101604052809291908181526020018280546107e990610f04565b80156108345780601f1061080b57610100808354040283529160200191610834565b820191905f5260205f20905b81548152906001019060200180831161081757829003601f168201915b505050505081565b6108468282610b1b565b5050565b5f60015f3373ffffffffffffffffffffffffffffffffffffffff1673ffffffffffffffffffffffffffffffffffffffff1681526020019081526020015f2054821115610894575f80fd5b8160015f3373ffffffffffffffffffffffffffffffffffffffff1673ffffffffffffffffffffffffffffffffffffffff1681526020019081526020015f205f8282546108e09190610f61565b925050819055508160015f8573ffffffffffffffffffffffffffffffffffffffff1673ffffffffffffffffffffffffffffffffffffffff1681526020019081526020015f205f8282546109339190610f94565b925050819055508273ffffffffffffffffffffffffffffffffffffffff163373ffffffffffffffffffffffffffffffffffffffff167fddf252ad1be2c89b69c2b068fc378daa952ba7f163c4a11628f55a4df523b3ef846040516109979190610da9565b60405180910390a36001905092915050565b5f8054905090565b5f60025f8473ffffffffffffffffffffffffffffffffffffffff1673ffffffffffffffffffffffffffffffffffffffff1681526020019081526020015f205f8373ffffffffffffffffffffffffffffffffffffffff1673ffffffffffffffffffffffffffffffffffffffff1681526020019081526020015f2054905092915050565b6001602052805f5260405f205f915090505481565b8060015f8473ffffffffffffffffffffffffffffffffffffffff1673ffffffffffffffffffffffffffffffffffffffff1681526020019081526020015f205f828254610a949190610f94565b92505081905550805f80828254610aab9190610f94565b925050819055508173ffffffffffffffffffffffffffffffffffffffff165f73ffffffffffffffffffffffffffffffffffffffff167fddf252ad1be2c89b69c2b068fc378daa952ba7f163c4a11628f55a4df523b3ef83604051610b0f9190610da9565b60405180910390a35050565b8060015f8473ffffffffffffffffffffffffffffffffffffffff1673ffffffffffffffffffffffffffffffffffffffff1681526020019081526020015f205f828254610b679190610f61565b92505081905550805f80828254610b7e9190610f61565b925050819055505f73ffffffffffffffffffffffffffffffffffffffff168273ffffffffffffffffffffffffffffffffffffffff167fddf252ad1be2c89b69c2b068fc378daa952ba7f163c4a11628f55a4df523b3ef83604051610be29190610da9565b60405180910390a35050565b5f81519050919050565b5f82825260208201905092915050565b5f5b83811015610c25578082015181840152602081019050610c0a565b5f8484015250505050565b5f601f19601f8301169050919050565b5f610c4a82610bee565b610c548185610bf8565b9350610c64818560208601610c08565b610c6d81610c30565b840191505092915050565b5f6020820190508181035f830152610c908184610c40565b905092915050565b5f80fd5b5f73ffffffffffffffffffffffffffffffffffffffff82169050919050565b5f610cc582610c9c565b9050919050565b610cd581610cbb565b8114610cdf575f80fd5b50565b5f81359050610cf081610ccc565b92915050565b5f819050919050565b610d0881610cf6565b8114610d12575f80fd5b50565b5f81359050610d2381610cff565b92915050565b5f8060408385031215610d3f57610d3e610c98565b5b5f610d4c85828601610ce2565b9250506020610d5d85828601610d15565b9150509250929050565b5f8115159050919050565b610d7b81610d67565b82525050565b5f602082019050610d945f830184610d72565b92915050565b610da381610cf6565b82525050565b5f602082019050610dbc5f830184610d9a565b92915050565b5f805f60608486031215610dd957610dd8610c98565b5b5f610de686828701610ce2565b9350506020610df786828701610ce2565b9250506040610e0886828701610d15565b9150509250925092565b5f8060408385031215610e2857610e27610c98565b5b5f610e3585828601610ce2565b9250506020610e4685828601610ce2565b9150509250929050565b5f60ff82169050919050565b610e6581610e50565b82525050565b5f602082019050610e7e5f830184610e5c565b92915050565b610e8d81610cbb565b82525050565b5f602082019050610ea65f830184610e84565b92915050565b5f60208284031215610ec157610ec0610c98565b5b5f610ece84828501610ce2565b91505092915050565b7f4e487b71000000000000000000000000000000000000000000000000000000005f52602260045260245ffd5b5f6002820490506001821680610f1b57607f821691505b602082108103610f2e57610f2d610ed7565b5b50919050565b7f4e487b71000000000000000000000000000000000000000000000000000000005f52601160045260245ffd5b5f610f6b82610cf6565b9150610f7683610cf6565b9250828203905081811115610f8e57610f8d610f34565b5b92915050565b5f610f9e82610cf6565b9150610fa983610cf6565b9250828201905080821115610fc157610fc0610f34565b5b9291505056fea264697066735822122066652f3d1fc5291879eca5da620026888c44aab6514abbe7ffd787643372864964736f6c63430008140033",
					"opcodes": "PUSH1 0x80 PUSH1 0x40 MSTORE PUSH1 0x12 PUSH1 0x5 PUSH0 PUSH2 0x100 EXP DUP2 SLOAD DUP2 PUSH1 0xFF MUL NOT AND SWAP1 DUP4 PUSH1 0xFF AND MUL OR SWAP1 SSTORE POP CALLVALUE DUP1 ISZERO PUSH3 0x2B JUMPI PUSH0 DUP1 REVERT JUMPDEST POP PUSH1 0x40 MLOAD PUSH3 0x15F5 CODESIZE SUB DUP1 PUSH3 0x15F5 DUP4 CODECOPY DUP2 DUP2 ADD PUSH1 0x40 MSTORE DUP2 ADD SWAP1 PUSH3 0x51 SWAP2 SWAP1 PUSH3 0x241 JUMP JUMPDEST DUP3 PUSH1 0x3 SWAP1 DUP2 PUSH3 0x62 SWAP2 SWAP1 PUSH3 0x506 JUMP JUMPDEST POP DUP2 PUSH1 0x4 SWAP1 DUP2 PUSH3 0x74 SWAP2 SWAP1 PUSH3 0x506 JUMP JUMPDEST POP DUP1 PUSH0 DUP2 SWAP1 SSTORE POP POP POP POP PUSH3 0x5EA JUMP JUMPDEST PUSH0 PUSH1 0x40 MLOAD SWAP1 POP SWAP1 JUMP JUMPDEST PUSH0 DUP1 REVERT JUMPDEST PUSH0 DUP1 REVERT JUMPDEST PUSH0 DUP1 REVERT JUMPDEST PUSH0 DUP1 REVERT JUMPDEST PUSH0 PUSH1 0x1F NOT PUSH1 0x1F DUP4 ADD AND SWAP1 POP SWAP2 SWAP1 POP JUMP JUMPDEST PUSH32 0x4E487B7100000000000000000000000000000000000000000000000000000000 PUSH0 MSTORE PUSH1 0x41 PUSH1 0x4 MSTORE PUSH1 0x24 PUSH0 REVERT JUMPDEST PUSH3 0xE5 DUP3 PUSH3 0x9D JUMP JUMPDEST DUP2 ADD DUP2 DUP2 LT PUSH8 0xFFFFFFFFFFFFFFFF DUP3 GT OR ISZERO PUSH3 0x107 JUMPI PUSH3 0x106 PUSH3 0xAD JUMP JUMPDEST JUMPDEST DUP1 PUSH1 0x40 MSTORE POP POP POP JUMP JUMPDEST PUSH0 PUSH3 0x11B PUSH3 0x84 JUMP JUMPDEST SWAP1 POP PUSH3 0x129 DUP3 DUP3 PUSH3 0xDA JUMP JUMPDEST SWAP2 SWAP1 POP JUMP JUMPDEST PUSH0 PUSH8 0xFFFFFFFFFFFFFFFF DUP3 GT ISZERO PUSH3 0x14B JUMPI PUSH3 0x14A PUSH3 0xAD JUMP JUMPDEST JUMPDEST PUSH3 0x156 DUP3 PUSH3 0x9D JUMP JUMPDEST SWAP1 POP PUSH1 0x20 DUP2 ADD SWAP1 POP SWAP2 SWAP1 POP JUMP JUMPDEST PUSH0 JUMPDEST DUP4 DUP2 LT ISZERO PUSH3 0x182 JUMPI DUP1 DUP3 ADD MLOAD DUP2 DUP5 ADD MSTORE PUSH1 0x20 DUP2 ADD SWAP1 POP PUSH3 0x165 JUMP JUMPDEST PUSH0 DUP5 DUP5 ADD MSTORE POP POP POP POP JUMP JUMPDEST PUSH0 PUSH3 0x1A3 PUSH3 0x19D DUP5 PUSH3 0x12E JUMP JUMPDEST PUSH3 0x110 JUMP JUMPDEST SWAP1 POP DUP3 DUP2 MSTORE PUSH1 0x20 DUP2 ADD DUP5 DUP5 DUP5 ADD GT ISZERO PUSH3 0x1C2 JUMPI PUSH3 0x1C1 PUSH3 0x99 JUMP JUMPDEST JUMPDEST PUSH3 0x1CF DUP5 DUP3 DUP6 PUSH3 0x163 JUMP JUMPDEST POP SWAP4 SWAP3 POP POP POP JUMP JUMPDEST PUSH0 DUP3 PUSH1 0x1F DUP4 ADD SLT PUSH3 0x1EE JUMPI PUSH3 0x1ED PUSH3 0x95 JUMP JUMPDEST JUMPDEST DUP2 MLOAD PUSH3 0x200 DUP5 DUP3 PUSH1 0x20 DUP7 ADD PUSH3 0x18D JUMP JUMPDEST SWAP2 POP POP SWAP3 SWAP2 POP POP JUMP JUMPDEST PUSH0 DUP2 SWAP1 POP SWAP2 SWAP1 POP JUMP JUMPDEST PUSH3 0x21D DUP2 PUSH3 0x209 JUMP JUMPDEST DUP2 EQ PUSH3 0x228 JUMPI PUSH0 DUP1 REVERT JUMPDEST POP JUMP JUMPDEST PUSH0 DUP2 MLOAD SWAP1 POP PUSH3 0x23B DUP2 PUSH3 0x212 JUMP JUMPDEST SWAP3 SWAP2 POP POP JUMP JUMPDEST PUSH0 DUP1 PUSH0 PUSH1 0x60 DUP5 DUP7 SUB SLT ISZERO PUSH3 0x25B JUMPI PUSH3 0x25A PUSH3 0x8D JUMP JUMPDEST JUMPDEST PUSH0 DUP5 ADD MLOAD PUSH8 0xFFFFFFFFFFFFFFFF DUP2 GT ISZERO PUSH3 0x27B JUMPI PUSH3 0x27A PUSH3 0x91 JUMP JUMPDEST JUMPDEST PUSH3 0x289 DUP7 DUP3 DUP8 ADD PUSH3 0x1D7 JUMP JUMPDEST SWAP4 POP POP PUSH1 0x20 DUP5 ADD MLOAD PUSH8 0xFFFFFFFFFFFFFFFF DUP2 GT ISZERO PUSH3 0x2AD JUMPI PUSH3 0x2AC PUSH3 0x91 JUMP JUMPDEST JUMPDEST PUSH3 0x2BB DUP7 DUP3 DUP8 ADD PUSH3 0x1D7 JUMP JUMPDEST SWAP3 POP POP PUSH1 0x40 PUSH3 0x2CE DUP7 DUP3 DUP8 ADD PUSH3 0x22B JUMP JUMPDEST SWAP2 POP POP SWAP3 POP SWAP3 POP SWAP3 JUMP JUMPDEST PUSH0 DUP2 MLOAD SWAP1 POP SWAP2 SWAP1 POP JUMP JUMPDEST PUSH32 0x4E487B7100000000000000000000000000000000000000000000000000000000 PUSH0 MSTORE PUSH1 0x22 PUSH1 0x4 MSTORE PUSH1 0x24 PUSH0 REVERT JUMPDEST PUSH0 PUSH1 0x2 DUP3 DIV SWAP1 POP PUSH1 0x1 DUP3 AND DUP1 PUSH3 0x327 JUMPI PUSH1 0x7F DUP3 AND SWAP2 POP JUMPDEST PUSH1 0x20 DUP3 LT DUP2 SUB PUSH3 0x33D JUMPI PUSH3 0x33C PUSH3 0x2E2 JUMP JUMPDEST JUMPDEST POP SWAP2 SWAP1 POP JUMP JUMPDEST PUSH0 DUP2 SWAP1 POP DUP2 PUSH0 MSTORE PUSH1 0x20 PUSH0 KECCAK256 SWAP1 POP SWAP2 SWAP1 POP JUMP JUMPDEST PUSH0 PUSH1 0x20 PUSH1 0x1F DUP4 ADD DIV SWAP1 POP SWAP2 SWAP1 POP JUMP JUMPDEST PUSH0 DUP3 DUP3 SHL SWAP1 POP SWAP3 SWAP2 POP POP JUMP JUMPDEST PUSH0 PUSH1 0x8 DUP4 MUL PUSH3 0x3A1 PUSH32 0xFFFFFFFFFFFFFFFFFFFFFFFFFFFFFFFFFFFFFFFFFFFFFFFFFFFFFFFFFFFFFFFF DUP3 PUSH3 0x364 JUMP JUMPDEST PUSH3 0x3AD DUP7 DUP4 PUSH3 0x364 JUMP JUMPDEST SWAP6 POP DUP1 NOT DUP5 AND SWAP4 POP DUP1 DUP7 AND DUP5 OR SWAP3 POP POP POP SWAP4 SWAP3 POP POP POP JUMP JUMPDEST PUSH0 DUP2 SWAP1 POP SWAP2 SWAP1 POP JUMP JUMPDEST PUSH0 PUSH3 0x3EE PUSH3 0x3E8 PUSH3 0x3E2 DUP5 PUSH3 0x209 JUMP JUMPDEST PUSH3 0x3C5 JUMP JUMPDEST PUSH3 0x209 JUMP JUMPDEST SWAP1 POP SWAP2 SWAP1 POP JUMP JUMPDEST PUSH0 DUP2 SWAP1 POP SWAP2 SWAP1 POP JUMP JUMPDEST PUSH3 0x409 DUP4 PUSH3 0x3CE JUMP JUMPDEST PUSH3 0x421 PUSH3 0x418 DUP3 PUSH3 0x3F5 JUMP JUMPDEST DUP5 DUP5 SLOAD PUSH3 0x370 JUMP JUMPDEST DUP3 SSTORE POP POP POP POP JUMP JUMPDEST PUSH0 SWAP1 JUMP JUMPDEST PUSH3 0x437 PUSH3 0x429 JUMP JUMPDEST PUSH3 0x444 DUP2 DUP5 DUP5 PUSH3 0x3FE JUMP JUMPDEST POP POP POP JUMP JUMPDEST JUMPDEST DUP2 DUP2 LT ISZERO PUSH3 0x46B JUMPI PUSH3 0x45F PUSH0 DUP3 PUSH3 0x42D JUMP JUMPDEST PUSH1 0x1 DUP2 ADD SWAP1 POP PUSH3 0x44A JUMP JUMPDEST POP POP JUMP JUMPDEST PUSH1 0x1F DUP3 GT ISZERO PUSH3 0x4BA JUMPI PUSH3 0x484 DUP2 PUSH3 0x343 JUMP JUMPDEST PUSH3 0x48F DUP5 PUSH3 0x355 JUMP JUMPDEST DUP2 ADD PUSH1 0x20 DUP6 LT ISZERO PUSH3 0x49F JUMPI DUP2 SWAP1 POP JUMPDEST PUSH3 0x4B7 PUSH3 0x4AE DUP6 PUSH3 0x355 JUMP JUMPDEST DUP4 ADD DUP3 PUSH3 0x449 JUMP JUMPDEST POP POP JUMPDEST POP POP POP JUMP JUMPDEST PUSH0 DUP3 DUP3 SHR SWAP1 POP SWAP3 SWAP2 POP POP JUMP JUMPDEST PUSH0 PUSH3 0x4DC PUSH0 NOT DUP5 PUSH1 0x8 MUL PUSH3 0x4BF JUMP JUMPDEST NOT DUP1 DUP4 AND SWAP2 POP POP SWAP3 SWAP2 POP POP JUMP JUMPDEST PUSH0 PUSH3 0x4F6 DUP4 DUP4 PUSH3 0x4CB JUMP JUMPDEST SWAP2 POP DUP3 PUSH1 0x2 MUL DUP3 OR SWAP1 POP SWAP3 SWAP2 POP POP JUMP JUMPDEST PUSH3 0x511 DUP3 PUSH3 0x2D8 JUMP JUMPDEST PUSH8 0xFFFFFFFFFFFFFFFF DUP2 GT ISZERO PUSH3 0x52D JUMPI PUSH3 0x52C PUSH3 0xAD JUMP JUMPDEST JUMPDEST PUSH3 0x539 DUP3 SLOAD PUSH3 0x30F JUMP JUMPDEST PUSH3 0x546 DUP3 DUP3 DUP6 PUSH3 0x46F JUMP JUMPDEST PUSH0 PUSH1 0x20 SWAP1 POP PUSH1 0x1F DUP4 GT PUSH1 0x1 DUP2 EQ PUSH3 0x57C JUMPI PUSH0 DUP5 ISZERO PUSH3 0x567 JUMPI DUP3 DUP8 ADD MLOAD SWAP1 POP JUMPDEST PUSH3 0x573 DUP6 DUP3 PUSH3 0x4E9 JUMP JUMPDEST DUP7 SSTORE POP PUSH3 0x5E2 JUMP JUMPDEST PUSH1 0x1F NOT DUP5 AND PUSH3 0x58C DUP7 PUSH3 0x343 JUMP JUMPDEST PUSH0 JUMPDEST DUP3 DUP2 LT ISZERO PUSH3 0x5B5 JUMPI DUP5 DUP10 ADD MLOAD DUP3 SSTORE PUSH1 0x1 DUP3 ADD SWAP2 POP PUSH1 0x20 DUP6 ADD SWAP5 POP PUSH1 0x20 DUP2 ADD SWAP1 POP PUSH3 0x58E JUMP JUMPDEST DUP7 DUP4 LT ISZERO PUSH3 0x5D5 JUMPI DUP5 DUP10 ADD MLOAD PUSH3 0x5D1 PUSH1 0x1F DUP10 AND DUP3 PUSH3 0x4CB JUMP JUMPDEST DUP4 SSTORE POP JUMPDEST PUSH1 0x1 PUSH1 0x2 DUP9 MUL ADD DUP9 SSTORE POP POP POP JUMPDEST POP POP POP POP POP POP JUMP JUMPDEST PUSH2 0xFFD DUP1 PUSH3 0x5F8 PUSH0 CODECOPY PUSH0 RETURN INVALID PUSH1 0x80 PUSH1 0x40 MSTORE CALLVALUE DUP1 ISZERO PUSH2 0xF JUMPI PUSH0 DUP1 REVERT JUMPDEST POP PUSH1 0x4 CALLDATASIZE LT PUSH2 0xF3 JUMPI PUSH0 CALLDATALOAD PUSH1 0xE0 SHR DUP1 PUSH4 0x40C10F19 GT PUSH2 0x95 JUMPI DUP1 PUSH4 0xA9059CBB GT PUSH2 0x64 JUMPI DUP1 PUSH4 0xA9059CBB EQ PUSH2 0x285 JUMPI DUP1 PUSH4 0xC4E41B22 EQ PUSH2 0x2B5 JUMPI DUP1 PUSH4 0xDD62ED3E EQ PUSH2 0x2D3 JUMPI DUP1 PUSH4 0xF6AE79AC EQ PUSH2 0x303 JUMPI PUSH2 0xF3 JUMP JUMPDEST DUP1 PUSH4 0x40C10F19 EQ PUSH2 0x1FF JUMPI DUP1 PUSH4 0x70A08231 EQ PUSH2 0x21B JUMPI DUP1 PUSH4 0x95D89B41 EQ PUSH2 0x24B JUMPI DUP1 PUSH4 0x9DC29FAC EQ PUSH2 0x269 JUMPI PUSH2 0xF3 JUMP JUMPDEST DUP1 PUSH4 0x23B872DD GT PUSH2 0xD1 JUMPI DUP1 PUSH4 0x23B872DD EQ PUSH2 0x163 JUMPI DUP1 PUSH4 0x2BE7C04A EQ PUSH2 0x193 JUMPI DUP1 PUSH4 0x313CE567 EQ PUSH2 0x1C3 JUMPI DUP1 PUSH4 0x38CC4831 EQ PUSH2 0x1E1 JUMPI PUSH2 0xF3 JUMP JUMPDEST DUP1 PUSH4 0x6FDDE03 EQ PUSH2 0xF7 JUMPI DUP1 PUSH4 0x95EA7B3 EQ PUSH2 0x115 JUMPI DUP1 PUSH4 0x18160DDD EQ PUSH2 0x145 JUMPI JUMPDEST PUSH0 DUP1 REVERT JUMPDEST PUSH2 0xFF PUSH2 0x333 JUMP JUMPDEST PUSH1 0x40 MLOAD PUSH2 0x10C SWAP2 SWAP1 PUSH2 0xC78 JUMP JUMPDEST PUSH1 0x40 MLOAD DUP1 SWAP2 SUB SWAP1 RETURN JUMPDEST PUSH2 0x12F PUSH1 0x4 DUP1 CALLDATASIZE SUB DUP2 ADD SWAP1 PUSH2 0x12A SWAP2 SWAP1 PUSH2 0xD29 JUMP JUMPDEST PUSH2 0x3BF JUMP JUMPDEST PUSH1 0x40 MLOAD PUSH2 0x13C SWAP2 SWAP1 PUSH2 0xD81 JUMP JUMPDEST PUSH1 0x40 MLOAD DUP1 SWAP2 SUB SWAP1 RETURN JUMPDEST PUSH2 0x14D PUSH2 0x4AC JUMP JUMPDEST PUSH1 0x40 MLOAD PUSH2 0x15A SWAP2 SWAP1 PUSH2 0xDA9 JUMP JUMPDEST PUSH1 0x40 MLOAD DUP1 SWAP2 SUB SWAP1 RETURN JUMPDEST PUSH2 0x17D PUSH1 0x4 DUP1 CALLDATASIZE SUB DUP2 ADD SWAP1 PUSH2 0x178 SWAP2 SWAP1 PUSH2 0xDC2 JUMP JUMPDEST PUSH2 0x4B1 JUMP JUMPDEST PUSH1 0x40 MLOAD PUSH2 0x18A SWAP2 SWAP1 PUSH2 0xD81 JUMP JUMPDEST PUSH1 0x40 MLOAD DUP1 SWAP2 SUB SWAP1 RETURN JUMPDEST PUSH2 0x1AD PUSH1 0x4 DUP1 CALLDATASIZE SUB DUP2 ADD SWAP1 PUSH2 0x1A8 SWAP2 SWAP1 PUSH2 0xE12 JUMP JUMPDEST PUSH2 0x723 JUMP JUMPDEST PUSH1 0x40 MLOAD PUSH2 0x1BA SWAP2 SWAP1 PUSH2 0xDA9 JUMP JUMPDEST PUSH1 0x40 MLOAD DUP1 SWAP2 SUB SWAP1 RETURN JUMPDEST PUSH2 0x1CB PUSH2 0x743 JUMP JUMPDEST PUSH1 0x40 MLOAD PUSH2 0x1D8 SWAP2 SWAP1 PUSH2 0xE6B JUMP JUMPDEST PUSH1 0x40 MLOAD DUP1 SWAP2 SUB SWAP1 RETURN JUMPDEST PUSH2 0x1E9 PUSH2 0x755 JUMP JUMPDEST PUSH1 0x40 MLOAD PUSH2 0x1F6 SWAP2 SWAP1 PUSH2 0xE93 JUMP JUMPDEST PUSH1 0x40 MLOAD DUP1 SWAP2 SUB SWAP1 RETURN JUMPDEST PUSH2 0x219 PUSH1 0x4 DUP1 CALLDATASIZE SUB DUP2 ADD SWAP1 PUSH2 0x214 SWAP2 SWAP1 PUSH2 0xD29 JUMP JUMPDEST PUSH2 0x75C JUMP JUMPDEST STOP JUMPDEST PUSH2 0x235 PUSH1 0x4 DUP1 CALLDATASIZE SUB DUP2 ADD SWAP1 PUSH2 0x230 SWAP2 SWAP1 PUSH2 0xEAC JUMP JUMPDEST PUSH2 0x76A JUMP JUMPDEST PUSH1 0x40 MLOAD PUSH2 0x242 SWAP2 SWAP1 PUSH2 0xDA9 JUMP JUMPDEST PUSH1 0x40 MLOAD DUP1 SWAP2 SUB SWAP1 RETURN JUMPDEST PUSH2 0x253 PUSH2 0x7B0 JUMP JUMPDEST PUSH1 0x40 MLOAD PUSH2 0x260 SWAP2 SWAP1 PUSH2 0xC78 JUMP JUMPDEST PUSH1 0x40 MLOAD DUP1 SWAP2 SUB SWAP1 RETURN JUMPDEST PUSH2 0x283 PUSH1 0x4 DUP1 CALLDATASIZE SUB DUP2 ADD SWAP1 PUSH2 0x27E SWAP2 SWAP1 PUSH2 0xD29 JUMP JUMPDEST PUSH2 0x83C JUMP JUMPDEST STOP JUMPDEST PUSH2 0x29F PUSH1 0x4 DUP1 CALLDATASIZE SUB DUP2 ADD SWAP1 PUSH2 0x29A SWAP2 SWAP1 PUSH2 0xD29 JUMP JUMPDEST PUSH2 0x84A JUMP JUMPDEST PUSH1 0x40 MLOAD PUSH2 0x2AC SWAP2 SWAP1 PUSH2 0xD81 JUMP JUMPDEST PUSH1 0x40 MLOAD DUP1 SWAP2 SUB SWAP1 RETURN JUMPDEST PUSH2 0x2BD PUSH2 0x9A9 JUMP JUMPDEST PUSH1 0x40 MLOAD PUSH2 0x2CA SWAP2 SWAP1 PUSH2 0xDA9 JUMP JUMPDEST PUSH1 0x40 MLOAD DUP1 SWAP2 SUB SWAP1 RETURN JUMPDEST PUSH2 0x2ED PUSH1 0x4 DUP1 CALLDATASIZE SUB DUP2 ADD SWAP1 PUSH2 0x2E8 SWAP2 SWAP1 PUSH2 0xE12 JUMP JUMPDEST PUSH2 0x9B1 JUMP JUMPDEST PUSH1 0x40 MLOAD PUSH2 0x2FA SWAP2 SWAP1 PUSH2 0xDA9 JUMP JUMPDEST PUSH1 0x40 MLOAD DUP1 SWAP2 SUB SWAP1 RETURN JUMPDEST PUSH2 0x31D PUSH1 0x4 DUP1 CALLDATASIZE SUB DUP2 ADD SWAP1 PUSH2 0x318 SWAP2 SWAP1 PUSH2 0xEAC JUMP JUMPDEST PUSH2 0xA33 JUMP JUMPDEST PUSH1 0x40 MLOAD PUSH2 0x32A SWAP2 SWAP1 PUSH2 0xDA9 JUMP JUMPDEST PUSH1 0x40 MLOAD DUP1 SWAP2 SUB SWAP1 RETURN JUMPDEST PUSH1 0x3 DUP1 SLOAD PUSH2 0x340 SWAP1 PUSH2 0xF04 JUMP JUMPDEST DUP1 PUSH1 0x1F ADD PUSH1 0x20 DUP1 SWAP2 DIV MUL PUSH1 0x20 ADD PUSH1 0x40 MLOAD SWAP1 DUP2 ADD PUSH1 0x40 MSTORE DUP1 SWAP3 SWAP2 SWAP1 DUP2 DUP2 MSTORE PUSH1 0x20 ADD DUP3 DUP1 SLOAD PUSH2 0x36C SWAP1 PUSH2 0xF04 JUMP JUMPDEST DUP1 ISZERO PUSH2 0x3B7 JUMPI DUP1 PUSH1 0x1F LT PUSH2 0x38E JUMPI PUSH2 0x100 DUP1 DUP4 SLOAD DIV MUL DUP4 MSTORE SWAP2 PUSH1 0x20 ADD SWAP2 PUSH2 0x3B7 JUMP JUMPDEST DUP3 ADD SWAP2 SWAP1 PUSH0 MSTORE PUSH1 0x20 PUSH0 KECCAK256 SWAP1 JUMPDEST DUP2 SLOAD DUP2 MSTORE SWAP1 PUSH1 0x1 ADD SWAP1 PUSH1 0x20 ADD DUP1 DUP4 GT PUSH2 0x39A JUMPI DUP3 SWAP1 SUB PUSH1 0x1F AND DUP3 ADD SWAP2 JUMPDEST POP POP POP POP POP DUP2 JUMP JUMPDEST PUSH0 DUP2 PUSH1 0x2 PUSH0 CALLER PUSH20 0xFFFFFFFFFFFFFFFFFFFFFFFFFFFFFFFFFFFFFFFF AND PUSH20 0xFFFFFFFFFFFFFFFFFFFFFFFFFFFFFFFFFFFFFFFF AND DUP2 MSTORE PUSH1 0x20 ADD SWAP1 DUP2 MSTORE PUSH1 0x20 ADD PUSH0 KECCAK256 PUSH0 DUP6 PUSH20 0xFFFFFFFFFFFFFFFFFFFFFFFFFFFFFFFFFFFFFFFF AND PUSH20 0xFFFFFFFFFFFFFFFFFFFFFFFFFFFFFFFFFFFFFFFF AND DUP2 MSTORE PUSH1 0x20 ADD SWAP1 DUP2 MSTORE PUSH1 0x20 ADD PUSH0 KECCAK256 DUP2 SWAP1 SSTORE POP DUP3 PUSH20 0xFFFFFFFFFFFFFFFFFFFFFFFFFFFFFFFFFFFFFFFF AND CALLER PUSH20 0xFFFFFFFFFFFFFFFFFFFFFFFFFFFFFFFFFFFFFFFF AND PUSH32 0x8C5BE1E5EBEC7D5BD14F71427D1E84F3DD0314C0F7B2291E5B200AC8C7C3B925 DUP5 PUSH1 0x40 MLOAD PUSH2 0x49A SWAP2 SWAP1 PUSH2 0xDA9 JUMP JUMPDEST PUSH1 0x40 MLOAD DUP1 SWAP2 SUB SWAP1 LOG3 PUSH1 0x1 SWAP1 POP SWAP3 SWAP2 POP POP JUMP JUMPDEST PUSH0 SLOAD DUP2 JUMP JUMPDEST PUSH0 PUSH1 0x1 PUSH0 DUP6 PUSH20 0xFFFFFFFFFFFFFFFFFFFFFFFFFFFFFFFFFFFFFFFF AND PUSH20 0xFFFFFFFFFFFFFFFFFFFFFFFFFFFFFFFFFFFFFFFF AND DUP2 MSTORE PUSH1 0x20 ADD SWAP1 DUP2 MSTORE PUSH1 0x20 ADD PUSH0 KECCAK256 SLOAD DUP3 GT ISZERO PUSH2 0x4FB JUMPI PUSH0 DUP1 REVERT JUMPDEST PUSH1 0x2 PUSH0 DUP6 PUSH20 0xFFFFFFFFFFFFFFFFFFFFFFFFFFFFFFFFFFFFFFFF AND PUSH20 0xFFFFFFFFFFFFFFFFFFFFFFFFFFFFFFFFFFFFFFFF AND DUP2 MSTORE PUSH1 0x20 ADD SWAP1 DUP2 MSTORE PUSH1 0x20 ADD PUSH0 KECCAK256 PUSH0 CALLER PUSH20 0xFFFFFFFFFFFFFFFFFFFFFFFFFFFFFFFFFFFFFFFF AND PUSH20 0xFFFFFFFFFFFFFFFFFFFFFFFFFFFFFFFFFFFFFFFF AND DUP2 MSTORE PUSH1 0x20 ADD SWAP1 DUP2 MSTORE PUSH1 0x20 ADD PUSH0 KECCAK256 SLOAD DUP3 GT ISZERO PUSH2 0x57F JUMPI PUSH0 DUP1 REVERT JUMPDEST DUP2 PUSH1 0x2 PUSH0 DUP7 PUSH20 0xFFFFFFFFFFFFFFFFFFFFFFFFFFFFFFFFFFFFFFFF AND PUSH20 0xFFFFFFFFFFFFFFFFFFFFFFFFFFFFFFFFFFFFFFFF AND DUP2 MSTORE PUSH1 0x20 ADD SWAP1 DUP2 MSTORE PUSH1 0x20 ADD PUSH0 KECCAK256 PUSH0 CALLER PUSH20 0xFFFFFFFFFFFFFFFFFFFFFFFFFFFFFFFFFFFFFFFF AND PUSH20 0xFFFFFFFFFFFFFFFFFFFFFFFFFFFFFFFFFFFFFFFF AND DUP2 MSTORE PUSH1 0x20 ADD SWAP1 DUP2 MSTORE PUSH1 0x20 ADD PUSH0 KECCAK256 PUSH0 DUP3 DUP3 SLOAD PUSH2 0x606 SWAP2 SWAP1 PUSH2 0xF61 JUMP JUMPDEST SWAP3 POP POP DUP2 SWAP1 SSTORE POP DUP2 PUSH1 0x1 PUSH0 DUP7 PUSH20 0xFFFFFFFFFFFFFFFFFFFFFFFFFFFFFFFFFFFFFFFF AND PUSH20 0xFFFFFFFFFFFFFFFFFFFFFFFFFFFFFFFFFFFFFFFF AND DUP2 MSTORE PUSH1 0x20 ADD SWAP1 DUP2 MSTORE PUSH1 0x20 ADD PUSH0 KECCAK256 PUSH0 DUP3 DUP3 SLOAD PUSH2 0x659 SWAP2 SWAP1 PUSH2 0xF61 JUMP JUMPDEST SWAP3 POP POP DUP2 SWAP1 SSTORE POP DUP2 PUSH1 0x1 PUSH0 DUP6 PUSH20 0xFFFFFFFFFFFFFFFFFFFFFFFFFFFFFFFFFFFFFFFF AND PUSH20 0xFFFFFFFFFFFFFFFFFFFFFFFFFFFFFFFFFFFFFFFF AND DUP2 MSTORE PUSH1 0x20 ADD SWAP1 DUP2 MSTORE PUSH1 0x20 ADD PUSH0 KECCAK256 PUSH0 DUP3 DUP3 SLOAD PUSH2 0x6AC SWAP2 SWAP1 PUSH2 0xF94 JUMP JUMPDEST SWAP3 POP POP DUP2 SWAP1 SSTORE POP DUP3 PUSH20 0xFFFFFFFFFFFFFFFFFFFFFFFFFFFFFFFFFFFFFFFF AND DUP5 PUSH20 0xFFFFFFFFFFFFFFFFFFFFFFFFFFFFFFFFFFFFFFFF AND PUSH32 0xDDF252AD1BE2C89B69C2B068FC378DAA952BA7F163C4A11628F55A4DF523B3EF DUP5 PUSH1 0x40 MLOAD PUSH2 0x710 SWAP2 SWAP1 PUSH2 0xDA9 JUMP JUMPDEST PUSH1 0x40 MLOAD DUP1 SWAP2 SUB SWAP1 LOG3 PUSH1 0x1 SWAP1 POP SWAP4 SWAP3 POP POP POP JUMP JUMPDEST PUSH1 0x2 PUSH1 0x20 MSTORE DUP2 PUSH0 MSTORE PUSH1 0x40 PUSH0 KECCAK256 PUSH1 0x20 MSTORE DUP1 PUSH0 MSTORE PUSH1 0x40 PUSH0 KECCAK256 PUSH0 SWAP2 POP SWAP2 POP POP SLOAD DUP2 JUMP JUMPDEST PUSH1 0x5 PUSH0 SWAP1 SLOAD SWAP1 PUSH2 0x100 EXP SWAP1 DIV PUSH1 0xFF AND DUP2 JUMP JUMPDEST PUSH0 ADDRESS SWAP1 POP SWAP1 JUMP JUMPDEST PUSH2 0x766 DUP3 DUP3 PUSH2 0xA48 JUMP JUMPDEST POP POP JUMP JUMPDEST PUSH0 PUSH1 0x1 PUSH0 DUP4 PUSH20 0xFFFFFFFFFFFFFFFFFFFFFFFFFFFFFFFFFFFFFFFF AND PUSH20 0xFFFFFFFFFFFFFFFFFFFFFFFFFFFFFFFFFFFFFFFF AND DUP2 MSTORE PUSH1 0x20 ADD SWAP1 DUP2 MSTORE PUSH1 0x20 ADD PUSH0 KECCAK256 SLOAD SWAP1 POP SWAP2 SWAP1 POP JUMP JUMPDEST PUSH1 0x4 DUP1 SLOAD PUSH2 0x7BD SWAP1 PUSH2 0xF04 JUMP JUMPDEST DUP1 PUSH1 0x1F ADD PUSH1 0x20 DUP1 SWAP2 DIV MUL PUSH1 0x20 ADD PUSH1 0x40 MLOAD SWAP1 DUP2 ADD PUSH1 0x40 MSTORE DUP1 SWAP3 SWAP2 SWAP1 DUP2 DUP2 MSTORE PUSH1 0x20 ADD DUP3 DUP1 SLOAD PUSH2 0x7E9 SWAP1 PUSH2 0xF04 JUMP JUMPDEST DUP1 ISZERO PUSH2 0x834 JUMPI DUP1 PUSH1 0x1F LT PUSH2 0x80B JUMPI PUSH2 0x100 DUP1 DUP4 SLOAD DIV MUL DUP4 MSTORE SWAP2 PUSH1 0x20 ADD SWAP2 PUSH2 0x834 JUMP JUMPDEST DUP3 ADD SWAP2 SWAP1 PUSH0 MSTORE PUSH1 0x20 PUSH0 KECCAK256 SWAP1 JUMPDEST DUP2 SLOAD DUP2 MSTORE SWAP1 PUSH1 0x1 ADD SWAP1 PUSH1 0x20 ADD DUP1 DUP4 GT PUSH2 0x817 JUMPI DUP3 SWAP1 SUB PUSH1 0x1F AND DUP3 ADD SWAP2 JUMPDEST POP POP POP POP POP DUP2 JUMP JUMPDEST PUSH2 0x846 DUP3 DUP3 PUSH2 0xB1B JUMP JUMPDEST POP POP JUMP JUMPDEST PUSH0 PUSH1 0x1 PUSH0 CALLER PUSH20 0xFFFFFFFFFFFFFFFFFFFFFFFFFFFFFFFFFFFFFFFF AND PUSH20 0xFFFFFFFFFFFFFFFFFFFFFFFFFFFFFFFFFFFFFFFF AND DUP2 MSTORE PUSH1 0x20 ADD SWAP1 DUP2 MSTORE PUSH1 0x20 ADD PUSH0 KECCAK256 SLOAD DUP3 GT ISZERO PUSH2 0x894 JUMPI PUSH0 DUP1 REVERT JUMPDEST DUP2 PUSH1 0x1 PUSH0 CALLER PUSH20 0xFFFFFFFFFFFFFFFFFFFFFFFFFFFFFFFFFFFFFFFF AND PUSH20 0xFFFFFFFFFFFFFFFFFFFFFFFFFFFFFFFFFFFFFFFF AND DUP2 MSTORE PUSH1 0x20 ADD SWAP1 DUP2 MSTORE PUSH1 0x20 ADD PUSH0 KECCAK256 PUSH0 DUP3 DUP3 SLOAD PUSH2 0x8E0 SWAP2 SWAP1 PUSH2 0xF61 JUMP JUMPDEST SWAP3 POP POP DUP2 SWAP1 SSTORE POP DUP2 PUSH1 0x1 PUSH0 DUP6 PUSH20 0xFFFFFFFFFFFFFFFFFFFFFFFFFFFFFFFFFFFFFFFF AND PUSH20 0xFFFFFFFFFFFFFFFFFFFFFFFFFFFFFFFFFFFFFFFF AND DUP2 MSTORE PUSH1 0x20 ADD SWAP1 DUP2 MSTORE PUSH1 0x20 ADD PUSH0 KECCAK256 PUSH0 DUP3 DUP3 SLOAD PUSH2 0x933 SWAP2 SWAP1 PUSH2 0xF94 JUMP JUMPDEST SWAP3 POP POP DUP2 SWAP1 SSTORE POP DUP3 PUSH20 0xFFFFFFFFFFFFFFFFFFFFFFFFFFFFFFFFFFFFFFFF AND CALLER PUSH20 0xFFFFFFFFFFFFFFFFFFFFFFFFFFFFFFFFFFFFFFFF AND PUSH32 0xDDF252AD1BE2C89B69C2B068FC378DAA952BA7F163C4A11628F55A4DF523B3EF DUP5 PUSH1 0x40 MLOAD PUSH2 0x997 SWAP2 SWAP1 PUSH2 0xDA9 JUMP JUMPDEST PUSH1 0x40 MLOAD DUP1 SWAP2 SUB SWAP1 LOG3 PUSH1 0x1 SWAP1 POP SWAP3 SWAP2 POP POP JUMP JUMPDEST PUSH0 DUP1 SLOAD SWAP1 POP SWAP1 JUMP JUMPDEST PUSH0 PUSH1 0x2 PUSH0 DUP5 PUSH20 0xFFFFFFFFFFFFFFFFFFFFFFFFFFFFFFFFFFFFFFFF AND PUSH20 0xFFFFFFFFFFFFFFFFFFFFFFFFFFFFFFFFFFFFFFFF AND DUP2 MSTORE PUSH1 0x20 ADD SWAP1 DUP2 MSTORE PUSH1 0x20 ADD PUSH0 KECCAK256 PUSH0 DUP4 PUSH20 0xFFFFFFFFFFFFFFFFFFFFFFFFFFFFFFFFFFFFFFFF AND PUSH20 0xFFFFFFFFFFFFFFFFFFFFFFFFFFFFFFFFFFFFFFFF AND DUP2 MSTORE PUSH1 0x20 ADD SWAP1 DUP2 MSTORE PUSH1 0x20 ADD PUSH0 KECCAK256 SLOAD SWAP1 POP SWAP3 SWAP2 POP POP JUMP JUMPDEST PUSH1 0x1 PUSH1 0x20 MSTORE DUP1 PUSH0 MSTORE PUSH1 0x40 PUSH0 KECCAK256 PUSH0 SWAP2 POP SWAP1 POP SLOAD DUP2 JUMP JUMPDEST DUP1 PUSH1 0x1 PUSH0 DUP5 PUSH20 0xFFFFFFFFFFFFFFFFFFFFFFFFFFFFFFFFFFFFFFFF AND PUSH20 0xFFFFFFFFFFFFFFFFFFFFFFFFFFFFFFFFFFFFFFFF AND DUP2 MSTORE PUSH1 0x20 ADD SWAP1 DUP2 MSTORE PUSH1 0x20 ADD PUSH0 KECCAK256 PUSH0 DUP3 DUP3 SLOAD PUSH2 0xA94 SWAP2 SWAP1 PUSH2 0xF94 JUMP JUMPDEST SWAP3 POP POP DUP2 SWAP1 SSTORE POP DUP1 PUSH0 DUP1 DUP3 DUP3 SLOAD PUSH2 0xAAB SWAP2 SWAP1 PUSH2 0xF94 JUMP JUMPDEST SWAP3 POP POP DUP2 SWAP1 SSTORE POP DUP2 PUSH20 0xFFFFFFFFFFFFFFFFFFFFFFFFFFFFFFFFFFFFFFFF AND PUSH0 PUSH20 0xFFFFFFFFFFFFFFFFFFFFFFFFFFFFFFFFFFFFFFFF AND PUSH32 0xDDF252AD1BE2C89B69C2B068FC378DAA952BA7F163C4A11628F55A4DF523B3EF DUP4 PUSH1 0x40 MLOAD PUSH2 0xB0F SWAP2 SWAP1 PUSH2 0xDA9 JUMP JUMPDEST PUSH1 0x40 MLOAD DUP1 SWAP2 SUB SWAP1 LOG3 POP POP JUMP JUMPDEST DUP1 PUSH1 0x1 PUSH0 DUP5 PUSH20 0xFFFFFFFFFFFFFFFFFFFFFFFFFFFFFFFFFFFFFFFF AND PUSH20 0xFFFFFFFFFFFFFFFFFFFFFFFFFFFFFFFFFFFFFFFF AND DUP2 MSTORE PUSH1 0x20 ADD SWAP1 DUP2 MSTORE PUSH1 0x20 ADD PUSH0 KECCAK256 PUSH0 DUP3 DUP3 SLOAD PUSH2 0xB67 SWAP2 SWAP1 PUSH2 0xF61 JUMP JUMPDEST SWAP3 POP POP DUP2 SWAP1 SSTORE POP DUP1 PUSH0 DUP1 DUP3 DUP3 SLOAD PUSH2 0xB7E SWAP2 SWAP1 PUSH2 0xF61 JUMP JUMPDEST SWAP3 POP POP DUP2 SWAP1 SSTORE POP PUSH0 PUSH20 0xFFFFFFFFFFFFFFFFFFFFFFFFFFFFFFFFFFFFFFFF AND DUP3 PUSH20 0xFFFFFFFFFFFFFFFFFFFFFFFFFFFFFFFFFFFFFFFF AND PUSH32 0xDDF252AD1BE2C89B69C2B068FC378DAA952BA7F163C4A11628F55A4DF523B3EF DUP4 PUSH1 0x40 MLOAD PUSH2 0xBE2 SWAP2 SWAP1 PUSH2 0xDA9 JUMP JUMPDEST PUSH1 0x40 MLOAD DUP1 SWAP2 SUB SWAP1 LOG3 POP POP JUMP JUMPDEST PUSH0 DUP2 MLOAD SWAP1 POP SWAP2 SWAP1 POP JUMP JUMPDEST PUSH0 DUP3 DUP3 MSTORE PUSH1 0x20 DUP3 ADD SWAP1 POP SWAP3 SWAP2 POP POP JUMP JUMPDEST PUSH0 JUMPDEST DUP4 DUP2 LT ISZERO PUSH2 0xC25 JUMPI DUP1 DUP3 ADD MLOAD DUP2 DUP5 ADD MSTORE PUSH1 0x20 DUP2 ADD SWAP1 POP PUSH2 0xC0A JUMP JUMPDEST PUSH0 DUP5 DUP5 ADD MSTORE POP POP POP POP JUMP JUMPDEST PUSH0 PUSH1 0x1F NOT PUSH1 0x1F DUP4 ADD AND SWAP1 POP SWAP2 SWAP1 POP JUMP JUMPDEST PUSH0 PUSH2 0xC4A DUP3 PUSH2 0xBEE JUMP JUMPDEST PUSH2 0xC54 DUP2 DUP6 PUSH2 0xBF8 JUMP JUMPDEST SWAP4 POP PUSH2 0xC64 DUP2 DUP6 PUSH1 0x20 DUP7 ADD PUSH2 0xC08 JUMP JUMPDEST PUSH2 0xC6D DUP2 PUSH2 0xC30 JUMP JUMPDEST DUP5 ADD SWAP2 POP POP SWAP3 SWAP2 POP POP JUMP JUMPDEST PUSH0 PUSH1 0x20 DUP3 ADD SWAP1 POP DUP2 DUP2 SUB PUSH0 DUP4 ADD MSTORE PUSH2 0xC90 DUP2 DUP5 PUSH2 0xC40 JUMP JUMPDEST SWAP1 POP SWAP3 SWAP2 POP POP JUMP JUMPDEST PUSH0 DUP1 REVERT JUMPDEST PUSH0 PUSH20 0xFFFFFFFFFFFFFFFFFFFFFFFFFFFFFFFFFFFFFFFF DUP3 AND SWAP1 POP SWAP2 SWAP1 POP JUMP JUMPDEST PUSH0 PUSH2 0xCC5 DUP3 PUSH2 0xC9C JUMP JUMPDEST SWAP1 POP SWAP2 SWAP1 POP JUMP JUMPDEST PUSH2 0xCD5 DUP2 PUSH2 0xCBB JUMP JUMPDEST DUP2 EQ PUSH2 0xCDF JUMPI PUSH0 DUP1 REVERT JUMPDEST POP JUMP JUMPDEST PUSH0 DUP2 CALLDATALOAD SWAP1 POP PUSH2 0xCF0 DUP2 PUSH2 0xCCC JUMP JUMPDEST SWAP3 SWAP2 POP POP JUMP JUMPDEST PUSH0 DUP2 SWAP1 POP SWAP2 SWAP1 POP JUMP JUMPDEST PUSH2 0xD08 DUP2 PUSH2 0xCF6 JUMP JUMPDEST DUP2 EQ PUSH2 0xD12 JUMPI PUSH0 DUP1 REVERT JUMPDEST POP JUMP JUMPDEST PUSH0 DUP2 CALLDATALOAD SWAP1 POP PUSH2 0xD23 DUP2 PUSH2 0xCFF JUMP JUMPDEST SWAP3 SWAP2 POP POP JUMP JUMPDEST PUSH0 DUP1 PUSH1 0x40 DUP4 DUP6 SUB SLT ISZERO PUSH2 0xD3F JUMPI PUSH2 0xD3E PUSH2 0xC98 JUMP JUMPDEST JUMPDEST PUSH0 PUSH2 0xD4C DUP6 DUP3 DUP7 ADD PUSH2 0xCE2 JUMP JUMPDEST SWAP3 POP POP PUSH1 0x20 PUSH2 0xD5D DUP6 DUP3 DUP7 ADD PUSH2 0xD15 JUMP JUMPDEST SWAP2 POP POP SWAP3 POP SWAP3 SWAP1 POP JUMP JUMPDEST PUSH0 DUP2 ISZERO ISZERO SWAP1 POP SWAP2 SWAP1 POP JUMP JUMPDEST PUSH2 0xD7B DUP2 PUSH2 0xD67 JUMP JUMPDEST DUP3 MSTORE POP POP JUMP JUMPDEST PUSH0 PUSH1 0x20 DUP3 ADD SWAP1 POP PUSH2 0xD94 PUSH0 DUP4 ADD DUP5 PUSH2 0xD72 JUMP JUMPDEST SWAP3 SWAP2 POP POP JUMP JUMPDEST PUSH2 0xDA3 DUP2 PUSH2 0xCF6 JUMP JUMPDEST DUP3 MSTORE POP POP JUMP JUMPDEST PUSH0 PUSH1 0x20 DUP3 ADD SWAP1 POP PUSH2 0xDBC PUSH0 DUP4 ADD DUP5 PUSH2 0xD9A JUMP JUMPDEST SWAP3 SWAP2 POP POP JUMP JUMPDEST PUSH0 DUP1 PUSH0 PUSH1 0x60 DUP5 DUP7 SUB SLT ISZERO PUSH2 0xDD9 JUMPI PUSH2 0xDD8 PUSH2 0xC98 JUMP JUMPDEST JUMPDEST PUSH0 PUSH2 0xDE6 DUP7 DUP3 DUP8 ADD PUSH2 0xCE2 JUMP JUMPDEST SWAP4 POP POP PUSH1 0x20 PUSH2 0xDF7 DUP7 DUP3 DUP8 ADD PUSH2 0xCE2 JUMP JUMPDEST SWAP3 POP POP PUSH1 0x40 PUSH2 0xE08 DUP7 DUP3 DUP8 ADD PUSH2 0xD15 JUMP JUMPDEST SWAP2 POP POP SWAP3 POP SWAP3 POP SWAP3 JUMP JUMPDEST PUSH0 DUP1 PUSH1 0x40 DUP4 DUP6 SUB SLT ISZERO PUSH2 0xE28 JUMPI PUSH2 0xE27 PUSH2 0xC98 JUMP JUMPDEST JUMPDEST PUSH0 PUSH2 0xE35 DUP6 DUP3 DUP7 ADD PUSH2 0xCE2 JUMP JUMPDEST SWAP3 POP POP PUSH1 0x20 PUSH2 0xE46 DUP6 DUP3 DUP7 ADD PUSH2 0xCE2 JUMP JUMPDEST SWAP2 POP POP SWAP3 POP SWAP3 SWAP1 POP JUMP JUMPDEST PUSH0 PUSH1 0xFF DUP3 AND SWAP1 POP SWAP2 SWAP1 POP JUMP JUMPDEST PUSH2 0xE65 DUP2 PUSH2 0xE50 JUMP JUMPDEST DUP3 MSTORE POP POP JUMP JUMPDEST PUSH0 PUSH1 0x20 DUP3 ADD SWAP1 POP PUSH2 0xE7E PUSH0 DUP4 ADD DUP5 PUSH2 0xE5C JUMP JUMPDEST SWAP3 SWAP2 POP POP JUMP JUMPDEST PUSH2 0xE8D DUP2 PUSH2 0xCBB JUMP JUMPDEST DUP3 MSTORE POP POP JUMP JUMPDEST PUSH0 PUSH1 0x20 DUP3 ADD SWAP1 POP PUSH2 0xEA6 PUSH0 DUP4 ADD DUP5 PUSH2 0xE84 JUMP JUMPDEST SWAP3 SWAP2 POP POP JUMP JUMPDEST PUSH0 PUSH1 0x20 DUP3 DUP5 SUB SLT ISZERO PUSH2 0xEC1 JUMPI PUSH2 0xEC0 PUSH2 0xC98 JUMP JUMPDEST JUMPDEST PUSH0 PUSH2 0xECE DUP5 DUP3 DUP6 ADD PUSH2 0xCE2 JUMP JUMPDEST SWAP2 POP POP SWAP3 SWAP2 POP POP JUMP JUMPDEST PUSH32 0x4E487B7100000000000000000000000000000000000000000000000000000000 PUSH0 MSTORE PUSH1 0x22 PUSH1 0x4 MSTORE PUSH1 0x24 PUSH0 REVERT JUMPDEST PUSH0 PUSH1 0x2 DUP3 DIV SWAP1 POP PUSH1 0x1 DUP3 AND DUP1 PUSH2 0xF1B JUMPI PUSH1 0x7F DUP3 AND SWAP2 POP JUMPDEST PUSH1 0x20 DUP3 LT DUP2 SUB PUSH2 0xF2E JUMPI PUSH2 0xF2D PUSH2 0xED7 JUMP JUMPDEST JUMPDEST POP SWAP2 SWAP1 POP JUMP JUMPDEST PUSH32 0x4E487B7100000000000000000000000000000000000000000000000000000000 PUSH0 MSTORE PUSH1 0x11 PUSH1 0x4 MSTORE PUSH1 0x24 PUSH0 REVERT JUMPDEST PUSH0 PUSH2 0xF6B DUP3 PUSH2 0xCF6 JUMP JUMPDEST SWAP2 POP PUSH2 0xF76 DUP4 PUSH2 0xCF6 JUMP JUMPDEST SWAP3 POP DUP3 DUP3 SUB SWAP1 POP DUP2 DUP2 GT ISZERO PUSH2 0xF8E JUMPI PUSH2 0xF8D PUSH2 0xF34 JUMP JUMPDEST JUMPDEST SWAP3 SWAP2 POP POP JUMP JUMPDEST PUSH0 PUSH2 0xF9E DUP3 PUSH2 0xCF6 JUMP JUMPDEST SWAP2 POP PUSH2 0xFA9 DUP4 PUSH2 0xCF6 JUMP JUMPDEST SWAP3 POP DUP3 DUP3 ADD SWAP1 POP DUP1 DUP3 GT ISZERO PUSH2 0xFC1 JUMPI PUSH2 0xFC0 PUSH2 0xF34 JUMP JUMPDEST JUMPDEST SWAP3 SWAP2 POP POP JUMP INVALID LOG2 PUSH5 0x6970667358 0x22 SLT KECCAK256 PUSH7 0x652F3D1FC52918 PUSH26 0xECA5DA620026888C44AAB6514ABBE7FFD787643372864964736F PUSH13 0x63430008140033000000000000 "
				},
				"gasEstimates": {
					"creation": {
						"codeDepositCost": "818600",
						"executionCost": "infinite",
						"totalCost": "infinite"
					},
					"external": {
						"accAllowance(address,address)": "infinite",
						"accBalance(address)": "2890",
						"allowance(address,address)": "infinite",
						"approve(address,uint256)": "infinite",
						"balanceOf(address)": "2874",
						"burn(address,uint256)": "infinite",
						"decimals()": "2533",
						"getAddress()": "468",
						"getTotalSupply()": "2476",
						"mint(address,uint256)": "infinite",
						"name()": "infinite",
						"symbol()": "infinite",
						"totalSupply()": "2492",
						"transfer(address,uint256)": "infinite",
						"transferFrom(address,address,uint256)": "infinite"
					},
					"internal": {
						"_burn(address,uint256)": "infinite",
						"_mint(address,uint256)": "infinite"
					}
				},
				"methodIdentifiers": {
					"accAllowance(address,address)": "2be7c04a",
					"accBalance(address)": "f6ae79ac",
					"allowance(address,address)": "dd62ed3e",
					"approve(address,uint256)": "095ea7b3",
					"balanceOf(address)": "70a08231",
					"burn(address,uint256)": "9dc29fac",
					"decimals()": "313ce567",
					"getAddress()": "38cc4831",
					"getTotalSupply()": "c4e41b22",
					"mint(address,uint256)": "40c10f19",
					"name()": "06fdde03",
					"symbol()": "95d89b41",
					"totalSupply()": "18160ddd",
					"transfer(address,uint256)": "a9059cbb",
					"transferFrom(address,address,uint256)": "23b872dd"
				}
			},
			"storageLayout": {
				"storage": [
					{
						"astId": 72,
						"contract": "contracts/DexToken.sol:ERC20",
						"label": "totalSupply",
						"offset": 0,
						"slot": "0",
						"type": "t_uint256"
					},
					{
						"astId": 76,
						"contract": "contracts/DexToken.sol:ERC20",
						"label": "accBalance",
						"offset": 0,
						"slot": "1",
						"type": "t_mapping(t_address,t_uint256)"
					},
					{
						"astId": 82,
						"contract": "contracts/DexToken.sol:ERC20",
						"label": "accAllowance",
						"offset": 0,
						"slot": "2",
						"type": "t_mapping(t_address,t_mapping(t_address,t_uint256))"
					},
					{
						"astId": 84,
						"contract": "contracts/DexToken.sol:ERC20",
						"label": "name",
						"offset": 0,
						"slot": "3",
						"type": "t_string_storage"
					},
					{
						"astId": 86,
						"contract": "contracts/DexToken.sol:ERC20",
						"label": "symbol",
						"offset": 0,
						"slot": "4",
						"type": "t_string_storage"
					},
					{
						"astId": 89,
						"contract": "contracts/DexToken.sol:ERC20",
						"label": "decimals",
						"offset": 0,
						"slot": "5",
						"type": "t_uint8"
					}
				],
				"types": {
					"t_address": {
						"encoding": "inplace",
						"label": "address",
						"numberOfBytes": "20"
					},
					"t_mapping(t_address,t_mapping(t_address,t_uint256))": {
						"encoding": "mapping",
						"key": "t_address",
						"label": "mapping(address => mapping(address => uint256))",
						"numberOfBytes": "32",
						"value": "t_mapping(t_address,t_uint256)"
					},
					"t_mapping(t_address,t_uint256)": {
						"encoding": "mapping",
						"key": "t_address",
						"label": "mapping(address => uint256)",
						"numberOfBytes": "32",
						"value": "t_uint256"
					},
					"t_string_storage": {
						"encoding": "bytes",
						"label": "string",
						"numberOfBytes": "32"
					},
					"t_uint256": {
						"encoding": "inplace",
						"label": "uint256",
						"numberOfBytes": "32"
					},
					"t_uint8": {
						"encoding": "inplace",
						"label": "uint8",
						"numberOfBytes": "1"
					}
				}
			},
			"userdoc": {
				"kind": "user",
				"methods": {},
				"version": 1
			}
		}
	}
}